{
  "_format": "hh-sol-artifact-1",
  "contractName": "XContract",
  "sourceName": "contracts/XContract.sol",
  "abi": [
    {
      "inputs": [],
      "stateMutability": "nonpayable",
      "type": "constructor"
    },
    {
      "anonymous": false,
      "inputs": [
        {
          "indexed": false,
          "internalType": "string",
          "name": "pk",
          "type": "string"
        }
      ],
      "name": "InitBalance",
      "type": "event"
    },
    {
      "anonymous": false,
      "inputs": [
        {
          "indexed": false,
          "internalType": "uint256",
          "name": "id",
          "type": "uint256"
        },
        {
          "indexed": false,
          "internalType": "string",
          "name": "rangeproof1",
          "type": "string"
        },
        {
          "indexed": false,
          "internalType": "string",
          "name": "rangeproof2",
          "type": "string"
        },
        {
          "indexed": false,
          "internalType": "string",
          "name": "sigmaProof",
          "type": "string"
        },
        {
          "indexed": false,
          "internalType": "string",
          "name": "input",
          "type": "string"
        }
      ],
      "name": "NewConfTransfer",
      "type": "event"
    },
    {
      "anonymous": false,
      "inputs": [
        {
          "indexed": false,
          "internalType": "uint256",
          "name": "id",
          "type": "uint256"
        },
        {
          "indexed": false,
          "internalType": "string",
          "name": "proof",
          "type": "string"
        }
      ],
      "name": "NewRequest",
      "type": "event"
    },
    {
      "anonymous": false,
      "inputs": [
        {
          "indexed": false,
          "internalType": "string",
          "name": "newMsg",
          "type": "string"
        }
      ],
      "name": "TestMsg",
      "type": "event"
    },
    {
      "anonymous": false,
      "inputs": [
        {
          "indexed": false,
          "internalType": "address",
          "name": "add",
          "type": "address"
        },
        {
          "indexed": false,
          "internalType": "uint256",
          "name": "balance",
          "type": "uint256"
        }
      ],
      "name": "UpdateState",
      "type": "event"
    },
    {
      "anonymous": false,
      "inputs": [
        {
          "indexed": false,
          "internalType": "uint256",
          "name": "id",
          "type": "uint256"
        },
        {
          "indexed": false,
          "internalType": "string",
          "name": "_price",
          "type": "string"
        },
        {
          "indexed": false,
          "internalType": "string",
          "name": "bidderKey",
          "type": "string"
        }
      ],
      "name": "aNewPrice",
      "type": "event"
    },
    {
      "inputs": [
        {
          "internalType": "string",
          "name": "y",
          "type": "string"
        }
      ],
      "name": "ElBalanceOf",
      "outputs": [
        {
          "components": [
            {
              "internalType": "string",
              "name": "CL",
              "type": "string"
            },
            {
              "internalType": "string",
              "name": "CR",
              "type": "string"
            }
          ],
          "internalType": "struct XContract.ElBalance",
          "name": "",
          "type": "tuple"
        }
      ],
      "stateMutability": "view",
      "type": "function"
    },
    {
      "inputs": [
        {
          "internalType": "string",
          "name": "_price",
          "type": "string"
        },
        {
          "internalType": "uint256",
          "name": "id",
          "type": "uint256"
        }
      ],
      "name": "assignWithAcceptionOfPrice",
      "outputs": [],
      "stateMutability": "nonpayable",
      "type": "function"
    },
    {
      "inputs": [],
      "name": "association",
      "outputs": [
        {
          "internalType": "address",
          "name": "",
          "type": "address"
        }
      ],
      "stateMutability": "view",
      "type": "function"
    },
    {
      "inputs": [
        {
          "internalType": "address[]",
          "name": "newAcc",
          "type": "address[]"
        }
      ],
      "name": "authorizeNewUser",
      "outputs": [],
      "stateMutability": "nonpayable",
      "type": "function"
    },
    {
      "inputs": [],
      "name": "balanceOf",
      "outputs": [
        {
          "components": [
            {
              "internalType": "string",
              "name": "CL",
              "type": "string"
            },
            {
              "internalType": "string",
              "name": "CR",
              "type": "string"
            }
          ],
          "internalType": "struct XContract.ElBalance",
          "name": "",
          "type": "tuple"
        }
      ],
      "stateMutability": "view",
      "type": "function"
    },
    {
      "inputs": [],
      "name": "checkAuthorized",
      "outputs": [
        {
          "internalType": "bool",
          "name": "",
          "type": "bool"
        }
      ],
      "stateMutability": "view",
      "type": "function"
    },
    {
      "inputs": [
        {
          "internalType": "string",
          "name": "proofForAmt",
          "type": "string"
        },
        {
          "internalType": "string",
          "name": "proofForRemainBalance",
          "type": "string"
        },
        {
          "internalType": "string",
          "name": "sigmaProof",
          "type": "string"
        },
        {
          "internalType": "string",
          "name": "input",
          "type": "string"
        }
      ],
      "name": "confTransfer",
      "outputs": [],
      "stateMutability": "nonpayable",
      "type": "function"
    },
    {
      "inputs": [
        {
          "internalType": "uint256",
          "name": "id",
          "type": "uint256"
        },
        {
          "internalType": "bool",
          "name": "res",
          "type": "bool"
        }
      ],
      "name": "confirmProof",
      "outputs": [],
      "stateMutability": "nonpayable",
      "type": "function"
    },
    {
      "inputs": [],
      "name": "fetchPubkey",
      "outputs": [
        {
          "internalType": "string",
          "name": "",
          "type": "string"
        }
      ],
      "stateMutability": "view",
      "type": "function"
    },
    {
      "inputs": [],
      "name": "getTasks",
      "outputs": [
        {
          "components": [
            {
              "internalType": "uint256",
              "name": "id",
              "type": "uint256"
            },
            {
              "internalType": "string",
              "name": "content",
              "type": "string"
            },
            {
              "internalType": "string",
              "name": "pubkeyOfSender",
              "type": "string"
            },
            {
              "internalType": "enum XContract.State",
              "name": "state",
              "type": "uint8"
            }
          ],
          "internalType": "struct XContract.Request[]",
          "name": "",
          "type": "tuple[]"
        }
      ],
      "stateMutability": "view",
      "type": "function"
    },
    {
      "inputs": [],
      "name": "greet",
      "outputs": [
        {
          "internalType": "string",
          "name": "",
          "type": "string"
        }
      ],
      "stateMutability": "view",
      "type": "function"
    },
    {
      "inputs": [],
      "name": "hasPubKey",
      "outputs": [
        {
          "internalType": "bool",
          "name": "",
          "type": "bool"
        }
      ],
      "stateMutability": "view",
      "type": "function"
    },
    {
      "inputs": [
        {
          "internalType": "string",
          "name": "y",
          "type": "string"
        },
        {
          "internalType": "string",
          "name": "cL",
          "type": "string"
        },
        {
          "internalType": "string",
          "name": "cR",
          "type": "string"
        }
      ],
      "name": "initPocket",
      "outputs": [],
      "stateMutability": "nonpayable",
      "type": "function"
    },
    {
      "inputs": [],
      "name": "initialSupply",
      "outputs": [
        {
          "internalType": "uint256",
          "name": "",
          "type": "uint256"
        }
      ],
      "stateMutability": "view",
      "type": "function"
    },
    {
      "inputs": [],
      "name": "name",
      "outputs": [
        {
          "internalType": "string",
          "name": "",
          "type": "string"
        }
      ],
      "stateMutability": "view",
      "type": "function"
    },
    {
      "inputs": [
        {
          "internalType": "string",
          "name": "_task",
          "type": "string"
        }
      ],
      "name": "postTask",
      "outputs": [],
      "stateMutability": "nonpayable",
      "type": "function"
    },
    {
      "inputs": [
        {
          "internalType": "string",
          "name": "_price",
          "type": "string"
        },
        {
          "internalType": "uint256",
          "name": "id",
          "type": "uint256"
        }
      ],
      "name": "raiseAPrice",
      "outputs": [],
      "stateMutability": "nonpayable",
      "type": "function"
    },
    {
      "inputs": [],
      "name": "totalSupply",
      "outputs": [
        {
          "internalType": "uint256",
          "name": "",
          "type": "uint256"
        }
      ],
      "stateMutability": "view",
      "type": "function"
    },
    {
      "inputs": [
        {
          "internalType": "string",
          "name": "y",
          "type": "string"
        },
        {
          "internalType": "string",
          "name": "C1",
          "type": "string"
        },
        {
          "internalType": "string",
          "name": "C2",
          "type": "string"
        },
        {
          "internalType": "string",
          "name": "yr",
          "type": "string"
        },
        {
          "internalType": "string",
          "name": "C3",
          "type": "string"
        },
        {
          "internalType": "string",
          "name": "C4",
          "type": "string"
        }
      ],
      "name": "updateBalance",
      "outputs": [],
      "stateMutability": "nonpayable",
      "type": "function"
    }
  ],
  "bytecode": "0x60806040526040518060400160405280600981526020017f58636f6e747261637400000000000000000000000000000000000000000000008152506000908051906020019062000051929190620002a9565b50620f42406002556127106003556040518060200160405280600081525060049080519060200190620000869291906200033a565b503480156200009457600080fd5b506001600560003373ffffffffffffffffffffffffffffffffffffffff1673ffffffffffffffffffffffffffffffffffffffff16815260200190815260200160002060006101000a81548160ff02191690831515021790555033600960006101000a81548173ffffffffffffffffffffffffffffffffffffffff021916908373ffffffffffffffffffffffffffffffffffffffff1602179055506040518060400160405280600381526020017f3030300000000000000000000000000000000000000000000000000000000000815250600190805190602001906200017b929190620002a9565b50620001c76040518060400160405280601381526020017f4465706c6f79205375636365737366756c6c2000000000000000000000000000815250620001dd60201b62001c381760201c565b6000600b819055506000600c8190555062000517565b6200027d81604051602401620001f491906200042b565b6040516020818303038152906040527f41304fac000000000000000000000000000000000000000000000000000000007bffffffffffffffffffffffffffffffffffffffffffffffffffffffff19166020820180517bffffffffffffffffffffffffffffffffffffffffffffffffffffffff83818316178352505050506200028060201b60201c565b50565b60008151905060006a636f6e736f6c652e6c6f679050602083016000808483855afa5050505050565b828054620002b790620004a1565b90600052602060002090601f016020900481019282620002db576000855562000327565b82601f10620002f657805160ff191683800117855562000327565b8280016001018555821562000327579182015b828111156200032657825182559160200191906001019062000309565b5b509050620003369190620003cb565b5090565b8280546200034890620004a1565b90600052602060002090601f0160209004810192826200036c5760008555620003b8565b82601f106200038757805160ff1916838001178555620003b8565b82800160010185558215620003b8579182015b82811115620003b75782518255916020019190600101906200039a565b5b509050620003c79190620003cb565b5090565b5b80821115620003e6576000816000905550600101620003cc565b5090565b6000620003f7826200044f565b6200040381856200045a565b9350620004158185602086016200046b565b620004208162000506565b840191505092915050565b60006020820190508181036000830152620004478184620003ea565b905092915050565b600081519050919050565b600082825260208201905092915050565b60005b838110156200048b5780820151818401526020810190506200046e565b838111156200049b576000848401525b50505050565b60006002820490506001821680620004ba57607f821691505b60208210811415620004d157620004d0620004d7565b5b50919050565b7f4e487b7100000000000000000000000000000000000000000000000000000000600052602260045260246000fd5b6000601f19601f8301169050919050565b612ef980620005276000396000f3fe608060405234801561001057600080fd5b50600436106101215760003560e01c80635c260e50116100ad578063817f4e3d11610071578063817f4e3d146102d25780638655854c146102f05780639518f52d1461030c578063c4ca280d14610328578063cfae32171461034457610121565b80635c260e501461022c5780635f32b6db1461024a57806362746e6c14610266578063712bef9114610284578063722713f7146102b457610121565b806322fce061116100f457806322fce0611461019e578063378dc3dc146101ba5780633a2568e9146101d85780634118b16f146101f4578063509145db1461021057610121565b806304a87e3814610126578063050d4f781461014457806306fdde031461016257806318160ddd14610180575b600080fd5b61012e610362565b60405161013b9190612828565b60405180910390f35b61014c610576565b604051610159919061280d565b60405180910390f35b61016a61059c565b6040516101779190612865565b60405180910390f35b61018861062a565b604051610195919061299a565b60405180910390f35b6101b860048036038101906101b39190612404565b610630565b005b6101c26107cf565b6040516101cf919061299a565b60405180910390f35b6101f260048036038101906101ed9190612458565b6107d5565b005b61020e60048036038101906102099190612228565b610920565b005b61022a60048036038101906102259190612102565b610c4b565b005b610234610d96565b604051610241919061284a565b60405180910390f35b610264600480360381019061025f91906122eb565b610e90565b005b61026e610f78565b60405161027b919061284a565b60405180910390f35b61029e600480360381019061029991906121e7565b610fcc565b6040516102ab9190612978565b60405180910390f35b6102bc611167565b6040516102c99190612978565b60405180910390f35b6102da611363565b6040516102e79190612865565b60405180910390f35b61030a60048036038101906103059190612143565b61148f565b005b61032660048036038101906103219190612404565b61183f565b005b610342600480360381019061033d91906121e7565b6119de565b005b61034c611ba6565b6040516103599190612865565b60405180910390f35b6060600a805480602002602001604051908101604052809291908181526020016000905b8282101561056d5783829060005260206000209060040201604051806080016040529081600082015481526020016001820180546103c390612c76565b80601f01602080910402602001604051908101604052809291908181526020018280546103ef90612c76565b801561043c5780601f106104115761010080835404028352916020019161043c565b820191906000526020600020905b81548152906001019060200180831161041f57829003601f168201915b5050505050815260200160028201805461045590612c76565b80601f016020809104026020016040519081016040528092919081815260200182805461048190612c76565b80156104ce5780601f106104a3576101008083540402835291602001916104ce565b820191906000526020600020905b8154815290600101906020018083116104b157829003601f168201915b505050505081526020016003820160009054906101000a900460ff166005811115610522577f4e487b7100000000000000000000000000000000000000000000000000000000600052602160045260246000fd5b600581111561055a577f4e487b7100000000000000000000000000000000000000000000000000000000600052602160045260246000fd5b8152505081526020019060010190610386565b50505050905090565b600960009054906101000a900473ffffffffffffffffffffffffffffffffffffffff1681565b600080546105a990612c76565b80601f01602080910402602001604051908101604052809291908181526020018280546105d590612c76565b80156106225780601f106105f757610100808354040283529160200191610622565b820191906000526020600020905b81548152906001019060200180831161060557829003601f168201915b505050505081565b60025481565b60011515600560003373ffffffffffffffffffffffffffffffffffffffff1673ffffffffffffffffffffffffffffffffffffffff16815260200190815260200160002060009054906101000a900460ff161515146106c3576040517f08c379a00000000000000000000000000000000000000000000000000000000081526004016106ba90612938565b60405180910390fd5b6000600660003373ffffffffffffffffffffffffffffffffffffffff1673ffffffffffffffffffffffffffffffffffffffff168152602001908152602001600020805461070f90612c76565b80601f016020809104026020016040519081016040528092919081815260200182805461073b90612c76565b80156107885780601f1061075d57610100808354040283529160200191610788565b820191906000526020600020905b81548152906001019060200180831161076b57829003601f168201915b505050505090507fbf5f4e9a08b4aeb5cbe7b020185de2e84cd9218d73bdc4f85c5a94c52a7a4bd98284836040516107c2939291906129b5565b60405180910390a1505050565b60035481565b600115158115151415610881576002600a838154811061081e577f4e487b7100000000000000000000000000000000000000000000000000000000600052603260045260246000fd5b906000526020600020906004020160030160006101000a81548160ff02191690836005811115610877577f4e487b7100000000000000000000000000000000000000000000000000000000600052602160045260246000fd5b021790555061091c565b6005600a83815481106108bd577f4e487b7100000000000000000000000000000000000000000000000000000000600052603260045260246000fd5b906000526020600020906004020160030160006101000a81548160ff02191690836005811115610916577f4e487b7100000000000000000000000000000000000000000000000000000000600052602160045260246000fd5b02179055505b5050565b60011515600560003373ffffffffffffffffffffffffffffffffffffffff1673ffffffffffffffffffffffffffffffffffffffff16815260200190815260200160002060009054906101000a900460ff161515146109b3576040517f08c379a00000000000000000000000000000000000000000000000000000000081526004016109aa90612938565b60405180910390fd5b600a6040518060800160405280600c548152602001604051806020016040528060008152508152602001600660003373ffffffffffffffffffffffffffffffffffffffff1673ffffffffffffffffffffffffffffffffffffffff1681526020019081526020016000208054610a2790612c76565b80601f0160208091040260200160405190810160405280929190818152602001828054610a5390612c76565b8015610aa05780601f10610a7557610100808354040283529160200191610aa0565b820191906000526020600020905b815481529060010190602001808311610a8357829003601f168201915b5050505050815260200160016005811115610ae4577f4e487b7100000000000000000000000000000000000000000000000000000000600052602160045260246000fd5b8152509080600181540180825580915050600190039060005260206000209060040201600090919091909150600082015181600001556020820151816001019080519060200190610b36929190611e38565b506040820151816002019080519060200190610b53929190611e38565b5060608201518160030160006101000a81548160ff02191690836005811115610ba5577f4e487b7100000000000000000000000000000000000000000000000000000000600052602160045260246000fd5b02179055505050610bea6040518060400160405280600b81526020017f54657374204576656e7427000000000000000000000000000000000000000000815250611c38565b7f2dddc06b1340f27d89cf9e1783165857c901b8fb2d67ac8443c795ec43ff341f600c5485858585604051610c239594939291906129fa565b60405180910390a16001600c6000828254610c3e9190612b71565b9250508190555050505050565b600960009054906101000a900473ffffffffffffffffffffffffffffffffffffffff1673ffffffffffffffffffffffffffffffffffffffff163373ffffffffffffffffffffffffffffffffffffffff1614610cdb576040517f08c379a0000000000000000000000000000000000000000000000000000000008152600401610cd290612918565b60405180910390fd5b60005b8151811015610d9257600160056000848481518110610d26577f4e487b7100000000000000000000000000000000000000000000000000000000600052603260045260246000fd5b602002602001015173ffffffffffffffffffffffffffffffffffffffff1673ffffffffffffffffffffffffffffffffffffffff16815260200190815260200160002060006101000a81548160ff0219169083151502179055508080610d8a90612cd9565b915050610cde565b5050565b600060011515600560003373ffffffffffffffffffffffffffffffffffffffff1673ffffffffffffffffffffffffffffffffffffffff16815260200190815260200160002060009054906101000a900460ff16151514610e2b576040517f08c379a0000000000000000000000000000000000000000000000000000000008152600401610e2290612918565b60405180910390fd5b6000600660003373ffffffffffffffffffffffffffffffffffffffff1673ffffffffffffffffffffffffffffffffffffffff1681526020019081526020016000208054610e7790612c76565b90501415610e885760009050610e8d565b600190505b90565b604051806040016040528086815260200185815250600787604051610eb591906127df565b90815260200160405180910390206000820151816000019080519060200190610edf929190611e38565b506020820151816001019080519060200190610efc929190611e38565b50905050604051806040016040528083815260200182815250600784604051610f2591906127df565b90815260200160405180910390206000820151816000019080519060200190610f4f929190611e38565b506020820151816001019080519060200190610f6c929190611e38565b50905050505050505050565b6000600560003373ffffffffffffffffffffffffffffffffffffffff1673ffffffffffffffffffffffffffffffffffffffff16815260200190815260200160002060009054906101000a900460ff16905090565b610fd4611ebe565b6110136040518060400160405280600781526020017f73656e646572200000000000000000000000000000000000000000000000000081525033611cd1565b60078260405161102391906127df565b908152602001604051809103902060405180604001604052908160008201805461104c90612c76565b80601f016020809104026020016040519081016040528092919081815260200182805461107890612c76565b80156110c55780601f1061109a576101008083540402835291602001916110c5565b820191906000526020600020905b8154815290600101906020018083116110a857829003601f168201915b505050505081526020016001820180546110de90612c76565b80601f016020809104026020016040519081016040528092919081815260200182805461110a90612c76565b80156111575780601f1061112c57610100808354040283529160200191611157565b820191906000526020600020905b81548152906001019060200180831161113a57829003601f168201915b5050505050815250509050919050565b61116f611ebe565b60001515600560003373ffffffffffffffffffffffffffffffffffffffff1673ffffffffffffffffffffffffffffffffffffffff16815260200190815260200160002060009054906101000a900460ff16151514156111cd57600080fd5b6000600660003373ffffffffffffffffffffffffffffffffffffffff1673ffffffffffffffffffffffffffffffffffffffff168152602001908152602001600020905060078160405161122091906127f6565b908152602001604051809103902060405180604001604052908160008201805461124990612c76565b80601f016020809104026020016040519081016040528092919081815260200182805461127590612c76565b80156112c25780601f10611297576101008083540402835291602001916112c2565b820191906000526020600020905b8154815290600101906020018083116112a557829003601f168201915b505050505081526020016001820180546112db90612c76565b80601f016020809104026020016040519081016040528092919081815260200182805461130790612c76565b80156113545780601f1061132957610100808354040283529160200191611354565b820191906000526020600020905b81548152906001019060200180831161133757829003601f168201915b50505050508152505091505090565b606060011515600560003373ffffffffffffffffffffffffffffffffffffffff1673ffffffffffffffffffffffffffffffffffffffff16815260200190815260200160002060009054906101000a900460ff161515146113c257600080fd5b600660003373ffffffffffffffffffffffffffffffffffffffff1673ffffffffffffffffffffffffffffffffffffffff168152602001908152602001600020805461140c90612c76565b80601f016020809104026020016040519081016040528092919081815260200182805461143890612c76565b80156114855780601f1061145a57610100808354040283529160200191611485565b820191906000526020600020905b81548152906001019060200180831161146857829003601f168201915b5050505050905090565b60011515600560003373ffffffffffffffffffffffffffffffffffffffff1673ffffffffffffffffffffffffffffffffffffffff16815260200190815260200160002060009054906101000a900460ff16151514611522576040517f08c379a000000000000000000000000000000000000000000000000000000000815260040161151990612938565b60405180910390fd5b8585600660003373ffffffffffffffffffffffffffffffffffffffff1673ffffffffffffffffffffffffffffffffffffffff1681526020019081526020016000209190611570929190611ed8565b50604051806040016040528085858080601f016020809104026020016040519081016040528093929190818152602001838380828437600081840152601f19601f82011690508083019250505050505050815260200183838080601f016020809104026020016040519081016040528093929190818152602001838380828437600081840152601f19601f82011690508083019250505050505050815250600787876040516116209291906127c6565b9081526020016040518091039020600082015181600001908051906020019061164a929190611e38565b506020820151816001019080519060200190611667929190611e38565b509050506118376040518060400160405280600b81526020017f73656e6465722061636320000000000000000000000000000000000000000000815250600788886040516116b69291906127c6565b908152602001604051809103902060000180546116d290612c76565b80601f01602080910402602001604051908101604052809291908181526020018280546116fe90612c76565b801561174b5780601f106117205761010080835404028352916020019161174b565b820191906000526020600020905b81548152906001019060200180831161172e57829003601f168201915b50505050506040518060400160405280600581526020017f20616e642000000000000000000000000000000000000000000000000000000081525060078a8a6040516117989291906127c6565b908152602001604051809103902060010180546117b490612c76565b80601f01602080910402602001604051908101604052809291908181526020018280546117e090612c76565b801561182d5780601f106118025761010080835404028352916020019161182d565b820191906000526020600020905b81548152906001019060200180831161181057829003601f168201915b5050505050611d6d565b505050505050565b60011515600560003373ffffffffffffffffffffffffffffffffffffffff1673ffffffffffffffffffffffffffffffffffffffff16815260200190815260200160002060009054906101000a900460ff161515146118d2576040517f08c379a00000000000000000000000000000000000000000000000000000000081526004016118c990612938565b60405180910390fd5b6000600660003373ffffffffffffffffffffffffffffffffffffffff1673ffffffffffffffffffffffffffffffffffffffff168152602001908152602001600020805461191e90612c76565b80601f016020809104026020016040519081016040528092919081815260200182805461194a90612c76565b80156119975780601f1061196c57610100808354040283529160200191611997565b820191906000526020600020905b81548152906001019060200180831161197a57829003601f168201915b505050505090507fbf5f4e9a08b4aeb5cbe7b020185de2e84cd9218d73bdc4f85c5a94c52a7a4bd98284836040516119d1939291906129b5565b60405180910390a1505050565b60011515600560003373ffffffffffffffffffffffffffffffffffffffff1673ffffffffffffffffffffffffffffffffffffffff16815260200190815260200160002060009054906101000a900460ff16151514611a71576040517f08c379a0000000000000000000000000000000000000000000000000000000008152600401611a6890612958565b60405180910390fd5b600a6040518060800160405280600c54815260200183815260200160405180602001604052806000815250815260200160006005811115611adb577f4e487b7100000000000000000000000000000000000000000000000000000000600052602160045260246000fd5b8152509080600181540180825580915050600190039060005260206000209060040201600090919091909150600082015181600001556020820151816001019080519060200190611b2d929190611e38565b506040820151816002019080519060200190611b4a929190611e38565b5060608201518160030160006101000a81548160ff02191690836005811115611b9c577f4e487b7100000000000000000000000000000000000000000000000000000000600052602160045260246000fd5b0217905550505050565b606060018054611bb590612c76565b80601f0160208091040260200160405190810160405280929190818152602001828054611be190612c76565b8015611c2e5780601f10611c0357610100808354040283529160200191611c2e565b820191906000526020600020905b815481529060010190602001808311611c1157829003601f168201915b5050505050905090565b611cce81604051602401611c4c9190612865565b6040516020818303038152906040527f41304fac000000000000000000000000000000000000000000000000000000007bffffffffffffffffffffffffffffffffffffffffffffffffffffffff19166020820180517bffffffffffffffffffffffffffffffffffffffffffffffffffffffff8381831617835250505050611e0f565b50565b611d698282604051602401611ce7929190612887565b6040516020818303038152906040527f319af333000000000000000000000000000000000000000000000000000000007bffffffffffffffffffffffffffffffffffffffffffffffffffffffff19166020820180517bffffffffffffffffffffffffffffffffffffffffffffffffffffffff8381831617835250505050611e0f565b5050565b611e0984848484604051602401611d8794939291906128b7565b6040516020818303038152906040527fde68f20a000000000000000000000000000000000000000000000000000000007bffffffffffffffffffffffffffffffffffffffffffffffffffffffff19166020820180517bffffffffffffffffffffffffffffffffffffffffffffffffffffffff8381831617835250505050611e0f565b50505050565b60008151905060006a636f6e736f6c652e6c6f679050602083016000808483855afa5050505050565b828054611e4490612c76565b90600052602060002090601f016020900481019282611e665760008555611ead565b82601f10611e7f57805160ff1916838001178555611ead565b82800160010185558215611ead579182015b82811115611eac578251825591602001919060010190611e91565b5b509050611eba9190611f5e565b5090565b604051806040016040528060608152602001606081525090565b828054611ee490612c76565b90600052602060002090601f016020900481019282611f065760008555611f4d565b82601f10611f1f57803560ff1916838001178555611f4d565b82800160010185558215611f4d579182015b82811115611f4c578235825591602001919060010190611f31565b5b509050611f5a9190611f5e565b5090565b5b80821115611f77576000816000905550600101611f5f565b5090565b6000611f8e611f8984612a8e565b612a69565b90508083825260208201905082856020860282011115611fad57600080fd5b60005b85811015611fdd5781611fc38882612025565b845260208401935060208301925050600181019050611fb0565b5050509392505050565b6000611ffa611ff584612aba565b612a69565b90508281526020810184848401111561201257600080fd5b61201d848285612c34565b509392505050565b60008135905061203481612e7e565b92915050565b600082601f83011261204b57600080fd5b813561205b848260208601611f7b565b91505092915050565b60008135905061207381612e95565b92915050565b60008083601f84011261208b57600080fd5b8235905067ffffffffffffffff8111156120a457600080fd5b6020830191508360018202830111156120bc57600080fd5b9250929050565b600082601f8301126120d457600080fd5b81356120e4848260208601611fe7565b91505092915050565b6000813590506120fc81612eac565b92915050565b60006020828403121561211457600080fd5b600082013567ffffffffffffffff81111561212e57600080fd5b61213a8482850161203a565b91505092915050565b6000806000806000806060878903121561215c57600080fd5b600087013567ffffffffffffffff81111561217657600080fd5b61218289828a01612079565b9650965050602087013567ffffffffffffffff8111156121a157600080fd5b6121ad89828a01612079565b9450945050604087013567ffffffffffffffff8111156121cc57600080fd5b6121d889828a01612079565b92509250509295509295509295565b6000602082840312156121f957600080fd5b600082013567ffffffffffffffff81111561221357600080fd5b61221f848285016120c3565b91505092915050565b6000806000806080858703121561223e57600080fd5b600085013567ffffffffffffffff81111561225857600080fd5b612264878288016120c3565b945050602085013567ffffffffffffffff81111561228157600080fd5b61228d878288016120c3565b935050604085013567ffffffffffffffff8111156122aa57600080fd5b6122b6878288016120c3565b925050606085013567ffffffffffffffff8111156122d357600080fd5b6122df878288016120c3565b91505092959194509250565b60008060008060008060c0878903121561230457600080fd5b600087013567ffffffffffffffff81111561231e57600080fd5b61232a89828a016120c3565b965050602087013567ffffffffffffffff81111561234757600080fd5b61235389828a016120c3565b955050604087013567ffffffffffffffff81111561237057600080fd5b61237c89828a016120c3565b945050606087013567ffffffffffffffff81111561239957600080fd5b6123a589828a016120c3565b935050608087013567ffffffffffffffff8111156123c257600080fd5b6123ce89828a016120c3565b92505060a087013567ffffffffffffffff8111156123eb57600080fd5b6123f789828a016120c3565b9150509295509295509295565b6000806040838503121561241757600080fd5b600083013567ffffffffffffffff81111561243157600080fd5b61243d858286016120c3565b925050602061244e858286016120ed565b9150509250929050565b6000806040838503121561246b57600080fd5b6000612479858286016120ed565b925050602061248a85828601612064565b9150509250929050565b60006124a0838361273e565b905092915050565b6124b181612bc7565b82525050565b60006124c282612b10565b6124cc8185612b33565b9350836020820285016124de85612aeb565b8060005b8581101561251a57848403895281516124fb8582612494565b945061250683612b26565b925060208a019950506001810190506124e2565b50829750879550505050505092915050565b61253581612bd9565b82525050565b61254481612c22565b82525050565b60006125568385612b66565b9350612563838584612c34565b82840190509392505050565b600061257a82612b1b565b6125848185612b44565b9350612594818560208601612c43565b61259d81612dde565b840191505092915050565b60006125b382612b1b565b6125bd8185612b55565b93506125cd818560208601612c43565b6125d681612dde565b840191505092915050565b60006125ec82612b1b565b6125f68185612b66565b9350612606818560208601612c43565b80840191505092915050565b6000815461261f81612c76565b6126298186612b66565b94506001821660008114612644576001811461265557612688565b60ff19831686528186019350612688565b61265e85612afb565b60005b8381101561268057815481890152600182019150602081019050612661565b838801955050505b50505092915050565b600061269e601783612b55565b91506126a982612def565b602082019050919050565b60006126c1601883612b55565b91506126cc82612e18565b602082019050919050565b60006126e4601783612b55565b91506126ef82612e41565b602082019050919050565b60006040830160008301518482036000860152612717828261256f565b91505060208301518482036020860152612731828261256f565b9150508091505092915050565b600060808301600083015161275660008601826127a8565b506020830151848203602086015261276e828261256f565b91505060408301518482036040860152612788828261256f565b915050606083015161279d606086018261253b565b508091505092915050565b6127b181612c18565b82525050565b6127c081612c18565b82525050565b60006127d382848661254a565b91508190509392505050565b60006127eb82846125e1565b915081905092915050565b60006128028284612612565b915081905092915050565b600060208201905061282260008301846124a8565b92915050565b6000602082019050818103600083015261284281846124b7565b905092915050565b600060208201905061285f600083018461252c565b92915050565b6000602082019050818103600083015261287f81846125a8565b905092915050565b600060408201905081810360008301526128a181856125a8565b90506128b060208301846124a8565b9392505050565b600060808201905081810360008301526128d181876125a8565b905081810360208301526128e581866125a8565b905081810360408301526128f981856125a8565b9050818103606083015261290d81846125a8565b905095945050505050565b6000602082019050818103600083015261293181612691565b9050919050565b60006020820190508181036000830152612951816126b4565b9050919050565b60006020820190508181036000830152612971816126d7565b9050919050565b6000602082019050818103600083015261299281846126fa565b905092915050565b60006020820190506129af60008301846127b7565b92915050565b60006060820190506129ca60008301866127b7565b81810360208301526129dc81856125a8565b905081810360408301526129f081846125a8565b9050949350505050565b600060a082019050612a0f60008301886127b7565b8181036020830152612a2181876125a8565b90508181036040830152612a3581866125a8565b90508181036060830152612a4981856125a8565b90508181036080830152612a5d81846125a8565b90509695505050505050565b6000612a73612a84565b9050612a7f8282612ca8565b919050565b6000604051905090565b600067ffffffffffffffff821115612aa957612aa8612daf565b5b602082029050602081019050919050565b600067ffffffffffffffff821115612ad557612ad4612daf565b5b612ade82612dde565b9050602081019050919050565b6000819050602082019050919050565b60008190508160005260206000209050919050565b600081519050919050565b600081519050919050565b6000602082019050919050565b600082825260208201905092915050565b600082825260208201905092915050565b600082825260208201905092915050565b600081905092915050565b6000612b7c82612c18565b9150612b8783612c18565b9250827fffffffffffffffffffffffffffffffffffffffffffffffffffffffffffffffff03821115612bbc57612bbb612d22565b5b828201905092915050565b6000612bd282612bf8565b9050919050565b60008115159050919050565b6000819050612bf382612e6a565b919050565b600073ffffffffffffffffffffffffffffffffffffffff82169050919050565b6000819050919050565b6000612c2d82612be5565b9050919050565b82818337600083830152505050565b60005b83811015612c61578082015181840152602081019050612c46565b83811115612c70576000848401525b50505050565b60006002820490506001821680612c8e57607f821691505b60208210811415612ca257612ca1612d80565b5b50919050565b612cb182612dde565b810181811067ffffffffffffffff82111715612cd057612ccf612daf565b5b80604052505050565b6000612ce482612c18565b91507fffffffffffffffffffffffffffffffffffffffffffffffffffffffffffffffff821415612d1757612d16612d22565b5b600182019050919050565b7f4e487b7100000000000000000000000000000000000000000000000000000000600052601160045260246000fd5b7f4e487b7100000000000000000000000000000000000000000000000000000000600052602160045260246000fd5b7f4e487b7100000000000000000000000000000000000000000000000000000000600052602260045260246000fd5b7f4e487b7100000000000000000000000000000000000000000000000000000000600052604160045260246000fd5b6000601f19601f8301169050919050565b7f596f7520617265206e6f7420617574686f72697a65642e000000000000000000600082015250565b7f596f7520686176656e277420726567697374657265642e200000000000000000600082015250565b7f596f7520686176656e277420726567697374657265642e000000000000000000600082015250565b60068110612e7b57612e7a612d51565b5b50565b612e8781612bc7565b8114612e9257600080fd5b50565b612e9e81612bd9565b8114612ea957600080fd5b50565b612eb581612c18565b8114612ec057600080fd5b5056fea2646970667358221220f821aace0682b3bc284845ce4836fc19d1e9b745ca56d509100bea9524e4283564736f6c63430008040033",
  "linkReferences": {},
  "deployedLinkReferences": {}
}