{
  "_format": "hh-sol-artifact-1",
  "contractName": "XContract",
  "sourceName": "contracts/XContract.sol",
  "abi": [
    {
      "inputs": [],
      "stateMutability": "nonpayable",
      "type": "constructor"
    },
    {
      "anonymous": false,
      "inputs": [
        {
          "indexed": false,
          "internalType": "string",
          "name": "pk",
          "type": "string"
        }
      ],
      "name": "InitBalance",
      "type": "event"
    },
    {
      "anonymous": false,
      "inputs": [
        {
          "indexed": false,
          "internalType": "uint256",
          "name": "id",
          "type": "uint256"
        },
        {
          "indexed": false,
          "internalType": "string",
          "name": "rangeproof1",
          "type": "string"
        },
        {
          "indexed": false,
          "internalType": "string",
          "name": "rangeproof2",
          "type": "string"
        },
        {
          "indexed": false,
          "internalType": "string",
          "name": "sigmaProof",
          "type": "string"
        },
        {
          "indexed": false,
          "internalType": "string",
          "name": "input",
          "type": "string"
        }
      ],
      "name": "NewConfTransfer",
      "type": "event"
    },
    {
      "anonymous": false,
      "inputs": [
        {
          "indexed": false,
          "internalType": "uint256",
          "name": "id",
          "type": "uint256"
        },
        {
          "indexed": false,
          "internalType": "string",
          "name": "CL_price",
          "type": "string"
        },
        {
          "indexed": false,
          "internalType": "string",
          "name": "CR_price",
          "type": "string"
        }
      ],
      "name": "NewPrice",
      "type": "event"
    },
    {
      "anonymous": false,
      "inputs": [
        {
          "indexed": false,
          "internalType": "uint256",
          "name": "id",
          "type": "uint256"
        },
        {
          "indexed": false,
          "internalType": "string",
          "name": "proof",
          "type": "string"
        }
      ],
      "name": "NewRequest",
      "type": "event"
    },
    {
      "anonymous": false,
      "inputs": [
        {
          "indexed": false,
          "internalType": "string",
          "name": "newMsg",
          "type": "string"
        }
      ],
      "name": "TestMsg",
      "type": "event"
    },
    {
      "anonymous": false,
      "inputs": [
        {
          "indexed": false,
          "internalType": "address",
          "name": "add",
          "type": "address"
        },
        {
          "indexed": false,
          "internalType": "uint256",
          "name": "balance",
          "type": "uint256"
        }
      ],
      "name": "UpdateState",
      "type": "event"
    },
    {
      "anonymous": false,
      "inputs": [
        {
          "indexed": false,
          "internalType": "uint256",
          "name": "id",
          "type": "uint256"
        },
        {
          "indexed": false,
          "internalType": "string",
          "name": "CL_price",
          "type": "string"
        },
        {
          "indexed": false,
          "internalType": "string",
          "name": "CR_price",
          "type": "string"
        },
        {
          "indexed": false,
          "internalType": "string",
          "name": "bidderKey",
          "type": "string"
        }
      ],
      "name": "makeDeal",
      "type": "event"
    },
    {
      "inputs": [
        {
          "internalType": "string",
          "name": "y",
          "type": "string"
        }
      ],
      "name": "ElBalanceOf",
      "outputs": [
        {
          "components": [
            {
              "internalType": "string",
              "name": "CL",
              "type": "string"
            },
            {
              "internalType": "string",
              "name": "CR",
              "type": "string"
            }
          ],
          "internalType": "struct XContract.ElBalance",
          "name": "",
          "type": "tuple"
        }
      ],
      "stateMutability": "view",
      "type": "function"
    },
    {
      "inputs": [
        {
          "internalType": "uint256",
          "name": "requestId",
          "type": "uint256"
        },
        {
          "internalType": "uint256",
          "name": "dealId",
          "type": "uint256"
        }
      ],
      "name": "acceptDeal",
      "outputs": [],
      "stateMutability": "nonpayable",
      "type": "function"
    },
    {
      "inputs": [],
      "name": "association",
      "outputs": [
        {
          "internalType": "address",
          "name": "",
          "type": "address"
        }
      ],
      "stateMutability": "view",
      "type": "function"
    },
    {
      "inputs": [
        {
          "internalType": "address[]",
          "name": "newAcc",
          "type": "address[]"
        }
      ],
      "name": "authorizeNewUser",
      "outputs": [],
      "stateMutability": "nonpayable",
      "type": "function"
    },
    {
      "inputs": [],
      "name": "balanceOf",
      "outputs": [
        {
          "components": [
            {
              "internalType": "string",
              "name": "CL",
              "type": "string"
            },
            {
              "internalType": "string",
              "name": "CR",
              "type": "string"
            }
          ],
          "internalType": "struct XContract.ElBalance",
          "name": "",
          "type": "tuple"
        }
      ],
      "stateMutability": "view",
      "type": "function"
    },
    {
      "inputs": [
        {
          "internalType": "address",
          "name": "newAcc",
          "type": "address"
        }
      ],
      "name": "checkAuthorizeNewUser",
      "outputs": [
        {
          "internalType": "bool",
          "name": "",
          "type": "bool"
        }
      ],
      "stateMutability": "view",
      "type": "function"
    },
    {
      "inputs": [],
      "name": "checkAuthorized",
      "outputs": [
        {
          "internalType": "bool",
          "name": "",
          "type": "bool"
        }
      ],
      "stateMutability": "view",
      "type": "function"
    },
    {
      "inputs": [
        {
          "internalType": "string",
          "name": "proofForAmt",
          "type": "string"
        },
        {
          "internalType": "string",
          "name": "proofForRemainBalance",
          "type": "string"
        },
        {
          "internalType": "string",
          "name": "sigmaProof",
          "type": "string"
        },
        {
          "internalType": "string",
          "name": "input",
          "type": "string"
        }
      ],
      "name": "confTransfer",
      "outputs": [],
      "stateMutability": "nonpayable",
      "type": "function"
    },
    {
      "inputs": [
        {
          "internalType": "uint256",
          "name": "id",
          "type": "uint256"
        },
        {
          "internalType": "bool",
          "name": "res",
          "type": "bool"
        }
      ],
      "name": "confirmProof",
      "outputs": [],
      "stateMutability": "nonpayable",
      "type": "function"
    },
    {
      "inputs": [],
      "name": "fetchPubkey",
      "outputs": [
        {
          "internalType": "string",
          "name": "",
          "type": "string"
        }
      ],
      "stateMutability": "view",
      "type": "function"
    },
    {
      "inputs": [],
      "name": "getAllAvailableTasks",
      "outputs": [
        {
          "components": [
            {
              "internalType": "uint256",
              "name": "id",
              "type": "uint256"
            },
            {
              "internalType": "string",
              "name": "content",
              "type": "string"
            },
            {
              "internalType": "string",
              "name": "pubkeyOfSender",
              "type": "string"
            },
            {
              "internalType": "enum XContract.State",
              "name": "state",
              "type": "uint8"
            }
          ],
          "internalType": "struct XContract.Request[]",
          "name": "",
          "type": "tuple[]"
        }
      ],
      "stateMutability": "view",
      "type": "function"
    },
    {
      "inputs": [],
      "name": "getMessages",
      "outputs": [
        {
          "components": [
            {
              "internalType": "bool",
              "name": "code",
              "type": "bool"
            },
            {
              "internalType": "uint256",
              "name": "requestId",
              "type": "uint256"
            },
            {
              "components": [
                {
                  "internalType": "string",
                  "name": "CL",
                  "type": "string"
                },
                {
                  "internalType": "string",
                  "name": "CR",
                  "type": "string"
                }
              ],
              "internalType": "struct XContract.ElBalance",
              "name": "price",
              "type": "tuple"
            },
            {
              "internalType": "string",
              "name": "recipient",
              "type": "string"
            },
            {
              "internalType": "string",
              "name": "requestOwner",
              "type": "string"
            }
          ],
          "internalType": "struct XContract.Message[]",
          "name": "",
          "type": "tuple[]"
        }
      ],
      "stateMutability": "view",
      "type": "function"
    },
    {
      "inputs": [],
      "name": "getYourTasks",
      "outputs": [
        {
          "components": [
            {
              "internalType": "uint256",
              "name": "id",
              "type": "uint256"
            },
            {
              "internalType": "string",
              "name": "content",
              "type": "string"
            },
            {
              "internalType": "string",
              "name": "pubkeyOfSender",
              "type": "string"
            },
            {
              "internalType": "enum XContract.State",
              "name": "state",
              "type": "uint8"
            }
          ],
          "internalType": "struct XContract.Request[]",
          "name": "",
          "type": "tuple[]"
        }
      ],
      "stateMutability": "view",
      "type": "function"
    },
    {
      "inputs": [],
      "name": "greet",
      "outputs": [
        {
          "internalType": "string",
          "name": "",
          "type": "string"
        }
      ],
      "stateMutability": "view",
      "type": "function"
    },
    {
      "inputs": [],
      "name": "hasPubKey",
      "outputs": [
        {
          "internalType": "bool",
          "name": "",
          "type": "bool"
        }
      ],
      "stateMutability": "view",
      "type": "function"
    },
    {
      "inputs": [
        {
          "internalType": "string",
          "name": "y",
          "type": "string"
        },
        {
          "internalType": "string",
          "name": "cL",
          "type": "string"
        },
        {
          "internalType": "string",
          "name": "cR",
          "type": "string"
        }
      ],
      "name": "initPocket",
      "outputs": [],
      "stateMutability": "nonpayable",
      "type": "function"
    },
    {
      "inputs": [],
      "name": "initialSupply",
      "outputs": [
        {
          "internalType": "uint256",
          "name": "",
          "type": "uint256"
        }
      ],
      "stateMutability": "view",
      "type": "function"
    },
    {
      "inputs": [
        {
          "internalType": "uint256",
          "name": "id",
          "type": "uint256"
        }
      ],
      "name": "loadOffers",
      "outputs": [
        {
          "components": [
            {
              "internalType": "uint256",
              "name": "dealId",
              "type": "uint256"
            },
            {
              "components": [
                {
                  "internalType": "string",
                  "name": "CL",
                  "type": "string"
                },
                {
                  "internalType": "string",
                  "name": "CR",
                  "type": "string"
                }
              ],
              "internalType": "struct XContract.ElBalance",
              "name": "price",
              "type": "tuple"
            },
            {
              "internalType": "uint256",
              "name": "requestId",
              "type": "uint256"
            },
            {
              "internalType": "enum XContract.DealState",
              "name": "state",
              "type": "uint8"
            },
            {
              "internalType": "string",
              "name": "bidder",
              "type": "string"
            },
            {
              "internalType": "string",
              "name": "requestOwner",
              "type": "string"
            }
          ],
          "internalType": "struct XContract.Deal[]",
          "name": "",
          "type": "tuple[]"
        }
      ],
      "stateMutability": "view",
      "type": "function"
    },
    {
      "inputs": [],
      "name": "name",
      "outputs": [
        {
          "internalType": "string",
          "name": "",
          "type": "string"
        }
      ],
      "stateMutability": "view",
      "type": "function"
    },
    {
      "inputs": [
        {
          "internalType": "string",
          "name": "_task",
          "type": "string"
        }
      ],
      "name": "postTask",
      "outputs": [],
      "stateMutability": "nonpayable",
      "type": "function"
    },
    {
      "inputs": [
        {
          "internalType": "uint256",
          "name": "requestId",
          "type": "uint256"
        },
        {
          "internalType": "string",
          "name": "CL_price",
          "type": "string"
        },
        {
          "internalType": "string",
          "name": "CR_price",
          "type": "string"
        }
      ],
      "name": "raiseAPrice",
      "outputs": [],
      "stateMutability": "nonpayable",
      "type": "function"
    },
    {
      "inputs": [],
      "name": "totalSupply",
      "outputs": [
        {
          "internalType": "uint256",
          "name": "",
          "type": "uint256"
        }
      ],
      "stateMutability": "view",
      "type": "function"
    },
    {
      "inputs": [
        {
          "internalType": "string",
          "name": "y",
          "type": "string"
        },
        {
          "internalType": "string",
          "name": "C1",
          "type": "string"
        },
        {
          "internalType": "string",
          "name": "C2",
          "type": "string"
        },
        {
          "internalType": "string",
          "name": "yr",
          "type": "string"
        },
        {
          "internalType": "string",
          "name": "C3",
          "type": "string"
        },
        {
          "internalType": "string",
          "name": "C4",
          "type": "string"
        }
      ],
      "name": "updateBalance",
      "outputs": [],
      "stateMutability": "nonpayable",
      "type": "function"
    }
  ],
  "bytecode": "0x60806040526040518060400160405280600981526020017f58636f6e747261637400000000000000000000000000000000000000000000008152506000908051906020019062000051929190620002a9565b50620f42406002556127106003556040518060200160405280600081525060049080519060200190620000869291906200033a565b503480156200009457600080fd5b506001600560003373ffffffffffffffffffffffffffffffffffffffff1673ffffffffffffffffffffffffffffffffffffffff16815260200190815260200160002060006101000a81548160ff02191690831515021790555033600c60006101000a81548173ffffffffffffffffffffffffffffffffffffffff021916908373ffffffffffffffffffffffffffffffffffffffff1602179055506040518060400160405280600381526020017f3030300000000000000000000000000000000000000000000000000000000000815250600190805190602001906200017b929190620002a9565b50620001c76040518060400160405280601381526020017f4465706c6f79205375636365737366756c6c2000000000000000000000000000815250620001dd60201b62003cee1760201c565b6000601081905550600060118190555062000517565b6200027d81604051602401620001f491906200042b565b6040516020818303038152906040527f41304fac000000000000000000000000000000000000000000000000000000007bffffffffffffffffffffffffffffffffffffffffffffffffffffffff19166020820180517bffffffffffffffffffffffffffffffffffffffffffffffffffffffff83818316178352505050506200028060201b60201c565b50565b60008151905060006a636f6e736f6c652e6c6f679050602083016000808483855afa5050505050565b828054620002b790620004a1565b90600052602060002090601f016020900481019282620002db576000855562000327565b82601f10620002f657805160ff191683800117855562000327565b8280016001018555821562000327579182015b828111156200032657825182559160200191906001019062000309565b5b509050620003369190620003cb565b5090565b8280546200034890620004a1565b90600052602060002090601f0160209004810192826200036c5760008555620003b8565b82601f106200038757805160ff1916838001178555620003b8565b82800160010185558215620003b8579182015b82811115620003b75782518255916020019190600101906200039a565b5b509050620003c79190620003cb565b5090565b5b80821115620003e6576000816000905550600101620003cc565b5090565b6000620003f7826200044f565b6200040381856200045a565b9350620004158185602086016200046b565b620004208162000506565b840191505092915050565b60006020820190508181036000830152620004478184620003ea565b905092915050565b600081519050919050565b600082825260208201905092915050565b60005b838110156200048b5780820151818401526020810190506200046e565b838111156200049b576000848401525b50505050565b60006002820490506001821680620004ba57607f821691505b60208210811415620004d157620004d0620004d7565b5b50919050565b7f4e487b7100000000000000000000000000000000000000000000000000000000600052602260045260246000fd5b6000601f19601f8301169050919050565b61562480620005276000396000f3fe608060405234801561001057600080fd5b506004361061014d5760003560e01c80635ff6cbf3116100c3578063883764b11161007c578063883764b11461037c578063c4ca280d1461039a578063cfae3217146103b6578063d8b86fec146103d4578063ec406e9b146103f0578063fe58265e1461040e5761014d565b80635ff6cbf3146102b857806362746e6c146102d6578063712bef91146102f4578063722713f714610324578063817f4e3d146103425780638655854c146103605761014d565b80634118b16f116101155780634118b16f146101e6578063496cb056146102025780634f193a9114610232578063509145db146102625780635c260e501461027e5780635f32b6db1461029c5761014d565b8063050d4f781461015257806306fdde031461017057806318160ddd1461018e578063378dc3dc146101ac5780633a2568e9146101ca575b600080fd5b61015a61042a565b6040516101679190614d6a565b60405180910390f35b610178610450565b6040516101859190614e06565b60405180910390f35b6101966104de565b6040516101a39190614f9b565b60405180910390f35b6101b46104e4565b6040516101c19190614f9b565b60405180910390f35b6101e460048036038101906101df919061456c565b6104ea565b005b61020060048036038101906101fb9190614367565b610596565b005b61021c60048036038101906102179190614218565b6106c8565b6040516102299190614deb565b60405180910390f35b61024c60048036038101906102479190614543565b6107ae565b6040516102599190614d85565b60405180910390f35b61027c60048036038101906102779190614241565b610ca5565b005b610286610df0565b6040516102939190614deb565b60405180910390f35b6102b660048036038101906102b1919061442a565b610eea565b005b6102c0610fd2565b6040516102cd9190614da7565b60405180910390f35b6102de61142e565b6040516102eb9190614deb565b60405180910390f35b61030e60048036038101906103099190614326565b611482565b60405161031b9190614f79565b60405180910390f35b61032c61161d565b6040516103399190614f79565b60405180910390f35b61034a611819565b6040516103579190614e06565b60405180910390f35b61037a60048036038101906103759190614282565b611945565b005b610384611d54565b6040516103919190614dc9565b60405180910390f35b6103b460048036038101906103af9190614326565b612094565b005b6103be6123c1565b6040516103cb9190614e06565b60405180910390f35b6103ee60048036038101906103e991906145a8565b612453565b005b6103f861294d565b6040516104059190614dc9565b60405180910390f35b61042860048036038101906104239190614627565b612d44565b005b600c60009054906101000a900473ffffffffffffffffffffffffffffffffffffffff1681565b6000805461045d90615312565b80601f016020809104026020016040519081016040528092919081815260200182805461048990615312565b80156104d65780601f106104ab576101008083540402835291602001916104d6565b820191906000526020600020905b8154815290600101906020018083116104b957829003601f168201915b505050505081565b60025481565b60035481565b600115158115151415610592576001600d8381548110610533577f4e487b7100000000000000000000000000000000000000000000000000000000600052603260045260246000fd5b906000526020600020906004020160030160006101000a81548160ff0219169083600481111561058c577f4e487b7100000000000000000000000000000000000000000000000000000000600052602160045260246000fd5b02179055505b5050565b60011515600560003373ffffffffffffffffffffffffffffffffffffffff1673ffffffffffffffffffffffffffffffffffffffff16815260200190815260200160002060009054906101000a900460ff16151514610629576040517f08c379a000000000000000000000000000000000000000000000000000000000815260040161062090614ef9565b60405180910390fd5b6106676040518060400160405280600b81526020017f54657374204576656e7427000000000000000000000000000000000000000000815250613cee565b7f2dddc06b1340f27d89cf9e1783165857c901b8fb2d67ac8443c795ec43ff341f601154858585856040516106a0959493929190614fb6565b60405180910390a16001601160008282546106bb91906151b4565b9250508190555050505050565b6000600c60009054906101000a900473ffffffffffffffffffffffffffffffffffffffff1673ffffffffffffffffffffffffffffffffffffffff163373ffffffffffffffffffffffffffffffffffffffff161461075a576040517f08c379a000000000000000000000000000000000000000000000000000000000815260040161075190614eb9565b60405180910390fd5b600560008373ffffffffffffffffffffffffffffffffffffffff1673ffffffffffffffffffffffffffffffffffffffff16815260200190815260200160002060009054906101000a900460ff169050919050565b60606000600d83815481106107ec577f4e487b7100000000000000000000000000000000000000000000000000000000600052603260045260246000fd5b9060005260206000209060040201600201805461080890615312565b80601f016020809104026020016040519081016040528092919081815260200182805461083490615312565b80156108815780601f1061085657610100808354040283529160200191610881565b820191906000526020600020905b81548152906001019060200180831161086457829003601f168201915b5050505050905061089181613cee565b3373ffffffffffffffffffffffffffffffffffffffff166008826040516108b89190614d25565b908152602001604051809103902060009054906101000a900473ffffffffffffffffffffffffffffffffffffffff1673ffffffffffffffffffffffffffffffffffffffff161461093d576040517f08c379a000000000000000000000000000000000000000000000000000000000815260040161093490614ed9565b60405180910390fd5b600a6000848152602001908152602001600020805480602002602001604051908101604052809291908181526020016000905b82821015610c9957838290600052602060002090600702016040518060c001604052908160008201548152602001600182016040518060400160405290816000820180546109bd90615312565b80601f01602080910402602001604051908101604052809291908181526020018280546109e990615312565b8015610a365780601f10610a0b57610100808354040283529160200191610a36565b820191906000526020600020905b815481529060010190602001808311610a1957829003601f168201915b50505050508152602001600182018054610a4f90615312565b80601f0160208091040260200160405190810160405280929190818152602001828054610a7b90615312565b8015610ac85780601f10610a9d57610100808354040283529160200191610ac8565b820191906000526020600020905b815481529060010190602001808311610aab57829003601f168201915b5050505050815250508152602001600382015481526020016004820160009054906101000a900460ff166002811115610b2a577f4e487b7100000000000000000000000000000000000000000000000000000000600052602160045260246000fd5b6002811115610b62577f4e487b7100000000000000000000000000000000000000000000000000000000600052602160045260246000fd5b8152602001600582018054610b7690615312565b80601f0160208091040260200160405190810160405280929190818152602001828054610ba290615312565b8015610bef5780601f10610bc457610100808354040283529160200191610bef565b820191906000526020600020905b815481529060010190602001808311610bd257829003601f168201915b50505050508152602001600682018054610c0890615312565b80601f0160208091040260200160405190810160405280929190818152602001828054610c3490615312565b8015610c815780601f10610c5657610100808354040283529160200191610c81565b820191906000526020600020905b815481529060010190602001808311610c6457829003601f168201915b50505050508152505081526020019060010190610970565b50505050915050919050565b600c60009054906101000a900473ffffffffffffffffffffffffffffffffffffffff1673ffffffffffffffffffffffffffffffffffffffff163373ffffffffffffffffffffffffffffffffffffffff1614610d35576040517f08c379a0000000000000000000000000000000000000000000000000000000008152600401610d2c90614eb9565b60405180910390fd5b60005b8151811015610dec57600160056000848481518110610d80577f4e487b7100000000000000000000000000000000000000000000000000000000600052603260045260246000fd5b602002602001015173ffffffffffffffffffffffffffffffffffffffff1673ffffffffffffffffffffffffffffffffffffffff16815260200190815260200160002060006101000a81548160ff0219169083151502179055508080610de490615375565b915050610d38565b5050565b600060011515600560003373ffffffffffffffffffffffffffffffffffffffff1673ffffffffffffffffffffffffffffffffffffffff16815260200190815260200160002060009054906101000a900460ff16151514610e85576040517f08c379a0000000000000000000000000000000000000000000000000000000008152600401610e7c90614eb9565b60405180910390fd5b6000600660003373ffffffffffffffffffffffffffffffffffffffff1673ffffffffffffffffffffffffffffffffffffffff1681526020019081526020016000208054610ed190615312565b90501415610ee25760009050610ee7565b600190505b90565b604051806040016040528086815260200185815250600787604051610f0f9190614d25565b90815260200160405180910390206000820151816000019080519060200190610f39929190613eee565b506020820151816001019080519060200190610f56929190613eee565b50905050604051806040016040528083815260200182815250600784604051610f7f9190614d25565b90815260200160405180910390206000820151816000019080519060200190610fa9929190613eee565b506020820151816001019080519060200190610fc6929190613eee565b50905050505050505050565b606060011515600560003373ffffffffffffffffffffffffffffffffffffffff1673ffffffffffffffffffffffffffffffffffffffff16815260200190815260200160002060009054906101000a900460ff16151514611067576040517f08c379a000000000000000000000000000000000000000000000000000000000815260040161105e90614f19565b60405180910390fd5b6000600660003373ffffffffffffffffffffffffffffffffffffffff1673ffffffffffffffffffffffffffffffffffffffff16815260200190815260200160002080546110b390615312565b80601f01602080910402602001604051908101604052809291908181526020018280546110df90615312565b801561112c5780601f106111015761010080835404028352916020019161112c565b820191906000526020600020905b81548152906001019060200180831161110f57829003601f168201915b50505050509050600b816040516111439190614d25565b9081526020016040518091039020805480602002602001604051908101604052809291908181526020016000905b8282101561142457838290600052602060002090600602016040518060a00160405290816000820160009054906101000a900460ff1615151515815260200160018201548152602001600282016040518060400160405290816000820180546111d990615312565b80601f016020809104026020016040519081016040528092919081815260200182805461120590615312565b80156112525780601f1061122757610100808354040283529160200191611252565b820191906000526020600020905b81548152906001019060200180831161123557829003601f168201915b5050505050815260200160018201805461126b90615312565b80601f016020809104026020016040519081016040528092919081815260200182805461129790615312565b80156112e45780601f106112b9576101008083540402835291602001916112e4565b820191906000526020600020905b8154815290600101906020018083116112c757829003601f168201915b505050505081525050815260200160048201805461130190615312565b80601f016020809104026020016040519081016040528092919081815260200182805461132d90615312565b801561137a5780601f1061134f5761010080835404028352916020019161137a565b820191906000526020600020905b81548152906001019060200180831161135d57829003601f168201915b5050505050815260200160058201805461139390615312565b80601f01602080910402602001604051908101604052809291908181526020018280546113bf90615312565b801561140c5780601f106113e15761010080835404028352916020019161140c565b820191906000526020600020905b8154815290600101906020018083116113ef57829003601f168201915b50505050508152505081526020019060010190611171565b5050505091505090565b6000600560003373ffffffffffffffffffffffffffffffffffffffff1673ffffffffffffffffffffffffffffffffffffffff16815260200190815260200160002060009054906101000a900460ff16905090565b61148a613f74565b6114c96040518060400160405280600781526020017f73656e646572200000000000000000000000000000000000000000000000000081525033613d87565b6007826040516114d99190614d25565b908152602001604051809103902060405180604001604052908160008201805461150290615312565b80601f016020809104026020016040519081016040528092919081815260200182805461152e90615312565b801561157b5780601f106115505761010080835404028352916020019161157b565b820191906000526020600020905b81548152906001019060200180831161155e57829003601f168201915b5050505050815260200160018201805461159490615312565b80601f01602080910402602001604051908101604052809291908181526020018280546115c090615312565b801561160d5780601f106115e25761010080835404028352916020019161160d565b820191906000526020600020905b8154815290600101906020018083116115f057829003601f168201915b5050505050815250509050919050565b611625613f74565b60001515600560003373ffffffffffffffffffffffffffffffffffffffff1673ffffffffffffffffffffffffffffffffffffffff16815260200190815260200160002060009054906101000a900460ff161515141561168357600080fd5b6000600660003373ffffffffffffffffffffffffffffffffffffffff1673ffffffffffffffffffffffffffffffffffffffff16815260200190815260200160002090506007816040516116d69190614d53565b90815260200160405180910390206040518060400160405290816000820180546116ff90615312565b80601f016020809104026020016040519081016040528092919081815260200182805461172b90615312565b80156117785780601f1061174d57610100808354040283529160200191611778565b820191906000526020600020905b81548152906001019060200180831161175b57829003601f168201915b5050505050815260200160018201805461179190615312565b80601f01602080910402602001604051908101604052809291908181526020018280546117bd90615312565b801561180a5780601f106117df5761010080835404028352916020019161180a565b820191906000526020600020905b8154815290600101906020018083116117ed57829003601f168201915b50505050508152505091505090565b606060011515600560003373ffffffffffffffffffffffffffffffffffffffff1673ffffffffffffffffffffffffffffffffffffffff16815260200190815260200160002060009054906101000a900460ff1615151461187857600080fd5b600660003373ffffffffffffffffffffffffffffffffffffffff1673ffffffffffffffffffffffffffffffffffffffff16815260200190815260200160002080546118c290615312565b80601f01602080910402602001604051908101604052809291908181526020018280546118ee90615312565b801561193b5780601f106119105761010080835404028352916020019161193b565b820191906000526020600020905b81548152906001019060200180831161191e57829003601f168201915b5050505050905090565b60011515600560003373ffffffffffffffffffffffffffffffffffffffff1673ffffffffffffffffffffffffffffffffffffffff16815260200190815260200160002060009054906101000a900460ff161515146119d8576040517f08c379a00000000000000000000000000000000000000000000000000000000081526004016119cf90614ef9565b60405180910390fd5b8585600660003373ffffffffffffffffffffffffffffffffffffffff1673ffffffffffffffffffffffffffffffffffffffff1681526020019081526020016000209190611a26929190613f8e565b503360088787604051611a3a929190614d0c565b908152602001604051809103902060006101000a81548173ffffffffffffffffffffffffffffffffffffffff021916908373ffffffffffffffffffffffffffffffffffffffff160217905550604051806040016040528085858080601f016020809104026020016040519081016040528093929190818152602001838380828437600081840152601f19601f82011690508083019250505050505050815260200183838080601f016020809104026020016040519081016040528093929190818152602001838380828437600081840152601f19601f8201169050808301925050505050505081525060078787604051611b35929190614d0c565b90815260200160405180910390206000820151816000019080519060200190611b5f929190613eee565b506020820151816001019080519060200190611b7c929190613eee565b50905050611d4c6040518060400160405280600b81526020017f73656e646572206163632000000000000000000000000000000000000000000081525060078888604051611bcb929190614d0c565b90815260200160405180910390206000018054611be790615312565b80601f0160208091040260200160405190810160405280929190818152602001828054611c1390615312565b8015611c605780601f10611c3557610100808354040283529160200191611c60565b820191906000526020600020905b815481529060010190602001808311611c4357829003601f168201915b50505050506040518060400160405280600581526020017f20616e642000000000000000000000000000000000000000000000000000000081525060078a8a604051611cad929190614d0c565b90815260200160405180910390206001018054611cc990615312565b80601f0160208091040260200160405190810160405280929190818152602001828054611cf590615312565b8015611d425780601f10611d1757610100808354040283529160200191611d42565b820191906000526020600020905b815481529060010190602001808311611d2557829003601f168201915b5050505050613e23565b505050505050565b60606000600e8054905067ffffffffffffffff811115611d9d577f4e487b7100000000000000000000000000000000000000000000000000000000600052604160045260246000fd5b604051908082528060200260200182016040528015611dd657816020015b611dc3614014565b815260200190600190039081611dbb5790505b50905060005b600e8054905081101561208c57600d600e8281548110611e25577f4e487b7100000000000000000000000000000000000000000000000000000000600052603260045260246000fd5b906000526020600020015481548110611e67577f4e487b7100000000000000000000000000000000000000000000000000000000600052603260045260246000fd5b906000526020600020906004020160405180608001604052908160008201548152602001600182018054611e9a90615312565b80601f0160208091040260200160405190810160405280929190818152602001828054611ec690615312565b8015611f135780601f10611ee857610100808354040283529160200191611f13565b820191906000526020600020905b815481529060010190602001808311611ef657829003601f168201915b50505050508152602001600282018054611f2c90615312565b80601f0160208091040260200160405190810160405280929190818152602001828054611f5890615312565b8015611fa55780601f10611f7a57610100808354040283529160200191611fa5565b820191906000526020600020905b815481529060010190602001808311611f8857829003601f168201915b505050505081526020016003820160009054906101000a900460ff166004811115611ff9577f4e487b7100000000000000000000000000000000000000000000000000000000600052602160045260246000fd5b6004811115612031577f4e487b7100000000000000000000000000000000000000000000000000000000600052602160045260246000fd5b8152505082828151811061206e577f4e487b7100000000000000000000000000000000000000000000000000000000600052603260045260246000fd5b6020026020010181905250808061208490615375565b915050611ddc565b508091505090565b60011515600560003373ffffffffffffffffffffffffffffffffffffffff1673ffffffffffffffffffffffffffffffffffffffff16815260200190815260200160002060009054906101000a900460ff16151514612127576040517f08c379a000000000000000000000000000000000000000000000000000000000815260040161211e90614f19565b60405180910390fd5b600d60405180608001604052806011548152602001838152602001600660003373ffffffffffffffffffffffffffffffffffffffff1673ffffffffffffffffffffffffffffffffffffffff168152602001908152602001600020805461218c90615312565b80601f01602080910402602001604051908101604052809291908181526020018280546121b890615312565b80156122055780601f106121da57610100808354040283529160200191612205565b820191906000526020600020905b8154815290600101906020018083116121e857829003601f168201915b5050505050815260200160006004811115612249577f4e487b7100000000000000000000000000000000000000000000000000000000600052602160045260246000fd5b815250908060018154018082558091505060019003906000526020600020906004020160009091909190915060008201518160000155602082015181600101908051906020019061229b929190613eee565b5060408201518160020190805190602001906122b8929190613eee565b5060608201518160030160006101000a81548160ff0219169083600481111561230a577f4e487b7100000000000000000000000000000000000000000000000000000000600052602160045260246000fd5b02179055505050600960003373ffffffffffffffffffffffffffffffffffffffff1673ffffffffffffffffffffffffffffffffffffffff1681526020019081526020016000206011549080600181540180825580915050600190039060005260206000200160009091909190915055600e60115490806001815401808255809150506001900390600052602060002001600090919091909150556001601160008282546123b791906151b4565b9250508190555050565b6060600180546123d090615312565b80601f01602080910402602001604051908101604052809291908181526020018280546123fc90615312565b80156124495780601f1061241e57610100808354040283529160200191612449565b820191906000526020600020905b81548152906001019060200180831161242c57829003601f168201915b5050505050905090565b60011515600560003373ffffffffffffffffffffffffffffffffffffffff1673ffffffffffffffffffffffffffffffffffffffff16815260200190815260200160002060009054906101000a900460ff161515146124e6576040517f08c379a00000000000000000000000000000000000000000000000000000000081526004016124dd90614f19565b60405180910390fd5b60006004811115612520577f4e487b7100000000000000000000000000000000000000000000000000000000600052602160045260246000fd5b600d848154811061255a577f4e487b7100000000000000000000000000000000000000000000000000000000600052603260045260246000fd5b906000526020600020906004020160030160009054906101000a900460ff1660048111156125b1577f4e487b7100000000000000000000000000000000000000000000000000000000600052602160045260246000fd5b146125f1576040517f08c379a00000000000000000000000000000000000000000000000000000000081526004016125e890614f59565b60405180910390fd5b6000600a6000858152602001908152602001600020805490509050600a60008581526020019081526020016000206040518060c0016040528083815260200160405180604001604052808781526020018681525081526020018681526020016000600281111561268a577f4e487b7100000000000000000000000000000000000000000000000000000000600052602160045260246000fd5b8152602001600660003373ffffffffffffffffffffffffffffffffffffffff1673ffffffffffffffffffffffffffffffffffffffff16815260200190815260200160002080546126d990615312565b80601f016020809104026020016040519081016040528092919081815260200182805461270590615312565b80156127525780601f1061272757610100808354040283529160200191612752565b820191906000526020600020905b81548152906001019060200180831161273557829003601f168201915b50505050508152602001600d8781548110612796577f4e487b7100000000000000000000000000000000000000000000000000000000600052603260045260246000fd5b906000526020600020906004020160020180546127b290615312565b80601f01602080910402602001604051908101604052809291908181526020018280546127de90615312565b801561282b5780601f106128005761010080835404028352916020019161282b565b820191906000526020600020905b81548152906001019060200180831161280e57829003601f168201915b5050505050815250908060018154018082558091505060019003906000526020600020906007020160009091909190915060008201518160000155602082015181600101600082015181600001908051906020019061288b929190613eee565b5060208201518160010190805190602001906128a8929190613eee565b5050506040820151816003015560608201518160040160006101000a81548160ff02191690836002811115612906577f4e487b7100000000000000000000000000000000000000000000000000000000600052602160045260246000fd5b02179055506080820151816005019080519060200190612927929190613eee565b5060a0820151816006019080519060200190612944929190613eee565b50505050505050565b60606000600960003373ffffffffffffffffffffffffffffffffffffffff1673ffffffffffffffffffffffffffffffffffffffff1681526020019081526020016000208054905067ffffffffffffffff8111156129d3577f4e487b7100000000000000000000000000000000000000000000000000000000600052604160045260246000fd5b604051908082528060200260200182016040528015612a0c57816020015b6129f9614014565b8152602001906001900390816129f15790505b50905060005b600960003373ffffffffffffffffffffffffffffffffffffffff1673ffffffffffffffffffffffffffffffffffffffff16815260200190815260200160002080549050811015612d3c57600d600960003373ffffffffffffffffffffffffffffffffffffffff1673ffffffffffffffffffffffffffffffffffffffff1681526020019081526020016000208281548110612ad5577f4e487b7100000000000000000000000000000000000000000000000000000000600052603260045260246000fd5b906000526020600020015481548110612b17577f4e487b7100000000000000000000000000000000000000000000000000000000600052603260045260246000fd5b906000526020600020906004020160405180608001604052908160008201548152602001600182018054612b4a90615312565b80601f0160208091040260200160405190810160405280929190818152602001828054612b7690615312565b8015612bc35780601f10612b9857610100808354040283529160200191612bc3565b820191906000526020600020905b815481529060010190602001808311612ba657829003601f168201915b50505050508152602001600282018054612bdc90615312565b80601f0160208091040260200160405190810160405280929190818152602001828054612c0890615312565b8015612c555780601f10612c2a57610100808354040283529160200191612c55565b820191906000526020600020905b815481529060010190602001808311612c3857829003601f168201915b505050505081526020016003820160009054906101000a900460ff166004811115612ca9577f4e487b7100000000000000000000000000000000000000000000000000000000600052602160045260246000fd5b6004811115612ce1577f4e487b7100000000000000000000000000000000000000000000000000000000600052602160045260246000fd5b81525050828281518110612d1e577f4e487b7100000000000000000000000000000000000000000000000000000000600052603260045260246000fd5b60200260200101819052508080612d3490615375565b915050612a12565b508091505090565b60011515600560003373ffffffffffffffffffffffffffffffffffffffff1673ffffffffffffffffffffffffffffffffffffffff16815260200190815260200160002060009054906101000a900460ff16151514612dd7576040517f08c379a0000000000000000000000000000000000000000000000000000000008152600401612dce90614f19565b60405180910390fd5b6000600d8381548110612e13577f4e487b7100000000000000000000000000000000000000000000000000000000600052603260045260246000fd5b90600052602060002090600402016002018054612e2f90615312565b80601f0160208091040260200160405190810160405280929190818152602001828054612e5b90615312565b8015612ea85780601f10612e7d57610100808354040283529160200191612ea8565b820191906000526020600020905b815481529060010190602001808311612e8b57829003601f168201915b505050505090503373ffffffffffffffffffffffffffffffffffffffff16600882604051612ed69190614d25565b908152602001604051809103902060009054906101000a900473ffffffffffffffffffffffffffffffffffffffff1673ffffffffffffffffffffffffffffffffffffffff1614612f5b576040517f08c379a0000000000000000000000000000000000000000000000000000000008152600401612f5290614ed9565b60405180910390fd5b60006004811115612f95577f4e487b7100000000000000000000000000000000000000000000000000000000600052602160045260246000fd5b600d8481548110612fcf577f4e487b7100000000000000000000000000000000000000000000000000000000600052603260045260246000fd5b906000526020600020906004020160030160009054906101000a900460ff166004811115613026577f4e487b7100000000000000000000000000000000000000000000000000000000600052602160045260246000fd5b14613066576040517f08c379a000000000000000000000000000000000000000000000000000000000815260040161305d90614f59565b60405180910390fd5b600060028111156130a0577f4e487b7100000000000000000000000000000000000000000000000000000000600052602160045260246000fd5b600a600085815260200190815260200160002083815481106130eb577f4e487b7100000000000000000000000000000000000000000000000000000000600052603260045260246000fd5b906000526020600020906007020160040160009054906101000a900460ff166002811115613142577f4e487b7100000000000000000000000000000000000000000000000000000000600052602160045260246000fd5b14613182576040517f08c379a000000000000000000000000000000000000000000000000000000000815260040161317990614f39565b60405180910390fd5b60005b600a60008581526020019081526020016000208054905081101561365d5782811461364a576001600a600086815260200190815260200160002082815481106131f7577f4e487b7100000000000000000000000000000000000000000000000000000000600052603260045260246000fd5b906000526020600020906007020160040160006101000a81548160ff02191690836002811115613250577f4e487b7100000000000000000000000000000000000000000000000000000000600052602160045260246000fd5b0217905550600b600a600086815260200190815260200160002082815481106132a2577f4e487b7100000000000000000000000000000000000000000000000000000000600052603260045260246000fd5b90600052602060002090600702016005016040516132c09190614d3c565b90815260200160405180910390206040518060a00160405280600015158152602001868152602001600a60008881526020019081526020016000208481548110613333577f4e487b7100000000000000000000000000000000000000000000000000000000600052603260045260246000fd5b906000526020600020906007020160010160405180604001604052908160008201805461335f90615312565b80601f016020809104026020016040519081016040528092919081815260200182805461338b90615312565b80156133d85780601f106133ad576101008083540402835291602001916133d8565b820191906000526020600020905b8154815290600101906020018083116133bb57829003601f168201915b505050505081526020016001820180546133f190615312565b80601f016020809104026020016040519081016040528092919081815260200182805461341d90615312565b801561346a5780601f1061343f5761010080835404028352916020019161346a565b820191906000526020600020905b81548152906001019060200180831161344d57829003601f168201915b5050505050815250508152602001600a600088815260200190815260200160002084815481106134c3577f4e487b7100000000000000000000000000000000000000000000000000000000600052603260045260246000fd5b906000526020600020906007020160050180546134df90615312565b80601f016020809104026020016040519081016040528092919081815260200182805461350b90615312565b80156135585780601f1061352d57610100808354040283529160200191613558565b820191906000526020600020905b81548152906001019060200180831161353b57829003601f168201915b5050505050815260200160405180602001604052806000815250815250908060018154018082558091505060019003906000526020600020906006020160009091909190915060008201518160000160006101000a81548160ff0219169083151502179055506020820151816001015560408201518160020160008201518160000190805190602001906135ed929190613eee565b50602082015181600101908051906020019061360a929190613eee565b5050506060820151816004019080519060200190613629929190613eee565b506080820151816005019080519060200190613646929190613eee565b5050505b808061365590615375565b915050613185565b506002600a600085815260200190815260200160002083815481106136ab577f4e487b7100000000000000000000000000000000000000000000000000000000600052603260045260246000fd5b906000526020600020906007020160040160006101000a81548160ff02191690836002811115613704577f4e487b7100000000000000000000000000000000000000000000000000000000600052602160045260246000fd5b0217905550600b600a60008581526020019081526020016000208381548110613756577f4e487b7100000000000000000000000000000000000000000000000000000000600052603260045260246000fd5b90600052602060002090600702016005016040516137749190614d3c565b90815260200160405180910390206040518060a00160405280600115158152602001858152602001600a600087815260200190815260200160002085815481106137e7577f4e487b7100000000000000000000000000000000000000000000000000000000600052603260045260246000fd5b906000526020600020906007020160010160405180604001604052908160008201805461381390615312565b80601f016020809104026020016040519081016040528092919081815260200182805461383f90615312565b801561388c5780601f106138615761010080835404028352916020019161388c565b820191906000526020600020905b81548152906001019060200180831161386f57829003601f168201915b505050505081526020016001820180546138a590615312565b80601f01602080910402602001604051908101604052809291908181526020018280546138d190615312565b801561391e5780601f106138f35761010080835404028352916020019161391e565b820191906000526020600020905b81548152906001019060200180831161390157829003601f168201915b5050505050815250508152602001600a60008781526020019081526020016000208581548110613977577f4e487b7100000000000000000000000000000000000000000000000000000000600052603260045260246000fd5b9060005260206000209060070201600501805461399390615312565b80601f01602080910402602001604051908101604052809291908181526020018280546139bf90615312565b8015613a0c5780601f106139e157610100808354040283529160200191613a0c565b820191906000526020600020905b8154815290600101906020018083116139ef57829003601f168201915b5050505050815260200183815250908060018154018082558091505060019003906000526020600020906006020160009091909190915060008201518160000160006101000a81548160ff021916908315150217905550602082015181600101556040820151816002016000820151816000019080519060200190613a92929190613eee565b506020820151816001019080519060200190613aaf929190613eee565b5050506060820151816004019080519060200190613ace929190613eee565b506080820151816005019080519060200190613aeb929190613eee565b5050506001600d8481548110613b2a577f4e487b7100000000000000000000000000000000000000000000000000000000600052603260045260246000fd5b906000526020600020906004020160030160006101000a81548160ff02191690836004811115613b83577f4e487b7100000000000000000000000000000000000000000000000000000000600052602160045260246000fd5b021790555060005b600e80549050811015613ce85783600e8281548110613bd3577f4e487b7100000000000000000000000000000000000000000000000000000000600052603260045260246000fd5b90600052602060002001541415613cd557600e6001600e80549050613bf8919061520a565b81548110613c2f577f4e487b7100000000000000000000000000000000000000000000000000000000600052603260045260246000fd5b9060005260206000200154600e8281548110613c74577f4e487b7100000000000000000000000000000000000000000000000000000000600052603260045260246000fd5b9060005260206000200181905550600e805480613cba577f4e487b7100000000000000000000000000000000000000000000000000000000600052603160045260246000fd5b60019003818190600052602060002001600090559055613ce8565b8080613ce090615375565b915050613b8b565b50505050565b613d8481604051602401613d029190614e06565b6040516020818303038152906040527f41304fac000000000000000000000000000000000000000000000000000000007bffffffffffffffffffffffffffffffffffffffffffffffffffffffff19166020820180517bffffffffffffffffffffffffffffffffffffffffffffffffffffffff8381831617835250505050613ec5565b50565b613e1f8282604051602401613d9d929190614e28565b6040516020818303038152906040527f319af333000000000000000000000000000000000000000000000000000000007bffffffffffffffffffffffffffffffffffffffffffffffffffffffff19166020820180517bffffffffffffffffffffffffffffffffffffffffffffffffffffffff8381831617835250505050613ec5565b5050565b613ebf84848484604051602401613e3d9493929190614e58565b6040516020818303038152906040527fde68f20a000000000000000000000000000000000000000000000000000000007bffffffffffffffffffffffffffffffffffffffffffffffffffffffff19166020820180517bffffffffffffffffffffffffffffffffffffffffffffffffffffffff8381831617835250505050613ec5565b50505050565b60008151905060006a636f6e736f6c652e6c6f679050602083016000808483855afa5050505050565b828054613efa90615312565b90600052602060002090601f016020900481019282613f1c5760008555613f63565b82601f10613f3557805160ff1916838001178555613f63565b82800160010185558215613f63579182015b82811115613f62578251825591602001919060010190613f47565b5b509050613f709190614074565b5090565b604051806040016040528060608152602001606081525090565b828054613f9a90615312565b90600052602060002090601f016020900481019282613fbc5760008555614003565b82601f10613fd557803560ff1916838001178555614003565b82800160010185558215614003579182015b82811115614002578235825591602001919060010190613fe7565b5b5090506140109190614074565b5090565b60405180608001604052806000815260200160608152602001606081526020016000600481111561406e577f4e487b7100000000000000000000000000000000000000000000000000000000600052602160045260246000fd5b81525090565b5b8082111561408d576000816000905550600101614075565b5090565b60006140a461409f8461504a565b615025565b905080838252602082019050828560208602820111156140c357600080fd5b60005b858110156140f357816140d9888261413b565b8452602084019350602083019250506001810190506140c6565b5050509392505050565b600061411061410b84615076565b615025565b90508281526020810184848401111561412857600080fd5b6141338482856152d0565b509392505050565b60008135905061414a816155a9565b92915050565b600082601f83011261416157600080fd5b8135614171848260208601614091565b91505092915050565b600081359050614189816155c0565b92915050565b60008083601f8401126141a157600080fd5b8235905067ffffffffffffffff8111156141ba57600080fd5b6020830191508360018202830111156141d257600080fd5b9250929050565b600082601f8301126141ea57600080fd5b81356141fa8482602086016140fd565b91505092915050565b600081359050614212816155d7565b92915050565b60006020828403121561422a57600080fd5b60006142388482850161413b565b91505092915050565b60006020828403121561425357600080fd5b600082013567ffffffffffffffff81111561426d57600080fd5b61427984828501614150565b91505092915050565b6000806000806000806060878903121561429b57600080fd5b600087013567ffffffffffffffff8111156142b557600080fd5b6142c189828a0161418f565b9650965050602087013567ffffffffffffffff8111156142e057600080fd5b6142ec89828a0161418f565b9450945050604087013567ffffffffffffffff81111561430b57600080fd5b61431789828a0161418f565b92509250509295509295509295565b60006020828403121561433857600080fd5b600082013567ffffffffffffffff81111561435257600080fd5b61435e848285016141d9565b91505092915050565b6000806000806080858703121561437d57600080fd5b600085013567ffffffffffffffff81111561439757600080fd5b6143a3878288016141d9565b945050602085013567ffffffffffffffff8111156143c057600080fd5b6143cc878288016141d9565b935050604085013567ffffffffffffffff8111156143e957600080fd5b6143f5878288016141d9565b925050606085013567ffffffffffffffff81111561441257600080fd5b61441e878288016141d9565b91505092959194509250565b60008060008060008060c0878903121561444357600080fd5b600087013567ffffffffffffffff81111561445d57600080fd5b61446989828a016141d9565b965050602087013567ffffffffffffffff81111561448657600080fd5b61449289828a016141d9565b955050604087013567ffffffffffffffff8111156144af57600080fd5b6144bb89828a016141d9565b945050606087013567ffffffffffffffff8111156144d857600080fd5b6144e489828a016141d9565b935050608087013567ffffffffffffffff81111561450157600080fd5b61450d89828a016141d9565b92505060a087013567ffffffffffffffff81111561452a57600080fd5b61453689828a016141d9565b9150509295509295509295565b60006020828403121561455557600080fd5b600061456384828501614203565b91505092915050565b6000806040838503121561457f57600080fd5b600061458d85828601614203565b925050602061459e8582860161417a565b9150509250929050565b6000806000606084860312156145bd57600080fd5b60006145cb86828701614203565b935050602084013567ffffffffffffffff8111156145e857600080fd5b6145f4868287016141d9565b925050604084013567ffffffffffffffff81111561461157600080fd5b61461d868287016141d9565b9150509250925092565b6000806040838503121561463a57600080fd5b600061464885828601614203565b925050602061465985828601614203565b9150509250929050565b600061466f8383614ae1565b905092915050565b60006146838383614c00565b905092915050565b60006146978383614c84565b905092915050565b6146a88161523e565b82525050565b60006146b982615101565b6146c38185615154565b9350836020820285016146d5856150a7565b8060005b8581101561471157848403895281516146f28582614663565b94506146fd8361512d565b925060208a019950506001810190506146d9565b50829750879550505050505092915050565b600061472e8261510c565b6147388185615165565b93508360208202850161474a856150b7565b8060005b8581101561478657848403895281516147678582614677565b94506147728361513a565b925060208a0199505060018101905061474e565b50829750879550505050505092915050565b60006147a382615117565b6147ad8185615176565b9350836020820285016147bf856150c7565b8060005b858110156147fb57848403895281516147dc858261468b565b94506147e783615147565b925060208a019950506001810190506147c3565b50829750879550505050505092915050565b61481681615250565b82525050565b61482581615250565b82525050565b614834816152ac565b82525050565b614843816152be565b82525050565b600061485583856151a9565b93506148628385846152d0565b82840190509392505050565b600061487982615122565b6148838185615187565b93506148938185602086016152df565b61489c8161547a565b840191505092915050565b60006148b282615122565b6148bc8185615198565b93506148cc8185602086016152df565b6148d58161547a565b840191505092915050565b60006148eb82615122565b6148f581856151a9565b93506149058185602086016152df565b80840191505092915050565b6000815461491e81615312565b61492881866151a9565b94506001821660008114614943576001811461495457614987565b60ff19831686528186019350614987565b61495d856150ec565b60005b8381101561497f57815481890152600182019150602081019050614960565b838801955050505b50505092915050565b6000815461499d81615312565b6149a781866151a9565b945060018216600081146149c257600181146149d357614a06565b60ff19831686528186019350614a06565b6149dc856150d7565b60005b838110156149fe578154818901526001820191506020810190506149df565b838801955050505b50505092915050565b6000614a1c601783615198565b9150614a278261548b565b602082019050919050565b6000614a3f601f83615198565b9150614a4a826154b4565b602082019050919050565b6000614a62601883615198565b9150614a6d826154dd565b602082019050919050565b6000614a85601783615198565b9150614a9082615506565b602082019050919050565b6000614aa8601c83615198565b9150614ab38261552f565b602082019050919050565b6000614acb602083615198565b9150614ad682615558565b602082019050919050565b600060c083016000830151614af96000860182614cee565b5060208301518482036020860152614b118282614b78565b9150506040830151614b266040860182614cee565b506060830151614b39606086018261482b565b5060808301518482036080860152614b51828261486e565b91505060a083015184820360a0860152614b6b828261486e565b9150508091505092915050565b60006040830160008301518482036000860152614b95828261486e565b91505060208301518482036020860152614baf828261486e565b9150508091505092915050565b60006040830160008301518482036000860152614bd9828261486e565b91505060208301518482036020860152614bf3828261486e565b9150508091505092915050565b600060a083016000830151614c18600086018261480d565b506020830151614c2b6020860182614cee565b5060408301518482036040860152614c438282614b78565b91505060608301518482036060860152614c5d828261486e565b91505060808301518482036080860152614c77828261486e565b9150508091505092915050565b6000608083016000830151614c9c6000860182614cee565b5060208301518482036020860152614cb4828261486e565b91505060408301518482036040860152614cce828261486e565b9150506060830151614ce3606086018261483a565b508091505092915050565b614cf7816152a2565b82525050565b614d06816152a2565b82525050565b6000614d19828486614849565b91508190509392505050565b6000614d3182846148e0565b915081905092915050565b6000614d488284614990565b915081905092915050565b6000614d5f8284614911565b915081905092915050565b6000602082019050614d7f600083018461469f565b92915050565b60006020820190508181036000830152614d9f81846146ae565b905092915050565b60006020820190508181036000830152614dc18184614723565b905092915050565b60006020820190508181036000830152614de38184614798565b905092915050565b6000602082019050614e00600083018461481c565b92915050565b60006020820190508181036000830152614e2081846148a7565b905092915050565b60006040820190508181036000830152614e4281856148a7565b9050614e51602083018461469f565b9392505050565b60006080820190508181036000830152614e7281876148a7565b90508181036020830152614e8681866148a7565b90508181036040830152614e9a81856148a7565b90508181036060830152614eae81846148a7565b905095945050505050565b60006020820190508181036000830152614ed281614a0f565b9050919050565b60006020820190508181036000830152614ef281614a32565b9050919050565b60006020820190508181036000830152614f1281614a55565b9050919050565b60006020820190508181036000830152614f3281614a78565b9050919050565b60006020820190508181036000830152614f5281614a9b565b9050919050565b60006020820190508181036000830152614f7281614abe565b9050919050565b60006020820190508181036000830152614f938184614bbc565b905092915050565b6000602082019050614fb06000830184614cfd565b92915050565b600060a082019050614fcb6000830188614cfd565b8181036020830152614fdd81876148a7565b90508181036040830152614ff181866148a7565b9050818103606083015261500581856148a7565b9050818103608083015261501981846148a7565b90509695505050505050565b600061502f615040565b905061503b8282615344565b919050565b6000604051905090565b600067ffffffffffffffff8211156150655761506461544b565b5b602082029050602081019050919050565b600067ffffffffffffffff8211156150915761509061544b565b5b61509a8261547a565b9050602081019050919050565b6000819050602082019050919050565b6000819050602082019050919050565b6000819050602082019050919050565b60008190508160005260206000209050919050565b60008190508160005260206000209050919050565b600081519050919050565b600081519050919050565b600081519050919050565b600081519050919050565b6000602082019050919050565b6000602082019050919050565b6000602082019050919050565b600082825260208201905092915050565b600082825260208201905092915050565b600082825260208201905092915050565b600082825260208201905092915050565b600082825260208201905092915050565b600081905092915050565b60006151bf826152a2565b91506151ca836152a2565b9250827fffffffffffffffffffffffffffffffffffffffffffffffffffffffffffffffff038211156151ff576151fe6153be565b5b828201905092915050565b6000615215826152a2565b9150615220836152a2565b925082821015615233576152326153be565b5b828203905092915050565b600061524982615282565b9050919050565b60008115159050919050565b600081905061526a82615581565b919050565b600081905061527d82615595565b919050565b600073ffffffffffffffffffffffffffffffffffffffff82169050919050565b6000819050919050565b60006152b78261525c565b9050919050565b60006152c98261526f565b9050919050565b82818337600083830152505050565b60005b838110156152fd5780820151818401526020810190506152e2565b8381111561530c576000848401525b50505050565b6000600282049050600182168061532a57607f821691505b6020821081141561533e5761533d61541c565b5b50919050565b61534d8261547a565b810181811067ffffffffffffffff8211171561536c5761536b61544b565b5b80604052505050565b6000615380826152a2565b91507fffffffffffffffffffffffffffffffffffffffffffffffffffffffffffffffff8214156153b3576153b26153be565b5b600182019050919050565b7f4e487b7100000000000000000000000000000000000000000000000000000000600052601160045260246000fd5b7f4e487b7100000000000000000000000000000000000000000000000000000000600052602160045260246000fd5b7f4e487b7100000000000000000000000000000000000000000000000000000000600052602260045260246000fd5b7f4e487b7100000000000000000000000000000000000000000000000000000000600052604160045260246000fd5b6000601f19601f8301169050919050565b7f596f7520617265206e6f7420617574686f72697a65642e000000000000000000600082015250565b7f596f7520617265206e6f74206f6e776572206f662074686973207461736b2e00600082015250565b7f596f7520686176656e277420726567697374657265642e200000000000000000600082015250565b7f596f7520686176656e277420726567697374657265642e000000000000000000600082015250565b7f546865206465616c207374617465206973206e6f742076616c69642e00000000600082015250565b7f546865207461736b206973206e6f206c6f6e67657220617661696c61626c652e600082015250565b60038110615592576155916153ed565b5b50565b600581106155a6576155a56153ed565b5b50565b6155b28161523e565b81146155bd57600080fd5b50565b6155c981615250565b81146155d457600080fd5b50565b6155e0816152a2565b81146155eb57600080fd5b5056fea2646970667358221220e74e182f7d2287c2bd54cd54d5f73ed9398564a547b9930c97a1e29498a4f19a64736f6c63430008040033",
  "linkReferences": {},
  "deployedLinkReferences": {}
}