{
  "_format": "hh-sol-artifact-1",
  "contractName": "XContract",
  "sourceName": "contracts/XContract.sol",
  "abi": [
    {
      "inputs": [],
      "stateMutability": "nonpayable",
      "type": "constructor"
    },
    {
      "anonymous": false,
      "inputs": [
        {
          "indexed": false,
          "internalType": "string",
          "name": "pk",
          "type": "string"
        }
      ],
      "name": "InitBalance",
      "type": "event"
    },
    {
      "anonymous": false,
      "inputs": [
        {
          "indexed": false,
          "internalType": "uint256",
          "name": "id",
          "type": "uint256"
        },
        {
          "indexed": false,
          "internalType": "string",
          "name": "rangeproof1",
          "type": "string"
        },
        {
          "indexed": false,
          "internalType": "string",
          "name": "rangeproof2",
          "type": "string"
        },
        {
          "indexed": false,
          "internalType": "string",
          "name": "sigmaProof",
          "type": "string"
        },
        {
          "indexed": false,
          "internalType": "string",
          "name": "input",
          "type": "string"
        }
      ],
      "name": "NewConfTransfer",
      "type": "event"
    },
    {
      "anonymous": false,
      "inputs": [
        {
          "indexed": false,
          "internalType": "uint256",
          "name": "id",
          "type": "uint256"
        },
        {
          "indexed": false,
          "internalType": "string",
          "name": "CL_price",
          "type": "string"
        },
        {
          "indexed": false,
          "internalType": "string",
          "name": "CR_price",
          "type": "string"
        }
      ],
      "name": "NewPrice",
      "type": "event"
    },
    {
      "anonymous": false,
      "inputs": [
        {
          "indexed": false,
          "internalType": "uint256",
          "name": "id",
          "type": "uint256"
        },
        {
          "indexed": false,
          "internalType": "string",
          "name": "proof",
          "type": "string"
        }
      ],
      "name": "NewRequest",
      "type": "event"
    },
    {
      "anonymous": false,
      "inputs": [
        {
          "indexed": false,
          "internalType": "string",
          "name": "newMsg",
          "type": "string"
        }
      ],
      "name": "TestMsg",
      "type": "event"
    },
    {
      "anonymous": false,
      "inputs": [
        {
          "indexed": false,
          "internalType": "address",
          "name": "add",
          "type": "address"
        },
        {
          "indexed": false,
          "internalType": "uint256",
          "name": "balance",
          "type": "uint256"
        }
      ],
      "name": "UpdateState",
      "type": "event"
    },
    {
      "anonymous": false,
      "inputs": [
        {
          "indexed": false,
          "internalType": "uint256",
          "name": "id",
          "type": "uint256"
        },
        {
          "indexed": false,
          "internalType": "string",
          "name": "CL_price",
          "type": "string"
        },
        {
          "indexed": false,
          "internalType": "string",
          "name": "CR_price",
          "type": "string"
        },
        {
          "indexed": false,
          "internalType": "string",
          "name": "bidderKey",
          "type": "string"
        }
      ],
      "name": "makeDeal",
      "type": "event"
    },
    {
      "inputs": [
        {
          "internalType": "string",
          "name": "y",
          "type": "string"
        }
      ],
      "name": "ElBalanceOf",
      "outputs": [
        {
          "components": [
            {
              "internalType": "string",
              "name": "CL",
              "type": "string"
            },
            {
              "internalType": "string",
              "name": "CR",
              "type": "string"
            }
          ],
          "internalType": "struct XContract.ElBalance",
          "name": "",
          "type": "tuple"
        }
      ],
      "stateMutability": "view",
      "type": "function"
    },
    {
      "inputs": [
        {
          "internalType": "uint256",
          "name": "id",
          "type": "uint256"
        },
        {
          "internalType": "string",
          "name": "CL_price",
          "type": "string"
        },
        {
          "internalType": "string",
          "name": "CR_price",
          "type": "string"
        }
      ],
      "name": "assignWithAcceptionOfPrice",
      "outputs": [],
      "stateMutability": "nonpayable",
      "type": "function"
    },
    {
      "inputs": [],
      "name": "association",
      "outputs": [
        {
          "internalType": "address",
          "name": "",
          "type": "address"
        }
      ],
      "stateMutability": "view",
      "type": "function"
    },
    {
      "inputs": [
        {
          "internalType": "address[]",
          "name": "newAcc",
          "type": "address[]"
        }
      ],
      "name": "authorizeNewUser",
      "outputs": [],
      "stateMutability": "nonpayable",
      "type": "function"
    },
    {
      "inputs": [],
      "name": "balanceOf",
      "outputs": [
        {
          "components": [
            {
              "internalType": "string",
              "name": "CL",
              "type": "string"
            },
            {
              "internalType": "string",
              "name": "CR",
              "type": "string"
            }
          ],
          "internalType": "struct XContract.ElBalance",
          "name": "",
          "type": "tuple"
        }
      ],
      "stateMutability": "view",
      "type": "function"
    },
    {
      "inputs": [
        {
          "internalType": "address",
          "name": "newAcc",
          "type": "address"
        }
      ],
      "name": "checkAuthorizeNewUser",
      "outputs": [
        {
          "internalType": "bool",
          "name": "",
          "type": "bool"
        }
      ],
      "stateMutability": "view",
      "type": "function"
    },
    {
      "inputs": [],
      "name": "checkAuthorized",
      "outputs": [
        {
          "internalType": "bool",
          "name": "",
          "type": "bool"
        }
      ],
      "stateMutability": "view",
      "type": "function"
    },
    {
      "inputs": [
        {
          "internalType": "string",
          "name": "proofForAmt",
          "type": "string"
        },
        {
          "internalType": "string",
          "name": "proofForRemainBalance",
          "type": "string"
        },
        {
          "internalType": "string",
          "name": "sigmaProof",
          "type": "string"
        },
        {
          "internalType": "string",
          "name": "input",
          "type": "string"
        }
      ],
      "name": "confTransfer",
      "outputs": [],
      "stateMutability": "nonpayable",
      "type": "function"
    },
    {
      "inputs": [
        {
          "internalType": "uint256",
          "name": "id",
          "type": "uint256"
        },
        {
          "internalType": "bool",
          "name": "res",
          "type": "bool"
        }
      ],
      "name": "confirmProof",
      "outputs": [],
      "stateMutability": "nonpayable",
      "type": "function"
    },
    {
      "inputs": [],
      "name": "fetchPubkey",
      "outputs": [
        {
          "internalType": "string",
          "name": "",
          "type": "string"
        }
      ],
      "stateMutability": "view",
      "type": "function"
    },
    {
      "inputs": [],
      "name": "getTasks",
      "outputs": [
        {
          "components": [
            {
              "internalType": "uint256",
              "name": "id",
              "type": "uint256"
            },
            {
              "internalType": "string",
              "name": "content",
              "type": "string"
            },
            {
              "internalType": "string",
              "name": "pubkeyOfSender",
              "type": "string"
            },
            {
              "internalType": "enum XContract.State",
              "name": "state",
              "type": "uint8"
            }
          ],
          "internalType": "struct XContract.Request[]",
          "name": "",
          "type": "tuple[]"
        }
      ],
      "stateMutability": "view",
      "type": "function"
    },
    {
      "inputs": [],
      "name": "greet",
      "outputs": [
        {
          "internalType": "string",
          "name": "",
          "type": "string"
        }
      ],
      "stateMutability": "view",
      "type": "function"
    },
    {
      "inputs": [],
      "name": "hasPubKey",
      "outputs": [
        {
          "internalType": "bool",
          "name": "",
          "type": "bool"
        }
      ],
      "stateMutability": "view",
      "type": "function"
    },
    {
      "inputs": [
        {
          "internalType": "string",
          "name": "y",
          "type": "string"
        },
        {
          "internalType": "string",
          "name": "cL",
          "type": "string"
        },
        {
          "internalType": "string",
          "name": "cR",
          "type": "string"
        }
      ],
      "name": "initPocket",
      "outputs": [],
      "stateMutability": "nonpayable",
      "type": "function"
    },
    {
      "inputs": [],
      "name": "initialSupply",
      "outputs": [
        {
          "internalType": "uint256",
          "name": "",
          "type": "uint256"
        }
      ],
      "stateMutability": "view",
      "type": "function"
    },
    {
      "inputs": [],
      "name": "name",
      "outputs": [
        {
          "internalType": "string",
          "name": "",
          "type": "string"
        }
      ],
      "stateMutability": "view",
      "type": "function"
    },
    {
      "inputs": [
        {
          "internalType": "string",
          "name": "_task",
          "type": "string"
        }
      ],
      "name": "postTask",
      "outputs": [],
      "stateMutability": "nonpayable",
      "type": "function"
    },
    {
      "inputs": [
        {
          "internalType": "uint256",
          "name": "id",
          "type": "uint256"
        },
        {
          "internalType": "string",
          "name": "CL_price",
          "type": "string"
        },
        {
          "internalType": "string",
          "name": "CR_price",
          "type": "string"
        }
      ],
      "name": "raiseAPrice",
      "outputs": [],
      "stateMutability": "nonpayable",
      "type": "function"
    },
    {
      "inputs": [],
      "name": "totalSupply",
      "outputs": [
        {
          "internalType": "uint256",
          "name": "",
          "type": "uint256"
        }
      ],
      "stateMutability": "view",
      "type": "function"
    },
    {
      "inputs": [
        {
          "internalType": "string",
          "name": "y",
          "type": "string"
        },
        {
          "internalType": "string",
          "name": "C1",
          "type": "string"
        },
        {
          "internalType": "string",
          "name": "C2",
          "type": "string"
        },
        {
          "internalType": "string",
          "name": "yr",
          "type": "string"
        },
        {
          "internalType": "string",
          "name": "C3",
          "type": "string"
        },
        {
          "internalType": "string",
          "name": "C4",
          "type": "string"
        }
      ],
      "name": "updateBalance",
      "outputs": [],
      "stateMutability": "nonpayable",
      "type": "function"
    }
  ],
  "bytecode": "0x60806040526040518060400160405280600981526020017f58636f6e747261637400000000000000000000000000000000000000000000008152506000908051906020019062000051929190620002a9565b50620f42406002556127106003556040518060200160405280600081525060049080519060200190620000869291906200033a565b503480156200009457600080fd5b506001600560003373ffffffffffffffffffffffffffffffffffffffff1673ffffffffffffffffffffffffffffffffffffffff16815260200190815260200160002060006101000a81548160ff02191690831515021790555033600960006101000a81548173ffffffffffffffffffffffffffffffffffffffff021916908373ffffffffffffffffffffffffffffffffffffffff1602179055506040518060400160405280600381526020017f3030300000000000000000000000000000000000000000000000000000000000815250600190805190602001906200017b929190620002a9565b50620001c76040518060400160405280601381526020017f4465706c6f79205375636365737366756c6c2000000000000000000000000000815250620001dd60201b620020071760201c565b6000600b819055506000600c8190555062000517565b6200027d81604051602401620001f491906200042b565b6040516020818303038152906040527f41304fac000000000000000000000000000000000000000000000000000000007bffffffffffffffffffffffffffffffffffffffffffffffffffffffff19166020820180517bffffffffffffffffffffffffffffffffffffffffffffffffffffffff83818316178352505050506200028060201b60201c565b50565b60008151905060006a636f6e736f6c652e6c6f679050602083016000808483855afa5050505050565b828054620002b790620004a1565b90600052602060002090601f016020900481019282620002db576000855562000327565b82601f10620002f657805160ff191683800117855562000327565b8280016001018555821562000327579182015b828111156200032657825182559160200191906001019062000309565b5b509050620003369190620003cb565b5090565b8280546200034890620004a1565b90600052602060002090601f0160209004810192826200036c5760008555620003b8565b82601f106200038757805160ff1916838001178555620003b8565b82800160010185558215620003b8579182015b82811115620003b75782518255916020019190600101906200039a565b5b509050620003c79190620003cb565b5090565b5b80821115620003e6576000816000905550600101620003cc565b5090565b6000620003f7826200044f565b6200040381856200045a565b9350620004158185602086016200046b565b620004208162000506565b840191505092915050565b60006020820190508181036000830152620004478184620003ea565b905092915050565b600081519050919050565b600082825260208201905092915050565b60005b838110156200048b5780820151818401526020810190506200046e565b838111156200049b576000848401525b50505050565b60006002820490506001821680620004ba57607f821691505b60208210811415620004d157620004d0620004d7565b5b50919050565b7f4e487b7100000000000000000000000000000000000000000000000000000000600052602260045260246000fd5b6000601f19601f8301169050919050565b6133e280620005276000396000f3fe608060405234801561001057600080fd5b506004361061012c5760003560e01c80635f32b6db116100ad578063817f4e3d11610071578063817f4e3d1461030d5780638655854c1461032b578063c4ca280d14610347578063cfae321714610363578063d8b86fec146103815761012c565b80635f32b6db1461026957806362746e6c146102855780636ac4d94a146102a3578063712bef91146102bf578063722713f7146102ef5761012c565b80633a2568e9116100f45780633a2568e9146101c75780634118b16f146101e3578063496cb056146101ff578063509145db1461022f5780635c260e501461024b5761012c565b806304a87e3814610131578063050d4f781461014f57806306fdde031461016d57806318160ddd1461018b578063378dc3dc146101a9575b600080fd5b61013961039d565b6040516101469190612c6e565b60405180910390f35b6101576105b1565b6040516101649190612c53565b60405180910390f35b6101756105d7565b6040516101829190612cab565b60405180910390f35b610193610665565b6040516101a09190612e00565b60405180910390f35b6101b161066b565b6040516101be9190612e00565b60405180910390f35b6101e160048036038101906101dc91906127fc565b610671565b005b6101fd60048036038101906101f89190612620565b6107bc565b005b610219600480360381019061021491906124d1565b610ae7565b6040516102269190612c90565b60405180910390f35b610249600480360381019061024491906124fa565b610bcd565b005b610253610d18565b6040516102609190612c90565b60405180910390f35b610283600480360381019061027e91906126e3565b610e12565b005b61028d610efa565b60405161029a9190612c90565b60405180910390f35b6102bd60048036038101906102b89190612838565b610f4e565b005b6102d960048036038101906102d491906125df565b6111bd565b6040516102e69190612dde565b60405180910390f35b6102f7611358565b6040516103049190612dde565b60405180910390f35b610315611554565b6040516103229190612cab565b60405180910390f35b6103456004803603810190610340919061253b565b611680565b005b610361600480360381019061035c91906125df565b611a30565b005b61036b611cca565b6040516103789190612cab565b60405180910390f35b61039b60048036038101906103969190612838565b611d5c565b005b6060600a805480602002602001604051908101604052809291908181526020016000905b828210156105a85783829060005260206000209060040201604051806080016040529081600082015481526020016001820180546103fe90613136565b80601f016020809104026020016040519081016040528092919081815260200182805461042a90613136565b80156104775780601f1061044c57610100808354040283529160200191610477565b820191906000526020600020905b81548152906001019060200180831161045a57829003601f168201915b5050505050815260200160028201805461049090613136565b80601f01602080910402602001604051908101604052809291908181526020018280546104bc90613136565b80156105095780601f106104de57610100808354040283529160200191610509565b820191906000526020600020905b8154815290600101906020018083116104ec57829003601f168201915b505050505081526020016003820160009054906101000a900460ff16600481111561055d577f4e487b7100000000000000000000000000000000000000000000000000000000600052602160045260246000fd5b6004811115610595577f4e487b7100000000000000000000000000000000000000000000000000000000600052602160045260246000fd5b81525050815260200190600101906103c1565b50505050905090565b600960009054906101000a900473ffffffffffffffffffffffffffffffffffffffff1681565b600080546105e490613136565b80601f016020809104026020016040519081016040528092919081815260200182805461061090613136565b801561065d5780601f106106325761010080835404028352916020019161065d565b820191906000526020600020905b81548152906001019060200180831161064057829003601f168201915b505050505081565b60025481565b60035481565b60011515811515141561071d576001600a83815481106106ba577f4e487b7100000000000000000000000000000000000000000000000000000000600052603260045260246000fd5b906000526020600020906004020160030160006101000a81548160ff02191690836004811115610713577f4e487b7100000000000000000000000000000000000000000000000000000000600052602160045260246000fd5b02179055506107b8565b6004600a8381548110610759577f4e487b7100000000000000000000000000000000000000000000000000000000600052603260045260246000fd5b906000526020600020906004020160030160006101000a81548160ff021916908360048111156107b2577f4e487b7100000000000000000000000000000000000000000000000000000000600052602160045260246000fd5b02179055505b5050565b60011515600560003373ffffffffffffffffffffffffffffffffffffffff1673ffffffffffffffffffffffffffffffffffffffff16815260200190815260200160002060009054906101000a900460ff1615151461084f576040517f08c379a000000000000000000000000000000000000000000000000000000000815260040161084690612d7e565b60405180910390fd5b600a6040518060800160405280600c548152602001604051806020016040528060008152508152602001600660003373ffffffffffffffffffffffffffffffffffffffff1673ffffffffffffffffffffffffffffffffffffffff16815260200190815260200160002080546108c390613136565b80601f01602080910402602001604051908101604052809291908181526020018280546108ef90613136565b801561093c5780601f106109115761010080835404028352916020019161093c565b820191906000526020600020905b81548152906001019060200180831161091f57829003601f168201915b5050505050815260200160006004811115610980577f4e487b7100000000000000000000000000000000000000000000000000000000600052602160045260246000fd5b81525090806001815401808255809150506001900390600052602060002090600402016000909190919091506000820151816000015560208201518160010190805190602001906109d2929190612207565b5060408201518160020190805190602001906109ef929190612207565b5060608201518160030160006101000a81548160ff02191690836004811115610a41577f4e487b7100000000000000000000000000000000000000000000000000000000600052602160045260246000fd5b02179055505050610a866040518060400160405280600b81526020017f54657374204576656e7427000000000000000000000000000000000000000000815250612007565b7f2dddc06b1340f27d89cf9e1783165857c901b8fb2d67ac8443c795ec43ff341f600c5485858585604051610abf959493929190612eba565b60405180910390a16001600c6000828254610ada9190613031565b9250508190555050505050565b6000600960009054906101000a900473ffffffffffffffffffffffffffffffffffffffff1673ffffffffffffffffffffffffffffffffffffffff163373ffffffffffffffffffffffffffffffffffffffff1614610b79576040517f08c379a0000000000000000000000000000000000000000000000000000000008152600401610b7090612d5e565b60405180910390fd5b600560008373ffffffffffffffffffffffffffffffffffffffff1673ffffffffffffffffffffffffffffffffffffffff16815260200190815260200160002060009054906101000a900460ff169050919050565b600960009054906101000a900473ffffffffffffffffffffffffffffffffffffffff1673ffffffffffffffffffffffffffffffffffffffff163373ffffffffffffffffffffffffffffffffffffffff1614610c5d576040517f08c379a0000000000000000000000000000000000000000000000000000000008152600401610c5490612d5e565b60405180910390fd5b60005b8151811015610d1457600160056000848481518110610ca8577f4e487b7100000000000000000000000000000000000000000000000000000000600052603260045260246000fd5b602002602001015173ffffffffffffffffffffffffffffffffffffffff1673ffffffffffffffffffffffffffffffffffffffff16815260200190815260200160002060006101000a81548160ff0219169083151502179055508080610d0c90613199565b915050610c60565b5050565b600060011515600560003373ffffffffffffffffffffffffffffffffffffffff1673ffffffffffffffffffffffffffffffffffffffff16815260200190815260200160002060009054906101000a900460ff16151514610dad576040517f08c379a0000000000000000000000000000000000000000000000000000000008152600401610da490612d5e565b60405180910390fd5b6000600660003373ffffffffffffffffffffffffffffffffffffffff1673ffffffffffffffffffffffffffffffffffffffff1681526020019081526020016000208054610df990613136565b90501415610e0a5760009050610e0f565b600190505b90565b604051806040016040528086815260200185815250600787604051610e379190612c25565b90815260200160405180910390206000820151816000019080519060200190610e61929190612207565b506020820151816001019080519060200190610e7e929190612207565b50905050604051806040016040528083815260200182815250600784604051610ea79190612c25565b90815260200160405180910390206000820151816000019080519060200190610ed1929190612207565b506020820151816001019080519060200190610eee929190612207565b50905050505050505050565b6000600560003373ffffffffffffffffffffffffffffffffffffffff1673ffffffffffffffffffffffffffffffffffffffff16815260200190815260200160002060009054906101000a900460ff16905090565b60011515600560003373ffffffffffffffffffffffffffffffffffffffff1673ffffffffffffffffffffffffffffffffffffffff16815260200190815260200160002060009054906101000a900460ff16151514610fe1576040517f08c379a0000000000000000000000000000000000000000000000000000000008152600401610fd890612d7e565b60405180910390fd5b6000600660003373ffffffffffffffffffffffffffffffffffffffff1673ffffffffffffffffffffffffffffffffffffffff168152602001908152602001600020805461102d90613136565b80601f016020809104026020016040519081016040528092919081815260200182805461105990613136565b80156110a65780601f1061107b576101008083540402835291602001916110a6565b820191906000526020600020905b81548152906001019060200180831161108957829003601f168201915b50505050509050600160048111156110e7577f4e487b7100000000000000000000000000000000000000000000000000000000600052602160045260246000fd5b600a8581548110611121577f4e487b7100000000000000000000000000000000000000000000000000000000600052603260045260246000fd5b906000526020600020906004020160030160009054906101000a900460ff166004811115611178577f4e487b7100000000000000000000000000000000000000000000000000000000600052602160045260246000fd5b50507f8209a1b78e2f9c4b4d1da1133e4aaeabe803614f4ac42cf7c6e9ccdc1db9219b848484846040516111af9493929190612e60565b60405180910390a150505050565b6111c561228d565b6112046040518060400160405280600781526020017f73656e6465722000000000000000000000000000000000000000000000000000815250336120a0565b6007826040516112149190612c25565b908152602001604051809103902060405180604001604052908160008201805461123d90613136565b80601f016020809104026020016040519081016040528092919081815260200182805461126990613136565b80156112b65780601f1061128b576101008083540402835291602001916112b6565b820191906000526020600020905b81548152906001019060200180831161129957829003601f168201915b505050505081526020016001820180546112cf90613136565b80601f01602080910402602001604051908101604052809291908181526020018280546112fb90613136565b80156113485780601f1061131d57610100808354040283529160200191611348565b820191906000526020600020905b81548152906001019060200180831161132b57829003601f168201915b5050505050815250509050919050565b61136061228d565b60001515600560003373ffffffffffffffffffffffffffffffffffffffff1673ffffffffffffffffffffffffffffffffffffffff16815260200190815260200160002060009054906101000a900460ff16151514156113be57600080fd5b6000600660003373ffffffffffffffffffffffffffffffffffffffff1673ffffffffffffffffffffffffffffffffffffffff16815260200190815260200160002090506007816040516114119190612c3c565b908152602001604051809103902060405180604001604052908160008201805461143a90613136565b80601f016020809104026020016040519081016040528092919081815260200182805461146690613136565b80156114b35780601f10611488576101008083540402835291602001916114b3565b820191906000526020600020905b81548152906001019060200180831161149657829003601f168201915b505050505081526020016001820180546114cc90613136565b80601f01602080910402602001604051908101604052809291908181526020018280546114f890613136565b80156115455780601f1061151a57610100808354040283529160200191611545565b820191906000526020600020905b81548152906001019060200180831161152857829003601f168201915b50505050508152505091505090565b606060011515600560003373ffffffffffffffffffffffffffffffffffffffff1673ffffffffffffffffffffffffffffffffffffffff16815260200190815260200160002060009054906101000a900460ff161515146115b357600080fd5b600660003373ffffffffffffffffffffffffffffffffffffffff1673ffffffffffffffffffffffffffffffffffffffff16815260200190815260200160002080546115fd90613136565b80601f016020809104026020016040519081016040528092919081815260200182805461162990613136565b80156116765780601f1061164b57610100808354040283529160200191611676565b820191906000526020600020905b81548152906001019060200180831161165957829003601f168201915b5050505050905090565b60011515600560003373ffffffffffffffffffffffffffffffffffffffff1673ffffffffffffffffffffffffffffffffffffffff16815260200190815260200160002060009054906101000a900460ff16151514611713576040517f08c379a000000000000000000000000000000000000000000000000000000000815260040161170a90612d7e565b60405180910390fd5b8585600660003373ffffffffffffffffffffffffffffffffffffffff1673ffffffffffffffffffffffffffffffffffffffff16815260200190815260200160002091906117619291906122a7565b50604051806040016040528085858080601f016020809104026020016040519081016040528093929190818152602001838380828437600081840152601f19601f82011690508083019250505050505050815260200183838080601f016020809104026020016040519081016040528093929190818152602001838380828437600081840152601f19601f8201169050808301925050505050505081525060078787604051611811929190612c0c565b9081526020016040518091039020600082015181600001908051906020019061183b929190612207565b506020820151816001019080519060200190611858929190612207565b50905050611a286040518060400160405280600b81526020017f73656e6465722061636320000000000000000000000000000000000000000000815250600788886040516118a7929190612c0c565b908152602001604051809103902060000180546118c390613136565b80601f01602080910402602001604051908101604052809291908181526020018280546118ef90613136565b801561193c5780601f106119115761010080835404028352916020019161193c565b820191906000526020600020905b81548152906001019060200180831161191f57829003601f168201915b50505050506040518060400160405280600581526020017f20616e642000000000000000000000000000000000000000000000000000000081525060078a8a604051611989929190612c0c565b908152602001604051809103902060010180546119a590613136565b80601f01602080910402602001604051908101604052809291908181526020018280546119d190613136565b8015611a1e5780601f106119f357610100808354040283529160200191611a1e565b820191906000526020600020905b815481529060010190602001808311611a0157829003601f168201915b505050505061213c565b505050505050565b60011515600560003373ffffffffffffffffffffffffffffffffffffffff1673ffffffffffffffffffffffffffffffffffffffff16815260200190815260200160002060009054906101000a900460ff16151514611ac3576040517f08c379a0000000000000000000000000000000000000000000000000000000008152600401611aba90612d9e565b60405180910390fd5b600a6040518060800160405280600c548152602001838152602001600660003373ffffffffffffffffffffffffffffffffffffffff1673ffffffffffffffffffffffffffffffffffffffff1681526020019081526020016000208054611b2890613136565b80601f0160208091040260200160405190810160405280929190818152602001828054611b5490613136565b8015611ba15780601f10611b7657610100808354040283529160200191611ba1565b820191906000526020600020905b815481529060010190602001808311611b8457829003601f168201915b5050505050815260200160006004811115611be5577f4e487b7100000000000000000000000000000000000000000000000000000000600052602160045260246000fd5b8152509080600181540180825580915050600190039060005260206000209060040201600090919091909150600082015181600001556020820151816001019080519060200190611c37929190612207565b506040820151816002019080519060200190611c54929190612207565b5060608201518160030160006101000a81548160ff02191690836004811115611ca6577f4e487b7100000000000000000000000000000000000000000000000000000000600052602160045260246000fd5b021790555050506001600c6000828254611cc09190613031565b9250508190555050565b606060018054611cd990613136565b80601f0160208091040260200160405190810160405280929190818152602001828054611d0590613136565b8015611d525780601f10611d2757610100808354040283529160200191611d52565b820191906000526020600020905b815481529060010190602001808311611d3557829003601f168201915b5050505050905090565b60011515600560003373ffffffffffffffffffffffffffffffffffffffff1673ffffffffffffffffffffffffffffffffffffffff16815260200190815260200160002060009054906101000a900460ff16151514611def576040517f08c379a0000000000000000000000000000000000000000000000000000000008152600401611de690612d9e565b60405180910390fd5b60006004811115611e29577f4e487b7100000000000000000000000000000000000000000000000000000000600052602160045260246000fd5b600a8481548110611e63577f4e487b7100000000000000000000000000000000000000000000000000000000600052603260045260246000fd5b906000526020600020906004020160030160009054906101000a900460ff166004811115611eba577f4e487b7100000000000000000000000000000000000000000000000000000000600052602160045260246000fd5b14611efa576040517f08c379a0000000000000000000000000000000000000000000000000000000008152600401611ef190612dbe565b60405180910390fd5b6000600660003373ffffffffffffffffffffffffffffffffffffffff1673ffffffffffffffffffffffffffffffffffffffff1681526020019081526020016000208054611f4690613136565b80601f0160208091040260200160405190810160405280929190818152602001828054611f7290613136565b8015611fbf5780601f10611f9457610100808354040283529160200191611fbf565b820191906000526020600020905b815481529060010190602001808311611fa257829003601f168201915b505050505090507ffc32bd222e726fe09dc6c0804de5504630d963f256bf63673200d819dd2405f3848484604051611ff993929190612e1b565b60405180910390a150505050565b61209d8160405160240161201b9190612cab565b6040516020818303038152906040527f41304fac000000000000000000000000000000000000000000000000000000007bffffffffffffffffffffffffffffffffffffffffffffffffffffffff19166020820180517bffffffffffffffffffffffffffffffffffffffffffffffffffffffff83818316178352505050506121de565b50565b61213882826040516024016120b6929190612ccd565b6040516020818303038152906040527f319af333000000000000000000000000000000000000000000000000000000007bffffffffffffffffffffffffffffffffffffffffffffffffffffffff19166020820180517bffffffffffffffffffffffffffffffffffffffffffffffffffffffff83818316178352505050506121de565b5050565b6121d8848484846040516024016121569493929190612cfd565b6040516020818303038152906040527fde68f20a000000000000000000000000000000000000000000000000000000007bffffffffffffffffffffffffffffffffffffffffffffffffffffffff19166020820180517bffffffffffffffffffffffffffffffffffffffffffffffffffffffff83818316178352505050506121de565b50505050565b60008151905060006a636f6e736f6c652e6c6f679050602083016000808483855afa5050505050565b82805461221390613136565b90600052602060002090601f016020900481019282612235576000855561227c565b82601f1061224e57805160ff191683800117855561227c565b8280016001018555821561227c579182015b8281111561227b578251825591602001919060010190612260565b5b509050612289919061232d565b5090565b604051806040016040528060608152602001606081525090565b8280546122b390613136565b90600052602060002090601f0160209004810192826122d5576000855561231c565b82601f106122ee57803560ff191683800117855561231c565b8280016001018555821561231c579182015b8281111561231b578235825591602001919060010190612300565b5b509050612329919061232d565b5090565b5b8082111561234657600081600090555060010161232e565b5090565b600061235d61235884612f4e565b612f29565b9050808382526020820190508285602086028201111561237c57600080fd5b60005b858110156123ac578161239288826123f4565b84526020840193506020830192505060018101905061237f565b5050509392505050565b60006123c96123c484612f7a565b612f29565b9050828152602081018484840111156123e157600080fd5b6123ec8482856130f4565b509392505050565b60008135905061240381613367565b92915050565b600082601f83011261241a57600080fd5b813561242a84826020860161234a565b91505092915050565b6000813590506124428161337e565b92915050565b60008083601f84011261245a57600080fd5b8235905067ffffffffffffffff81111561247357600080fd5b60208301915083600182028301111561248b57600080fd5b9250929050565b600082601f8301126124a357600080fd5b81356124b38482602086016123b6565b91505092915050565b6000813590506124cb81613395565b92915050565b6000602082840312156124e357600080fd5b60006124f1848285016123f4565b91505092915050565b60006020828403121561250c57600080fd5b600082013567ffffffffffffffff81111561252657600080fd5b61253284828501612409565b91505092915050565b6000806000806000806060878903121561255457600080fd5b600087013567ffffffffffffffff81111561256e57600080fd5b61257a89828a01612448565b9650965050602087013567ffffffffffffffff81111561259957600080fd5b6125a589828a01612448565b9450945050604087013567ffffffffffffffff8111156125c457600080fd5b6125d089828a01612448565b92509250509295509295509295565b6000602082840312156125f157600080fd5b600082013567ffffffffffffffff81111561260b57600080fd5b61261784828501612492565b91505092915050565b6000806000806080858703121561263657600080fd5b600085013567ffffffffffffffff81111561265057600080fd5b61265c87828801612492565b945050602085013567ffffffffffffffff81111561267957600080fd5b61268587828801612492565b935050604085013567ffffffffffffffff8111156126a257600080fd5b6126ae87828801612492565b925050606085013567ffffffffffffffff8111156126cb57600080fd5b6126d787828801612492565b91505092959194509250565b60008060008060008060c087890312156126fc57600080fd5b600087013567ffffffffffffffff81111561271657600080fd5b61272289828a01612492565b965050602087013567ffffffffffffffff81111561273f57600080fd5b61274b89828a01612492565b955050604087013567ffffffffffffffff81111561276857600080fd5b61277489828a01612492565b945050606087013567ffffffffffffffff81111561279157600080fd5b61279d89828a01612492565b935050608087013567ffffffffffffffff8111156127ba57600080fd5b6127c689828a01612492565b92505060a087013567ffffffffffffffff8111156127e357600080fd5b6127ef89828a01612492565b9150509295509295509295565b6000806040838503121561280f57600080fd5b600061281d858286016124bc565b925050602061282e85828601612433565b9150509250929050565b60008060006060848603121561284d57600080fd5b600061285b868287016124bc565b935050602084013567ffffffffffffffff81111561287857600080fd5b61288486828701612492565b925050604084013567ffffffffffffffff8111156128a157600080fd5b6128ad86828701612492565b9150509250925092565b60006128c38383612b84565b905092915050565b6128d481613087565b82525050565b60006128e582612fd0565b6128ef8185612ff3565b93508360208202850161290185612fab565b8060005b8581101561293d578484038952815161291e85826128b7565b945061292983612fe6565b925060208a01995050600181019050612905565b50829750879550505050505092915050565b61295881613099565b82525050565b612967816130e2565b82525050565b60006129798385613026565b93506129868385846130f4565b82840190509392505050565b600061299d82612fdb565b6129a78185613004565b93506129b7818560208601613103565b6129c08161329e565b840191505092915050565b60006129d682612fdb565b6129e08185613015565b93506129f0818560208601613103565b6129f98161329e565b840191505092915050565b6000612a0f82612fdb565b612a198185613026565b9350612a29818560208601613103565b80840191505092915050565b60008154612a4281613136565b612a4c8186613026565b94506001821660008114612a675760018114612a7857612aab565b60ff19831686528186019350612aab565b612a8185612fbb565b60005b83811015612aa357815481890152600182019150602081019050612a84565b838801955050505b50505092915050565b6000612ac1601783613015565b9150612acc826132af565b602082019050919050565b6000612ae4601883613015565b9150612aef826132d8565b602082019050919050565b6000612b07601783613015565b9150612b1282613301565b602082019050919050565b6000612b2a602083613015565b9150612b358261332a565b602082019050919050565b60006040830160008301518482036000860152612b5d8282612992565b91505060208301518482036020860152612b778282612992565b9150508091505092915050565b6000608083016000830151612b9c6000860182612bee565b5060208301518482036020860152612bb48282612992565b91505060408301518482036040860152612bce8282612992565b9150506060830151612be3606086018261295e565b508091505092915050565b612bf7816130d8565b82525050565b612c06816130d8565b82525050565b6000612c1982848661296d565b91508190509392505050565b6000612c318284612a04565b915081905092915050565b6000612c488284612a35565b915081905092915050565b6000602082019050612c6860008301846128cb565b92915050565b60006020820190508181036000830152612c8881846128da565b905092915050565b6000602082019050612ca5600083018461294f565b92915050565b60006020820190508181036000830152612cc581846129cb565b905092915050565b60006040820190508181036000830152612ce781856129cb565b9050612cf660208301846128cb565b9392505050565b60006080820190508181036000830152612d1781876129cb565b90508181036020830152612d2b81866129cb565b90508181036040830152612d3f81856129cb565b90508181036060830152612d5381846129cb565b905095945050505050565b60006020820190508181036000830152612d7781612ab4565b9050919050565b60006020820190508181036000830152612d9781612ad7565b9050919050565b60006020820190508181036000830152612db781612afa565b9050919050565b60006020820190508181036000830152612dd781612b1d565b9050919050565b60006020820190508181036000830152612df88184612b40565b905092915050565b6000602082019050612e156000830184612bfd565b92915050565b6000606082019050612e306000830186612bfd565b8181036020830152612e4281856129cb565b90508181036040830152612e5681846129cb565b9050949350505050565b6000608082019050612e756000830187612bfd565b8181036020830152612e8781866129cb565b90508181036040830152612e9b81856129cb565b90508181036060830152612eaf81846129cb565b905095945050505050565b600060a082019050612ecf6000830188612bfd565b8181036020830152612ee181876129cb565b90508181036040830152612ef581866129cb565b90508181036060830152612f0981856129cb565b90508181036080830152612f1d81846129cb565b90509695505050505050565b6000612f33612f44565b9050612f3f8282613168565b919050565b6000604051905090565b600067ffffffffffffffff821115612f6957612f6861326f565b5b602082029050602081019050919050565b600067ffffffffffffffff821115612f9557612f9461326f565b5b612f9e8261329e565b9050602081019050919050565b6000819050602082019050919050565b60008190508160005260206000209050919050565b600081519050919050565b600081519050919050565b6000602082019050919050565b600082825260208201905092915050565b600082825260208201905092915050565b600082825260208201905092915050565b600081905092915050565b600061303c826130d8565b9150613047836130d8565b9250827fffffffffffffffffffffffffffffffffffffffffffffffffffffffffffffffff0382111561307c5761307b6131e2565b5b828201905092915050565b6000613092826130b8565b9050919050565b60008115159050919050565b60008190506130b382613353565b919050565b600073ffffffffffffffffffffffffffffffffffffffff82169050919050565b6000819050919050565b60006130ed826130a5565b9050919050565b82818337600083830152505050565b60005b83811015613121578082015181840152602081019050613106565b83811115613130576000848401525b50505050565b6000600282049050600182168061314e57607f821691505b6020821081141561316257613161613240565b5b50919050565b6131718261329e565b810181811067ffffffffffffffff821117156131905761318f61326f565b5b80604052505050565b60006131a4826130d8565b91507fffffffffffffffffffffffffffffffffffffffffffffffffffffffffffffffff8214156131d7576131d66131e2565b5b600182019050919050565b7f4e487b7100000000000000000000000000000000000000000000000000000000600052601160045260246000fd5b7f4e487b7100000000000000000000000000000000000000000000000000000000600052602160045260246000fd5b7f4e487b7100000000000000000000000000000000000000000000000000000000600052602260045260246000fd5b7f4e487b7100000000000000000000000000000000000000000000000000000000600052604160045260246000fd5b6000601f19601f8301169050919050565b7f596f7520617265206e6f7420617574686f72697a65642e000000000000000000600082015250565b7f596f7520686176656e277420726567697374657265642e200000000000000000600082015250565b7f596f7520686176656e277420726567697374657265642e000000000000000000600082015250565b7f546865207461736b206973206e6f206c6f6e67657220617661696c61626c652e600082015250565b6005811061336457613363613211565b5b50565b61337081613087565b811461337b57600080fd5b50565b61338781613099565b811461339257600080fd5b50565b61339e816130d8565b81146133a957600080fd5b5056fea2646970667358221220c5c36d056749e762510fd69f3bf157110e95bb709146ed72e76da1a76eac636264736f6c63430008040033",
  "linkReferences": {},
  "deployedLinkReferences": {}
}