{
  "_format": "hh-sol-artifact-1",
  "contractName": "XContract",
  "sourceName": "contracts/XContract.sol",
  "abi": [
    {
      "inputs": [],
      "stateMutability": "nonpayable",
      "type": "constructor"
    },
    {
      "anonymous": false,
      "inputs": [
        {
          "indexed": false,
          "internalType": "string",
          "name": "pk",
          "type": "string"
        }
      ],
      "name": "InitBalance",
      "type": "event"
    },
    {
      "anonymous": false,
      "inputs": [
        {
          "indexed": false,
          "internalType": "string",
          "name": "rangeproof1",
          "type": "string"
        },
        {
          "indexed": false,
          "internalType": "string",
          "name": "rangeproof2",
          "type": "string"
        },
        {
          "indexed": false,
          "internalType": "string",
          "name": "sigmaProof",
          "type": "string"
        },
        {
          "indexed": false,
          "internalType": "string",
          "name": "input",
          "type": "string"
        }
      ],
      "name": "NewConfTransfer",
      "type": "event"
    },
    {
      "anonymous": false,
      "inputs": [
        {
          "indexed": false,
          "internalType": "uint256",
          "name": "id",
          "type": "uint256"
        },
        {
          "indexed": false,
          "internalType": "string",
          "name": "proof",
          "type": "string"
        }
      ],
      "name": "NewRequest",
      "type": "event"
    },
    {
      "anonymous": false,
      "inputs": [
        {
          "indexed": false,
          "internalType": "string",
          "name": "newMsg",
          "type": "string"
        }
      ],
      "name": "TestMsg",
      "type": "event"
    },
    {
      "anonymous": false,
      "inputs": [
        {
          "indexed": false,
          "internalType": "address",
          "name": "add",
          "type": "address"
        },
        {
          "indexed": false,
          "internalType": "uint256",
          "name": "balance",
          "type": "uint256"
        }
      ],
      "name": "UpdateState",
      "type": "event"
    },
    {
      "inputs": [
        {
          "internalType": "string",
          "name": "y",
          "type": "string"
        }
      ],
      "name": "ElBalanceOf",
      "outputs": [
        {
          "components": [
            {
              "internalType": "string",
              "name": "CL",
              "type": "string"
            },
            {
              "internalType": "string",
              "name": "CR",
              "type": "string"
            }
          ],
          "internalType": "struct XContract.ElBalance",
          "name": "",
          "type": "tuple"
        }
      ],
      "stateMutability": "view",
      "type": "function"
    },
    {
      "inputs": [
        {
          "internalType": "string",
          "name": "",
          "type": "string"
        }
      ],
      "name": "acc",
      "outputs": [
        {
          "internalType": "string",
          "name": "CL",
          "type": "string"
        },
        {
          "internalType": "string",
          "name": "CR",
          "type": "string"
        }
      ],
      "stateMutability": "view",
      "type": "function"
    },
    {
      "inputs": [],
      "name": "association",
      "outputs": [
        {
          "internalType": "address",
          "name": "",
          "type": "address"
        }
      ],
      "stateMutability": "view",
      "type": "function"
    },
    {
      "inputs": [],
      "name": "balanceOf",
      "outputs": [
        {
          "internalType": "uint256",
          "name": "",
          "type": "uint256"
        }
      ],
      "stateMutability": "view",
      "type": "function"
    },
    {
      "inputs": [
        {
          "internalType": "string",
          "name": "proofForAmt",
          "type": "string"
        },
        {
          "internalType": "string",
          "name": "proofForRemainBalance",
          "type": "string"
        },
        {
          "internalType": "string",
          "name": "sigmaProof",
          "type": "string"
        },
        {
          "internalType": "string",
          "name": "input",
          "type": "string"
        }
      ],
      "name": "confTransfer",
      "outputs": [],
      "stateMutability": "nonpayable",
      "type": "function"
    },
    {
      "inputs": [
        {
          "internalType": "uint256",
          "name": "id",
          "type": "uint256"
        },
        {
          "internalType": "bool",
          "name": "res",
          "type": "bool"
        }
      ],
      "name": "confirmProof",
      "outputs": [],
      "stateMutability": "nonpayable",
      "type": "function"
    },
    {
      "inputs": [
        {
          "internalType": "uint256",
          "name": "amt",
          "type": "uint256"
        },
        {
          "internalType": "address",
          "name": "user",
          "type": "address"
        }
      ],
      "name": "fundToAccount",
      "outputs": [],
      "stateMutability": "nonpayable",
      "type": "function"
    },
    {
      "inputs": [],
      "name": "greet",
      "outputs": [
        {
          "internalType": "string",
          "name": "",
          "type": "string"
        }
      ],
      "stateMutability": "view",
      "type": "function"
    },
    {
      "inputs": [
        {
          "internalType": "string",
          "name": "y",
          "type": "string"
        },
        {
          "internalType": "string",
          "name": "cL",
          "type": "string"
        },
        {
          "internalType": "string",
          "name": "cR",
          "type": "string"
        }
      ],
      "name": "initElBalance",
      "outputs": [],
      "stateMutability": "nonpayable",
      "type": "function"
    },
    {
      "inputs": [],
      "name": "initialSupply",
      "outputs": [
        {
          "internalType": "uint256",
          "name": "",
          "type": "uint256"
        }
      ],
      "stateMutability": "view",
      "type": "function"
    },
    {
      "inputs": [],
      "name": "name",
      "outputs": [
        {
          "internalType": "string",
          "name": "",
          "type": "string"
        }
      ],
      "stateMutability": "view",
      "type": "function"
    },
    {
      "inputs": [
        {
          "internalType": "string",
          "name": "y",
          "type": "string"
        }
      ],
      "name": "privateTransfer",
      "outputs": [
        {
          "internalType": "uint256",
          "name": "",
          "type": "uint256"
        }
      ],
      "stateMutability": "nonpayable",
      "type": "function"
    },
    {
      "inputs": [
        {
          "internalType": "address",
          "name": "newAcc",
          "type": "address"
        }
      ],
      "name": "register",
      "outputs": [],
      "stateMutability": "nonpayable",
      "type": "function"
    },
    {
      "inputs": [
        {
          "internalType": "string",
          "name": "key",
          "type": "string"
        }
      ],
      "name": "registerKey",
      "outputs": [],
      "stateMutability": "nonpayable",
      "type": "function"
    },
    {
      "inputs": [
        {
          "internalType": "string",
          "name": "_greeting",
          "type": "string"
        }
      ],
      "name": "setGreeting",
      "outputs": [],
      "stateMutability": "nonpayable",
      "type": "function"
    },
    {
      "inputs": [],
      "name": "totalSupply",
      "outputs": [
        {
          "internalType": "uint256",
          "name": "",
          "type": "uint256"
        }
      ],
      "stateMutability": "view",
      "type": "function"
    },
    {
      "inputs": [
        {
          "internalType": "address",
          "name": "to",
          "type": "address"
        },
        {
          "internalType": "uint256",
          "name": "amount",
          "type": "uint256"
        }
      ],
      "name": "transfer",
      "outputs": [],
      "stateMutability": "nonpayable",
      "type": "function"
    }
  ],
  "bytecode": "0x60806040526040518060400160405280600981526020017f58636f6e7472616374000000000000000000000000000000000000000000000081525060009080519060200190620000519291906200035d565b50620f42406002556127106003553480156200006c57600080fd5b50600254600460003373ffffffffffffffffffffffffffffffffffffffff1673ffffffffffffffffffffffffffffffffffffffff168152602001908152602001600020819055506001600560003373ffffffffffffffffffffffffffffffffffffffff1673ffffffffffffffffffffffffffffffffffffffff16815260200190815260200160002060006101000a81548160ff02191690831515021790555033600760006101000a81548173ffffffffffffffffffffffffffffffffffffffff021916908373ffffffffffffffffffffffffffffffffffffffff1602179055506040518060400160405280600381526020017f303030000000000000000000000000000000000000000000000000000000000081525060019080519060200190620001999291906200035d565b50620002786040518060400160405280601b81526020017f4368616e67696e67206772656574696e672066726f6d2027257327000000000081525060018054620001e390620004db565b80601f01602080910402602001604051908101604052809291908181526020018280546200021190620004db565b8015620002625780601f10620002365761010080835404028352916020019162000262565b820191906000526020600020905b8154815290600101906020018083116200024457829003601f168201915b50505050506200028e60201b620013471760201c565b60006009819055506000600a8190555062000551565b620003308282604051602401620002a79291906200044e565b6040516020818303038152906040527f4b5c4277000000000000000000000000000000000000000000000000000000007bffffffffffffffffffffffffffffffffffffffffffffffffffffffff19166020820180517bffffffffffffffffffffffffffffffffffffffffffffffffffffffff83818316178352505050506200033460201b60201c565b5050565b60008151905060006a636f6e736f6c652e6c6f679050602083016000808483855afa5050505050565b8280546200036b90620004db565b90600052602060002090601f0160209004810192826200038f5760008555620003db565b82601f10620003aa57805160ff1916838001178555620003db565b82800160010185558215620003db579182015b82811115620003da578251825591602001919060010190620003bd565b5b509050620003ea9190620003ee565b5090565b5b8082111562000409576000816000905550600101620003ef565b5090565b60006200041a8262000489565b62000426818562000494565b935062000438818560208601620004a5565b620004438162000540565b840191505092915050565b600060408201905081810360008301526200046a81856200040d565b905081810360208301526200048081846200040d565b90509392505050565b600081519050919050565b600082825260208201905092915050565b60005b83811015620004c5578082015181840152602081019050620004a8565b83811115620004d5576000848401525b50505050565b60006002820490506001821680620004f457607f821691505b602082108114156200050b576200050a62000511565b5b50919050565b7f4e487b7100000000000000000000000000000000000000000000000000000000600052602260045260246000fd5b6000601f19601f8301169050919050565b61238980620005616000396000f3fe608060405234801561001057600080fd5b506004361061010b5760003560e01c80634118b16f116100a2578063722713f711610071578063722713f7146102a5578063a4136862146102c3578063a9059cbb146102df578063bad3d107146102fb578063cfae3217146103175761010b565b80634118b16f146102215780634420e4861461023d5780634a80f2ba14610259578063712bef91146102755761010b565b80631a4ae8a7116100de5780631a4ae8a7146101865780631b257054146101b7578063378dc3dc146101e75780633a2568e9146102055761010b565b8063050d4f781461011057806306fdde031461012e5780630a1ae5aa1461014c57806318160ddd14610168575b600080fd5b610118610335565b6040516101259190611dbd565b60405180910390f35b61013661035b565b6040516101439190611e25565b60405180910390f35b61016660048036038101906101619190611973565b6103e9565b005b6101706106eb565b60405161017d9190611fbf565b60405180910390f35b6101a0600480360381019061019b9190611a17565b6106f1565b6040516101ae929190611e77565b60405180910390f35b6101d160048036038101906101cc9190611a17565b61083b565b6040516101de9190611fbf565b60405180910390f35b6101ef610a0b565b6040516101fc9190611fbf565b60405180910390f35b61021f600480360381019061021a9190611b57565b610a11565b005b61023b60048036038101906102369190611a58565b610b5c565b005b610257600480360381019061025291906118c9565b610bdd565b005b610273600480360381019061026e919061192e565b610c7e565b005b61028f600480360381019061028a9190611a17565b610d19565b60405161029c9190611f9d565b60405180910390f35b6102ad610eb4565b6040516102ba9190611fbf565b60405180910390f35b6102dd60048036038101906102d89190611a17565b610f58565b005b6102f960048036038101906102f491906118f2565b611057565b005b61031560048036038101906103109190611b1b565b611201565b005b61031f6112b5565b60405161032c9190611e25565b60405180910390f35b600760009054906101000a900473ffffffffffffffffffffffffffffffffffffffff1681565b60008054610368906121c1565b80601f0160208091040260200160405190810160405280929190818152602001828054610394906121c1565b80156103e15780601f106103b6576101008083540402835291602001916103e1565b820191906000526020600020905b8154815290600101906020018083116103c457829003601f168201915b505050505081565b6103f2336113e3565b61041d600760009054906101000a900473ffffffffffffffffffffffffffffffffffffffff166113e3565b604051806040016040528085858080601f016020809104026020016040519081016040528093929190818152602001838380828437600081840152601f19601f82011690508083019250505050505050815260200183838080601f016020809104026020016040519081016040528093929190818152602001838380828437600081840152601f19601f82011690508083019250505050505050815250600687876040516104cc929190611d8d565b908152602001604051809103902060008201518160000190805190602001906104f692919061171b565b50602082015181600101908051906020019061051392919061171b565b509050506106e36040518060400160405280600b81526020017f73656e646572206163632000000000000000000000000000000000000000000081525060068888604051610562929190611d8d565b9081526020016040518091039020600001805461057e906121c1565b80601f01602080910402602001604051908101604052809291908181526020018280546105aa906121c1565b80156105f75780601f106105cc576101008083540402835291602001916105f7565b820191906000526020600020905b8154815290600101906020018083116105da57829003601f168201915b50505050506040518060400160405280600581526020017f20616e642000000000000000000000000000000000000000000000000000000081525060068a8a604051610644929190611d8d565b90815260200160405180910390206001018054610660906121c1565b80601f016020809104026020016040519081016040528092919081815260200182805461068c906121c1565b80156106d95780601f106106ae576101008083540402835291602001916106d9565b820191906000526020600020905b8154815290600101906020018083116106bc57829003601f168201915b505050505061147c565b505050505050565b60025481565b60068180516020810182018051848252602083016020850120818352809550505050505060009150905080600001805461072a906121c1565b80601f0160208091040260200160405190810160405280929190818152602001828054610756906121c1565b80156107a35780601f10610778576101008083540402835291602001916107a3565b820191906000526020600020905b81548152906001019060200180831161078657829003601f168201915b5050505050908060010180546107b8906121c1565b80601f01602080910402602001604051908101604052809291908181526020018280546107e4906121c1565b80156108315780601f1061080657610100808354040283529160200191610831565b820191906000526020600020905b81548152906001019060200180831161081457829003601f168201915b5050505050905082565b6000600860405180608001604052803373ffffffffffffffffffffffffffffffffffffffff168152602001600a548152602001848152602001600060048111156108ae577f4e487b7100000000000000000000000000000000000000000000000000000000600052602160045260246000fd5b815250908060018154018082558091505060019003906000526020600020906004020160009091909190915060008201518160000160006101000a81548173ffffffffffffffffffffffffffffffffffffffff021916908373ffffffffffffffffffffffffffffffffffffffff16021790555060208201518160010155604082015181600201908051906020019061094792919061171b565b5060608201518160030160006101000a81548160ff02191690836004811115610999577f4e487b7100000000000000000000000000000000000000000000000000000000600052602160045260246000fd5b021790555050507f85808ba6b61b3e11f7dba026341d5ff5603fab7df37b176ebfa0f296264cd12e600a54836040516109d3929190611fda565b60405180910390a16001600a60008282546109ee91906120ad565b925050819055506001600a54610a049190612103565b9050919050565b60035481565b600115158115151415610abd57600160088381548110610a5a577f4e487b7100000000000000000000000000000000000000000000000000000000600052603260045260246000fd5b906000526020600020906004020160030160006101000a81548160ff02191690836004811115610ab3577f4e487b7100000000000000000000000000000000000000000000000000000000600052602160045260246000fd5b0217905550610b58565b600460088381548110610af9577f4e487b7100000000000000000000000000000000000000000000000000000000600052603260045260246000fd5b906000526020600020906004020160030160006101000a81548160ff02191690836004811115610b52577f4e487b7100000000000000000000000000000000000000000000000000000000600052602160045260246000fd5b02179055505b5050565b610b9a6040518060400160405280600b81526020017f54657374204576656e742700000000000000000000000000000000000000000081525061151e565b7f9d5b9d8c7d89f386a583e953dadd816c7234a22f97acc237da79c314cd06d28084848484604051610bcf9493929190611efa565b60405180910390a150505050565b600354600460008373ffffffffffffffffffffffffffffffffffffffff1673ffffffffffffffffffffffffffffffffffffffff168152602001908152602001600020819055506001600560008373ffffffffffffffffffffffffffffffffffffffff1673ffffffffffffffffffffffffffffffffffffffff16815260200190815260200160002060006101000a81548160ff02191690831515021790555050565b60001515600560003373ffffffffffffffffffffffffffffffffffffffff1673ffffffffffffffffffffffffffffffffffffffff16815260200190815260200160002060009054906101000a900460ff1615151415610cdc57600080fd5b7fc5c21db1f7aef3462dbf1bee14c3b88f616eb1986b5b1f17ab53c41b86daf19d8282604051610d0d929190611e01565b60405180910390a15050565b610d216117a1565b610d606040518060400160405280600781526020017f73656e6465722000000000000000000000000000000000000000000000000000815250336115b7565b600682604051610d709190611da6565b9081526020016040518091039020604051806040016040529081600082018054610d99906121c1565b80601f0160208091040260200160405190810160405280929190818152602001828054610dc5906121c1565b8015610e125780601f10610de757610100808354040283529160200191610e12565b820191906000526020600020905b815481529060010190602001808311610df557829003601f168201915b50505050508152602001600182018054610e2b906121c1565b80601f0160208091040260200160405190810160405280929190818152602001828054610e57906121c1565b8015610ea45780601f10610e7957610100808354040283529160200191610ea4565b820191906000526020600020905b815481529060010190602001808311610e8757829003601f168201915b5050505050815250509050919050565b6000801515600560003373ffffffffffffffffffffffffffffffffffffffff1673ffffffffffffffffffffffffffffffffffffffff16815260200190815260200160002060009054906101000a900460ff1615151415610f1357600080fd5b600460003373ffffffffffffffffffffffffffffffffffffffff1673ffffffffffffffffffffffffffffffffffffffff16815260200190815260200160002054905090565b6110056040518060600160405280602381526020016123316023913960018054610f81906121c1565b80601f0160208091040260200160405190810160405280929190818152602001828054610fad906121c1565b8015610ffa5780601f10610fcf57610100808354040283529160200191610ffa565b820191906000526020600020905b815481529060010190602001808311610fdd57829003601f168201915b505050505083611653565b806001908051906020019061101b92919061171b565b507f57a57a410b51ac4751ea694c91cdcca4d61b6d997d46fb997eddc7d513341742600160405161104c9190611f5b565b60405180910390a150565b80600460003373ffffffffffffffffffffffffffffffffffffffff1673ffffffffffffffffffffffffffffffffffffffff1681526020019081526020016000205410156110d9576040517f08c379a00000000000000000000000000000000000000000000000000000000081526004016110d090611f7d565b60405180910390fd5b80600460003373ffffffffffffffffffffffffffffffffffffffff1673ffffffffffffffffffffffffffffffffffffffff16815260200190815260200160002060008282546111289190612103565b9250508190555080600460008473ffffffffffffffffffffffffffffffffffffffff1673ffffffffffffffffffffffffffffffffffffffff168152602001908152602001600020600082825461117e91906120ad565b925050819055507f364bc05a26076a4b591d11ae973bbc492605b49c871783d787f183e58f3fe08e33600460003373ffffffffffffffffffffffffffffffffffffffff1673ffffffffffffffffffffffffffffffffffffffff168152602001908152602001600020546040516111f5929190611dd8565b60405180910390a15050565b600760009054906101000a900473ffffffffffffffffffffffffffffffffffffffff1673ffffffffffffffffffffffffffffffffffffffff163373ffffffffffffffffffffffffffffffffffffffff161461125b57600080fd5b81600460008373ffffffffffffffffffffffffffffffffffffffff1673ffffffffffffffffffffffffffffffffffffffff16815260200190815260200160002060008282546112aa91906120ad565b925050819055505050565b6060600180546112c4906121c1565b80601f01602080910402602001604051908101604052809291908181526020018280546112f0906121c1565b801561133d5780601f106113125761010080835404028352916020019161133d565b820191906000526020600020905b81548152906001019060200180831161132057829003601f168201915b5050505050905090565b6113df828260405160240161135d929190611e77565b6040516020818303038152906040527f4b5c4277000000000000000000000000000000000000000000000000000000007bffffffffffffffffffffffffffffffffffffffffffffffffffffffff19166020820180517bffffffffffffffffffffffffffffffffffffffffffffffffffffffff83818316178352505050506116f2565b5050565b611479816040516024016113f79190611dbd565b6040516020818303038152906040527f2c2ecbc2000000000000000000000000000000000000000000000000000000007bffffffffffffffffffffffffffffffffffffffffffffffffffffffff19166020820180517bffffffffffffffffffffffffffffffffffffffffffffffffffffffff83818316178352505050506116f2565b50565b611518848484846040516024016114969493929190611efa565b6040516020818303038152906040527fde68f20a000000000000000000000000000000000000000000000000000000007bffffffffffffffffffffffffffffffffffffffffffffffffffffffff19166020820180517bffffffffffffffffffffffffffffffffffffffffffffffffffffffff83818316178352505050506116f2565b50505050565b6115b4816040516024016115329190611e25565b6040516020818303038152906040527f41304fac000000000000000000000000000000000000000000000000000000007bffffffffffffffffffffffffffffffffffffffffffffffffffffffff19166020820180517bffffffffffffffffffffffffffffffffffffffffffffffffffffffff83818316178352505050506116f2565b50565b61164f82826040516024016115cd929190611e47565b6040516020818303038152906040527f319af333000000000000000000000000000000000000000000000000000000007bffffffffffffffffffffffffffffffffffffffffffffffffffffffff19166020820180517bffffffffffffffffffffffffffffffffffffffffffffffffffffffff83818316178352505050506116f2565b5050565b6116ed83838360405160240161166b93929190611eae565b6040516020818303038152906040527f2ced7cef000000000000000000000000000000000000000000000000000000007bffffffffffffffffffffffffffffffffffffffffffffffffffffffff19166020820180517bffffffffffffffffffffffffffffffffffffffffffffffffffffffff83818316178352505050506116f2565b505050565b60008151905060006a636f6e736f6c652e6c6f679050602083016000808483855afa5050505050565b828054611727906121c1565b90600052602060002090601f0160209004810192826117495760008555611790565b82601f1061176257805160ff1916838001178555611790565b82800160010185558215611790579182015b8281111561178f578251825591602001919060010190611774565b5b50905061179d91906117bb565b5090565b604051806040016040528060608152602001606081525090565b5b808211156117d45760008160009055506001016117bc565b5090565b60006117eb6117e68461202f565b61200a565b90508281526020810184848401111561180357600080fd5b61180e84828561217f565b509392505050565b600081359050611825816122eb565b92915050565b60008135905061183a81612302565b92915050565b60008083601f84011261185257600080fd5b8235905067ffffffffffffffff81111561186b57600080fd5b60208301915083600182028301111561188357600080fd5b9250929050565b600082601f83011261189b57600080fd5b81356118ab8482602086016117d8565b91505092915050565b6000813590506118c381612319565b92915050565b6000602082840312156118db57600080fd5b60006118e984828501611816565b91505092915050565b6000806040838503121561190557600080fd5b600061191385828601611816565b9250506020611924858286016118b4565b9150509250929050565b6000806020838503121561194157600080fd5b600083013567ffffffffffffffff81111561195b57600080fd5b61196785828601611840565b92509250509250929050565b6000806000806000806060878903121561198c57600080fd5b600087013567ffffffffffffffff8111156119a657600080fd5b6119b289828a01611840565b9650965050602087013567ffffffffffffffff8111156119d157600080fd5b6119dd89828a01611840565b9450945050604087013567ffffffffffffffff8111156119fc57600080fd5b611a0889828a01611840565b92509250509295509295509295565b600060208284031215611a2957600080fd5b600082013567ffffffffffffffff811115611a4357600080fd5b611a4f8482850161188a565b91505092915050565b60008060008060808587031215611a6e57600080fd5b600085013567ffffffffffffffff811115611a8857600080fd5b611a948782880161188a565b945050602085013567ffffffffffffffff811115611ab157600080fd5b611abd8782880161188a565b935050604085013567ffffffffffffffff811115611ada57600080fd5b611ae68782880161188a565b925050606085013567ffffffffffffffff811115611b0357600080fd5b611b0f8782880161188a565b91505092959194509250565b60008060408385031215611b2e57600080fd5b6000611b3c858286016118b4565b9250506020611b4d85828601611816565b9150509250929050565b60008060408385031215611b6a57600080fd5b6000611b78858286016118b4565b9250506020611b898582860161182b565b9150509250929050565b611b9c81612137565b82525050565b6000611bae8385612091565b9350611bbb83858461217f565b611bc4836122b1565b840190509392505050565b6000611bdb83856120a2565b9350611be883858461217f565b82840190509392505050565b6000611bff82612075565b611c098185612080565b9350611c1981856020860161218e565b611c22816122b1565b840191505092915050565b6000611c3882612075565b611c428185612091565b9350611c5281856020860161218e565b611c5b816122b1565b840191505092915050565b6000611c7182612075565b611c7b81856120a2565b9350611c8b81856020860161218e565b80840191505092915050565b60008154611ca4816121c1565b611cae8186612091565b94506001821660008114611cc95760018114611cdb57611d0e565b60ff1983168652602086019350611d0e565b611ce485612060565b60005b83811015611d0657815481890152600182019150602081019050611ce7565b808801955050505b50505092915050565b6000611d24601183612091565b9150611d2f826122c2565b602082019050919050565b60006040830160008301518482036000860152611d578282611bf4565b91505060208301518482036020860152611d718282611bf4565b9150508091505092915050565b611d8781612175565b82525050565b6000611d9a828486611bcf565b91508190509392505050565b6000611db28284611c66565b915081905092915050565b6000602082019050611dd26000830184611b93565b92915050565b6000604082019050611ded6000830185611b93565b611dfa6020830184611d7e565b9392505050565b60006020820190508181036000830152611e1c818486611ba2565b90509392505050565b60006020820190508181036000830152611e3f8184611c2d565b905092915050565b60006040820190508181036000830152611e618185611c2d565b9050611e706020830184611b93565b9392505050565b60006040820190508181036000830152611e918185611c2d565b90508181036020830152611ea58184611c2d565b90509392505050565b60006060820190508181036000830152611ec88186611c2d565b90508181036020830152611edc8185611c2d565b90508181036040830152611ef08184611c2d565b9050949350505050565b60006080820190508181036000830152611f148187611c2d565b90508181036020830152611f288186611c2d565b90508181036040830152611f3c8185611c2d565b90508181036060830152611f508184611c2d565b905095945050505050565b60006020820190508181036000830152611f758184611c97565b905092915050565b60006020820190508181036000830152611f9681611d17565b9050919050565b60006020820190508181036000830152611fb78184611d3a565b905092915050565b6000602082019050611fd46000830184611d7e565b92915050565b6000604082019050611fef6000830185611d7e565b81810360208301526120018184611c2d565b90509392505050565b6000612014612025565b905061202082826121f3565b919050565b6000604051905090565b600067ffffffffffffffff82111561204a57612049612282565b5b612053826122b1565b9050602081019050919050565b60008190508160005260206000209050919050565b600081519050919050565b600082825260208201905092915050565b600082825260208201905092915050565b600081905092915050565b60006120b882612175565b91506120c383612175565b9250827fffffffffffffffffffffffffffffffffffffffffffffffffffffffffffffffff038211156120f8576120f7612224565b5b828201905092915050565b600061210e82612175565b915061211983612175565b92508282101561212c5761212b612224565b5b828203905092915050565b600061214282612155565b9050919050565b60008115159050919050565b600073ffffffffffffffffffffffffffffffffffffffff82169050919050565b6000819050919050565b82818337600083830152505050565b60005b838110156121ac578082015181840152602081019050612191565b838111156121bb576000848401525b50505050565b600060028204905060018216806121d957607f821691505b602082108114156121ed576121ec612253565b5b50919050565b6121fc826122b1565b810181811067ffffffffffffffff8211171561221b5761221a612282565b5b80604052505050565b7f4e487b7100000000000000000000000000000000000000000000000000000000600052601160045260246000fd5b7f4e487b7100000000000000000000000000000000000000000000000000000000600052602260045260246000fd5b7f4e487b7100000000000000000000000000000000000000000000000000000000600052604160045260246000fd5b6000601f19601f8301169050919050565b7f4e6f7420656e6f75676820746f6b656e73000000000000000000000000000000600082015250565b6122f481612137565b81146122ff57600080fd5b50565b61230b81612149565b811461231657600080fd5b50565b61232281612175565b811461232d57600080fd5b5056fe4368616e67696e67206772656574696e672066726f6d202725732720746f2027257327a26469706673582212207cf065794bba1ca4d22397967fa9c78d5b2c7f6fd086b6f0b5f4eff4b606e24b64736f6c63430008040033",
  "linkReferences": {},
  "deployedLinkReferences": {}
}