{
  "_format": "hh-sol-artifact-1",
  "contractName": "XContract",
  "sourceName": "contracts/XContract.sol",
  "abi": [
    {
      "inputs": [],
      "stateMutability": "nonpayable",
      "type": "constructor"
    },
    {
      "anonymous": false,
      "inputs": [
        {
          "indexed": false,
          "internalType": "string",
          "name": "pk",
          "type": "string"
        }
      ],
      "name": "InitBalance",
      "type": "event"
    },
    {
      "anonymous": false,
      "inputs": [
        {
          "indexed": false,
          "internalType": "uint256",
          "name": "id",
          "type": "uint256"
        },
        {
          "indexed": false,
          "internalType": "string",
          "name": "rangeproof1",
          "type": "string"
        },
        {
          "indexed": false,
          "internalType": "string",
          "name": "rangeproof2",
          "type": "string"
        },
        {
          "indexed": false,
          "internalType": "string",
          "name": "sigmaProof",
          "type": "string"
        },
        {
          "indexed": false,
          "internalType": "string",
          "name": "input",
          "type": "string"
        }
      ],
      "name": "NewConfTransfer",
      "type": "event"
    },
    {
      "anonymous": false,
      "inputs": [
        {
          "indexed": false,
          "internalType": "uint256",
          "name": "id",
          "type": "uint256"
        },
        {
          "indexed": false,
          "internalType": "string",
          "name": "proof",
          "type": "string"
        }
      ],
      "name": "NewRequest",
      "type": "event"
    },
    {
      "anonymous": false,
      "inputs": [
        {
          "indexed": false,
          "internalType": "string",
          "name": "newMsg",
          "type": "string"
        }
      ],
      "name": "TestMsg",
      "type": "event"
    },
    {
      "anonymous": false,
      "inputs": [
        {
          "indexed": false,
          "internalType": "address",
          "name": "add",
          "type": "address"
        },
        {
          "indexed": false,
          "internalType": "uint256",
          "name": "balance",
          "type": "uint256"
        }
      ],
      "name": "UpdateState",
      "type": "event"
    },
    {
      "inputs": [
        {
          "internalType": "string",
          "name": "y",
          "type": "string"
        }
      ],
      "name": "ElBalanceOf",
      "outputs": [
        {
          "components": [
            {
              "internalType": "string",
              "name": "CL",
              "type": "string"
            },
            {
              "internalType": "string",
              "name": "CR",
              "type": "string"
            }
          ],
          "internalType": "struct XContract.ElBalance",
          "name": "",
          "type": "tuple"
        }
      ],
      "stateMutability": "view",
      "type": "function"
    },
    {
      "inputs": [
        {
          "internalType": "string",
          "name": "",
          "type": "string"
        }
      ],
      "name": "acc",
      "outputs": [
        {
          "internalType": "string",
          "name": "CL",
          "type": "string"
        },
        {
          "internalType": "string",
          "name": "CR",
          "type": "string"
        }
      ],
      "stateMutability": "view",
      "type": "function"
    },
    {
      "inputs": [],
      "name": "association",
      "outputs": [
        {
          "internalType": "address",
          "name": "",
          "type": "address"
        }
      ],
      "stateMutability": "view",
      "type": "function"
    },
    {
      "inputs": [],
      "name": "balanceOf",
      "outputs": [
        {
          "internalType": "uint256",
          "name": "",
          "type": "uint256"
        }
      ],
      "stateMutability": "view",
      "type": "function"
    },
    {
      "inputs": [
        {
          "internalType": "string",
          "name": "proofForAmt",
          "type": "string"
        },
        {
          "internalType": "string",
          "name": "proofForRemainBalance",
          "type": "string"
        },
        {
          "internalType": "string",
          "name": "sigmaProof",
          "type": "string"
        },
        {
          "internalType": "string",
          "name": "input",
          "type": "string"
        }
      ],
      "name": "confTransfer",
      "outputs": [],
      "stateMutability": "nonpayable",
      "type": "function"
    },
    {
      "inputs": [
        {
          "internalType": "uint256",
          "name": "id",
          "type": "uint256"
        },
        {
          "internalType": "bool",
          "name": "res",
          "type": "bool"
        }
      ],
      "name": "confirmProof",
      "outputs": [],
      "stateMutability": "nonpayable",
      "type": "function"
    },
    {
      "inputs": [
        {
          "internalType": "uint256",
          "name": "amt",
          "type": "uint256"
        },
        {
          "internalType": "address",
          "name": "user",
          "type": "address"
        }
      ],
      "name": "fundToAccount",
      "outputs": [],
      "stateMutability": "nonpayable",
      "type": "function"
    },
    {
      "inputs": [],
      "name": "greet",
      "outputs": [
        {
          "internalType": "string",
          "name": "",
          "type": "string"
        }
      ],
      "stateMutability": "view",
      "type": "function"
    },
    {
      "inputs": [
        {
          "internalType": "string",
          "name": "y",
          "type": "string"
        },
        {
          "internalType": "string",
          "name": "cL",
          "type": "string"
        },
        {
          "internalType": "string",
          "name": "cR",
          "type": "string"
        }
      ],
      "name": "initElBalance",
      "outputs": [],
      "stateMutability": "nonpayable",
      "type": "function"
    },
    {
      "inputs": [],
      "name": "initialSupply",
      "outputs": [
        {
          "internalType": "uint256",
          "name": "",
          "type": "uint256"
        }
      ],
      "stateMutability": "view",
      "type": "function"
    },
    {
      "inputs": [],
      "name": "name",
      "outputs": [
        {
          "internalType": "string",
          "name": "",
          "type": "string"
        }
      ],
      "stateMutability": "view",
      "type": "function"
    },
    {
      "inputs": [
        {
          "internalType": "address",
          "name": "newAcc",
          "type": "address"
        }
      ],
      "name": "register",
      "outputs": [],
      "stateMutability": "nonpayable",
      "type": "function"
    },
    {
      "inputs": [
        {
          "internalType": "string",
          "name": "key",
          "type": "string"
        }
      ],
      "name": "registerKey",
      "outputs": [],
      "stateMutability": "nonpayable",
      "type": "function"
    },
    {
      "inputs": [
        {
          "internalType": "string",
          "name": "_greeting",
          "type": "string"
        }
      ],
      "name": "setGreeting",
      "outputs": [],
      "stateMutability": "nonpayable",
      "type": "function"
    },
    {
      "inputs": [],
      "name": "totalSupply",
      "outputs": [
        {
          "internalType": "uint256",
          "name": "",
          "type": "uint256"
        }
      ],
      "stateMutability": "view",
      "type": "function"
    },
    {
      "inputs": [
        {
          "internalType": "address",
          "name": "to",
          "type": "address"
        },
        {
          "internalType": "uint256",
          "name": "amount",
          "type": "uint256"
        }
      ],
      "name": "transfer",
      "outputs": [],
      "stateMutability": "nonpayable",
      "type": "function"
    }
  ],
  "bytecode": "0x60806040526040518060400160405280600981526020017f58636f6e747261637400000000000000000000000000000000000000000000008152506000908051906020019062000051929190620002c7565b50620f42406002556127106003553480156200006c57600080fd5b50600254600460003373ffffffffffffffffffffffffffffffffffffffff1673ffffffffffffffffffffffffffffffffffffffff168152602001908152602001600020819055506001600560003373ffffffffffffffffffffffffffffffffffffffff1673ffffffffffffffffffffffffffffffffffffffff16815260200190815260200160002060006101000a81548160ff02191690831515021790555033600760006101000a81548173ffffffffffffffffffffffffffffffffffffffff021916908373ffffffffffffffffffffffffffffffffffffffff1602179055506040518060400160405280600381526020017f30303000000000000000000000000000000000000000000000000000000000008152506001908051906020019062000199929190620002c7565b50620001e56040518060400160405280601381526020017f4465706c6f79205375636365737366756c6c2000000000000000000000000000815250620001fb60201b6200129a1760201c565b60006009819055506000600a81905550620004a4565b6200029b81604051602401620002129190620003b8565b6040516020818303038152906040527f41304fac000000000000000000000000000000000000000000000000000000007bffffffffffffffffffffffffffffffffffffffffffffffffffffffff19166020820180517bffffffffffffffffffffffffffffffffffffffffffffffffffffffff83818316178352505050506200029e60201b60201c565b50565b60008151905060006a636f6e736f6c652e6c6f679050602083016000808483855afa5050505050565b828054620002d5906200042e565b90600052602060002090601f016020900481019282620002f9576000855562000345565b82601f106200031457805160ff191683800117855562000345565b8280016001018555821562000345579182015b828111156200034457825182559160200191906001019062000327565b5b50905062000354919062000358565b5090565b5b808211156200037357600081600090555060010162000359565b5090565b60006200038482620003dc565b620003908185620003e7565b9350620003a2818560208601620003f8565b620003ad8162000493565b840191505092915050565b60006020820190508181036000830152620003d4818462000377565b905092915050565b600081519050919050565b600082825260208201905092915050565b60005b8381101562000418578082015181840152602081019050620003fb565b8381111562000428576000848401525b50505050565b600060028204905060018216806200044757607f821691505b602082108114156200045e576200045d62000464565b5b50919050565b7f4e487b7100000000000000000000000000000000000000000000000000000000600052602260045260246000fd5b6000601f19601f8301169050919050565b61227f80620004b46000396000f3fe608060405234801561001057600080fd5b50600436106101005760003560e01c80634420e48611610097578063a413686211610066578063a413686214610288578063a9059cbb146102a4578063bad3d107146102c0578063cfae3217146102dc57610100565b80634420e486146102025780634a80f2ba1461021e578063712bef911461023a578063722713f71461026a57610100565b80631a4ae8a7116100d35780631a4ae8a71461017b578063378dc3dc146101ac5780633a2568e9146101ca5780634118b16f146101e657610100565b8063050d4f781461010557806306fdde03146101235780630a1ae5aa1461014157806318160ddd1461015d575b600080fd5b61010d6102fa565b60405161011a9190611c74565b60405180910390f35b61012b610320565b6040516101389190611cdc565b60405180910390f35b61015b6004803603810190610156919061182a565b6103ae565b005b6101656106b0565b6040516101729190611e76565b60405180910390f35b610195600480360381019061019091906118ce565b6106b6565b6040516101a3929190611d2e565b60405180910390f35b6101b4610800565b6040516101c19190611e76565b60405180910390f35b6101e460048036038101906101df9190611a0e565b610806565b005b61020060048036038101906101fb919061190f565b610951565b005b61021c60048036038101906102179190611780565b610b30565b005b610238600480360381019061023391906117e5565b610bd1565b005b610254600480360381019061024f91906118ce565b610c6c565b6040516102619190611e54565b60405180910390f35b610272610e07565b60405161027f9190611e76565b60405180910390f35b6102a2600480360381019061029d91906118ce565b610eab565b005b6102be60048036038101906102b991906117a9565b610faa565b005b6102da60048036038101906102d591906119d2565b611154565b005b6102e4611208565b6040516102f19190611cdc565b60405180910390f35b600760009054906101000a900473ffffffffffffffffffffffffffffffffffffffff1681565b6000805461032d906120b7565b80601f0160208091040260200160405190810160405280929190818152602001828054610359906120b7565b80156103a65780601f1061037b576101008083540402835291602001916103a6565b820191906000526020600020905b81548152906001019060200180831161038957829003601f168201915b505050505081565b6103b733611333565b6103e2600760009054906101000a900473ffffffffffffffffffffffffffffffffffffffff16611333565b604051806040016040528085858080601f016020809104026020016040519081016040528093929190818152602001838380828437600081840152601f19601f82011690508083019250505050505050815260200183838080601f016020809104026020016040519081016040528093929190818152602001838380828437600081840152601f19601f8201169050808301925050505050505081525060068787604051610491929190611c44565b908152602001604051809103902060008201518160000190805190602001906104bb9291906115d2565b5060208201518160010190805190602001906104d89291906115d2565b509050506106a86040518060400160405280600b81526020017f73656e646572206163632000000000000000000000000000000000000000000081525060068888604051610527929190611c44565b90815260200160405180910390206000018054610543906120b7565b80601f016020809104026020016040519081016040528092919081815260200182805461056f906120b7565b80156105bc5780601f10610591576101008083540402835291602001916105bc565b820191906000526020600020905b81548152906001019060200180831161059f57829003601f168201915b50505050506040518060400160405280600581526020017f20616e642000000000000000000000000000000000000000000000000000000081525060068a8a604051610609929190611c44565b90815260200160405180910390206001018054610625906120b7565b80601f0160208091040260200160405190810160405280929190818152602001828054610651906120b7565b801561069e5780601f106106735761010080835404028352916020019161069e565b820191906000526020600020905b81548152906001019060200180831161068157829003601f168201915b50505050506113cc565b505050505050565b60025481565b6006818051602081018201805184825260208301602085012081835280955050505050506000915090508060000180546106ef906120b7565b80601f016020809104026020016040519081016040528092919081815260200182805461071b906120b7565b80156107685780601f1061073d57610100808354040283529160200191610768565b820191906000526020600020905b81548152906001019060200180831161074b57829003601f168201915b50505050509080600101805461077d906120b7565b80601f01602080910402602001604051908101604052809291908181526020018280546107a9906120b7565b80156107f65780601f106107cb576101008083540402835291602001916107f6565b820191906000526020600020905b8154815290600101906020018083116107d957829003601f168201915b5050505050905082565b60035481565b6001151581151514156108b25760016008838154811061084f577f4e487b7100000000000000000000000000000000000000000000000000000000600052603260045260246000fd5b906000526020600020906003020160020160006101000a81548160ff021916908360048111156108a8577f4e487b7100000000000000000000000000000000000000000000000000000000600052602160045260246000fd5b021790555061094d565b6004600883815481106108ee577f4e487b7100000000000000000000000000000000000000000000000000000000600052603260045260246000fd5b906000526020600020906003020160020160006101000a81548160ff02191690836004811115610947577f4e487b7100000000000000000000000000000000000000000000000000000000600052602160045260246000fd5b02179055505b5050565b600860405180606001604052803373ffffffffffffffffffffffffffffffffffffffff168152602001600a548152602001600060048111156109bc577f4e487b7100000000000000000000000000000000000000000000000000000000600052602160045260246000fd5b815250908060018154018082558091505060019003906000526020600020906003020160009091909190915060008201518160000160006101000a81548173ffffffffffffffffffffffffffffffffffffffff021916908373ffffffffffffffffffffffffffffffffffffffff1602179055506020820151816001015560408201518160020160006101000a81548160ff02191690836004811115610a8a577f4e487b7100000000000000000000000000000000000000000000000000000000600052602160045260246000fd5b02179055505050610acf6040518060400160405280600b81526020017f54657374204576656e742700000000000000000000000000000000000000000081525061129a565b7f2dddc06b1340f27d89cf9e1783165857c901b8fb2d67ac8443c795ec43ff341f600a5485858585604051610b08959493929190611e91565b60405180910390a16001600a6000828254610b239190611fa3565b9250508190555050505050565b600354600460008373ffffffffffffffffffffffffffffffffffffffff1673ffffffffffffffffffffffffffffffffffffffff168152602001908152602001600020819055506001600560008373ffffffffffffffffffffffffffffffffffffffff1673ffffffffffffffffffffffffffffffffffffffff16815260200190815260200160002060006101000a81548160ff02191690831515021790555050565b60001515600560003373ffffffffffffffffffffffffffffffffffffffff1673ffffffffffffffffffffffffffffffffffffffff16815260200190815260200160002060009054906101000a900460ff1615151415610c2f57600080fd5b7fc5c21db1f7aef3462dbf1bee14c3b88f616eb1986b5b1f17ab53c41b86daf19d8282604051610c60929190611cb8565b60405180910390a15050565b610c74611658565b610cb36040518060400160405280600781526020017f73656e64657220000000000000000000000000000000000000000000000000008152503361146e565b600682604051610cc39190611c5d565b9081526020016040518091039020604051806040016040529081600082018054610cec906120b7565b80601f0160208091040260200160405190810160405280929190818152602001828054610d18906120b7565b8015610d655780601f10610d3a57610100808354040283529160200191610d65565b820191906000526020600020905b815481529060010190602001808311610d4857829003601f168201915b50505050508152602001600182018054610d7e906120b7565b80601f0160208091040260200160405190810160405280929190818152602001828054610daa906120b7565b8015610df75780601f10610dcc57610100808354040283529160200191610df7565b820191906000526020600020905b815481529060010190602001808311610dda57829003601f168201915b5050505050815250509050919050565b6000801515600560003373ffffffffffffffffffffffffffffffffffffffff1673ffffffffffffffffffffffffffffffffffffffff16815260200190815260200160002060009054906101000a900460ff1615151415610e6657600080fd5b600460003373ffffffffffffffffffffffffffffffffffffffff1673ffffffffffffffffffffffffffffffffffffffff16815260200190815260200160002054905090565b610f586040518060600160405280602381526020016122276023913960018054610ed4906120b7565b80601f0160208091040260200160405190810160405280929190818152602001828054610f00906120b7565b8015610f4d5780601f10610f2257610100808354040283529160200191610f4d565b820191906000526020600020905b815481529060010190602001808311610f3057829003601f168201915b50505050508361150a565b8060019080519060200190610f6e9291906115d2565b507f57a57a410b51ac4751ea694c91cdcca4d61b6d997d46fb997eddc7d5133417426001604051610f9f9190611e12565b60405180910390a150565b80600460003373ffffffffffffffffffffffffffffffffffffffff1673ffffffffffffffffffffffffffffffffffffffff16815260200190815260200160002054101561102c576040517f08c379a000000000000000000000000000000000000000000000000000000000815260040161102390611e34565b60405180910390fd5b80600460003373ffffffffffffffffffffffffffffffffffffffff1673ffffffffffffffffffffffffffffffffffffffff168152602001908152602001600020600082825461107b9190611ff9565b9250508190555080600460008473ffffffffffffffffffffffffffffffffffffffff1673ffffffffffffffffffffffffffffffffffffffff16815260200190815260200160002060008282546110d19190611fa3565b925050819055507f364bc05a26076a4b591d11ae973bbc492605b49c871783d787f183e58f3fe08e33600460003373ffffffffffffffffffffffffffffffffffffffff1673ffffffffffffffffffffffffffffffffffffffff16815260200190815260200160002054604051611148929190611c8f565b60405180910390a15050565b600760009054906101000a900473ffffffffffffffffffffffffffffffffffffffff1673ffffffffffffffffffffffffffffffffffffffff163373ffffffffffffffffffffffffffffffffffffffff16146111ae57600080fd5b81600460008373ffffffffffffffffffffffffffffffffffffffff1673ffffffffffffffffffffffffffffffffffffffff16815260200190815260200160002060008282546111fd9190611fa3565b925050819055505050565b606060018054611217906120b7565b80601f0160208091040260200160405190810160405280929190818152602001828054611243906120b7565b80156112905780601f1061126557610100808354040283529160200191611290565b820191906000526020600020905b81548152906001019060200180831161127357829003601f168201915b5050505050905090565b611330816040516024016112ae9190611cdc565b6040516020818303038152906040527f41304fac000000000000000000000000000000000000000000000000000000007bffffffffffffffffffffffffffffffffffffffffffffffffffffffff19166020820180517bffffffffffffffffffffffffffffffffffffffffffffffffffffffff83818316178352505050506115a9565b50565b6113c9816040516024016113479190611c74565b6040516020818303038152906040527f2c2ecbc2000000000000000000000000000000000000000000000000000000007bffffffffffffffffffffffffffffffffffffffffffffffffffffffff19166020820180517bffffffffffffffffffffffffffffffffffffffffffffffffffffffff83818316178352505050506115a9565b50565b611468848484846040516024016113e69493929190611db1565b6040516020818303038152906040527fde68f20a000000000000000000000000000000000000000000000000000000007bffffffffffffffffffffffffffffffffffffffffffffffffffffffff19166020820180517bffffffffffffffffffffffffffffffffffffffffffffffffffffffff83818316178352505050506115a9565b50505050565b6115068282604051602401611484929190611cfe565b6040516020818303038152906040527f319af333000000000000000000000000000000000000000000000000000000007bffffffffffffffffffffffffffffffffffffffffffffffffffffffff19166020820180517bffffffffffffffffffffffffffffffffffffffffffffffffffffffff83818316178352505050506115a9565b5050565b6115a483838360405160240161152293929190611d65565b6040516020818303038152906040527f2ced7cef000000000000000000000000000000000000000000000000000000007bffffffffffffffffffffffffffffffffffffffffffffffffffffffff19166020820180517bffffffffffffffffffffffffffffffffffffffffffffffffffffffff83818316178352505050506115a9565b505050565b60008151905060006a636f6e736f6c652e6c6f679050602083016000808483855afa5050505050565b8280546115de906120b7565b90600052602060002090601f0160209004810192826116005760008555611647565b82601f1061161957805160ff1916838001178555611647565b82800160010185558215611647579182015b8281111561164657825182559160200191906001019061162b565b5b5090506116549190611672565b5090565b604051806040016040528060608152602001606081525090565b5b8082111561168b576000816000905550600101611673565b5090565b60006116a261169d84611f25565b611f00565b9050828152602081018484840111156116ba57600080fd5b6116c5848285612075565b509392505050565b6000813590506116dc816121e1565b92915050565b6000813590506116f1816121f8565b92915050565b60008083601f84011261170957600080fd5b8235905067ffffffffffffffff81111561172257600080fd5b60208301915083600182028301111561173a57600080fd5b9250929050565b600082601f83011261175257600080fd5b813561176284826020860161168f565b91505092915050565b60008135905061177a8161220f565b92915050565b60006020828403121561179257600080fd5b60006117a0848285016116cd565b91505092915050565b600080604083850312156117bc57600080fd5b60006117ca858286016116cd565b92505060206117db8582860161176b565b9150509250929050565b600080602083850312156117f857600080fd5b600083013567ffffffffffffffff81111561181257600080fd5b61181e858286016116f7565b92509250509250929050565b6000806000806000806060878903121561184357600080fd5b600087013567ffffffffffffffff81111561185d57600080fd5b61186989828a016116f7565b9650965050602087013567ffffffffffffffff81111561188857600080fd5b61189489828a016116f7565b9450945050604087013567ffffffffffffffff8111156118b357600080fd5b6118bf89828a016116f7565b92509250509295509295509295565b6000602082840312156118e057600080fd5b600082013567ffffffffffffffff8111156118fa57600080fd5b61190684828501611741565b91505092915050565b6000806000806080858703121561192557600080fd5b600085013567ffffffffffffffff81111561193f57600080fd5b61194b87828801611741565b945050602085013567ffffffffffffffff81111561196857600080fd5b61197487828801611741565b935050604085013567ffffffffffffffff81111561199157600080fd5b61199d87828801611741565b925050606085013567ffffffffffffffff8111156119ba57600080fd5b6119c687828801611741565b91505092959194509250565b600080604083850312156119e557600080fd5b60006119f38582860161176b565b9250506020611a04858286016116cd565b9150509250929050565b60008060408385031215611a2157600080fd5b6000611a2f8582860161176b565b9250506020611a40858286016116e2565b9150509250929050565b611a538161202d565b82525050565b6000611a658385611f87565b9350611a72838584612075565b611a7b836121a7565b840190509392505050565b6000611a928385611f98565b9350611a9f838584612075565b82840190509392505050565b6000611ab682611f6b565b611ac08185611f76565b9350611ad0818560208601612084565b611ad9816121a7565b840191505092915050565b6000611aef82611f6b565b611af98185611f87565b9350611b09818560208601612084565b611b12816121a7565b840191505092915050565b6000611b2882611f6b565b611b328185611f98565b9350611b42818560208601612084565b80840191505092915050565b60008154611b5b816120b7565b611b658186611f87565b94506001821660008114611b805760018114611b9257611bc5565b60ff1983168652602086019350611bc5565b611b9b85611f56565b60005b83811015611bbd57815481890152600182019150602081019050611b9e565b808801955050505b50505092915050565b6000611bdb601183611f87565b9150611be6826121b8565b602082019050919050565b60006040830160008301518482036000860152611c0e8282611aab565b91505060208301518482036020860152611c288282611aab565b9150508091505092915050565b611c3e8161206b565b82525050565b6000611c51828486611a86565b91508190509392505050565b6000611c698284611b1d565b915081905092915050565b6000602082019050611c896000830184611a4a565b92915050565b6000604082019050611ca46000830185611a4a565b611cb16020830184611c35565b9392505050565b60006020820190508181036000830152611cd3818486611a59565b90509392505050565b60006020820190508181036000830152611cf68184611ae4565b905092915050565b60006040820190508181036000830152611d188185611ae4565b9050611d276020830184611a4a565b9392505050565b60006040820190508181036000830152611d488185611ae4565b90508181036020830152611d5c8184611ae4565b90509392505050565b60006060820190508181036000830152611d7f8186611ae4565b90508181036020830152611d938185611ae4565b90508181036040830152611da78184611ae4565b9050949350505050565b60006080820190508181036000830152611dcb8187611ae4565b90508181036020830152611ddf8186611ae4565b90508181036040830152611df38185611ae4565b90508181036060830152611e078184611ae4565b905095945050505050565b60006020820190508181036000830152611e2c8184611b4e565b905092915050565b60006020820190508181036000830152611e4d81611bce565b9050919050565b60006020820190508181036000830152611e6e8184611bf1565b905092915050565b6000602082019050611e8b6000830184611c35565b92915050565b600060a082019050611ea66000830188611c35565b8181036020830152611eb88187611ae4565b90508181036040830152611ecc8186611ae4565b90508181036060830152611ee08185611ae4565b90508181036080830152611ef48184611ae4565b90509695505050505050565b6000611f0a611f1b565b9050611f1682826120e9565b919050565b6000604051905090565b600067ffffffffffffffff821115611f4057611f3f612178565b5b611f49826121a7565b9050602081019050919050565b60008190508160005260206000209050919050565b600081519050919050565b600082825260208201905092915050565b600082825260208201905092915050565b600081905092915050565b6000611fae8261206b565b9150611fb98361206b565b9250827fffffffffffffffffffffffffffffffffffffffffffffffffffffffffffffffff03821115611fee57611fed61211a565b5b828201905092915050565b60006120048261206b565b915061200f8361206b565b9250828210156120225761202161211a565b5b828203905092915050565b60006120388261204b565b9050919050565b60008115159050919050565b600073ffffffffffffffffffffffffffffffffffffffff82169050919050565b6000819050919050565b82818337600083830152505050565b60005b838110156120a2578082015181840152602081019050612087565b838111156120b1576000848401525b50505050565b600060028204905060018216806120cf57607f821691505b602082108114156120e3576120e2612149565b5b50919050565b6120f2826121a7565b810181811067ffffffffffffffff8211171561211157612110612178565b5b80604052505050565b7f4e487b7100000000000000000000000000000000000000000000000000000000600052601160045260246000fd5b7f4e487b7100000000000000000000000000000000000000000000000000000000600052602260045260246000fd5b7f4e487b7100000000000000000000000000000000000000000000000000000000600052604160045260246000fd5b6000601f19601f8301169050919050565b7f4e6f7420656e6f75676820746f6b656e73000000000000000000000000000000600082015250565b6121ea8161202d565b81146121f557600080fd5b50565b6122018161203f565b811461220c57600080fd5b50565b6122188161206b565b811461222357600080fd5b5056fe4368616e67696e67206772656574696e672066726f6d202725732720746f2027257327a2646970667358221220e2fd113c92596d9ade6f7e2a72cb6761e72f6ca56c0884186a650461d752151864736f6c63430008040033",
  "linkReferences": {},
  "deployedLinkReferences": {}
}