{
  "_format": "hh-sol-artifact-1",
  "contractName": "XContract",
  "sourceName": "contracts/XContract.sol",
  "abi": [
    {
      "inputs": [],
      "stateMutability": "nonpayable",
      "type": "constructor"
    },
    {
      "anonymous": false,
      "inputs": [
        {
          "indexed": false,
          "internalType": "string",
          "name": "pk",
          "type": "string"
        }
      ],
      "name": "InitBalance",
      "type": "event"
    },
    {
      "anonymous": false,
      "inputs": [
        {
          "indexed": false,
          "internalType": "uint256",
          "name": "id",
          "type": "uint256"
        },
        {
          "indexed": false,
          "internalType": "string",
          "name": "rangeproof1",
          "type": "string"
        },
        {
          "indexed": false,
          "internalType": "string",
          "name": "rangeproof2",
          "type": "string"
        },
        {
          "indexed": false,
          "internalType": "string",
          "name": "sigmaProof",
          "type": "string"
        },
        {
          "indexed": false,
          "internalType": "string",
          "name": "input",
          "type": "string"
        }
      ],
      "name": "NewConfTransfer",
      "type": "event"
    },
    {
      "anonymous": false,
      "inputs": [
        {
          "indexed": false,
          "internalType": "uint256",
          "name": "id",
          "type": "uint256"
        },
        {
          "indexed": false,
          "internalType": "string",
          "name": "CL_price",
          "type": "string"
        },
        {
          "indexed": false,
          "internalType": "string",
          "name": "CR_price",
          "type": "string"
        }
      ],
      "name": "NewPrice",
      "type": "event"
    },
    {
      "anonymous": false,
      "inputs": [
        {
          "indexed": false,
          "internalType": "uint256",
          "name": "id",
          "type": "uint256"
        },
        {
          "indexed": false,
          "internalType": "string",
          "name": "proof",
          "type": "string"
        }
      ],
      "name": "NewRequest",
      "type": "event"
    },
    {
      "anonymous": false,
      "inputs": [
        {
          "indexed": false,
          "internalType": "string",
          "name": "newMsg",
          "type": "string"
        }
      ],
      "name": "TestMsg",
      "type": "event"
    },
    {
      "anonymous": false,
      "inputs": [
        {
          "indexed": false,
          "internalType": "address",
          "name": "add",
          "type": "address"
        },
        {
          "indexed": false,
          "internalType": "uint256",
          "name": "balance",
          "type": "uint256"
        }
      ],
      "name": "UpdateState",
      "type": "event"
    },
    {
      "anonymous": false,
      "inputs": [
        {
          "indexed": false,
          "internalType": "uint256",
          "name": "id",
          "type": "uint256"
        },
        {
          "indexed": false,
          "internalType": "string",
          "name": "CL_price",
          "type": "string"
        },
        {
          "indexed": false,
          "internalType": "string",
          "name": "CR_price",
          "type": "string"
        },
        {
          "indexed": false,
          "internalType": "string",
          "name": "bidderKey",
          "type": "string"
        }
      ],
      "name": "makeDeal",
      "type": "event"
    },
    {
      "inputs": [
        {
          "internalType": "string",
          "name": "y",
          "type": "string"
        }
      ],
      "name": "ElBalanceOf",
      "outputs": [
        {
          "components": [
            {
              "internalType": "string",
              "name": "CL",
              "type": "string"
            },
            {
              "internalType": "string",
              "name": "CR",
              "type": "string"
            }
          ],
          "internalType": "struct XContract.ElBalance",
          "name": "",
          "type": "tuple"
        }
      ],
      "stateMutability": "view",
      "type": "function"
    },
    {
      "inputs": [
        {
          "internalType": "uint256",
          "name": "requestId",
          "type": "uint256"
        },
        {
          "internalType": "uint256",
          "name": "dealId",
          "type": "uint256"
        },
        {
          "internalType": "string",
          "name": "requestId_str",
          "type": "string"
        }
      ],
      "name": "acceptDeal",
      "outputs": [],
      "stateMutability": "nonpayable",
      "type": "function"
    },
    {
      "inputs": [],
      "name": "association",
      "outputs": [
        {
          "internalType": "address",
          "name": "",
          "type": "address"
        }
      ],
      "stateMutability": "view",
      "type": "function"
    },
    {
      "inputs": [
        {
          "internalType": "address[]",
          "name": "newAcc",
          "type": "address[]"
        }
      ],
      "name": "authorizeNewUser",
      "outputs": [],
      "stateMutability": "nonpayable",
      "type": "function"
    },
    {
      "inputs": [],
      "name": "balanceOf",
      "outputs": [
        {
          "components": [
            {
              "internalType": "string",
              "name": "CL",
              "type": "string"
            },
            {
              "internalType": "string",
              "name": "CR",
              "type": "string"
            }
          ],
          "internalType": "struct XContract.ElBalance",
          "name": "",
          "type": "tuple"
        }
      ],
      "stateMutability": "view",
      "type": "function"
    },
    {
      "inputs": [
        {
          "internalType": "address",
          "name": "newAcc",
          "type": "address"
        }
      ],
      "name": "checkAuthorizeNewUser",
      "outputs": [
        {
          "internalType": "bool",
          "name": "",
          "type": "bool"
        }
      ],
      "stateMutability": "view",
      "type": "function"
    },
    {
      "inputs": [],
      "name": "checkAuthorized",
      "outputs": [
        {
          "internalType": "bool",
          "name": "",
          "type": "bool"
        }
      ],
      "stateMutability": "view",
      "type": "function"
    },
    {
      "inputs": [
        {
          "internalType": "string",
          "name": "proofForAmt",
          "type": "string"
        },
        {
          "internalType": "string",
          "name": "proofForRemainBalance",
          "type": "string"
        },
        {
          "internalType": "string",
          "name": "sigmaProof",
          "type": "string"
        },
        {
          "internalType": "string",
          "name": "input",
          "type": "string"
        }
      ],
      "name": "confTransfer",
      "outputs": [],
      "stateMutability": "nonpayable",
      "type": "function"
    },
    {
      "inputs": [
        {
          "internalType": "uint256",
          "name": "id",
          "type": "uint256"
        },
        {
          "internalType": "bool",
          "name": "res",
          "type": "bool"
        }
      ],
      "name": "confirmProof",
      "outputs": [],
      "stateMutability": "nonpayable",
      "type": "function"
    },
    {
      "inputs": [],
      "name": "fetchPubkey",
      "outputs": [
        {
          "internalType": "string",
          "name": "",
          "type": "string"
        }
      ],
      "stateMutability": "view",
      "type": "function"
    },
    {
      "inputs": [],
      "name": "getAllAvailableTasks",
      "outputs": [
        {
          "components": [
            {
              "internalType": "uint256",
              "name": "id",
              "type": "uint256"
            },
            {
              "internalType": "string",
              "name": "content",
              "type": "string"
            },
            {
              "internalType": "string",
              "name": "pubkeyOfSender",
              "type": "string"
            },
            {
              "internalType": "enum XContract.State",
              "name": "state",
              "type": "uint8"
            }
          ],
          "internalType": "struct XContract.Request[]",
          "name": "",
          "type": "tuple[]"
        }
      ],
      "stateMutability": "view",
      "type": "function"
    },
    {
      "inputs": [],
      "name": "getYourTasks",
      "outputs": [
        {
          "components": [
            {
              "internalType": "uint256",
              "name": "id",
              "type": "uint256"
            },
            {
              "internalType": "string",
              "name": "content",
              "type": "string"
            },
            {
              "internalType": "string",
              "name": "pubkeyOfSender",
              "type": "string"
            },
            {
              "internalType": "enum XContract.State",
              "name": "state",
              "type": "uint8"
            }
          ],
          "internalType": "struct XContract.Request[]",
          "name": "",
          "type": "tuple[]"
        }
      ],
      "stateMutability": "view",
      "type": "function"
    },
    {
      "inputs": [],
      "name": "greet",
      "outputs": [
        {
          "internalType": "string",
          "name": "",
          "type": "string"
        }
      ],
      "stateMutability": "view",
      "type": "function"
    },
    {
      "inputs": [],
      "name": "hasPubKey",
      "outputs": [
        {
          "internalType": "bool",
          "name": "",
          "type": "bool"
        }
      ],
      "stateMutability": "view",
      "type": "function"
    },
    {
      "inputs": [
        {
          "internalType": "string",
          "name": "y",
          "type": "string"
        },
        {
          "internalType": "string",
          "name": "cL",
          "type": "string"
        },
        {
          "internalType": "string",
          "name": "cR",
          "type": "string"
        }
      ],
      "name": "initPocket",
      "outputs": [],
      "stateMutability": "nonpayable",
      "type": "function"
    },
    {
      "inputs": [],
      "name": "initialSupply",
      "outputs": [
        {
          "internalType": "uint256",
          "name": "",
          "type": "uint256"
        }
      ],
      "stateMutability": "view",
      "type": "function"
    },
    {
      "inputs": [
        {
          "internalType": "uint256",
          "name": "id",
          "type": "uint256"
        }
      ],
      "name": "loadOffers",
      "outputs": [
        {
          "components": [
            {
              "internalType": "uint256",
              "name": "dealId",
              "type": "uint256"
            },
            {
              "components": [
                {
                  "internalType": "string",
                  "name": "CL",
                  "type": "string"
                },
                {
                  "internalType": "string",
                  "name": "CR",
                  "type": "string"
                }
              ],
              "internalType": "struct XContract.ElBalance",
              "name": "price",
              "type": "tuple"
            },
            {
              "internalType": "uint256",
              "name": "requestId",
              "type": "uint256"
            },
            {
              "internalType": "enum XContract.DealState",
              "name": "state",
              "type": "uint8"
            },
            {
              "internalType": "string",
              "name": "bidder",
              "type": "string"
            }
          ],
          "internalType": "struct XContract.Deal[]",
          "name": "",
          "type": "tuple[]"
        }
      ],
      "stateMutability": "view",
      "type": "function"
    },
    {
      "inputs": [],
      "name": "name",
      "outputs": [
        {
          "internalType": "string",
          "name": "",
          "type": "string"
        }
      ],
      "stateMutability": "view",
      "type": "function"
    },
    {
      "inputs": [
        {
          "internalType": "string",
          "name": "_task",
          "type": "string"
        }
      ],
      "name": "postTask",
      "outputs": [],
      "stateMutability": "nonpayable",
      "type": "function"
    },
    {
      "inputs": [
        {
          "internalType": "uint256",
          "name": "requestId",
          "type": "uint256"
        },
        {
          "internalType": "string",
          "name": "CL_price",
          "type": "string"
        },
        {
          "internalType": "string",
          "name": "CR_price",
          "type": "string"
        }
      ],
      "name": "raiseAPrice",
      "outputs": [],
      "stateMutability": "nonpayable",
      "type": "function"
    },
    {
      "inputs": [],
      "name": "totalSupply",
      "outputs": [
        {
          "internalType": "uint256",
          "name": "",
          "type": "uint256"
        }
      ],
      "stateMutability": "view",
      "type": "function"
    },
    {
      "inputs": [
        {
          "internalType": "string",
          "name": "y",
          "type": "string"
        },
        {
          "internalType": "string",
          "name": "C1",
          "type": "string"
        },
        {
          "internalType": "string",
          "name": "C2",
          "type": "string"
        },
        {
          "internalType": "string",
          "name": "yr",
          "type": "string"
        },
        {
          "internalType": "string",
          "name": "C3",
          "type": "string"
        },
        {
          "internalType": "string",
          "name": "C4",
          "type": "string"
        }
      ],
      "name": "updateBalance",
      "outputs": [],
      "stateMutability": "nonpayable",
      "type": "function"
    }
  ],
  "bytecode": "0x60806040526040518060400160405280600981526020017f58636f6e747261637400000000000000000000000000000000000000000000008152506000908051906020019062000051929190620002a9565b50620f42406002556127106003556040518060200160405280600081525060049080519060200190620000869291906200033a565b503480156200009457600080fd5b506001600560003373ffffffffffffffffffffffffffffffffffffffff1673ffffffffffffffffffffffffffffffffffffffff16815260200190815260200160002060006101000a81548160ff02191690831515021790555033600c60006101000a81548173ffffffffffffffffffffffffffffffffffffffff021916908373ffffffffffffffffffffffffffffffffffffffff1602179055506040518060400160405280600381526020017f3030300000000000000000000000000000000000000000000000000000000000815250600190805190602001906200017b929190620002a9565b50620001c76040518060400160405280601381526020017f4465706c6f79205375636365737366756c6c2000000000000000000000000000815250620001dd60201b6200314a1760201c565b6000601081905550600060118190555062000517565b6200027d81604051602401620001f491906200042b565b6040516020818303038152906040527f41304fac000000000000000000000000000000000000000000000000000000007bffffffffffffffffffffffffffffffffffffffffffffffffffffffff19166020820180517bffffffffffffffffffffffffffffffffffffffffffffffffffffffff83818316178352505050506200028060201b60201c565b50565b60008151905060006a636f6e736f6c652e6c6f679050602083016000808483855afa5050505050565b828054620002b790620004a1565b90600052602060002090601f016020900481019282620002db576000855562000327565b82601f10620002f657805160ff191683800117855562000327565b8280016001018555821562000327579182015b828111156200032657825182559160200191906001019062000309565b5b509050620003369190620003cb565b5090565b8280546200034890620004a1565b90600052602060002090601f0160209004810192826200036c5760008555620003b8565b82601f106200038757805160ff1916838001178555620003b8565b82800160010185558215620003b8579182015b82811115620003b75782518255916020019190600101906200039a565b5b509050620003c79190620003cb565b5090565b5b80821115620003e6576000816000905550600101620003cc565b5090565b6000620003f7826200044f565b6200040381856200045a565b9350620004158185602086016200046b565b620004208162000506565b840191505092915050565b60006020820190508181036000830152620004478184620003ea565b905092915050565b600081519050919050565b600082825260208201905092915050565b60005b838110156200048b5780820151818401526020810190506200046e565b838111156200049b576000848401525b50505050565b60006002820490506001821680620004ba57607f821691505b60208210811415620004d157620004d0620004d7565b5b50919050565b7f4e487b7100000000000000000000000000000000000000000000000000000000600052602260045260246000fd5b6000601f19601f8301169050919050565b614a6180620005276000396000f3fe608060405234801561001057600080fd5b50600436106101425760003560e01c806362746e6c116100b8578063883764b11161007c578063883764b114610353578063c4ca280d14610371578063cfae32171461038d578063d8b86fec146103ab578063ec406e9b146103c7578063f844dcc8146103e557610142565b806362746e6c146102ad578063712bef91146102cb578063722713f7146102fb578063817f4e3d146103195780638655854c1461033757610142565b80634118b16f1161010a5780634118b16f146101db578063496cb056146101f75780634f193a9114610227578063509145db146102575780635c260e50146102735780635f32b6db1461029157610142565b8063050d4f781461014757806306fdde031461016557806318160ddd14610183578063378dc3dc146101a15780633a2568e9146101bf575b600080fd5b61014f610401565b60405161015c9190614187565b60405180910390f35b61016d610427565b60405161017a9190614201565b60405180910390f35b61018b6104b5565b6040516101989190614396565b60405180910390f35b6101a96104bb565b6040516101b69190614396565b60405180910390f35b6101d960048036038101906101d491906139c8565b6104c1565b005b6101f560048036038101906101f091906137c3565b61056d565b005b610211600480360381019061020c9190613674565b61069f565b60405161021e91906141e6565b60405180910390f35b610241600480360381019061023c919061399f565b610785565b60405161024e91906141a2565b60405180910390f35b610271600480360381019061026c919061369d565b610bea565b005b61027b610d35565b60405161028891906141e6565b60405180910390f35b6102ab60048036038101906102a69190613886565b610e2f565b005b6102b5610f17565b6040516102c291906141e6565b60405180910390f35b6102e560048036038101906102e09190613782565b610f6b565b6040516102f29190614374565b60405180910390f35b610303611106565b6040516103109190614374565b60405180910390f35b610321611302565b60405161032e9190614201565b60405180910390f35b610351600480360381019061034c91906136de565b61142e565b005b61035b61183d565b60405161036891906141c4565b60405180910390f35b61038b60048036038101906103869190613782565b611b7d565b005b610395611eaa565b6040516103a29190614201565b60405180910390f35b6103c560048036038101906103c09190613a04565b611f3c565b005b6103cf612340565b6040516103dc91906141c4565b60405180910390f35b6103ff60048036038101906103fa9190613a83565b612737565b005b600c60009054906101000a900473ffffffffffffffffffffffffffffffffffffffff1681565b60008054610434906146d4565b80601f0160208091040260200160405190810160405280929190818152602001828054610460906146d4565b80156104ad5780601f10610482576101008083540402835291602001916104ad565b820191906000526020600020905b81548152906001019060200180831161049057829003601f168201915b505050505081565b60025481565b60035481565b600115158115151415610569576001600d838154811061050a577f4e487b7100000000000000000000000000000000000000000000000000000000600052603260045260246000fd5b906000526020600020906004020160030160006101000a81548160ff02191690836004811115610563577f4e487b7100000000000000000000000000000000000000000000000000000000600052602160045260246000fd5b02179055505b5050565b60011515600560003373ffffffffffffffffffffffffffffffffffffffff1673ffffffffffffffffffffffffffffffffffffffff16815260200190815260200160002060009054906101000a900460ff16151514610600576040517f08c379a00000000000000000000000000000000000000000000000000000000081526004016105f7906142f4565b60405180910390fd5b61063e6040518060400160405280600b81526020017f54657374204576656e742700000000000000000000000000000000000000000081525061314a565b7f2dddc06b1340f27d89cf9e1783165857c901b8fb2d67ac8443c795ec43ff341f601154858585856040516106779594939291906143b1565b60405180910390a16001601160008282546106929190614576565b9250508190555050505050565b6000600c60009054906101000a900473ffffffffffffffffffffffffffffffffffffffff1673ffffffffffffffffffffffffffffffffffffffff163373ffffffffffffffffffffffffffffffffffffffff1614610731576040517f08c379a0000000000000000000000000000000000000000000000000000000008152600401610728906142b4565b60405180910390fd5b600560008373ffffffffffffffffffffffffffffffffffffffff1673ffffffffffffffffffffffffffffffffffffffff16815260200190815260200160002060009054906101000a900460ff169050919050565b60606000600d83815481106107c3577f4e487b7100000000000000000000000000000000000000000000000000000000600052603260045260246000fd5b906000526020600020906004020160020180546107df906146d4565b80601f016020809104026020016040519081016040528092919081815260200182805461080b906146d4565b80156108585780601f1061082d57610100808354040283529160200191610858565b820191906000526020600020905b81548152906001019060200180831161083b57829003601f168201915b505050505090506108688161314a565b3373ffffffffffffffffffffffffffffffffffffffff1660088260405161088f91906140e4565b908152602001604051809103902060009054906101000a900473ffffffffffffffffffffffffffffffffffffffff1673ffffffffffffffffffffffffffffffffffffffff1614610914576040517f08c379a000000000000000000000000000000000000000000000000000000000815260040161090b906142d4565b60405180910390fd5b600a6000848152602001908152602001600020805480602002602001604051908101604052809291908181526020016000905b82821015610bde57838290600052602060002090600602016040518060a00160405290816000820154815260200160018201604051806040016040529081600082018054610994906146d4565b80601f01602080910402602001604051908101604052809291908181526020018280546109c0906146d4565b8015610a0d5780601f106109e257610100808354040283529160200191610a0d565b820191906000526020600020905b8154815290600101906020018083116109f057829003601f168201915b50505050508152602001600182018054610a26906146d4565b80601f0160208091040260200160405190810160405280929190818152602001828054610a52906146d4565b8015610a9f5780601f10610a7457610100808354040283529160200191610a9f565b820191906000526020600020905b815481529060010190602001808311610a8257829003601f168201915b5050505050815250508152602001600382015481526020016004820160009054906101000a900460ff166002811115610b01577f4e487b7100000000000000000000000000000000000000000000000000000000600052602160045260246000fd5b6002811115610b39577f4e487b7100000000000000000000000000000000000000000000000000000000600052602160045260246000fd5b8152602001600582018054610b4d906146d4565b80601f0160208091040260200160405190810160405280929190818152602001828054610b79906146d4565b8015610bc65780601f10610b9b57610100808354040283529160200191610bc6565b820191906000526020600020905b815481529060010190602001808311610ba957829003601f168201915b50505050508152505081526020019060010190610947565b50505050915050919050565b600c60009054906101000a900473ffffffffffffffffffffffffffffffffffffffff1673ffffffffffffffffffffffffffffffffffffffff163373ffffffffffffffffffffffffffffffffffffffff1614610c7a576040517f08c379a0000000000000000000000000000000000000000000000000000000008152600401610c71906142b4565b60405180910390fd5b60005b8151811015610d3157600160056000848481518110610cc5577f4e487b7100000000000000000000000000000000000000000000000000000000600052603260045260246000fd5b602002602001015173ffffffffffffffffffffffffffffffffffffffff1673ffffffffffffffffffffffffffffffffffffffff16815260200190815260200160002060006101000a81548160ff0219169083151502179055508080610d2990614737565b915050610c7d565b5050565b600060011515600560003373ffffffffffffffffffffffffffffffffffffffff1673ffffffffffffffffffffffffffffffffffffffff16815260200190815260200160002060009054906101000a900460ff16151514610dca576040517f08c379a0000000000000000000000000000000000000000000000000000000008152600401610dc1906142b4565b60405180910390fd5b6000600660003373ffffffffffffffffffffffffffffffffffffffff1673ffffffffffffffffffffffffffffffffffffffff1681526020019081526020016000208054610e16906146d4565b90501415610e275760009050610e2c565b600190505b90565b604051806040016040528086815260200185815250600787604051610e5491906140e4565b90815260200160405180910390206000820151816000019080519060200190610e7e92919061334a565b506020820151816001019080519060200190610e9b92919061334a565b50905050604051806040016040528083815260200182815250600784604051610ec491906140e4565b90815260200160405180910390206000820151816000019080519060200190610eee92919061334a565b506020820151816001019080519060200190610f0b92919061334a565b50905050505050505050565b6000600560003373ffffffffffffffffffffffffffffffffffffffff1673ffffffffffffffffffffffffffffffffffffffff16815260200190815260200160002060009054906101000a900460ff16905090565b610f736133d0565b610fb26040518060400160405280600781526020017f73656e6465722000000000000000000000000000000000000000000000000000815250336131e3565b600782604051610fc291906140e4565b9081526020016040518091039020604051806040016040529081600082018054610feb906146d4565b80601f0160208091040260200160405190810160405280929190818152602001828054611017906146d4565b80156110645780601f1061103957610100808354040283529160200191611064565b820191906000526020600020905b81548152906001019060200180831161104757829003601f168201915b5050505050815260200160018201805461107d906146d4565b80601f01602080910402602001604051908101604052809291908181526020018280546110a9906146d4565b80156110f65780601f106110cb576101008083540402835291602001916110f6565b820191906000526020600020905b8154815290600101906020018083116110d957829003601f168201915b5050505050815250509050919050565b61110e6133d0565b60001515600560003373ffffffffffffffffffffffffffffffffffffffff1673ffffffffffffffffffffffffffffffffffffffff16815260200190815260200160002060009054906101000a900460ff161515141561116c57600080fd5b6000600660003373ffffffffffffffffffffffffffffffffffffffff1673ffffffffffffffffffffffffffffffffffffffff16815260200190815260200160002090506007816040516111bf9190614112565b90815260200160405180910390206040518060400160405290816000820180546111e8906146d4565b80601f0160208091040260200160405190810160405280929190818152602001828054611214906146d4565b80156112615780601f1061123657610100808354040283529160200191611261565b820191906000526020600020905b81548152906001019060200180831161124457829003601f168201915b5050505050815260200160018201805461127a906146d4565b80601f01602080910402602001604051908101604052809291908181526020018280546112a6906146d4565b80156112f35780601f106112c8576101008083540402835291602001916112f3565b820191906000526020600020905b8154815290600101906020018083116112d657829003601f168201915b50505050508152505091505090565b606060011515600560003373ffffffffffffffffffffffffffffffffffffffff1673ffffffffffffffffffffffffffffffffffffffff16815260200190815260200160002060009054906101000a900460ff1615151461136157600080fd5b600660003373ffffffffffffffffffffffffffffffffffffffff1673ffffffffffffffffffffffffffffffffffffffff16815260200190815260200160002080546113ab906146d4565b80601f01602080910402602001604051908101604052809291908181526020018280546113d7906146d4565b80156114245780601f106113f957610100808354040283529160200191611424565b820191906000526020600020905b81548152906001019060200180831161140757829003601f168201915b5050505050905090565b60011515600560003373ffffffffffffffffffffffffffffffffffffffff1673ffffffffffffffffffffffffffffffffffffffff16815260200190815260200160002060009054906101000a900460ff161515146114c1576040517f08c379a00000000000000000000000000000000000000000000000000000000081526004016114b8906142f4565b60405180910390fd5b8585600660003373ffffffffffffffffffffffffffffffffffffffff1673ffffffffffffffffffffffffffffffffffffffff168152602001908152602001600020919061150f9291906133ea565b5033600887876040516115239291906140cb565b908152602001604051809103902060006101000a81548173ffffffffffffffffffffffffffffffffffffffff021916908373ffffffffffffffffffffffffffffffffffffffff160217905550604051806040016040528085858080601f016020809104026020016040519081016040528093929190818152602001838380828437600081840152601f19601f82011690508083019250505050505050815260200183838080601f016020809104026020016040519081016040528093929190818152602001838380828437600081840152601f19601f820116905080830192505050505050508152506007878760405161161e9291906140cb565b9081526020016040518091039020600082015181600001908051906020019061164892919061334a565b50602082015181600101908051906020019061166592919061334a565b509050506118356040518060400160405280600b81526020017f73656e6465722061636320000000000000000000000000000000000000000000815250600788886040516116b49291906140cb565b908152602001604051809103902060000180546116d0906146d4565b80601f01602080910402602001604051908101604052809291908181526020018280546116fc906146d4565b80156117495780601f1061171e57610100808354040283529160200191611749565b820191906000526020600020905b81548152906001019060200180831161172c57829003601f168201915b50505050506040518060400160405280600581526020017f20616e642000000000000000000000000000000000000000000000000000000081525060078a8a6040516117969291906140cb565b908152602001604051809103902060010180546117b2906146d4565b80601f01602080910402602001604051908101604052809291908181526020018280546117de906146d4565b801561182b5780601f106118005761010080835404028352916020019161182b565b820191906000526020600020905b81548152906001019060200180831161180e57829003601f168201915b505050505061327f565b505050505050565b60606000600e8054905067ffffffffffffffff811115611886577f4e487b7100000000000000000000000000000000000000000000000000000000600052604160045260246000fd5b6040519080825280602002602001820160405280156118bf57816020015b6118ac613470565b8152602001906001900390816118a45790505b50905060005b600e80549050811015611b7557600d600e828154811061190e577f4e487b7100000000000000000000000000000000000000000000000000000000600052603260045260246000fd5b906000526020600020015481548110611950577f4e487b7100000000000000000000000000000000000000000000000000000000600052603260045260246000fd5b906000526020600020906004020160405180608001604052908160008201548152602001600182018054611983906146d4565b80601f01602080910402602001604051908101604052809291908181526020018280546119af906146d4565b80156119fc5780601f106119d1576101008083540402835291602001916119fc565b820191906000526020600020905b8154815290600101906020018083116119df57829003601f168201915b50505050508152602001600282018054611a15906146d4565b80601f0160208091040260200160405190810160405280929190818152602001828054611a41906146d4565b8015611a8e5780601f10611a6357610100808354040283529160200191611a8e565b820191906000526020600020905b815481529060010190602001808311611a7157829003601f168201915b505050505081526020016003820160009054906101000a900460ff166004811115611ae2577f4e487b7100000000000000000000000000000000000000000000000000000000600052602160045260246000fd5b6004811115611b1a577f4e487b7100000000000000000000000000000000000000000000000000000000600052602160045260246000fd5b81525050828281518110611b57577f4e487b7100000000000000000000000000000000000000000000000000000000600052603260045260246000fd5b60200260200101819052508080611b6d90614737565b9150506118c5565b508091505090565b60011515600560003373ffffffffffffffffffffffffffffffffffffffff1673ffffffffffffffffffffffffffffffffffffffff16815260200190815260200160002060009054906101000a900460ff16151514611c10576040517f08c379a0000000000000000000000000000000000000000000000000000000008152600401611c0790614314565b60405180910390fd5b600d60405180608001604052806011548152602001838152602001600660003373ffffffffffffffffffffffffffffffffffffffff1673ffffffffffffffffffffffffffffffffffffffff1681526020019081526020016000208054611c75906146d4565b80601f0160208091040260200160405190810160405280929190818152602001828054611ca1906146d4565b8015611cee5780601f10611cc357610100808354040283529160200191611cee565b820191906000526020600020905b815481529060010190602001808311611cd157829003601f168201915b5050505050815260200160006004811115611d32577f4e487b7100000000000000000000000000000000000000000000000000000000600052602160045260246000fd5b8152509080600181540180825580915050600190039060005260206000209060040201600090919091909150600082015181600001556020820151816001019080519060200190611d8492919061334a565b506040820151816002019080519060200190611da192919061334a565b5060608201518160030160006101000a81548160ff02191690836004811115611df3577f4e487b7100000000000000000000000000000000000000000000000000000000600052602160045260246000fd5b02179055505050600960003373ffffffffffffffffffffffffffffffffffffffff1673ffffffffffffffffffffffffffffffffffffffff1681526020019081526020016000206011549080600181540180825580915050600190039060005260206000200160009091909190915055600e6011549080600181540180825580915050600190039060005260206000200160009091909190915055600160116000828254611ea09190614576565b9250508190555050565b606060018054611eb9906146d4565b80601f0160208091040260200160405190810160405280929190818152602001828054611ee5906146d4565b8015611f325780601f10611f0757610100808354040283529160200191611f32565b820191906000526020600020905b815481529060010190602001808311611f1557829003601f168201915b5050505050905090565b60011515600560003373ffffffffffffffffffffffffffffffffffffffff1673ffffffffffffffffffffffffffffffffffffffff16815260200190815260200160002060009054906101000a900460ff16151514611fcf576040517f08c379a0000000000000000000000000000000000000000000000000000000008152600401611fc690614314565b60405180910390fd5b60006004811115612009577f4e487b7100000000000000000000000000000000000000000000000000000000600052602160045260246000fd5b600d8481548110612043577f4e487b7100000000000000000000000000000000000000000000000000000000600052603260045260246000fd5b906000526020600020906004020160030160009054906101000a900460ff16600481111561209a577f4e487b7100000000000000000000000000000000000000000000000000000000600052602160045260246000fd5b146120da576040517f08c379a00000000000000000000000000000000000000000000000000000000081526004016120d190614354565b60405180910390fd5b6000600a6000858152602001908152602001600020805490509050600a60008581526020019081526020016000206040518060a00160405280838152602001604051806040016040528087815260200186815250815260200186815260200160006002811115612173577f4e487b7100000000000000000000000000000000000000000000000000000000600052602160045260246000fd5b8152602001600660003373ffffffffffffffffffffffffffffffffffffffff1673ffffffffffffffffffffffffffffffffffffffff16815260200190815260200160002080546121c2906146d4565b80601f01602080910402602001604051908101604052809291908181526020018280546121ee906146d4565b801561223b5780601f106122105761010080835404028352916020019161223b565b820191906000526020600020905b81548152906001019060200180831161221e57829003601f168201915b5050505050815250908060018154018082558091505060019003906000526020600020906006020160009091909190915060008201518160000155602082015181600101600082015181600001908051906020019061229b92919061334a565b5060208201518160010190805190602001906122b892919061334a565b5050506040820151816003015560608201518160040160006101000a81548160ff02191690836002811115612316577f4e487b7100000000000000000000000000000000000000000000000000000000600052602160045260246000fd5b0217905550608082015181600501908051906020019061233792919061334a565b50505050505050565b60606000600960003373ffffffffffffffffffffffffffffffffffffffff1673ffffffffffffffffffffffffffffffffffffffff1681526020019081526020016000208054905067ffffffffffffffff8111156123c6577f4e487b7100000000000000000000000000000000000000000000000000000000600052604160045260246000fd5b6040519080825280602002602001820160405280156123ff57816020015b6123ec613470565b8152602001906001900390816123e45790505b50905060005b600960003373ffffffffffffffffffffffffffffffffffffffff1673ffffffffffffffffffffffffffffffffffffffff1681526020019081526020016000208054905081101561272f57600d600960003373ffffffffffffffffffffffffffffffffffffffff1673ffffffffffffffffffffffffffffffffffffffff16815260200190815260200160002082815481106124c8577f4e487b7100000000000000000000000000000000000000000000000000000000600052603260045260246000fd5b90600052602060002001548154811061250a577f4e487b7100000000000000000000000000000000000000000000000000000000600052603260045260246000fd5b90600052602060002090600402016040518060800160405290816000820154815260200160018201805461253d906146d4565b80601f0160208091040260200160405190810160405280929190818152602001828054612569906146d4565b80156125b65780601f1061258b576101008083540402835291602001916125b6565b820191906000526020600020905b81548152906001019060200180831161259957829003601f168201915b505050505081526020016002820180546125cf906146d4565b80601f01602080910402602001604051908101604052809291908181526020018280546125fb906146d4565b80156126485780601f1061261d57610100808354040283529160200191612648565b820191906000526020600020905b81548152906001019060200180831161262b57829003601f168201915b505050505081526020016003820160009054906101000a900460ff16600481111561269c577f4e487b7100000000000000000000000000000000000000000000000000000000600052602160045260246000fd5b60048111156126d4577f4e487b7100000000000000000000000000000000000000000000000000000000600052602160045260246000fd5b81525050828281518110612711577f4e487b7100000000000000000000000000000000000000000000000000000000600052603260045260246000fd5b6020026020010181905250808061272790614737565b915050612405565b508091505090565b60011515600560003373ffffffffffffffffffffffffffffffffffffffff1673ffffffffffffffffffffffffffffffffffffffff16815260200190815260200160002060009054906101000a900460ff161515146127ca576040517f08c379a00000000000000000000000000000000000000000000000000000000081526004016127c190614314565b60405180910390fd5b6000600d8581548110612806577f4e487b7100000000000000000000000000000000000000000000000000000000600052603260045260246000fd5b90600052602060002090600402016002018054612822906146d4565b80601f016020809104026020016040519081016040528092919081815260200182805461284e906146d4565b801561289b5780601f106128705761010080835404028352916020019161289b565b820191906000526020600020905b81548152906001019060200180831161287e57829003601f168201915b505050505090503373ffffffffffffffffffffffffffffffffffffffff166008826040516128c991906140e4565b908152602001604051809103902060009054906101000a900473ffffffffffffffffffffffffffffffffffffffff1673ffffffffffffffffffffffffffffffffffffffff161461294e576040517f08c379a0000000000000000000000000000000000000000000000000000000008152600401612945906142d4565b60405180910390fd5b60006004811115612988577f4e487b7100000000000000000000000000000000000000000000000000000000600052602160045260246000fd5b600d86815481106129c2577f4e487b7100000000000000000000000000000000000000000000000000000000600052603260045260246000fd5b906000526020600020906004020160030160009054906101000a900460ff166004811115612a19577f4e487b7100000000000000000000000000000000000000000000000000000000600052602160045260246000fd5b14612a59576040517f08c379a0000000000000000000000000000000000000000000000000000000008152600401612a5090614354565b60405180910390fd5b60006002811115612a93577f4e487b7100000000000000000000000000000000000000000000000000000000600052602160045260246000fd5b600a60008781526020019081526020016000208581548110612ade577f4e487b7100000000000000000000000000000000000000000000000000000000600052603260045260246000fd5b906000526020600020906006020160040160009054906101000a900460ff166002811115612b35577f4e487b7100000000000000000000000000000000000000000000000000000000600052602160045260246000fd5b14612b75576040517f08c379a0000000000000000000000000000000000000000000000000000000008152600401612b6c90614334565b60405180910390fd5b60008383604051602001612b8a929190614129565b604051602081830303815290604052905060005b600a600088815260200190815260200160002080549050811015612d3557858114612d22576001600a60008981526020019081526020016000208281548110612c10577f4e487b7100000000000000000000000000000000000000000000000000000000600052603260045260246000fd5b906000526020600020906006020160040160006101000a81548160ff02191690836002811115612c69577f4e487b7100000000000000000000000000000000000000000000000000000000600052602160045260246000fd5b0217905550600b600a60008981526020019081526020016000208781548110612cbb577f4e487b7100000000000000000000000000000000000000000000000000000000600052603260045260246000fd5b9060005260206000209060060201600501604051612cd991906140fb565b908152602001604051809103902082908060018154018082558091505060019003906000526020600020016000909190919091509080519060200190612d2092919061334a565b505b8080612d2d90614737565b915050612b9e565b506002600a60008881526020019081526020016000208681548110612d83577f4e487b7100000000000000000000000000000000000000000000000000000000600052603260045260246000fd5b906000526020600020906006020160040160006101000a81548160ff02191690836002811115612ddc577f4e487b7100000000000000000000000000000000000000000000000000000000600052602160045260246000fd5b02179055508383604051602001612df4929190614158565b60405160208183030381529060405290506000600a60008881526020019081526020016000208681548110612e52577f4e487b7100000000000000000000000000000000000000000000000000000000600052603260045260246000fd5b90600052602060002090600602016005018054612e6e906146d4565b80601f0160208091040260200160405190810160405280929190818152602001828054612e9a906146d4565b8015612ee75780601f10612ebc57610100808354040283529160200191612ee7565b820191906000526020600020905b815481529060010190602001808311612eca57829003601f168201915b50505050509050600b81604051612efe91906140e4565b908152602001604051809103902082908060018154018082558091505060019003906000526020600020016000909190919091509080519060200190612f4592919061334a565b506001600d8881548110612f82577f4e487b7100000000000000000000000000000000000000000000000000000000600052603260045260246000fd5b906000526020600020906004020160030160006101000a81548160ff02191690836004811115612fdb577f4e487b7100000000000000000000000000000000000000000000000000000000600052602160045260246000fd5b021790555060005b600e805490508110156131405787600e828154811061302b577f4e487b7100000000000000000000000000000000000000000000000000000000600052603260045260246000fd5b9060005260206000200154141561312d57600e6001600e8054905061305091906145cc565b81548110613087577f4e487b7100000000000000000000000000000000000000000000000000000000600052603260045260246000fd5b9060005260206000200154600e82815481106130cc577f4e487b7100000000000000000000000000000000000000000000000000000000600052603260045260246000fd5b9060005260206000200181905550600e805480613112577f4e487b7100000000000000000000000000000000000000000000000000000000600052603160045260246000fd5b60019003818190600052602060002001600090559055613140565b808061313890614737565b915050612fe3565b5050505050505050565b6131e08160405160240161315e9190614201565b6040516020818303038152906040527f41304fac000000000000000000000000000000000000000000000000000000007bffffffffffffffffffffffffffffffffffffffffffffffffffffffff19166020820180517bffffffffffffffffffffffffffffffffffffffffffffffffffffffff8381831617835250505050613321565b50565b61327b82826040516024016131f9929190614223565b6040516020818303038152906040527f319af333000000000000000000000000000000000000000000000000000000007bffffffffffffffffffffffffffffffffffffffffffffffffffffffff19166020820180517bffffffffffffffffffffffffffffffffffffffffffffffffffffffff8381831617835250505050613321565b5050565b61331b848484846040516024016132999493929190614253565b6040516020818303038152906040527fde68f20a000000000000000000000000000000000000000000000000000000007bffffffffffffffffffffffffffffffffffffffffffffffffffffffff19166020820180517bffffffffffffffffffffffffffffffffffffffffffffffffffffffff8381831617835250505050613321565b50505050565b60008151905060006a636f6e736f6c652e6c6f679050602083016000808483855afa5050505050565b828054613356906146d4565b90600052602060002090601f01602090048101928261337857600085556133bf565b82601f1061339157805160ff19168380011785556133bf565b828001600101855582156133bf579182015b828111156133be5782518255916020019190600101906133a3565b5b5090506133cc91906134d0565b5090565b604051806040016040528060608152602001606081525090565b8280546133f6906146d4565b90600052602060002090601f016020900481019282613418576000855561345f565b82601f1061343157803560ff191683800117855561345f565b8280016001018555821561345f579182015b8281111561345e578235825591602001919060010190613443565b5b50905061346c91906134d0565b5090565b6040518060800160405280600081526020016060815260200160608152602001600060048111156134ca577f4e487b7100000000000000000000000000000000000000000000000000000000600052602160045260246000fd5b81525090565b5b808211156134e95760008160009055506001016134d1565b5090565b60006135006134fb84614445565b614420565b9050808382526020820190508285602086028201111561351f57600080fd5b60005b8581101561354f57816135358882613597565b845260208401935060208301925050600181019050613522565b5050509392505050565b600061356c61356784614471565b614420565b90508281526020810184848401111561358457600080fd5b61358f848285614692565b509392505050565b6000813590506135a6816149e6565b92915050565b600082601f8301126135bd57600080fd5b81356135cd8482602086016134ed565b91505092915050565b6000813590506135e5816149fd565b92915050565b60008083601f8401126135fd57600080fd5b8235905067ffffffffffffffff81111561361657600080fd5b60208301915083600182028301111561362e57600080fd5b9250929050565b600082601f83011261364657600080fd5b8135613656848260208601613559565b91505092915050565b60008135905061366e81614a14565b92915050565b60006020828403121561368657600080fd5b600061369484828501613597565b91505092915050565b6000602082840312156136af57600080fd5b600082013567ffffffffffffffff8111156136c957600080fd5b6136d5848285016135ac565b91505092915050565b600080600080600080606087890312156136f757600080fd5b600087013567ffffffffffffffff81111561371157600080fd5b61371d89828a016135eb565b9650965050602087013567ffffffffffffffff81111561373c57600080fd5b61374889828a016135eb565b9450945050604087013567ffffffffffffffff81111561376757600080fd5b61377389828a016135eb565b92509250509295509295509295565b60006020828403121561379457600080fd5b600082013567ffffffffffffffff8111156137ae57600080fd5b6137ba84828501613635565b91505092915050565b600080600080608085870312156137d957600080fd5b600085013567ffffffffffffffff8111156137f357600080fd5b6137ff87828801613635565b945050602085013567ffffffffffffffff81111561381c57600080fd5b61382887828801613635565b935050604085013567ffffffffffffffff81111561384557600080fd5b61385187828801613635565b925050606085013567ffffffffffffffff81111561386e57600080fd5b61387a87828801613635565b91505092959194509250565b60008060008060008060c0878903121561389f57600080fd5b600087013567ffffffffffffffff8111156138b957600080fd5b6138c589828a01613635565b965050602087013567ffffffffffffffff8111156138e257600080fd5b6138ee89828a01613635565b955050604087013567ffffffffffffffff81111561390b57600080fd5b61391789828a01613635565b945050606087013567ffffffffffffffff81111561393457600080fd5b61394089828a01613635565b935050608087013567ffffffffffffffff81111561395d57600080fd5b61396989828a01613635565b92505060a087013567ffffffffffffffff81111561398657600080fd5b61399289828a01613635565b9150509295509295509295565b6000602082840312156139b157600080fd5b60006139bf8482850161365f565b91505092915050565b600080604083850312156139db57600080fd5b60006139e98582860161365f565b92505060206139fa858286016135d6565b9150509250929050565b600080600060608486031215613a1957600080fd5b6000613a278682870161365f565b935050602084013567ffffffffffffffff811115613a4457600080fd5b613a5086828701613635565b925050604084013567ffffffffffffffff811115613a6d57600080fd5b613a7986828701613635565b9150509250925092565b60008060008060608587031215613a9957600080fd5b6000613aa78782880161365f565b9450506020613ab88782880161365f565b935050604085013567ffffffffffffffff811115613ad557600080fd5b613ae1878288016135eb565b925092505092959194509250565b6000613afb8383613f3e565b905092915050565b6000613b0f8383614043565b905092915050565b613b2081614600565b82525050565b6000613b31826144ec565b613b3b8185614527565b935083602082028501613b4d856144a2565b8060005b85811015613b895784840389528151613b6a8582613aef565b9450613b758361450d565b925060208a01995050600181019050613b51565b50829750879550505050505092915050565b6000613ba6826144f7565b613bb08185614538565b935083602082028501613bc2856144b2565b8060005b85811015613bfe5784840389528151613bdf8582613b03565b9450613bea8361451a565b925060208a01995050600181019050613bc6565b50829750879550505050505092915050565b613c1981614612565b82525050565b613c288161466e565b82525050565b613c3781614680565b82525050565b6000613c49838561456b565b9350613c56838584614692565b82840190509392505050565b6000613c6d82614502565b613c778185614549565b9350613c878185602086016146a1565b613c908161483c565b840191505092915050565b6000613ca682614502565b613cb0818561455a565b9350613cc08185602086016146a1565b613cc98161483c565b840191505092915050565b6000613cdf82614502565b613ce9818561456b565b9350613cf98185602086016146a1565b80840191505092915050565b60008154613d12816146d4565b613d1c818661456b565b94506001821660008114613d375760018114613d4857613d7b565b60ff19831686528186019350613d7b565b613d51856144d7565b60005b83811015613d7357815481890152600182019150602081019050613d54565b838801955050505b50505092915050565b60008154613d91816146d4565b613d9b818661456b565b94506001821660008114613db65760018114613dc757613dfa565b60ff19831686528186019350613dfa565b613dd0856144c2565b60005b83811015613df257815481890152600182019150602081019050613dd3565b838801955050505b50505092915050565b6000613e10600c8361456b565b9150613e1b8261484d565b600c82019050919050565b6000613e3360178361455a565b9150613e3e82614876565b602082019050919050565b6000613e56601f8361455a565b9150613e618261489f565b602082019050919050565b6000613e7960188361455a565b9150613e84826148c8565b602082019050919050565b6000613e9c60178361455a565b9150613ea7826148f1565b602082019050919050565b6000613ebf60178361456b565b9150613eca8261491a565b601782019050919050565b6000613ee2601c8361455a565b9150613eed82614943565b602082019050919050565b6000613f05600c8361456b565b9150613f108261496c565b600c82019050919050565b6000613f2860208361455a565b9150613f3382614995565b602082019050919050565b600060a083016000830151613f5660008601826140ad565b5060208301518482036020860152613f6e8282613fbb565b9150506040830151613f8360408601826140ad565b506060830151613f966060860182613c1f565b5060808301518482036080860152613fae8282613c62565b9150508091505092915050565b60006040830160008301518482036000860152613fd88282613c62565b91505060208301518482036020860152613ff28282613c62565b9150508091505092915050565b6000604083016000830151848203600086015261401c8282613c62565b915050602083015184820360208601526140368282613c62565b9150508091505092915050565b600060808301600083015161405b60008601826140ad565b50602083015184820360208601526140738282613c62565b9150506040830151848203604086015261408d8282613c62565b91505060608301516140a26060860182613c2e565b508091505092915050565b6140b681614664565b82525050565b6140c581614664565b82525050565b60006140d8828486613c3d565b91508190509392505050565b60006140f08284613cd4565b915081905092915050565b60006141078284613d84565b915081905092915050565b600061411e8284613d05565b915081905092915050565b600061413482613eb2565b9150614141828486613c3d565b915061414c82613e03565b91508190509392505050565b600061416382613eb2565b9150614170828486613c3d565b915061417b82613ef8565b91508190509392505050565b600060208201905061419c6000830184613b17565b92915050565b600060208201905081810360008301526141bc8184613b26565b905092915050565b600060208201905081810360008301526141de8184613b9b565b905092915050565b60006020820190506141fb6000830184613c10565b92915050565b6000602082019050818103600083015261421b8184613c9b565b905092915050565b6000604082019050818103600083015261423d8185613c9b565b905061424c6020830184613b17565b9392505050565b6000608082019050818103600083015261426d8187613c9b565b905081810360208301526142818186613c9b565b905081810360408301526142958185613c9b565b905081810360608301526142a98184613c9b565b905095945050505050565b600060208201905081810360008301526142cd81613e26565b9050919050565b600060208201905081810360008301526142ed81613e49565b9050919050565b6000602082019050818103600083015261430d81613e6c565b9050919050565b6000602082019050818103600083015261432d81613e8f565b9050919050565b6000602082019050818103600083015261434d81613ed5565b9050919050565b6000602082019050818103600083015261436d81613f1b565b9050919050565b6000602082019050818103600083015261438e8184613fff565b905092915050565b60006020820190506143ab60008301846140bc565b92915050565b600060a0820190506143c660008301886140bc565b81810360208301526143d88187613c9b565b905081810360408301526143ec8186613c9b565b905081810360608301526144008185613c9b565b905081810360808301526144148184613c9b565b90509695505050505050565b600061442a61443b565b90506144368282614706565b919050565b6000604051905090565b600067ffffffffffffffff8211156144605761445f61480d565b5b602082029050602081019050919050565b600067ffffffffffffffff82111561448c5761448b61480d565b5b6144958261483c565b9050602081019050919050565b6000819050602082019050919050565b6000819050602082019050919050565b60008190508160005260206000209050919050565b60008190508160005260206000209050919050565b600081519050919050565b600081519050919050565b600081519050919050565b6000602082019050919050565b6000602082019050919050565b600082825260208201905092915050565b600082825260208201905092915050565b600082825260208201905092915050565b600082825260208201905092915050565b600081905092915050565b600061458182614664565b915061458c83614664565b9250827fffffffffffffffffffffffffffffffffffffffffffffffffffffffffffffffff038211156145c1576145c0614780565b5b828201905092915050565b60006145d782614664565b91506145e283614664565b9250828210156145f5576145f4614780565b5b828203905092915050565b600061460b82614644565b9050919050565b60008115159050919050565b600081905061462c826149be565b919050565b600081905061463f826149d2565b919050565b600073ffffffffffffffffffffffffffffffffffffffff82169050919050565b6000819050919050565b60006146798261461e565b9050919050565b600061468b82614631565b9050919050565b82818337600083830152505050565b60005b838110156146bf5780820151818401526020810190506146a4565b838111156146ce576000848401525b50505050565b600060028204905060018216806146ec57607f821691505b60208210811415614700576146ff6147de565b5b50919050565b61470f8261483c565b810181811067ffffffffffffffff8211171561472e5761472d61480d565b5b80604052505050565b600061474282614664565b91507fffffffffffffffffffffffffffffffffffffffffffffffffffffffffffffffff82141561477557614774614780565b5b600182019050919050565b7f4e487b7100000000000000000000000000000000000000000000000000000000600052601160045260246000fd5b7f4e487b7100000000000000000000000000000000000000000000000000000000600052602160045260246000fd5b7f4e487b7100000000000000000000000000000000000000000000000000000000600052602260045260246000fd5b7f4e487b7100000000000000000000000000000000000000000000000000000000600052604160045260246000fd5b6000601f19601f8301169050919050565b7f69732072656a65637465642e0000000000000000000000000000000000000000600082015250565b7f596f7520617265206e6f7420617574686f72697a65642e000000000000000000600082015250565b7f596f7520617265206e6f74206f6e776572206f662074686973207461736b2e00600082015250565b7f596f7520686176656e277420726567697374657265642e200000000000000000600082015250565b7f596f7520686176656e277420726567697374657265642e000000000000000000600082015250565b7f596f7572206f6666657220666f72205265717565737420000000000000000000600082015250565b7f546865206465616c207374617465206973206e6f742076616c69642e00000000600082015250565b7f69732041636365707465642e0000000000000000000000000000000000000000600082015250565b7f546865207461736b206973206e6f206c6f6e67657220617661696c61626c652e600082015250565b600381106149cf576149ce6147af565b5b50565b600581106149e3576149e26147af565b5b50565b6149ef81614600565b81146149fa57600080fd5b50565b614a0681614612565b8114614a1157600080fd5b50565b614a1d81614664565b8114614a2857600080fd5b5056fea2646970667358221220f252f5341d663966e70286d2de2f89ed1e8d42fd770663126d989da7b41ac95664736f6c63430008040033",
  "linkReferences": {},
  "deployedLinkReferences": {}
}