{
  "_format": "hh-sol-artifact-1",
  "contractName": "XContract",
  "sourceName": "contracts/XContract.sol",
  "abi": [
    {
      "inputs": [],
      "stateMutability": "nonpayable",
      "type": "constructor"
    },
    {
      "anonymous": false,
      "inputs": [
        {
          "indexed": false,
          "internalType": "string",
          "name": "pk",
          "type": "string"
        }
      ],
      "name": "InitBalance",
      "type": "event"
    },
    {
      "anonymous": false,
      "inputs": [
        {
          "indexed": false,
          "internalType": "uint256",
          "name": "id",
          "type": "uint256"
        },
        {
          "indexed": false,
          "internalType": "string",
          "name": "rangeproof1",
          "type": "string"
        },
        {
          "indexed": false,
          "internalType": "string",
          "name": "rangeproof2",
          "type": "string"
        },
        {
          "indexed": false,
          "internalType": "string",
          "name": "sigmaProof",
          "type": "string"
        },
        {
          "indexed": false,
          "internalType": "string",
          "name": "input",
          "type": "string"
        }
      ],
      "name": "NewConfTransfer",
      "type": "event"
    },
    {
      "anonymous": false,
      "inputs": [
        {
          "indexed": false,
          "internalType": "uint256",
          "name": "id",
          "type": "uint256"
        },
        {
          "indexed": false,
          "internalType": "string",
          "name": "proof",
          "type": "string"
        }
      ],
      "name": "NewRequest",
      "type": "event"
    },
    {
      "anonymous": false,
      "inputs": [
        {
          "indexed": false,
          "internalType": "string",
          "name": "newMsg",
          "type": "string"
        }
      ],
      "name": "TestMsg",
      "type": "event"
    },
    {
      "anonymous": false,
      "inputs": [
        {
          "indexed": false,
          "internalType": "address",
          "name": "add",
          "type": "address"
        },
        {
          "indexed": false,
          "internalType": "uint256",
          "name": "balance",
          "type": "uint256"
        }
      ],
      "name": "UpdateState",
      "type": "event"
    },
    {
      "inputs": [
        {
          "internalType": "string",
          "name": "y",
          "type": "string"
        }
      ],
      "name": "ElBalanceOf",
      "outputs": [
        {
          "components": [
            {
              "internalType": "string",
              "name": "CL",
              "type": "string"
            },
            {
              "internalType": "string",
              "name": "CR",
              "type": "string"
            }
          ],
          "internalType": "struct XContract.ElBalance",
          "name": "",
          "type": "tuple"
        }
      ],
      "stateMutability": "view",
      "type": "function"
    },
    {
      "inputs": [
        {
          "internalType": "string",
          "name": "",
          "type": "string"
        }
      ],
      "name": "acc",
      "outputs": [
        {
          "internalType": "string",
          "name": "CL",
          "type": "string"
        },
        {
          "internalType": "string",
          "name": "CR",
          "type": "string"
        }
      ],
      "stateMutability": "view",
      "type": "function"
    },
    {
      "inputs": [],
      "name": "association",
      "outputs": [
        {
          "internalType": "address",
          "name": "",
          "type": "address"
        }
      ],
      "stateMutability": "view",
      "type": "function"
    },
    {
      "inputs": [],
      "name": "balanceOf",
      "outputs": [
        {
          "internalType": "uint256",
          "name": "",
          "type": "uint256"
        }
      ],
      "stateMutability": "view",
      "type": "function"
    },
    {
      "inputs": [
        {
          "internalType": "string",
          "name": "proofForAmt",
          "type": "string"
        },
        {
          "internalType": "string",
          "name": "proofForRemainBalance",
          "type": "string"
        },
        {
          "internalType": "string",
          "name": "sigmaProof",
          "type": "string"
        },
        {
          "internalType": "string",
          "name": "input",
          "type": "string"
        }
      ],
      "name": "confTransfer",
      "outputs": [],
      "stateMutability": "nonpayable",
      "type": "function"
    },
    {
      "inputs": [
        {
          "internalType": "uint256",
          "name": "id",
          "type": "uint256"
        },
        {
          "internalType": "bool",
          "name": "res",
          "type": "bool"
        }
      ],
      "name": "confirmProof",
      "outputs": [],
      "stateMutability": "nonpayable",
      "type": "function"
    },
    {
      "inputs": [
        {
          "internalType": "uint256",
          "name": "amt",
          "type": "uint256"
        },
        {
          "internalType": "address",
          "name": "user",
          "type": "address"
        }
      ],
      "name": "fundToAccount",
      "outputs": [],
      "stateMutability": "nonpayable",
      "type": "function"
    },
    {
      "inputs": [],
      "name": "greet",
      "outputs": [
        {
          "internalType": "string",
          "name": "",
          "type": "string"
        }
      ],
      "stateMutability": "view",
      "type": "function"
    },
    {
      "inputs": [
        {
          "internalType": "string",
          "name": "y",
          "type": "string"
        },
        {
          "internalType": "string",
          "name": "cL",
          "type": "string"
        },
        {
          "internalType": "string",
          "name": "cR",
          "type": "string"
        }
      ],
      "name": "initElBalance",
      "outputs": [],
      "stateMutability": "nonpayable",
      "type": "function"
    },
    {
      "inputs": [],
      "name": "initialSupply",
      "outputs": [
        {
          "internalType": "uint256",
          "name": "",
          "type": "uint256"
        }
      ],
      "stateMutability": "view",
      "type": "function"
    },
    {
      "inputs": [],
      "name": "name",
      "outputs": [
        {
          "internalType": "string",
          "name": "",
          "type": "string"
        }
      ],
      "stateMutability": "view",
      "type": "function"
    },
    {
      "inputs": [
        {
          "internalType": "address",
          "name": "newAcc",
          "type": "address"
        }
      ],
      "name": "register",
      "outputs": [],
      "stateMutability": "nonpayable",
      "type": "function"
    },
    {
      "inputs": [
        {
          "internalType": "string",
          "name": "key",
          "type": "string"
        }
      ],
      "name": "registerKey",
      "outputs": [],
      "stateMutability": "nonpayable",
      "type": "function"
    },
    {
      "inputs": [
        {
          "internalType": "string",
          "name": "_greeting",
          "type": "string"
        }
      ],
      "name": "setGreeting",
      "outputs": [],
      "stateMutability": "nonpayable",
      "type": "function"
    },
    {
      "inputs": [],
      "name": "totalSupply",
      "outputs": [
        {
          "internalType": "uint256",
          "name": "",
          "type": "uint256"
        }
      ],
      "stateMutability": "view",
      "type": "function"
    },
    {
      "inputs": [
        {
          "internalType": "address",
          "name": "to",
          "type": "address"
        },
        {
          "internalType": "uint256",
          "name": "amount",
          "type": "uint256"
        }
      ],
      "name": "transfer",
      "outputs": [],
      "stateMutability": "nonpayable",
      "type": "function"
    }
  ],
  "bytecode": "0x60806040526040518060400160405280600981526020017f58636f6e747261637400000000000000000000000000000000000000000000008152506000908051906020019062000051929190620002c7565b50620f42406002556127106003553480156200006c57600080fd5b50600254600460003373ffffffffffffffffffffffffffffffffffffffff1673ffffffffffffffffffffffffffffffffffffffff168152602001908152602001600020819055506001600560003373ffffffffffffffffffffffffffffffffffffffff1673ffffffffffffffffffffffffffffffffffffffff16815260200190815260200160002060006101000a81548160ff02191690831515021790555033600760006101000a81548173ffffffffffffffffffffffffffffffffffffffff021916908373ffffffffffffffffffffffffffffffffffffffff1602179055506040518060400160405280600381526020017f30303000000000000000000000000000000000000000000000000000000000008152506001908051906020019062000199929190620002c7565b50620001e56040518060400160405280601381526020017f4465706c6f79205375636365737366756c6c2000000000000000000000000000815250620001fb60201b620012d81760201c565b60006009819055506000600a81905550620004a4565b6200029b81604051602401620002129190620003b8565b6040516020818303038152906040527f41304fac000000000000000000000000000000000000000000000000000000007bffffffffffffffffffffffffffffffffffffffffffffffffffffffff19166020820180517bffffffffffffffffffffffffffffffffffffffffffffffffffffffff83818316178352505050506200029e60201b60201c565b50565b60008151905060006a636f6e736f6c652e6c6f679050602083016000808483855afa5050505050565b828054620002d5906200042e565b90600052602060002090601f016020900481019282620002f9576000855562000345565b82601f106200031457805160ff191683800117855562000345565b8280016001018555821562000345579182015b828111156200034457825182559160200191906001019062000327565b5b50905062000354919062000358565b5090565b5b808211156200037357600081600090555060010162000359565b5090565b60006200038482620003dc565b620003908185620003e7565b9350620003a2818560208601620003f8565b620003ad8162000493565b840191505092915050565b60006020820190508181036000830152620003d4818462000377565b905092915050565b600081519050919050565b600082825260208201905092915050565b60005b8381101562000418578082015181840152602081019050620003fb565b8381111562000428576000848401525b50505050565b600060028204905060018216806200044757607f821691505b602082108114156200045e576200045d62000464565b5b50919050565b7f4e487b7100000000000000000000000000000000000000000000000000000000600052602260045260246000fd5b6000601f19601f8301169050919050565b61237480620004b46000396000f3fe608060405234801561001057600080fd5b50600436106101005760003560e01c80634420e48611610097578063a413686211610066578063a413686214610288578063a9059cbb146102a4578063bad3d107146102c0578063cfae3217146102dc57610100565b80634420e486146102025780634a80f2ba1461021e578063712bef911461023a578063722713f71461026a57610100565b80631a4ae8a7116100d35780631a4ae8a71461017b578063378dc3dc146101ac5780633a2568e9146101ca5780634118b16f146101e657610100565b8063050d4f781461010557806306fdde03146101235780630a1ae5aa1461014157806318160ddd1461015d575b600080fd5b61010d6102fa565b60405161011a9190611d69565b60405180910390f35b61012b610320565b6040516101389190611dd1565b60405180910390f35b61015b6004803603810190610156919061191f565b6103ae565b005b6101656106b0565b6040516101729190611f6b565b60405180910390f35b610195600480360381019061019091906119c3565b6106b6565b6040516101a3929190611e23565b60405180910390f35b6101b4610800565b6040516101c19190611f6b565b60405180910390f35b6101e460048036038101906101df9190611b03565b610806565b005b61020060048036038101906101fb9190611a04565b610951565b005b61021c60048036038101906102179190611875565b610b6e565b005b610238600480360381019061023391906118da565b610c0f565b005b610254600480360381019061024f91906119c3565b610caa565b6040516102619190611f49565b60405180910390f35b610272610e45565b60405161027f9190611f6b565b60405180910390f35b6102a2600480360381019061029d91906119c3565b610ee9565b005b6102be60048036038101906102b9919061189e565b610fe8565b005b6102da60048036038101906102d59190611ac7565b611192565b005b6102e4611246565b6040516102f19190611dd1565b60405180910390f35b600760009054906101000a900473ffffffffffffffffffffffffffffffffffffffff1681565b6000805461032d906121ac565b80601f0160208091040260200160405190810160405280929190818152602001828054610359906121ac565b80156103a65780601f1061037b576101008083540402835291602001916103a6565b820191906000526020600020905b81548152906001019060200180831161038957829003601f168201915b505050505081565b6103b733611371565b6103e2600760009054906101000a900473ffffffffffffffffffffffffffffffffffffffff16611371565b604051806040016040528085858080601f016020809104026020016040519081016040528093929190818152602001838380828437600081840152601f19601f82011690508083019250505050505050815260200183838080601f016020809104026020016040519081016040528093929190818152602001838380828437600081840152601f19601f8201169050808301925050505050505081525060068787604051610491929190611d39565b908152602001604051809103902060008201518160000190805190602001906104bb929190611610565b5060208201518160010190805190602001906104d8929190611610565b509050506106a86040518060400160405280600b81526020017f73656e646572206163632000000000000000000000000000000000000000000081525060068888604051610527929190611d39565b90815260200160405180910390206000018054610543906121ac565b80601f016020809104026020016040519081016040528092919081815260200182805461056f906121ac565b80156105bc5780601f10610591576101008083540402835291602001916105bc565b820191906000526020600020905b81548152906001019060200180831161059f57829003601f168201915b50505050506040518060400160405280600581526020017f20616e642000000000000000000000000000000000000000000000000000000081525060068a8a604051610609929190611d39565b90815260200160405180910390206001018054610625906121ac565b80601f0160208091040260200160405190810160405280929190818152602001828054610651906121ac565b801561069e5780601f106106735761010080835404028352916020019161069e565b820191906000526020600020905b81548152906001019060200180831161068157829003601f168201915b505050505061140a565b505050505050565b60025481565b6006818051602081018201805184825260208301602085012081835280955050505050506000915090508060000180546106ef906121ac565b80601f016020809104026020016040519081016040528092919081815260200182805461071b906121ac565b80156107685780601f1061073d57610100808354040283529160200191610768565b820191906000526020600020905b81548152906001019060200180831161074b57829003601f168201915b50505050509080600101805461077d906121ac565b80601f01602080910402602001604051908101604052809291908181526020018280546107a9906121ac565b80156107f65780601f106107cb576101008083540402835291602001916107f6565b820191906000526020600020905b8154815290600101906020018083116107d957829003601f168201915b5050505050905082565b60035481565b6001151581151514156108b25760016008838154811061084f577f4e487b7100000000000000000000000000000000000000000000000000000000600052603260045260246000fd5b906000526020600020906007020160060160006101000a81548160ff021916908360048111156108a8577f4e487b7100000000000000000000000000000000000000000000000000000000600052602160045260246000fd5b021790555061094d565b6004600883815481106108ee577f4e487b7100000000000000000000000000000000000000000000000000000000600052603260045260246000fd5b906000526020600020906007020160060160006101000a81548160ff02191690836004811115610947577f4e487b7100000000000000000000000000000000000000000000000000000000600052602160045260246000fd5b02179055505b5050565b600860405180608001604052803373ffffffffffffffffffffffffffffffffffffffff168152602001600a5481526020016040518060800160405280888152602001878152602001868152602001858152508152602001600060048111156109e2577f4e487b7100000000000000000000000000000000000000000000000000000000600052602160045260246000fd5b815250908060018154018082558091505060019003906000526020600020906007020160009091909190915060008201518160000160006101000a81548173ffffffffffffffffffffffffffffffffffffffff021916908373ffffffffffffffffffffffffffffffffffffffff16021790555060208201518160010155604082015181600201906004610a76929190611696565b5060608201518160060160006101000a81548160ff02191690836004811115610ac8577f4e487b7100000000000000000000000000000000000000000000000000000000600052602160045260246000fd5b02179055505050610b0d6040518060400160405280600b81526020017f54657374204576656e74270000000000000000000000000000000000000000008152506112d8565b7f2dddc06b1340f27d89cf9e1783165857c901b8fb2d67ac8443c795ec43ff341f600a5485858585604051610b46959493929190611f86565b60405180910390a16001600a6000828254610b619190612098565b9250508190555050505050565b600354600460008373ffffffffffffffffffffffffffffffffffffffff1673ffffffffffffffffffffffffffffffffffffffff168152602001908152602001600020819055506001600560008373ffffffffffffffffffffffffffffffffffffffff1673ffffffffffffffffffffffffffffffffffffffff16815260200190815260200160002060006101000a81548160ff02191690831515021790555050565b60001515600560003373ffffffffffffffffffffffffffffffffffffffff1673ffffffffffffffffffffffffffffffffffffffff16815260200190815260200160002060009054906101000a900460ff1615151415610c6d57600080fd5b7fc5c21db1f7aef3462dbf1bee14c3b88f616eb1986b5b1f17ab53c41b86daf19d8282604051610c9e929190611dad565b60405180910390a15050565b610cb26116e9565b610cf16040518060400160405280600781526020017f73656e6465722000000000000000000000000000000000000000000000000000815250336114ac565b600682604051610d019190611d52565b9081526020016040518091039020604051806040016040529081600082018054610d2a906121ac565b80601f0160208091040260200160405190810160405280929190818152602001828054610d56906121ac565b8015610da35780601f10610d7857610100808354040283529160200191610da3565b820191906000526020600020905b815481529060010190602001808311610d8657829003601f168201915b50505050508152602001600182018054610dbc906121ac565b80601f0160208091040260200160405190810160405280929190818152602001828054610de8906121ac565b8015610e355780601f10610e0a57610100808354040283529160200191610e35565b820191906000526020600020905b815481529060010190602001808311610e1857829003601f168201915b5050505050815250509050919050565b6000801515600560003373ffffffffffffffffffffffffffffffffffffffff1673ffffffffffffffffffffffffffffffffffffffff16815260200190815260200160002060009054906101000a900460ff1615151415610ea457600080fd5b600460003373ffffffffffffffffffffffffffffffffffffffff1673ffffffffffffffffffffffffffffffffffffffff16815260200190815260200160002054905090565b610f9660405180606001604052806023815260200161231c6023913960018054610f12906121ac565b80601f0160208091040260200160405190810160405280929190818152602001828054610f3e906121ac565b8015610f8b5780601f10610f6057610100808354040283529160200191610f8b565b820191906000526020600020905b815481529060010190602001808311610f6e57829003601f168201915b505050505083611548565b8060019080519060200190610fac929190611610565b507f57a57a410b51ac4751ea694c91cdcca4d61b6d997d46fb997eddc7d5133417426001604051610fdd9190611f07565b60405180910390a150565b80600460003373ffffffffffffffffffffffffffffffffffffffff1673ffffffffffffffffffffffffffffffffffffffff16815260200190815260200160002054101561106a576040517f08c379a000000000000000000000000000000000000000000000000000000000815260040161106190611f29565b60405180910390fd5b80600460003373ffffffffffffffffffffffffffffffffffffffff1673ffffffffffffffffffffffffffffffffffffffff16815260200190815260200160002060008282546110b991906120ee565b9250508190555080600460008473ffffffffffffffffffffffffffffffffffffffff1673ffffffffffffffffffffffffffffffffffffffff168152602001908152602001600020600082825461110f9190612098565b925050819055507f364bc05a26076a4b591d11ae973bbc492605b49c871783d787f183e58f3fe08e33600460003373ffffffffffffffffffffffffffffffffffffffff1673ffffffffffffffffffffffffffffffffffffffff16815260200190815260200160002054604051611186929190611d84565b60405180910390a15050565b600760009054906101000a900473ffffffffffffffffffffffffffffffffffffffff1673ffffffffffffffffffffffffffffffffffffffff163373ffffffffffffffffffffffffffffffffffffffff16146111ec57600080fd5b81600460008373ffffffffffffffffffffffffffffffffffffffff1673ffffffffffffffffffffffffffffffffffffffff168152602001908152602001600020600082825461123b9190612098565b925050819055505050565b606060018054611255906121ac565b80601f0160208091040260200160405190810160405280929190818152602001828054611281906121ac565b80156112ce5780601f106112a3576101008083540402835291602001916112ce565b820191906000526020600020905b8154815290600101906020018083116112b157829003601f168201915b5050505050905090565b61136e816040516024016112ec9190611dd1565b6040516020818303038152906040527f41304fac000000000000000000000000000000000000000000000000000000007bffffffffffffffffffffffffffffffffffffffffffffffffffffffff19166020820180517bffffffffffffffffffffffffffffffffffffffffffffffffffffffff83818316178352505050506115e7565b50565b611407816040516024016113859190611d69565b6040516020818303038152906040527f2c2ecbc2000000000000000000000000000000000000000000000000000000007bffffffffffffffffffffffffffffffffffffffffffffffffffffffff19166020820180517bffffffffffffffffffffffffffffffffffffffffffffffffffffffff83818316178352505050506115e7565b50565b6114a6848484846040516024016114249493929190611ea6565b6040516020818303038152906040527fde68f20a000000000000000000000000000000000000000000000000000000007bffffffffffffffffffffffffffffffffffffffffffffffffffffffff19166020820180517bffffffffffffffffffffffffffffffffffffffffffffffffffffffff83818316178352505050506115e7565b50505050565b61154482826040516024016114c2929190611df3565b6040516020818303038152906040527f319af333000000000000000000000000000000000000000000000000000000007bffffffffffffffffffffffffffffffffffffffffffffffffffffffff19166020820180517bffffffffffffffffffffffffffffffffffffffffffffffffffffffff83818316178352505050506115e7565b5050565b6115e283838360405160240161156093929190611e5a565b6040516020818303038152906040527f2ced7cef000000000000000000000000000000000000000000000000000000007bffffffffffffffffffffffffffffffffffffffffffffffffffffffff19166020820180517bffffffffffffffffffffffffffffffffffffffffffffffffffffffff83818316178352505050506115e7565b505050565b60008151905060006a636f6e736f6c652e6c6f679050602083016000808483855afa5050505050565b82805461161c906121ac565b90600052602060002090601f01602090048101928261163e5760008555611685565b82601f1061165757805160ff1916838001178555611685565b82800160010185558215611685579182015b82811115611684578251825591602001919060010190611669565b5b5090506116929190611703565b5090565b82600481019282156116d8579160200282015b828111156116d75782518290805190602001906116c7929190611610565b50916020019190600101906116a9565b5b5090506116e59190611720565b5090565b604051806040016040528060608152602001606081525090565b5b8082111561171c576000816000905550600101611704565b5090565b5b8082111561174057600081816117379190611744565b50600101611721565b5090565b508054611750906121ac565b6000825580601f106117625750611781565b601f0160209004906000526020600020908101906117809190611703565b5b50565b60006117976117928461201a565b611ff5565b9050828152602081018484840111156117af57600080fd5b6117ba84828561216a565b509392505050565b6000813590506117d1816122d6565b92915050565b6000813590506117e6816122ed565b92915050565b60008083601f8401126117fe57600080fd5b8235905067ffffffffffffffff81111561181757600080fd5b60208301915083600182028301111561182f57600080fd5b9250929050565b600082601f83011261184757600080fd5b8135611857848260208601611784565b91505092915050565b60008135905061186f81612304565b92915050565b60006020828403121561188757600080fd5b6000611895848285016117c2565b91505092915050565b600080604083850312156118b157600080fd5b60006118bf858286016117c2565b92505060206118d085828601611860565b9150509250929050565b600080602083850312156118ed57600080fd5b600083013567ffffffffffffffff81111561190757600080fd5b611913858286016117ec565b92509250509250929050565b6000806000806000806060878903121561193857600080fd5b600087013567ffffffffffffffff81111561195257600080fd5b61195e89828a016117ec565b9650965050602087013567ffffffffffffffff81111561197d57600080fd5b61198989828a016117ec565b9450945050604087013567ffffffffffffffff8111156119a857600080fd5b6119b489828a016117ec565b92509250509295509295509295565b6000602082840312156119d557600080fd5b600082013567ffffffffffffffff8111156119ef57600080fd5b6119fb84828501611836565b91505092915050565b60008060008060808587031215611a1a57600080fd5b600085013567ffffffffffffffff811115611a3457600080fd5b611a4087828801611836565b945050602085013567ffffffffffffffff811115611a5d57600080fd5b611a6987828801611836565b935050604085013567ffffffffffffffff811115611a8657600080fd5b611a9287828801611836565b925050606085013567ffffffffffffffff811115611aaf57600080fd5b611abb87828801611836565b91505092959194509250565b60008060408385031215611ada57600080fd5b6000611ae885828601611860565b9250506020611af9858286016117c2565b9150509250929050565b60008060408385031215611b1657600080fd5b6000611b2485828601611860565b9250506020611b35858286016117d7565b9150509250929050565b611b4881612122565b82525050565b6000611b5a838561207c565b9350611b6783858461216a565b611b708361229c565b840190509392505050565b6000611b87838561208d565b9350611b9483858461216a565b82840190509392505050565b6000611bab82612060565b611bb5818561206b565b9350611bc5818560208601612179565b611bce8161229c565b840191505092915050565b6000611be482612060565b611bee818561207c565b9350611bfe818560208601612179565b611c078161229c565b840191505092915050565b6000611c1d82612060565b611c27818561208d565b9350611c37818560208601612179565b80840191505092915050565b60008154611c50816121ac565b611c5a818661207c565b94506001821660008114611c755760018114611c8757611cba565b60ff1983168652602086019350611cba565b611c908561204b565b60005b83811015611cb257815481890152600182019150602081019050611c93565b808801955050505b50505092915050565b6000611cd060118361207c565b9150611cdb826122ad565b602082019050919050565b60006040830160008301518482036000860152611d038282611ba0565b91505060208301518482036020860152611d1d8282611ba0565b9150508091505092915050565b611d3381612160565b82525050565b6000611d46828486611b7b565b91508190509392505050565b6000611d5e8284611c12565b915081905092915050565b6000602082019050611d7e6000830184611b3f565b92915050565b6000604082019050611d996000830185611b3f565b611da66020830184611d2a565b9392505050565b60006020820190508181036000830152611dc8818486611b4e565b90509392505050565b60006020820190508181036000830152611deb8184611bd9565b905092915050565b60006040820190508181036000830152611e0d8185611bd9565b9050611e1c6020830184611b3f565b9392505050565b60006040820190508181036000830152611e3d8185611bd9565b90508181036020830152611e518184611bd9565b90509392505050565b60006060820190508181036000830152611e748186611bd9565b90508181036020830152611e888185611bd9565b90508181036040830152611e9c8184611bd9565b9050949350505050565b60006080820190508181036000830152611ec08187611bd9565b90508181036020830152611ed48186611bd9565b90508181036040830152611ee88185611bd9565b90508181036060830152611efc8184611bd9565b905095945050505050565b60006020820190508181036000830152611f218184611c43565b905092915050565b60006020820190508181036000830152611f4281611cc3565b9050919050565b60006020820190508181036000830152611f638184611ce6565b905092915050565b6000602082019050611f806000830184611d2a565b92915050565b600060a082019050611f9b6000830188611d2a565b8181036020830152611fad8187611bd9565b90508181036040830152611fc18186611bd9565b90508181036060830152611fd58185611bd9565b90508181036080830152611fe98184611bd9565b90509695505050505050565b6000611fff612010565b905061200b82826121de565b919050565b6000604051905090565b600067ffffffffffffffff8211156120355761203461226d565b5b61203e8261229c565b9050602081019050919050565b60008190508160005260206000209050919050565b600081519050919050565b600082825260208201905092915050565b600082825260208201905092915050565b600081905092915050565b60006120a382612160565b91506120ae83612160565b9250827fffffffffffffffffffffffffffffffffffffffffffffffffffffffffffffffff038211156120e3576120e261220f565b5b828201905092915050565b60006120f982612160565b915061210483612160565b9250828210156121175761211661220f565b5b828203905092915050565b600061212d82612140565b9050919050565b60008115159050919050565b600073ffffffffffffffffffffffffffffffffffffffff82169050919050565b6000819050919050565b82818337600083830152505050565b60005b8381101561219757808201518184015260208101905061217c565b838111156121a6576000848401525b50505050565b600060028204905060018216806121c457607f821691505b602082108114156121d8576121d761223e565b5b50919050565b6121e78261229c565b810181811067ffffffffffffffff821117156122065761220561226d565b5b80604052505050565b7f4e487b7100000000000000000000000000000000000000000000000000000000600052601160045260246000fd5b7f4e487b7100000000000000000000000000000000000000000000000000000000600052602260045260246000fd5b7f4e487b7100000000000000000000000000000000000000000000000000000000600052604160045260246000fd5b6000601f19601f8301169050919050565b7f4e6f7420656e6f75676820746f6b656e73000000000000000000000000000000600082015250565b6122df81612122565b81146122ea57600080fd5b50565b6122f681612134565b811461230157600080fd5b50565b61230d81612160565b811461231857600080fd5b5056fe4368616e67696e67206772656574696e672066726f6d202725732720746f2027257327a2646970667358221220c56f1c7034cb0c9fe3610efeebfd9b335879ee8ce98821b6e9af1d228b0298fa64736f6c63430008040033",
  "linkReferences": {},
  "deployedLinkReferences": {}
}