{
  "_format": "hh-sol-artifact-1",
  "contractName": "XContract",
  "sourceName": "contracts/XContract.sol",
  "abi": [
    {
      "inputs": [],
      "stateMutability": "nonpayable",
      "type": "constructor"
    },
    {
      "anonymous": false,
      "inputs": [
        {
          "indexed": false,
          "internalType": "string",
          "name": "pk",
          "type": "string"
        }
      ],
      "name": "InitBalance",
      "type": "event"
    },
    {
      "anonymous": false,
      "inputs": [
        {
          "indexed": false,
          "internalType": "uint256",
          "name": "id",
          "type": "uint256"
        },
        {
          "indexed": false,
          "internalType": "string",
          "name": "rangeproof1",
          "type": "string"
        },
        {
          "indexed": false,
          "internalType": "string",
          "name": "rangeproof2",
          "type": "string"
        },
        {
          "indexed": false,
          "internalType": "string",
          "name": "sigmaProof",
          "type": "string"
        },
        {
          "indexed": false,
          "internalType": "string",
          "name": "input",
          "type": "string"
        }
      ],
      "name": "NewConfTransfer",
      "type": "event"
    },
    {
      "anonymous": false,
      "inputs": [
        {
          "indexed": false,
          "internalType": "uint256",
          "name": "id",
          "type": "uint256"
        },
        {
          "indexed": false,
          "internalType": "string",
          "name": "proof",
          "type": "string"
        }
      ],
      "name": "NewRequest",
      "type": "event"
    },
    {
      "anonymous": false,
      "inputs": [
        {
          "indexed": false,
          "internalType": "string",
          "name": "newMsg",
          "type": "string"
        }
      ],
      "name": "TestMsg",
      "type": "event"
    },
    {
      "anonymous": false,
      "inputs": [
        {
          "indexed": false,
          "internalType": "address",
          "name": "add",
          "type": "address"
        },
        {
          "indexed": false,
          "internalType": "uint256",
          "name": "balance",
          "type": "uint256"
        }
      ],
      "name": "UpdateState",
      "type": "event"
    },
    {
      "inputs": [
        {
          "internalType": "string",
          "name": "y",
          "type": "string"
        }
      ],
      "name": "ElBalanceOf",
      "outputs": [
        {
          "components": [
            {
              "internalType": "string",
              "name": "CL",
              "type": "string"
            },
            {
              "internalType": "string",
              "name": "CR",
              "type": "string"
            }
          ],
          "internalType": "struct XContract.ElBalance",
          "name": "",
          "type": "tuple"
        }
      ],
      "stateMutability": "view",
      "type": "function"
    },
    {
      "inputs": [],
      "name": "association",
      "outputs": [
        {
          "internalType": "address",
          "name": "",
          "type": "address"
        }
      ],
      "stateMutability": "view",
      "type": "function"
    },
    {
      "inputs": [
        {
          "internalType": "address[]",
          "name": "newAcc",
          "type": "address[]"
        }
      ],
      "name": "authorizeNewUser",
      "outputs": [],
      "stateMutability": "nonpayable",
      "type": "function"
    },
    {
      "inputs": [],
      "name": "balanceOf",
      "outputs": [
        {
          "components": [
            {
              "internalType": "string",
              "name": "CL",
              "type": "string"
            },
            {
              "internalType": "string",
              "name": "CR",
              "type": "string"
            }
          ],
          "internalType": "struct XContract.ElBalance",
          "name": "",
          "type": "tuple"
        }
      ],
      "stateMutability": "view",
      "type": "function"
    },
    {
      "inputs": [],
      "name": "checkAuthorized",
      "outputs": [
        {
          "internalType": "bool",
          "name": "",
          "type": "bool"
        }
      ],
      "stateMutability": "view",
      "type": "function"
    },
    {
      "inputs": [
        {
          "internalType": "string",
          "name": "proofForAmt",
          "type": "string"
        },
        {
          "internalType": "string",
          "name": "proofForRemainBalance",
          "type": "string"
        },
        {
          "internalType": "string",
          "name": "sigmaProof",
          "type": "string"
        },
        {
          "internalType": "string",
          "name": "input",
          "type": "string"
        }
      ],
      "name": "confTransfer",
      "outputs": [],
      "stateMutability": "nonpayable",
      "type": "function"
    },
    {
      "inputs": [
        {
          "internalType": "uint256",
          "name": "id",
          "type": "uint256"
        },
        {
          "internalType": "bool",
          "name": "res",
          "type": "bool"
        }
      ],
      "name": "confirmProof",
      "outputs": [],
      "stateMutability": "nonpayable",
      "type": "function"
    },
    {
      "inputs": [],
      "name": "fetchPubkey",
      "outputs": [
        {
          "internalType": "string",
          "name": "",
          "type": "string"
        }
      ],
      "stateMutability": "view",
      "type": "function"
    },
    {
      "inputs": [],
      "name": "greet",
      "outputs": [
        {
          "internalType": "string",
          "name": "",
          "type": "string"
        }
      ],
      "stateMutability": "view",
      "type": "function"
    },
    {
      "inputs": [],
      "name": "hasPubKey",
      "outputs": [
        {
          "internalType": "bool",
          "name": "",
          "type": "bool"
        }
      ],
      "stateMutability": "view",
      "type": "function"
    },
    {
      "inputs": [
        {
          "internalType": "string",
          "name": "y",
          "type": "string"
        },
        {
          "internalType": "string",
          "name": "cL",
          "type": "string"
        },
        {
          "internalType": "string",
          "name": "cR",
          "type": "string"
        }
      ],
      "name": "initElBalance",
      "outputs": [],
      "stateMutability": "nonpayable",
      "type": "function"
    },
    {
      "inputs": [],
      "name": "initialSupply",
      "outputs": [
        {
          "internalType": "uint256",
          "name": "",
          "type": "uint256"
        }
      ],
      "stateMutability": "view",
      "type": "function"
    },
    {
      "inputs": [],
      "name": "name",
      "outputs": [
        {
          "internalType": "string",
          "name": "",
          "type": "string"
        }
      ],
      "stateMutability": "view",
      "type": "function"
    },
    {
      "inputs": [
        {
          "internalType": "string",
          "name": "_greeting",
          "type": "string"
        }
      ],
      "name": "setGreeting",
      "outputs": [],
      "stateMutability": "nonpayable",
      "type": "function"
    },
    {
      "inputs": [],
      "name": "totalSupply",
      "outputs": [
        {
          "internalType": "uint256",
          "name": "",
          "type": "uint256"
        }
      ],
      "stateMutability": "view",
      "type": "function"
    },
    {
      "inputs": [
        {
          "internalType": "string",
          "name": "y",
          "type": "string"
        },
        {
          "internalType": "string",
          "name": "C1",
          "type": "string"
        },
        {
          "internalType": "string",
          "name": "C2",
          "type": "string"
        },
        {
          "internalType": "string",
          "name": "yr",
          "type": "string"
        },
        {
          "internalType": "string",
          "name": "C3",
          "type": "string"
        },
        {
          "internalType": "string",
          "name": "C4",
          "type": "string"
        }
      ],
      "name": "updateBalance",
      "outputs": [],
      "stateMutability": "nonpayable",
      "type": "function"
    }
  ],
  "bytecode": "0x60806040526040518060400160405280600981526020017f58636f6e747261637400000000000000000000000000000000000000000000008152506000908051906020019062000051929190620002a9565b50620f42406002556127106003556040518060200160405280600081525060049080519060200190620000869291906200033a565b503480156200009457600080fd5b506001600560003373ffffffffffffffffffffffffffffffffffffffff1673ffffffffffffffffffffffffffffffffffffffff16815260200190815260200160002060006101000a81548160ff02191690831515021790555033600860006101000a81548173ffffffffffffffffffffffffffffffffffffffff021916908373ffffffffffffffffffffffffffffffffffffffff1602179055506040518060400160405280600381526020017f3030300000000000000000000000000000000000000000000000000000000000815250600190805190602001906200017b929190620002a9565b50620001c76040518060400160405280601381526020017f4465706c6f79205375636365737366756c6c2000000000000000000000000000815250620001dd60201b620013ac1760201c565b6000600a819055506000600b8190555062000517565b6200027d81604051602401620001f491906200042b565b6040516020818303038152906040527f41304fac000000000000000000000000000000000000000000000000000000007bffffffffffffffffffffffffffffffffffffffffffffffffffffffff19166020820180517bffffffffffffffffffffffffffffffffffffffffffffffffffffffff83818316178352505050506200028060201b60201c565b50565b60008151905060006a636f6e736f6c652e6c6f679050602083016000808483855afa5050505050565b828054620002b790620004a1565b90600052602060002090601f016020900481019282620002db576000855562000327565b82601f10620002f657805160ff191683800117855562000327565b8280016001018555821562000327579182015b828111156200032657825182559160200191906001019062000309565b5b509050620003369190620003cb565b5090565b8280546200034890620004a1565b90600052602060002090601f0160209004810192826200036c5760008555620003b8565b82601f106200038757805160ff1916838001178555620003b8565b82800160010185558215620003b8579182015b82811115620003b75782518255916020019190600101906200039a565b5b509050620003c79190620003cb565b5090565b5b80821115620003e6576000816000905550600101620003cc565b5090565b6000620003f7826200044f565b6200040381856200045a565b9350620004158185602086016200046b565b620004208162000506565b840191505092915050565b60006020820190508181036000830152620004478184620003ea565b905092915050565b600081519050919050565b600082825260208201905092915050565b60005b838110156200048b5780820151818401526020810190506200046e565b838111156200049b576000848401525b50505050565b60006002820490506001821680620004ba57607f821691505b60208210811415620004d157620004d0620004d7565b5b50919050565b7f4e487b7100000000000000000000000000000000000000000000000000000000600052602260045260246000fd5b6000601f19601f8301169050919050565b61250080620005276000396000f3fe608060405234801561001057600080fd5b50600436106101005760003560e01c80635c260e5011610097578063722713f711610066578063722713f714610275578063817f4e3d14610293578063a4136862146102b1578063cfae3217146102cd57610100565b80635c260e50146101ed5780635f32b6db1461020b57806362746e6c14610227578063712bef911461024557610100565b8063378dc3dc116100d3578063378dc3dc1461017b5780633a2568e9146101995780634118b16f146101b5578063509145db146101d157610100565b8063050d4f781461010557806306fdde03146101235780630a1ae5aa1461014157806318160ddd1461015d575b600080fd5b61010d6102eb565b60405161011a9190611f08565b60405180910390f35b61012b610311565b6040516101389190611f3e565b60405180910390f35b61015b60048036038101906101569190611969565b61039f565b005b6101656106a1565b60405161017291906120a1565b60405180910390f35b6101836106a7565b60405161019091906120a1565b60405180910390f35b6101b360048036038101906101ae9190611c2a565b6106ad565b005b6101cf60048036038101906101ca9190611a4e565b6107f8565b005b6101eb60048036038101906101e69190611928565b6109d7565b005b6101f5610b22565b6040516102029190611f23565b60405180910390f35b61022560048036038101906102209190611b11565b610c1c565b005b61022f610d04565b60405161023c9190611f23565b60405180910390f35b61025f600480360381019061025a9190611a0d565b610d58565b60405161026c919061207f565b60405180910390f35b61027d610ef3565b60405161028a919061207f565b60405180910390f35b61029b6110ef565b6040516102a89190611f3e565b60405180910390f35b6102cb60048036038101906102c69190611a0d565b61121b565b005b6102d561131a565b6040516102e29190611f3e565b60405180910390f35b600860009054906101000a900473ffffffffffffffffffffffffffffffffffffffff1681565b6000805461031e906122ef565b80601f016020809104026020016040519081016040528092919081815260200182805461034a906122ef565b80156103975780601f1061036c57610100808354040283529160200191610397565b820191906000526020600020905b81548152906001019060200180831161037a57829003601f168201915b505050505081565b6103a833611445565b6103d3600860009054906101000a900473ffffffffffffffffffffffffffffffffffffffff16611445565b604051806040016040528085858080601f016020809104026020016040519081016040528093929190818152602001838380828437600081840152601f19601f82011690508083019250505050505050815260200183838080601f016020809104026020016040519081016040528093929190818152602001838380828437600081840152601f19601f8201169050808301925050505050505081525060078787604051610482929190611ec1565b908152602001604051809103902060008201518160000190805190602001906104ac9291906116e4565b5060208201518160010190805190602001906104c99291906116e4565b509050506106996040518060400160405280600b81526020017f73656e646572206163632000000000000000000000000000000000000000000081525060078888604051610518929190611ec1565b90815260200160405180910390206000018054610534906122ef565b80601f0160208091040260200160405190810160405280929190818152602001828054610560906122ef565b80156105ad5780601f10610582576101008083540402835291602001916105ad565b820191906000526020600020905b81548152906001019060200180831161059057829003601f168201915b50505050506040518060400160405280600581526020017f20616e642000000000000000000000000000000000000000000000000000000081525060078a8a6040516105fa929190611ec1565b90815260200160405180910390206001018054610616906122ef565b80601f0160208091040260200160405190810160405280929190818152602001828054610642906122ef565b801561068f5780601f106106645761010080835404028352916020019161068f565b820191906000526020600020905b81548152906001019060200180831161067257829003601f168201915b50505050506114de565b505050505050565b60025481565b60035481565b600115158115151415610759576001600983815481106106f6577f4e487b7100000000000000000000000000000000000000000000000000000000600052603260045260246000fd5b906000526020600020906003020160020160006101000a81548160ff0219169083600481111561074f577f4e487b7100000000000000000000000000000000000000000000000000000000600052602160045260246000fd5b02179055506107f4565b600460098381548110610795577f4e487b7100000000000000000000000000000000000000000000000000000000600052603260045260246000fd5b906000526020600020906003020160020160006101000a81548160ff021916908360048111156107ee577f4e487b7100000000000000000000000000000000000000000000000000000000600052602160045260246000fd5b02179055505b5050565b600960405180606001604052803373ffffffffffffffffffffffffffffffffffffffff168152602001600b54815260200160006004811115610863577f4e487b7100000000000000000000000000000000000000000000000000000000600052602160045260246000fd5b815250908060018154018082558091505060019003906000526020600020906003020160009091909190915060008201518160000160006101000a81548173ffffffffffffffffffffffffffffffffffffffff021916908373ffffffffffffffffffffffffffffffffffffffff1602179055506020820151816001015560408201518160020160006101000a81548160ff02191690836004811115610931577f4e487b7100000000000000000000000000000000000000000000000000000000600052602160045260246000fd5b021790555050506109766040518060400160405280600b81526020017f54657374204576656e74270000000000000000000000000000000000000000008152506113ac565b7f2dddc06b1340f27d89cf9e1783165857c901b8fb2d67ac8443c795ec43ff341f600b54858585856040516109af9594939291906120bc565b60405180910390a16001600b60008282546109ca919061220f565b9250508190555050505050565b600860009054906101000a900473ffffffffffffffffffffffffffffffffffffffff1673ffffffffffffffffffffffffffffffffffffffff163373ffffffffffffffffffffffffffffffffffffffff1614610a67576040517f08c379a0000000000000000000000000000000000000000000000000000000008152600401610a5e9061205f565b60405180910390fd5b60005b8151811015610b1e57600160056000848481518110610ab2577f4e487b7100000000000000000000000000000000000000000000000000000000600052603260045260246000fd5b602002602001015173ffffffffffffffffffffffffffffffffffffffff1673ffffffffffffffffffffffffffffffffffffffff16815260200190815260200160002060006101000a81548160ff0219169083151502179055508080610b1690612352565b915050610a6a565b5050565b600060011515600560003373ffffffffffffffffffffffffffffffffffffffff1673ffffffffffffffffffffffffffffffffffffffff16815260200190815260200160002060009054906101000a900460ff16151514610bb7576040517f08c379a0000000000000000000000000000000000000000000000000000000008152600401610bae9061205f565b60405180910390fd5b6000600660003373ffffffffffffffffffffffffffffffffffffffff1673ffffffffffffffffffffffffffffffffffffffff1681526020019081526020016000208054610c03906122ef565b90501415610c145760009050610c19565b600190505b90565b604051806040016040528086815260200185815250600787604051610c419190611eda565b90815260200160405180910390206000820151816000019080519060200190610c6b9291906116e4565b506020820151816001019080519060200190610c889291906116e4565b50905050604051806040016040528083815260200182815250600784604051610cb19190611eda565b90815260200160405180910390206000820151816000019080519060200190610cdb9291906116e4565b506020820151816001019080519060200190610cf89291906116e4565b50905050505050505050565b6000600560003373ffffffffffffffffffffffffffffffffffffffff1673ffffffffffffffffffffffffffffffffffffffff16815260200190815260200160002060009054906101000a900460ff16905090565b610d6061176a565b610d9f6040518060400160405280600781526020017f73656e646572200000000000000000000000000000000000000000000000000081525033611580565b600782604051610daf9190611eda565b9081526020016040518091039020604051806040016040529081600082018054610dd8906122ef565b80601f0160208091040260200160405190810160405280929190818152602001828054610e04906122ef565b8015610e515780601f10610e2657610100808354040283529160200191610e51565b820191906000526020600020905b815481529060010190602001808311610e3457829003601f168201915b50505050508152602001600182018054610e6a906122ef565b80601f0160208091040260200160405190810160405280929190818152602001828054610e96906122ef565b8015610ee35780601f10610eb857610100808354040283529160200191610ee3565b820191906000526020600020905b815481529060010190602001808311610ec657829003601f168201915b5050505050815250509050919050565b610efb61176a565b60001515600560003373ffffffffffffffffffffffffffffffffffffffff1673ffffffffffffffffffffffffffffffffffffffff16815260200190815260200160002060009054906101000a900460ff1615151415610f5957600080fd5b6000600660003373ffffffffffffffffffffffffffffffffffffffff1673ffffffffffffffffffffffffffffffffffffffff1681526020019081526020016000209050600781604051610fac9190611ef1565b9081526020016040518091039020604051806040016040529081600082018054610fd5906122ef565b80601f0160208091040260200160405190810160405280929190818152602001828054611001906122ef565b801561104e5780601f106110235761010080835404028352916020019161104e565b820191906000526020600020905b81548152906001019060200180831161103157829003601f168201915b50505050508152602001600182018054611067906122ef565b80601f0160208091040260200160405190810160405280929190818152602001828054611093906122ef565b80156110e05780601f106110b5576101008083540402835291602001916110e0565b820191906000526020600020905b8154815290600101906020018083116110c357829003601f168201915b50505050508152505091505090565b606060011515600560003373ffffffffffffffffffffffffffffffffffffffff1673ffffffffffffffffffffffffffffffffffffffff16815260200190815260200160002060009054906101000a900460ff1615151461114e57600080fd5b600660003373ffffffffffffffffffffffffffffffffffffffff1673ffffffffffffffffffffffffffffffffffffffff1681526020019081526020016000208054611198906122ef565b80601f01602080910402602001604051908101604052809291908181526020018280546111c4906122ef565b80156112115780601f106111e657610100808354040283529160200191611211565b820191906000526020600020905b8154815290600101906020018083116111f457829003601f168201915b5050505050905090565b6112c86040518060600160405280602381526020016124a86023913960018054611244906122ef565b80601f0160208091040260200160405190810160405280929190818152602001828054611270906122ef565b80156112bd5780601f10611292576101008083540402835291602001916112bd565b820191906000526020600020905b8154815290600101906020018083116112a057829003601f168201915b50505050508361161c565b80600190805190602001906112de9291906116e4565b507f57a57a410b51ac4751ea694c91cdcca4d61b6d997d46fb997eddc7d513341742600160405161130f919061203d565b60405180910390a150565b606060018054611329906122ef565b80601f0160208091040260200160405190810160405280929190818152602001828054611355906122ef565b80156113a25780601f10611377576101008083540402835291602001916113a2565b820191906000526020600020905b81548152906001019060200180831161138557829003601f168201915b5050505050905090565b611442816040516024016113c09190611f3e565b6040516020818303038152906040527f41304fac000000000000000000000000000000000000000000000000000000007bffffffffffffffffffffffffffffffffffffffffffffffffffffffff19166020820180517bffffffffffffffffffffffffffffffffffffffffffffffffffffffff83818316178352505050506116bb565b50565b6114db816040516024016114599190611f08565b6040516020818303038152906040527f2c2ecbc2000000000000000000000000000000000000000000000000000000007bffffffffffffffffffffffffffffffffffffffffffffffffffffffff19166020820180517bffffffffffffffffffffffffffffffffffffffffffffffffffffffff83818316178352505050506116bb565b50565b61157a848484846040516024016114f89493929190611fdc565b6040516020818303038152906040527fde68f20a000000000000000000000000000000000000000000000000000000007bffffffffffffffffffffffffffffffffffffffffffffffffffffffff19166020820180517bffffffffffffffffffffffffffffffffffffffffffffffffffffffff83818316178352505050506116bb565b50505050565b6116188282604051602401611596929190611f60565b6040516020818303038152906040527f319af333000000000000000000000000000000000000000000000000000000007bffffffffffffffffffffffffffffffffffffffffffffffffffffffff19166020820180517bffffffffffffffffffffffffffffffffffffffffffffffffffffffff83818316178352505050506116bb565b5050565b6116b683838360405160240161163493929190611f90565b6040516020818303038152906040527f2ced7cef000000000000000000000000000000000000000000000000000000007bffffffffffffffffffffffffffffffffffffffffffffffffffffffff19166020820180517bffffffffffffffffffffffffffffffffffffffffffffffffffffffff83818316178352505050506116bb565b505050565b60008151905060006a636f6e736f6c652e6c6f679050602083016000808483855afa5050505050565b8280546116f0906122ef565b90600052602060002090601f0160209004810192826117125760008555611759565b82601f1061172b57805160ff1916838001178555611759565b82800160010185558215611759579182015b8281111561175857825182559160200191906001019061173d565b5b5090506117669190611784565b5090565b604051806040016040528060608152602001606081525090565b5b8082111561179d576000816000905550600101611785565b5090565b60006117b46117af84612150565b61212b565b905080838252602082019050828560208602820111156117d357600080fd5b60005b8581101561180357816117e9888261184b565b8452602084019350602083019250506001810190506117d6565b5050509392505050565b600061182061181b8461217c565b61212b565b90508281526020810184848401111561183857600080fd5b6118438482856122ad565b509392505050565b60008135905061185a81612462565b92915050565b600082601f83011261187157600080fd5b81356118818482602086016117a1565b91505092915050565b60008135905061189981612479565b92915050565b60008083601f8401126118b157600080fd5b8235905067ffffffffffffffff8111156118ca57600080fd5b6020830191508360018202830111156118e257600080fd5b9250929050565b600082601f8301126118fa57600080fd5b813561190a84826020860161180d565b91505092915050565b60008135905061192281612490565b92915050565b60006020828403121561193a57600080fd5b600082013567ffffffffffffffff81111561195457600080fd5b61196084828501611860565b91505092915050565b6000806000806000806060878903121561198257600080fd5b600087013567ffffffffffffffff81111561199c57600080fd5b6119a889828a0161189f565b9650965050602087013567ffffffffffffffff8111156119c757600080fd5b6119d389828a0161189f565b9450945050604087013567ffffffffffffffff8111156119f257600080fd5b6119fe89828a0161189f565b92509250509295509295509295565b600060208284031215611a1f57600080fd5b600082013567ffffffffffffffff811115611a3957600080fd5b611a45848285016118e9565b91505092915050565b60008060008060808587031215611a6457600080fd5b600085013567ffffffffffffffff811115611a7e57600080fd5b611a8a878288016118e9565b945050602085013567ffffffffffffffff811115611aa757600080fd5b611ab3878288016118e9565b935050604085013567ffffffffffffffff811115611ad057600080fd5b611adc878288016118e9565b925050606085013567ffffffffffffffff811115611af957600080fd5b611b05878288016118e9565b91505092959194509250565b60008060008060008060c08789031215611b2a57600080fd5b600087013567ffffffffffffffff811115611b4457600080fd5b611b5089828a016118e9565b965050602087013567ffffffffffffffff811115611b6d57600080fd5b611b7989828a016118e9565b955050604087013567ffffffffffffffff811115611b9657600080fd5b611ba289828a016118e9565b945050606087013567ffffffffffffffff811115611bbf57600080fd5b611bcb89828a016118e9565b935050608087013567ffffffffffffffff811115611be857600080fd5b611bf489828a016118e9565b92505060a087013567ffffffffffffffff811115611c1157600080fd5b611c1d89828a016118e9565b9150509295509295509295565b60008060408385031215611c3d57600080fd5b6000611c4b85828601611913565b9250506020611c5c8582860161188a565b9150509250929050565b611c6f81612265565b82525050565b611c7e81612277565b82525050565b6000611c908385612204565b9350611c9d8385846122ad565b82840190509392505050565b6000611cb4826121d7565b611cbe81856121e2565b9350611cce8185602086016122bc565b611cd781612428565b840191505092915050565b6000611ced826121d7565b611cf781856121f3565b9350611d078185602086016122bc565b611d1081612428565b840191505092915050565b6000611d26826121d7565b611d308185612204565b9350611d408185602086016122bc565b80840191505092915050565b60008154611d59816122ef565b611d638186612204565b94506001821660008114611d7e5760018114611d8f57611dc2565b60ff19831686528186019350611dc2565b611d98856121c2565b60005b83811015611dba57815481890152600182019150602081019050611d9b565b838801955050505b50505092915050565b60008154611dd8816122ef565b611de281866121f3565b94506001821660008114611dfd5760018114611e0f57611e42565b60ff1983168652602086019350611e42565b611e18856121ad565b60005b83811015611e3a57815481890152600182019150602081019050611e1b565b808801955050505b50505092915050565b6000611e586017836121f3565b9150611e6382612439565b602082019050919050565b60006040830160008301518482036000860152611e8b8282611ca9565b91505060208301518482036020860152611ea58282611ca9565b9150508091505092915050565b611ebb816122a3565b82525050565b6000611ece828486611c84565b91508190509392505050565b6000611ee68284611d1b565b915081905092915050565b6000611efd8284611d4c565b915081905092915050565b6000602082019050611f1d6000830184611c66565b92915050565b6000602082019050611f386000830184611c75565b92915050565b60006020820190508181036000830152611f588184611ce2565b905092915050565b60006040820190508181036000830152611f7a8185611ce2565b9050611f896020830184611c66565b9392505050565b60006060820190508181036000830152611faa8186611ce2565b90508181036020830152611fbe8185611ce2565b90508181036040830152611fd28184611ce2565b9050949350505050565b60006080820190508181036000830152611ff68187611ce2565b9050818103602083015261200a8186611ce2565b9050818103604083015261201e8185611ce2565b905081810360608301526120328184611ce2565b905095945050505050565b600060208201905081810360008301526120578184611dcb565b905092915050565b6000602082019050818103600083015261207881611e4b565b9050919050565b600060208201905081810360008301526120998184611e6e565b905092915050565b60006020820190506120b66000830184611eb2565b92915050565b600060a0820190506120d16000830188611eb2565b81810360208301526120e38187611ce2565b905081810360408301526120f78186611ce2565b9050818103606083015261210b8185611ce2565b9050818103608083015261211f8184611ce2565b90509695505050505050565b6000612135612146565b90506121418282612321565b919050565b6000604051905090565b600067ffffffffffffffff82111561216b5761216a6123f9565b5b602082029050602081019050919050565b600067ffffffffffffffff821115612197576121966123f9565b5b6121a082612428565b9050602081019050919050565b60008190508160005260206000209050919050565b60008190508160005260206000209050919050565b600081519050919050565b600082825260208201905092915050565b600082825260208201905092915050565b600081905092915050565b600061221a826122a3565b9150612225836122a3565b9250827fffffffffffffffffffffffffffffffffffffffffffffffffffffffffffffffff0382111561225a5761225961239b565b5b828201905092915050565b600061227082612283565b9050919050565b60008115159050919050565b600073ffffffffffffffffffffffffffffffffffffffff82169050919050565b6000819050919050565b82818337600083830152505050565b60005b838110156122da5780820151818401526020810190506122bf565b838111156122e9576000848401525b50505050565b6000600282049050600182168061230757607f821691505b6020821081141561231b5761231a6123ca565b5b50919050565b61232a82612428565b810181811067ffffffffffffffff82111715612349576123486123f9565b5b80604052505050565b600061235d826122a3565b91507fffffffffffffffffffffffffffffffffffffffffffffffffffffffffffffffff8214156123905761238f61239b565b5b600182019050919050565b7f4e487b7100000000000000000000000000000000000000000000000000000000600052601160045260246000fd5b7f4e487b7100000000000000000000000000000000000000000000000000000000600052602260045260246000fd5b7f4e487b7100000000000000000000000000000000000000000000000000000000600052604160045260246000fd5b6000601f19601f8301169050919050565b7f596f7520617265206e6f7420617574686f72697a65642e000000000000000000600082015250565b61246b81612265565b811461247657600080fd5b50565b61248281612277565b811461248d57600080fd5b50565b612499816122a3565b81146124a457600080fd5b5056fe4368616e67696e67206772656574696e672066726f6d202725732720746f2027257327a26469706673582212209ac9ba28238d5b2bc738c540a5bc139c31189f91e1c53f85b8b6f2c72a4a7d8664736f6c63430008040033",
  "linkReferences": {},
  "deployedLinkReferences": {}
}