{
  "_format": "hh-sol-artifact-1",
  "contractName": "XContract",
  "sourceName": "contracts/XContract.sol",
  "abi": [
    {
      "inputs": [],
      "stateMutability": "nonpayable",
      "type": "constructor"
    },
    {
      "anonymous": false,
      "inputs": [
        {
          "indexed": false,
          "internalType": "string",
          "name": "pk",
          "type": "string"
        }
      ],
      "name": "InitBalance",
      "type": "event"
    },
    {
      "anonymous": false,
      "inputs": [
        {
          "indexed": false,
          "internalType": "uint256",
          "name": "id",
          "type": "uint256"
        },
        {
          "indexed": false,
          "internalType": "string",
          "name": "rangeproof1",
          "type": "string"
        },
        {
          "indexed": false,
          "internalType": "string",
          "name": "rangeproof2",
          "type": "string"
        },
        {
          "indexed": false,
          "internalType": "string",
          "name": "sigmaProof",
          "type": "string"
        },
        {
          "indexed": false,
          "internalType": "string",
          "name": "input",
          "type": "string"
        }
      ],
      "name": "NewConfTransfer",
      "type": "event"
    },
    {
      "anonymous": false,
      "inputs": [
        {
          "indexed": false,
          "internalType": "uint256",
          "name": "id",
          "type": "uint256"
        },
        {
          "indexed": false,
          "internalType": "string",
          "name": "CL_price",
          "type": "string"
        },
        {
          "indexed": false,
          "internalType": "string",
          "name": "CR_price",
          "type": "string"
        }
      ],
      "name": "NewPrice",
      "type": "event"
    },
    {
      "anonymous": false,
      "inputs": [
        {
          "indexed": false,
          "internalType": "uint256",
          "name": "id",
          "type": "uint256"
        },
        {
          "indexed": false,
          "internalType": "string",
          "name": "proof",
          "type": "string"
        }
      ],
      "name": "NewRequest",
      "type": "event"
    },
    {
      "anonymous": false,
      "inputs": [
        {
          "indexed": false,
          "internalType": "string",
          "name": "newMsg",
          "type": "string"
        }
      ],
      "name": "TestMsg",
      "type": "event"
    },
    {
      "anonymous": false,
      "inputs": [
        {
          "indexed": false,
          "internalType": "address",
          "name": "add",
          "type": "address"
        },
        {
          "indexed": false,
          "internalType": "uint256",
          "name": "balance",
          "type": "uint256"
        }
      ],
      "name": "UpdateState",
      "type": "event"
    },
    {
      "anonymous": false,
      "inputs": [
        {
          "indexed": false,
          "internalType": "uint256",
          "name": "id",
          "type": "uint256"
        },
        {
          "indexed": false,
          "internalType": "string",
          "name": "CL_price",
          "type": "string"
        },
        {
          "indexed": false,
          "internalType": "string",
          "name": "CR_price",
          "type": "string"
        },
        {
          "indexed": false,
          "internalType": "string",
          "name": "bidderKey",
          "type": "string"
        }
      ],
      "name": "makeDeal",
      "type": "event"
    },
    {
      "inputs": [
        {
          "internalType": "string",
          "name": "y",
          "type": "string"
        }
      ],
      "name": "ElBalanceOf",
      "outputs": [
        {
          "components": [
            {
              "internalType": "string",
              "name": "CL",
              "type": "string"
            },
            {
              "internalType": "string",
              "name": "CR",
              "type": "string"
            }
          ],
          "internalType": "struct XContract.ElBalance",
          "name": "",
          "type": "tuple"
        }
      ],
      "stateMutability": "view",
      "type": "function"
    },
    {
      "inputs": [
        {
          "internalType": "uint256",
          "name": "requestId",
          "type": "uint256"
        },
        {
          "internalType": "uint256",
          "name": "dealId",
          "type": "uint256"
        },
        {
          "internalType": "string",
          "name": "requestId_str",
          "type": "string"
        }
      ],
      "name": "acceptDeal",
      "outputs": [],
      "stateMutability": "nonpayable",
      "type": "function"
    },
    {
      "inputs": [],
      "name": "association",
      "outputs": [
        {
          "internalType": "address",
          "name": "",
          "type": "address"
        }
      ],
      "stateMutability": "view",
      "type": "function"
    },
    {
      "inputs": [
        {
          "internalType": "address[]",
          "name": "newAcc",
          "type": "address[]"
        }
      ],
      "name": "authorizeNewUser",
      "outputs": [],
      "stateMutability": "nonpayable",
      "type": "function"
    },
    {
      "inputs": [],
      "name": "balanceOf",
      "outputs": [
        {
          "components": [
            {
              "internalType": "string",
              "name": "CL",
              "type": "string"
            },
            {
              "internalType": "string",
              "name": "CR",
              "type": "string"
            }
          ],
          "internalType": "struct XContract.ElBalance",
          "name": "",
          "type": "tuple"
        }
      ],
      "stateMutability": "view",
      "type": "function"
    },
    {
      "inputs": [
        {
          "internalType": "address",
          "name": "newAcc",
          "type": "address"
        }
      ],
      "name": "checkAuthorizeNewUser",
      "outputs": [
        {
          "internalType": "bool",
          "name": "",
          "type": "bool"
        }
      ],
      "stateMutability": "view",
      "type": "function"
    },
    {
      "inputs": [],
      "name": "checkAuthorized",
      "outputs": [
        {
          "internalType": "bool",
          "name": "",
          "type": "bool"
        }
      ],
      "stateMutability": "view",
      "type": "function"
    },
    {
      "inputs": [
        {
          "internalType": "string",
          "name": "proofForAmt",
          "type": "string"
        },
        {
          "internalType": "string",
          "name": "proofForRemainBalance",
          "type": "string"
        },
        {
          "internalType": "string",
          "name": "sigmaProof",
          "type": "string"
        },
        {
          "internalType": "string",
          "name": "input",
          "type": "string"
        }
      ],
      "name": "confTransfer",
      "outputs": [],
      "stateMutability": "nonpayable",
      "type": "function"
    },
    {
      "inputs": [
        {
          "internalType": "uint256",
          "name": "id",
          "type": "uint256"
        },
        {
          "internalType": "bool",
          "name": "res",
          "type": "bool"
        }
      ],
      "name": "confirmProof",
      "outputs": [],
      "stateMutability": "nonpayable",
      "type": "function"
    },
    {
      "inputs": [],
      "name": "fetchPubkey",
      "outputs": [
        {
          "internalType": "string",
          "name": "",
          "type": "string"
        }
      ],
      "stateMutability": "view",
      "type": "function"
    },
    {
      "inputs": [],
      "name": "getAllAvailableTasks",
      "outputs": [
        {
          "components": [
            {
              "internalType": "uint256",
              "name": "id",
              "type": "uint256"
            },
            {
              "internalType": "string",
              "name": "content",
              "type": "string"
            },
            {
              "internalType": "string",
              "name": "pubkeyOfSender",
              "type": "string"
            },
            {
              "internalType": "enum XContract.State",
              "name": "state",
              "type": "uint8"
            }
          ],
          "internalType": "struct XContract.Request[]",
          "name": "",
          "type": "tuple[]"
        }
      ],
      "stateMutability": "view",
      "type": "function"
    },
    {
      "inputs": [],
      "name": "getMessages",
      "outputs": [
        {
          "internalType": "string[]",
          "name": "",
          "type": "string[]"
        }
      ],
      "stateMutability": "view",
      "type": "function"
    },
    {
      "inputs": [],
      "name": "getYourTasks",
      "outputs": [
        {
          "components": [
            {
              "internalType": "uint256",
              "name": "id",
              "type": "uint256"
            },
            {
              "internalType": "string",
              "name": "content",
              "type": "string"
            },
            {
              "internalType": "string",
              "name": "pubkeyOfSender",
              "type": "string"
            },
            {
              "internalType": "enum XContract.State",
              "name": "state",
              "type": "uint8"
            }
          ],
          "internalType": "struct XContract.Request[]",
          "name": "",
          "type": "tuple[]"
        }
      ],
      "stateMutability": "view",
      "type": "function"
    },
    {
      "inputs": [],
      "name": "greet",
      "outputs": [
        {
          "internalType": "string",
          "name": "",
          "type": "string"
        }
      ],
      "stateMutability": "view",
      "type": "function"
    },
    {
      "inputs": [],
      "name": "hasPubKey",
      "outputs": [
        {
          "internalType": "bool",
          "name": "",
          "type": "bool"
        }
      ],
      "stateMutability": "view",
      "type": "function"
    },
    {
      "inputs": [
        {
          "internalType": "string",
          "name": "y",
          "type": "string"
        },
        {
          "internalType": "string",
          "name": "cL",
          "type": "string"
        },
        {
          "internalType": "string",
          "name": "cR",
          "type": "string"
        }
      ],
      "name": "initPocket",
      "outputs": [],
      "stateMutability": "nonpayable",
      "type": "function"
    },
    {
      "inputs": [],
      "name": "initialSupply",
      "outputs": [
        {
          "internalType": "uint256",
          "name": "",
          "type": "uint256"
        }
      ],
      "stateMutability": "view",
      "type": "function"
    },
    {
      "inputs": [
        {
          "internalType": "uint256",
          "name": "id",
          "type": "uint256"
        }
      ],
      "name": "loadOffers",
      "outputs": [
        {
          "components": [
            {
              "internalType": "uint256",
              "name": "dealId",
              "type": "uint256"
            },
            {
              "components": [
                {
                  "internalType": "string",
                  "name": "CL",
                  "type": "string"
                },
                {
                  "internalType": "string",
                  "name": "CR",
                  "type": "string"
                }
              ],
              "internalType": "struct XContract.ElBalance",
              "name": "price",
              "type": "tuple"
            },
            {
              "internalType": "uint256",
              "name": "requestId",
              "type": "uint256"
            },
            {
              "internalType": "enum XContract.DealState",
              "name": "state",
              "type": "uint8"
            },
            {
              "internalType": "string",
              "name": "bidder",
              "type": "string"
            }
          ],
          "internalType": "struct XContract.Deal[]",
          "name": "",
          "type": "tuple[]"
        }
      ],
      "stateMutability": "view",
      "type": "function"
    },
    {
      "inputs": [],
      "name": "name",
      "outputs": [
        {
          "internalType": "string",
          "name": "",
          "type": "string"
        }
      ],
      "stateMutability": "view",
      "type": "function"
    },
    {
      "inputs": [
        {
          "internalType": "string",
          "name": "_task",
          "type": "string"
        }
      ],
      "name": "postTask",
      "outputs": [],
      "stateMutability": "nonpayable",
      "type": "function"
    },
    {
      "inputs": [
        {
          "internalType": "uint256",
          "name": "requestId",
          "type": "uint256"
        },
        {
          "internalType": "string",
          "name": "CL_price",
          "type": "string"
        },
        {
          "internalType": "string",
          "name": "CR_price",
          "type": "string"
        }
      ],
      "name": "raiseAPrice",
      "outputs": [],
      "stateMutability": "nonpayable",
      "type": "function"
    },
    {
      "inputs": [],
      "name": "totalSupply",
      "outputs": [
        {
          "internalType": "uint256",
          "name": "",
          "type": "uint256"
        }
      ],
      "stateMutability": "view",
      "type": "function"
    },
    {
      "inputs": [
        {
          "internalType": "string",
          "name": "y",
          "type": "string"
        },
        {
          "internalType": "string",
          "name": "C1",
          "type": "string"
        },
        {
          "internalType": "string",
          "name": "C2",
          "type": "string"
        },
        {
          "internalType": "string",
          "name": "yr",
          "type": "string"
        },
        {
          "internalType": "string",
          "name": "C3",
          "type": "string"
        },
        {
          "internalType": "string",
          "name": "C4",
          "type": "string"
        }
      ],
      "name": "updateBalance",
      "outputs": [],
      "stateMutability": "nonpayable",
      "type": "function"
    }
  ],
  "bytecode": "0x60806040526040518060400160405280600981526020017f58636f6e747261637400000000000000000000000000000000000000000000008152506000908051906020019062000051929190620002a9565b50620f42406002556127106003556040518060200160405280600081525060049080519060200190620000869291906200033a565b503480156200009457600080fd5b506001600560003373ffffffffffffffffffffffffffffffffffffffff1673ffffffffffffffffffffffffffffffffffffffff16815260200190815260200160002060006101000a81548160ff02191690831515021790555033600c60006101000a81548173ffffffffffffffffffffffffffffffffffffffff021916908373ffffffffffffffffffffffffffffffffffffffff1602179055506040518060400160405280600381526020017f3030300000000000000000000000000000000000000000000000000000000000815250600190805190602001906200017b929190620002a9565b50620001c76040518060400160405280601381526020017f4465706c6f79205375636365737366756c6c2000000000000000000000000000815250620001dd60201b620033391760201c565b6000601081905550600060118190555062000517565b6200027d81604051602401620001f491906200042b565b6040516020818303038152906040527f41304fac000000000000000000000000000000000000000000000000000000007bffffffffffffffffffffffffffffffffffffffffffffffffffffffff19166020820180517bffffffffffffffffffffffffffffffffffffffffffffffffffffffff83818316178352505050506200028060201b60201c565b50565b60008151905060006a636f6e736f6c652e6c6f679050602083016000808483855afa5050505050565b828054620002b790620004a1565b90600052602060002090601f016020900481019282620002db576000855562000327565b82601f10620002f657805160ff191683800117855562000327565b8280016001018555821562000327579182015b828111156200032657825182559160200191906001019062000309565b5b509050620003369190620003cb565b5090565b8280546200034890620004a1565b90600052602060002090601f0160209004810192826200036c5760008555620003b8565b82601f106200038757805160ff1916838001178555620003b8565b82800160010185558215620003b8579182015b82811115620003b75782518255916020019190600101906200039a565b5b509050620003c79190620003cb565b5090565b5b80821115620003e6576000816000905550600101620003cc565b5090565b6000620003f7826200044f565b6200040381856200045a565b9350620004158185602086016200046b565b620004208162000506565b840191505092915050565b60006020820190508181036000830152620004478184620003ea565b905092915050565b600081519050919050565b600082825260208201905092915050565b60005b838110156200048b5780820151818401526020810190506200046e565b838111156200049b576000848401525b50505050565b60006002820490506001821680620004ba57607f821691505b60208210811415620004d157620004d0620004d7565b5b50919050565b7f4e487b7100000000000000000000000000000000000000000000000000000000600052602260045260246000fd5b6000601f19601f8301169050919050565b614d3480620005276000396000f3fe608060405234801561001057600080fd5b506004361061014d5760003560e01c80635ff6cbf3116100c3578063883764b11161007c578063883764b11461037c578063c4ca280d1461039a578063cfae3217146103b6578063d8b86fec146103d4578063ec406e9b146103f0578063f844dcc81461040e5761014d565b80635ff6cbf3146102b857806362746e6c146102d6578063712bef91146102f4578063722713f714610324578063817f4e3d146103425780638655854c146103605761014d565b80634118b16f116101155780634118b16f146101e6578063496cb056146102025780634f193a9114610232578063509145db146102625780635c260e501461027e5780635f32b6db1461029c5761014d565b8063050d4f781461015257806306fdde031461017057806318160ddd1461018e578063378dc3dc146101ac5780633a2568e9146101ca575b600080fd5b61015a61042a565b60405161016791906143ff565b60405180910390f35b610178610450565b604051610185919061449b565b60405180910390f35b6101966104de565b6040516101a39190614630565b60405180910390f35b6101b46104e4565b6040516101c19190614630565b60405180910390f35b6101e460048036038101906101df9190613bb7565b6104ea565b005b61020060048036038101906101fb91906139b2565b610596565b005b61021c60048036038101906102179190613863565b6106c8565b6040516102299190614480565b60405180910390f35b61024c60048036038101906102479190613b8e565b6107ae565b604051610259919061443c565b60405180910390f35b61027c6004803603810190610277919061388c565b610c13565b005b610286610d5e565b6040516102939190614480565b60405180910390f35b6102b660048036038101906102b19190613a75565b610e58565b005b6102c0610f40565b6040516102cd919061441a565b60405180910390f35b6102de611195565b6040516102eb9190614480565b60405180910390f35b61030e60048036038101906103099190613971565b6111e9565b60405161031b919061460e565b60405180910390f35b61032c611384565b604051610339919061460e565b60405180910390f35b61034a611580565b604051610357919061449b565b60405180910390f35b61037a600480360381019061037591906138cd565b6116ac565b005b610384611abb565b604051610391919061445e565b60405180910390f35b6103b460048036038101906103af9190613971565b611dfb565b005b6103be612128565b6040516103cb919061449b565b60405180910390f35b6103ee60048036038101906103e99190613bf3565b6121ba565b005b6103f86125be565b604051610405919061445e565b60405180910390f35b61042860048036038101906104239190613c72565b6129b5565b005b600c60009054906101000a900473ffffffffffffffffffffffffffffffffffffffff1681565b6000805461045d906149a7565b80601f0160208091040260200160405190810160405280929190818152602001828054610489906149a7565b80156104d65780601f106104ab576101008083540402835291602001916104d6565b820191906000526020600020905b8154815290600101906020018083116104b957829003601f168201915b505050505081565b60025481565b60035481565b600115158115151415610592576001600d8381548110610533577f4e487b7100000000000000000000000000000000000000000000000000000000600052603260045260246000fd5b906000526020600020906004020160030160006101000a81548160ff0219169083600481111561058c577f4e487b7100000000000000000000000000000000000000000000000000000000600052602160045260246000fd5b02179055505b5050565b60011515600560003373ffffffffffffffffffffffffffffffffffffffff1673ffffffffffffffffffffffffffffffffffffffff16815260200190815260200160002060009054906101000a900460ff16151514610629576040517f08c379a00000000000000000000000000000000000000000000000000000000081526004016106209061458e565b60405180910390fd5b6106676040518060400160405280600b81526020017f54657374204576656e7427000000000000000000000000000000000000000000815250613339565b7f2dddc06b1340f27d89cf9e1783165857c901b8fb2d67ac8443c795ec43ff341f601154858585856040516106a095949392919061464b565b60405180910390a16001601160008282546106bb9190614849565b9250508190555050505050565b6000600c60009054906101000a900473ffffffffffffffffffffffffffffffffffffffff1673ffffffffffffffffffffffffffffffffffffffff163373ffffffffffffffffffffffffffffffffffffffff161461075a576040517f08c379a00000000000000000000000000000000000000000000000000000000081526004016107519061454e565b60405180910390fd5b600560008373ffffffffffffffffffffffffffffffffffffffff1673ffffffffffffffffffffffffffffffffffffffff16815260200190815260200160002060009054906101000a900460ff169050919050565b60606000600d83815481106107ec577f4e487b7100000000000000000000000000000000000000000000000000000000600052603260045260246000fd5b90600052602060002090600402016002018054610808906149a7565b80601f0160208091040260200160405190810160405280929190818152602001828054610834906149a7565b80156108815780601f1061085657610100808354040283529160200191610881565b820191906000526020600020905b81548152906001019060200180831161086457829003601f168201915b5050505050905061089181613339565b3373ffffffffffffffffffffffffffffffffffffffff166008826040516108b8919061435c565b908152602001604051809103902060009054906101000a900473ffffffffffffffffffffffffffffffffffffffff1673ffffffffffffffffffffffffffffffffffffffff161461093d576040517f08c379a00000000000000000000000000000000000000000000000000000000081526004016109349061456e565b60405180910390fd5b600a6000848152602001908152602001600020805480602002602001604051908101604052809291908181526020016000905b82821015610c0757838290600052602060002090600602016040518060a001604052908160008201548152602001600182016040518060400160405290816000820180546109bd906149a7565b80601f01602080910402602001604051908101604052809291908181526020018280546109e9906149a7565b8015610a365780601f10610a0b57610100808354040283529160200191610a36565b820191906000526020600020905b815481529060010190602001808311610a1957829003601f168201915b50505050508152602001600182018054610a4f906149a7565b80601f0160208091040260200160405190810160405280929190818152602001828054610a7b906149a7565b8015610ac85780601f10610a9d57610100808354040283529160200191610ac8565b820191906000526020600020905b815481529060010190602001808311610aab57829003601f168201915b5050505050815250508152602001600382015481526020016004820160009054906101000a900460ff166002811115610b2a577f4e487b7100000000000000000000000000000000000000000000000000000000600052602160045260246000fd5b6002811115610b62577f4e487b7100000000000000000000000000000000000000000000000000000000600052602160045260246000fd5b8152602001600582018054610b76906149a7565b80601f0160208091040260200160405190810160405280929190818152602001828054610ba2906149a7565b8015610bef5780601f10610bc457610100808354040283529160200191610bef565b820191906000526020600020905b815481529060010190602001808311610bd257829003601f168201915b50505050508152505081526020019060010190610970565b50505050915050919050565b600c60009054906101000a900473ffffffffffffffffffffffffffffffffffffffff1673ffffffffffffffffffffffffffffffffffffffff163373ffffffffffffffffffffffffffffffffffffffff1614610ca3576040517f08c379a0000000000000000000000000000000000000000000000000000000008152600401610c9a9061454e565b60405180910390fd5b60005b8151811015610d5a57600160056000848481518110610cee577f4e487b7100000000000000000000000000000000000000000000000000000000600052603260045260246000fd5b602002602001015173ffffffffffffffffffffffffffffffffffffffff1673ffffffffffffffffffffffffffffffffffffffff16815260200190815260200160002060006101000a81548160ff0219169083151502179055508080610d5290614a0a565b915050610ca6565b5050565b600060011515600560003373ffffffffffffffffffffffffffffffffffffffff1673ffffffffffffffffffffffffffffffffffffffff16815260200190815260200160002060009054906101000a900460ff16151514610df3576040517f08c379a0000000000000000000000000000000000000000000000000000000008152600401610dea9061454e565b60405180910390fd5b6000600660003373ffffffffffffffffffffffffffffffffffffffff1673ffffffffffffffffffffffffffffffffffffffff1681526020019081526020016000208054610e3f906149a7565b90501415610e505760009050610e55565b600190505b90565b604051806040016040528086815260200185815250600787604051610e7d919061435c565b90815260200160405180910390206000820151816000019080519060200190610ea7929190613539565b506020820151816001019080519060200190610ec4929190613539565b50905050604051806040016040528083815260200182815250600784604051610eed919061435c565b90815260200160405180910390206000820151816000019080519060200190610f17929190613539565b506020820151816001019080519060200190610f34929190613539565b50905050505050505050565b606060011515600560003373ffffffffffffffffffffffffffffffffffffffff1673ffffffffffffffffffffffffffffffffffffffff16815260200190815260200160002060009054906101000a900460ff16151514610fd5576040517f08c379a0000000000000000000000000000000000000000000000000000000008152600401610fcc906145ae565b60405180910390fd5b6000600660003373ffffffffffffffffffffffffffffffffffffffff1673ffffffffffffffffffffffffffffffffffffffff1681526020019081526020016000208054611021906149a7565b80601f016020809104026020016040519081016040528092919081815260200182805461104d906149a7565b801561109a5780601f1061106f5761010080835404028352916020019161109a565b820191906000526020600020905b81548152906001019060200180831161107d57829003601f168201915b50505050509050600b816040516110b1919061435c565b9081526020016040518091039020805480602002602001604051908101604052809291908181526020016000905b8282101561118b5783829060005260206000200180546110fe906149a7565b80601f016020809104026020016040519081016040528092919081815260200182805461112a906149a7565b80156111775780601f1061114c57610100808354040283529160200191611177565b820191906000526020600020905b81548152906001019060200180831161115a57829003601f168201915b5050505050815260200190600101906110df565b5050505091505090565b6000600560003373ffffffffffffffffffffffffffffffffffffffff1673ffffffffffffffffffffffffffffffffffffffff16815260200190815260200160002060009054906101000a900460ff16905090565b6111f16135bf565b6112306040518060400160405280600781526020017f73656e6465722000000000000000000000000000000000000000000000000000815250336133d2565b600782604051611240919061435c565b9081526020016040518091039020604051806040016040529081600082018054611269906149a7565b80601f0160208091040260200160405190810160405280929190818152602001828054611295906149a7565b80156112e25780601f106112b7576101008083540402835291602001916112e2565b820191906000526020600020905b8154815290600101906020018083116112c557829003601f168201915b505050505081526020016001820180546112fb906149a7565b80601f0160208091040260200160405190810160405280929190818152602001828054611327906149a7565b80156113745780601f1061134957610100808354040283529160200191611374565b820191906000526020600020905b81548152906001019060200180831161135757829003601f168201915b5050505050815250509050919050565b61138c6135bf565b60001515600560003373ffffffffffffffffffffffffffffffffffffffff1673ffffffffffffffffffffffffffffffffffffffff16815260200190815260200160002060009054906101000a900460ff16151514156113ea57600080fd5b6000600660003373ffffffffffffffffffffffffffffffffffffffff1673ffffffffffffffffffffffffffffffffffffffff168152602001908152602001600020905060078160405161143d919061438a565b9081526020016040518091039020604051806040016040529081600082018054611466906149a7565b80601f0160208091040260200160405190810160405280929190818152602001828054611492906149a7565b80156114df5780601f106114b4576101008083540402835291602001916114df565b820191906000526020600020905b8154815290600101906020018083116114c257829003601f168201915b505050505081526020016001820180546114f8906149a7565b80601f0160208091040260200160405190810160405280929190818152602001828054611524906149a7565b80156115715780601f1061154657610100808354040283529160200191611571565b820191906000526020600020905b81548152906001019060200180831161155457829003601f168201915b50505050508152505091505090565b606060011515600560003373ffffffffffffffffffffffffffffffffffffffff1673ffffffffffffffffffffffffffffffffffffffff16815260200190815260200160002060009054906101000a900460ff161515146115df57600080fd5b600660003373ffffffffffffffffffffffffffffffffffffffff1673ffffffffffffffffffffffffffffffffffffffff1681526020019081526020016000208054611629906149a7565b80601f0160208091040260200160405190810160405280929190818152602001828054611655906149a7565b80156116a25780601f10611677576101008083540402835291602001916116a2565b820191906000526020600020905b81548152906001019060200180831161168557829003601f168201915b5050505050905090565b60011515600560003373ffffffffffffffffffffffffffffffffffffffff1673ffffffffffffffffffffffffffffffffffffffff16815260200190815260200160002060009054906101000a900460ff1615151461173f576040517f08c379a00000000000000000000000000000000000000000000000000000000081526004016117369061458e565b60405180910390fd5b8585600660003373ffffffffffffffffffffffffffffffffffffffff1673ffffffffffffffffffffffffffffffffffffffff168152602001908152602001600020919061178d9291906135d9565b5033600887876040516117a1929190614343565b908152602001604051809103902060006101000a81548173ffffffffffffffffffffffffffffffffffffffff021916908373ffffffffffffffffffffffffffffffffffffffff160217905550604051806040016040528085858080601f016020809104026020016040519081016040528093929190818152602001838380828437600081840152601f19601f82011690508083019250505050505050815260200183838080601f016020809104026020016040519081016040528093929190818152602001838380828437600081840152601f19601f820116905080830192505050505050508152506007878760405161189c929190614343565b908152602001604051809103902060008201518160000190805190602001906118c6929190613539565b5060208201518160010190805190602001906118e3929190613539565b50905050611ab36040518060400160405280600b81526020017f73656e646572206163632000000000000000000000000000000000000000000081525060078888604051611932929190614343565b9081526020016040518091039020600001805461194e906149a7565b80601f016020809104026020016040519081016040528092919081815260200182805461197a906149a7565b80156119c75780601f1061199c576101008083540402835291602001916119c7565b820191906000526020600020905b8154815290600101906020018083116119aa57829003601f168201915b50505050506040518060400160405280600581526020017f20616e642000000000000000000000000000000000000000000000000000000081525060078a8a604051611a14929190614343565b90815260200160405180910390206001018054611a30906149a7565b80601f0160208091040260200160405190810160405280929190818152602001828054611a5c906149a7565b8015611aa95780601f10611a7e57610100808354040283529160200191611aa9565b820191906000526020600020905b815481529060010190602001808311611a8c57829003601f168201915b505050505061346e565b505050505050565b60606000600e8054905067ffffffffffffffff811115611b04577f4e487b7100000000000000000000000000000000000000000000000000000000600052604160045260246000fd5b604051908082528060200260200182016040528015611b3d57816020015b611b2a61365f565b815260200190600190039081611b225790505b50905060005b600e80549050811015611df357600d600e8281548110611b8c577f4e487b7100000000000000000000000000000000000000000000000000000000600052603260045260246000fd5b906000526020600020015481548110611bce577f4e487b7100000000000000000000000000000000000000000000000000000000600052603260045260246000fd5b906000526020600020906004020160405180608001604052908160008201548152602001600182018054611c01906149a7565b80601f0160208091040260200160405190810160405280929190818152602001828054611c2d906149a7565b8015611c7a5780601f10611c4f57610100808354040283529160200191611c7a565b820191906000526020600020905b815481529060010190602001808311611c5d57829003601f168201915b50505050508152602001600282018054611c93906149a7565b80601f0160208091040260200160405190810160405280929190818152602001828054611cbf906149a7565b8015611d0c5780601f10611ce157610100808354040283529160200191611d0c565b820191906000526020600020905b815481529060010190602001808311611cef57829003601f168201915b505050505081526020016003820160009054906101000a900460ff166004811115611d60577f4e487b7100000000000000000000000000000000000000000000000000000000600052602160045260246000fd5b6004811115611d98577f4e487b7100000000000000000000000000000000000000000000000000000000600052602160045260246000fd5b81525050828281518110611dd5577f4e487b7100000000000000000000000000000000000000000000000000000000600052603260045260246000fd5b60200260200101819052508080611deb90614a0a565b915050611b43565b508091505090565b60011515600560003373ffffffffffffffffffffffffffffffffffffffff1673ffffffffffffffffffffffffffffffffffffffff16815260200190815260200160002060009054906101000a900460ff16151514611e8e576040517f08c379a0000000000000000000000000000000000000000000000000000000008152600401611e85906145ae565b60405180910390fd5b600d60405180608001604052806011548152602001838152602001600660003373ffffffffffffffffffffffffffffffffffffffff1673ffffffffffffffffffffffffffffffffffffffff1681526020019081526020016000208054611ef3906149a7565b80601f0160208091040260200160405190810160405280929190818152602001828054611f1f906149a7565b8015611f6c5780601f10611f4157610100808354040283529160200191611f6c565b820191906000526020600020905b815481529060010190602001808311611f4f57829003601f168201915b5050505050815260200160006004811115611fb0577f4e487b7100000000000000000000000000000000000000000000000000000000600052602160045260246000fd5b8152509080600181540180825580915050600190039060005260206000209060040201600090919091909150600082015181600001556020820151816001019080519060200190612002929190613539565b50604082015181600201908051906020019061201f929190613539565b5060608201518160030160006101000a81548160ff02191690836004811115612071577f4e487b7100000000000000000000000000000000000000000000000000000000600052602160045260246000fd5b02179055505050600960003373ffffffffffffffffffffffffffffffffffffffff1673ffffffffffffffffffffffffffffffffffffffff1681526020019081526020016000206011549080600181540180825580915050600190039060005260206000200160009091909190915055600e601154908060018154018082558091505060019003906000526020600020016000909190919091505560016011600082825461211e9190614849565b9250508190555050565b606060018054612137906149a7565b80601f0160208091040260200160405190810160405280929190818152602001828054612163906149a7565b80156121b05780601f10612185576101008083540402835291602001916121b0565b820191906000526020600020905b81548152906001019060200180831161219357829003601f168201915b5050505050905090565b60011515600560003373ffffffffffffffffffffffffffffffffffffffff1673ffffffffffffffffffffffffffffffffffffffff16815260200190815260200160002060009054906101000a900460ff1615151461224d576040517f08c379a0000000000000000000000000000000000000000000000000000000008152600401612244906145ae565b60405180910390fd5b60006004811115612287577f4e487b7100000000000000000000000000000000000000000000000000000000600052602160045260246000fd5b600d84815481106122c1577f4e487b7100000000000000000000000000000000000000000000000000000000600052603260045260246000fd5b906000526020600020906004020160030160009054906101000a900460ff166004811115612318577f4e487b7100000000000000000000000000000000000000000000000000000000600052602160045260246000fd5b14612358576040517f08c379a000000000000000000000000000000000000000000000000000000000815260040161234f906145ee565b60405180910390fd5b6000600a6000858152602001908152602001600020805490509050600a60008581526020019081526020016000206040518060a001604052808381526020016040518060400160405280878152602001868152508152602001868152602001600060028111156123f1577f4e487b7100000000000000000000000000000000000000000000000000000000600052602160045260246000fd5b8152602001600660003373ffffffffffffffffffffffffffffffffffffffff1673ffffffffffffffffffffffffffffffffffffffff1681526020019081526020016000208054612440906149a7565b80601f016020809104026020016040519081016040528092919081815260200182805461246c906149a7565b80156124b95780601f1061248e576101008083540402835291602001916124b9565b820191906000526020600020905b81548152906001019060200180831161249c57829003601f168201915b50505050508152509080600181540180825580915050600190039060005260206000209060060201600090919091909150600082015181600001556020820151816001016000820151816000019080519060200190612519929190613539565b506020820151816001019080519060200190612536929190613539565b5050506040820151816003015560608201518160040160006101000a81548160ff02191690836002811115612594577f4e487b7100000000000000000000000000000000000000000000000000000000600052602160045260246000fd5b021790555060808201518160050190805190602001906125b5929190613539565b50505050505050565b60606000600960003373ffffffffffffffffffffffffffffffffffffffff1673ffffffffffffffffffffffffffffffffffffffff1681526020019081526020016000208054905067ffffffffffffffff811115612644577f4e487b7100000000000000000000000000000000000000000000000000000000600052604160045260246000fd5b60405190808252806020026020018201604052801561267d57816020015b61266a61365f565b8152602001906001900390816126625790505b50905060005b600960003373ffffffffffffffffffffffffffffffffffffffff1673ffffffffffffffffffffffffffffffffffffffff168152602001908152602001600020805490508110156129ad57600d600960003373ffffffffffffffffffffffffffffffffffffffff1673ffffffffffffffffffffffffffffffffffffffff1681526020019081526020016000208281548110612746577f4e487b7100000000000000000000000000000000000000000000000000000000600052603260045260246000fd5b906000526020600020015481548110612788577f4e487b7100000000000000000000000000000000000000000000000000000000600052603260045260246000fd5b9060005260206000209060040201604051806080016040529081600082015481526020016001820180546127bb906149a7565b80601f01602080910402602001604051908101604052809291908181526020018280546127e7906149a7565b80156128345780601f1061280957610100808354040283529160200191612834565b820191906000526020600020905b81548152906001019060200180831161281757829003601f168201915b5050505050815260200160028201805461284d906149a7565b80601f0160208091040260200160405190810160405280929190818152602001828054612879906149a7565b80156128c65780601f1061289b576101008083540402835291602001916128c6565b820191906000526020600020905b8154815290600101906020018083116128a957829003601f168201915b505050505081526020016003820160009054906101000a900460ff16600481111561291a577f4e487b7100000000000000000000000000000000000000000000000000000000600052602160045260246000fd5b6004811115612952577f4e487b7100000000000000000000000000000000000000000000000000000000600052602160045260246000fd5b8152505082828151811061298f577f4e487b7100000000000000000000000000000000000000000000000000000000600052603260045260246000fd5b602002602001018190525080806129a590614a0a565b915050612683565b508091505090565b60011515600560003373ffffffffffffffffffffffffffffffffffffffff1673ffffffffffffffffffffffffffffffffffffffff16815260200190815260200160002060009054906101000a900460ff16151514612a48576040517f08c379a0000000000000000000000000000000000000000000000000000000008152600401612a3f906145ae565b60405180910390fd5b6000600d8581548110612a84577f4e487b7100000000000000000000000000000000000000000000000000000000600052603260045260246000fd5b90600052602060002090600402016002018054612aa0906149a7565b80601f0160208091040260200160405190810160405280929190818152602001828054612acc906149a7565b8015612b195780601f10612aee57610100808354040283529160200191612b19565b820191906000526020600020905b815481529060010190602001808311612afc57829003601f168201915b505050505090503373ffffffffffffffffffffffffffffffffffffffff16600882604051612b47919061435c565b908152602001604051809103902060009054906101000a900473ffffffffffffffffffffffffffffffffffffffff1673ffffffffffffffffffffffffffffffffffffffff1614612bcc576040517f08c379a0000000000000000000000000000000000000000000000000000000008152600401612bc39061456e565b60405180910390fd5b60006004811115612c06577f4e487b7100000000000000000000000000000000000000000000000000000000600052602160045260246000fd5b600d8681548110612c40577f4e487b7100000000000000000000000000000000000000000000000000000000600052603260045260246000fd5b906000526020600020906004020160030160009054906101000a900460ff166004811115612c97577f4e487b7100000000000000000000000000000000000000000000000000000000600052602160045260246000fd5b14612cd7576040517f08c379a0000000000000000000000000000000000000000000000000000000008152600401612cce906145ee565b60405180910390fd5b60006002811115612d11577f4e487b7100000000000000000000000000000000000000000000000000000000600052602160045260246000fd5b600a60008781526020019081526020016000208581548110612d5c577f4e487b7100000000000000000000000000000000000000000000000000000000600052603260045260246000fd5b906000526020600020906006020160040160009054906101000a900460ff166002811115612db3577f4e487b7100000000000000000000000000000000000000000000000000000000600052602160045260246000fd5b14612df3576040517f08c379a0000000000000000000000000000000000000000000000000000000008152600401612dea906145ce565b60405180910390fd5b60008383604051602001612e089291906143a1565b604051602081830303815290604052905060005b600a600088815260200190815260200160002080549050811015612fb357858114612fa0576001600a60008981526020019081526020016000208281548110612e8e577f4e487b7100000000000000000000000000000000000000000000000000000000600052603260045260246000fd5b906000526020600020906006020160040160006101000a81548160ff02191690836002811115612ee7577f4e487b7100000000000000000000000000000000000000000000000000000000600052602160045260246000fd5b0217905550600b600a60008981526020019081526020016000208281548110612f39577f4e487b7100000000000000000000000000000000000000000000000000000000600052603260045260246000fd5b9060005260206000209060060201600501604051612f579190614373565b908152602001604051809103902082908060018154018082558091505060019003906000526020600020016000909190919091509080519060200190612f9e929190613539565b505b8080612fab90614a0a565b915050612e1c565b506002600a60008881526020019081526020016000208681548110613001577f4e487b7100000000000000000000000000000000000000000000000000000000600052603260045260246000fd5b906000526020600020906006020160040160006101000a81548160ff0219169083600281111561305a577f4e487b7100000000000000000000000000000000000000000000000000000000600052602160045260246000fd5b021790555083836040516020016130729291906143d0565b6040516020818303038152906040529050600b600a600088815260200190815260200160002086815481106130d0577f4e487b7100000000000000000000000000000000000000000000000000000000600052603260045260246000fd5b90600052602060002090600602016005016040516130ee9190614373565b908152602001604051809103902081908060018154018082558091505060019003906000526020600020016000909190919091509080519060200190613135929190613539565b506001600d8781548110613172577f4e487b7100000000000000000000000000000000000000000000000000000000600052603260045260246000fd5b906000526020600020906004020160030160006101000a81548160ff021916908360048111156131cb577f4e487b7100000000000000000000000000000000000000000000000000000000600052602160045260246000fd5b021790555060005b600e805490508110156133305786600e828154811061321b577f4e487b7100000000000000000000000000000000000000000000000000000000600052603260045260246000fd5b9060005260206000200154141561331d57600e6001600e80549050613240919061489f565b81548110613277577f4e487b7100000000000000000000000000000000000000000000000000000000600052603260045260246000fd5b9060005260206000200154600e82815481106132bc577f4e487b7100000000000000000000000000000000000000000000000000000000600052603260045260246000fd5b9060005260206000200181905550600e805480613302577f4e487b7100000000000000000000000000000000000000000000000000000000600052603160045260246000fd5b60019003818190600052602060002001600090559055613330565b808061332890614a0a565b9150506131d3565b50505050505050565b6133cf8160405160240161334d919061449b565b6040516020818303038152906040527f41304fac000000000000000000000000000000000000000000000000000000007bffffffffffffffffffffffffffffffffffffffffffffffffffffffff19166020820180517bffffffffffffffffffffffffffffffffffffffffffffffffffffffff8381831617835250505050613510565b50565b61346a82826040516024016133e89291906144bd565b6040516020818303038152906040527f319af333000000000000000000000000000000000000000000000000000000007bffffffffffffffffffffffffffffffffffffffffffffffffffffffff19166020820180517bffffffffffffffffffffffffffffffffffffffffffffffffffffffff8381831617835250505050613510565b5050565b61350a8484848460405160240161348894939291906144ed565b6040516020818303038152906040527fde68f20a000000000000000000000000000000000000000000000000000000007bffffffffffffffffffffffffffffffffffffffffffffffffffffffff19166020820180517bffffffffffffffffffffffffffffffffffffffffffffffffffffffff8381831617835250505050613510565b50505050565b60008151905060006a636f6e736f6c652e6c6f679050602083016000808483855afa5050505050565b828054613545906149a7565b90600052602060002090601f01602090048101928261356757600085556135ae565b82601f1061358057805160ff19168380011785556135ae565b828001600101855582156135ae579182015b828111156135ad578251825591602001919060010190613592565b5b5090506135bb91906136bf565b5090565b604051806040016040528060608152602001606081525090565b8280546135e5906149a7565b90600052602060002090601f016020900481019282613607576000855561364e565b82601f1061362057803560ff191683800117855561364e565b8280016001018555821561364e579182015b8281111561364d578235825591602001919060010190613632565b5b50905061365b91906136bf565b5090565b6040518060800160405280600081526020016060815260200160608152602001600060048111156136b9577f4e487b7100000000000000000000000000000000000000000000000000000000600052602160045260246000fd5b81525090565b5b808211156136d85760008160009055506001016136c0565b5090565b60006136ef6136ea846146df565b6146ba565b9050808382526020820190508285602086028201111561370e57600080fd5b60005b8581101561373e57816137248882613786565b845260208401935060208301925050600181019050613711565b5050509392505050565b600061375b6137568461470b565b6146ba565b90508281526020810184848401111561377357600080fd5b61377e848285614965565b509392505050565b60008135905061379581614cb9565b92915050565b600082601f8301126137ac57600080fd5b81356137bc8482602086016136dc565b91505092915050565b6000813590506137d481614cd0565b92915050565b60008083601f8401126137ec57600080fd5b8235905067ffffffffffffffff81111561380557600080fd5b60208301915083600182028301111561381d57600080fd5b9250929050565b600082601f83011261383557600080fd5b8135613845848260208601613748565b91505092915050565b60008135905061385d81614ce7565b92915050565b60006020828403121561387557600080fd5b600061388384828501613786565b91505092915050565b60006020828403121561389e57600080fd5b600082013567ffffffffffffffff8111156138b857600080fd5b6138c48482850161379b565b91505092915050565b600080600080600080606087890312156138e657600080fd5b600087013567ffffffffffffffff81111561390057600080fd5b61390c89828a016137da565b9650965050602087013567ffffffffffffffff81111561392b57600080fd5b61393789828a016137da565b9450945050604087013567ffffffffffffffff81111561395657600080fd5b61396289828a016137da565b92509250509295509295509295565b60006020828403121561398357600080fd5b600082013567ffffffffffffffff81111561399d57600080fd5b6139a984828501613824565b91505092915050565b600080600080608085870312156139c857600080fd5b600085013567ffffffffffffffff8111156139e257600080fd5b6139ee87828801613824565b945050602085013567ffffffffffffffff811115613a0b57600080fd5b613a1787828801613824565b935050604085013567ffffffffffffffff811115613a3457600080fd5b613a4087828801613824565b925050606085013567ffffffffffffffff811115613a5d57600080fd5b613a6987828801613824565b91505092959194509250565b60008060008060008060c08789031215613a8e57600080fd5b600087013567ffffffffffffffff811115613aa857600080fd5b613ab489828a01613824565b965050602087013567ffffffffffffffff811115613ad157600080fd5b613add89828a01613824565b955050604087013567ffffffffffffffff811115613afa57600080fd5b613b0689828a01613824565b945050606087013567ffffffffffffffff811115613b2357600080fd5b613b2f89828a01613824565b935050608087013567ffffffffffffffff811115613b4c57600080fd5b613b5889828a01613824565b92505060a087013567ffffffffffffffff811115613b7557600080fd5b613b8189828a01613824565b9150509295509295509295565b600060208284031215613ba057600080fd5b6000613bae8482850161384e565b91505092915050565b60008060408385031215613bca57600080fd5b6000613bd88582860161384e565b9250506020613be9858286016137c5565b9150509250929050565b600080600060608486031215613c0857600080fd5b6000613c168682870161384e565b935050602084013567ffffffffffffffff811115613c3357600080fd5b613c3f86828701613824565b925050604084013567ffffffffffffffff811115613c5c57600080fd5b613c6886828701613824565b9150509250925092565b60008060008060608587031215613c8857600080fd5b6000613c968782880161384e565b9450506020613ca78782880161384e565b935050604085013567ffffffffffffffff811115613cc457600080fd5b613cd0878288016137da565b925092505092959194509250565b6000613cea8383613eda565b905092915050565b6000613cfe83836141b6565b905092915050565b6000613d1283836142bb565b905092915050565b613d23816148d3565b82525050565b6000613d3482614796565b613d3e81856147e9565b935083602082028501613d508561473c565b8060005b85811015613d8c5784840389528151613d6d8582613cde565b9450613d78836147c2565b925060208a01995050600181019050613d54565b50829750879550505050505092915050565b6000613da9826147a1565b613db381856147fa565b935083602082028501613dc58561474c565b8060005b85811015613e015784840389528151613de28582613cf2565b9450613ded836147cf565b925060208a01995050600181019050613dc9565b50829750879550505050505092915050565b6000613e1e826147ac565b613e28818561480b565b935083602082028501613e3a8561475c565b8060005b85811015613e765784840389528151613e578582613d06565b9450613e62836147dc565b925060208a01995050600181019050613e3e565b50829750879550505050505092915050565b613e91816148e5565b82525050565b613ea081614941565b82525050565b613eaf81614953565b82525050565b6000613ec1838561483e565b9350613ece838584614965565b82840190509392505050565b6000613ee5826147b7565b613eef818561481c565b9350613eff818560208601614974565b613f0881614b0f565b840191505092915050565b6000613f1e826147b7565b613f28818561482d565b9350613f38818560208601614974565b613f4181614b0f565b840191505092915050565b6000613f57826147b7565b613f61818561483e565b9350613f71818560208601614974565b80840191505092915050565b60008154613f8a816149a7565b613f94818661483e565b94506001821660008114613faf5760018114613fc057613ff3565b60ff19831686528186019350613ff3565b613fc985614781565b60005b83811015613feb57815481890152600182019150602081019050613fcc565b838801955050505b50505092915050565b60008154614009816149a7565b614013818661483e565b9450600182166000811461402e576001811461403f57614072565b60ff19831686528186019350614072565b6140488561476c565b60005b8381101561406a5781548189015260018201915060208101905061404b565b838801955050505b50505092915050565b600061408860178361482d565b915061409382614b20565b602082019050919050565b60006140ab601f8361482d565b91506140b682614b49565b602082019050919050565b60006140ce60188361482d565b91506140d982614b72565b602082019050919050565b60006140f160178361482d565b91506140fc82614b9b565b602082019050919050565b600061411460178361483e565b915061411f82614bc4565b601782019050919050565b6000614137601c8361482d565b915061414282614bed565b602082019050919050565b600061415a600e8361483e565b915061416582614c16565b600e82019050919050565b600061417d60208361482d565b915061418882614c3f565b602082019050919050565b60006141a0600e8361483e565b91506141ab82614c68565b600e82019050919050565b600060a0830160008301516141ce6000860182614325565b50602083015184820360208601526141e68282614233565b91505060408301516141fb6040860182614325565b50606083015161420e6060860182613e97565b50608083015184820360808601526142268282613eda565b9150508091505092915050565b600060408301600083015184820360008601526142508282613eda565b9150506020830151848203602086015261426a8282613eda565b9150508091505092915050565b600060408301600083015184820360008601526142948282613eda565b915050602083015184820360208601526142ae8282613eda565b9150508091505092915050565b60006080830160008301516142d36000860182614325565b50602083015184820360208601526142eb8282613eda565b915050604083015184820360408601526143058282613eda565b915050606083015161431a6060860182613ea6565b508091505092915050565b61432e81614937565b82525050565b61433d81614937565b82525050565b6000614350828486613eb5565b91508190509392505050565b60006143688284613f4c565b915081905092915050565b600061437f8284613ffc565b915081905092915050565b60006143968284613f7d565b915081905092915050565b60006143ac82614107565b91506143b9828486613eb5565b91506143c48261414d565b91508190509392505050565b60006143db82614107565b91506143e8828486613eb5565b91506143f382614193565b91508190509392505050565b60006020820190506144146000830184613d1a565b92915050565b600060208201905081810360008301526144348184613d29565b905092915050565b600060208201905081810360008301526144568184613d9e565b905092915050565b600060208201905081810360008301526144788184613e13565b905092915050565b60006020820190506144956000830184613e88565b92915050565b600060208201905081810360008301526144b58184613f13565b905092915050565b600060408201905081810360008301526144d78185613f13565b90506144e66020830184613d1a565b9392505050565b600060808201905081810360008301526145078187613f13565b9050818103602083015261451b8186613f13565b9050818103604083015261452f8185613f13565b905081810360608301526145438184613f13565b905095945050505050565b600060208201905081810360008301526145678161407b565b9050919050565b600060208201905081810360008301526145878161409e565b9050919050565b600060208201905081810360008301526145a7816140c1565b9050919050565b600060208201905081810360008301526145c7816140e4565b9050919050565b600060208201905081810360008301526145e78161412a565b9050919050565b6000602082019050818103600083015261460781614170565b9050919050565b600060208201905081810360008301526146288184614277565b905092915050565b60006020820190506146456000830184614334565b92915050565b600060a0820190506146606000830188614334565b81810360208301526146728187613f13565b905081810360408301526146868186613f13565b9050818103606083015261469a8185613f13565b905081810360808301526146ae8184613f13565b90509695505050505050565b60006146c46146d5565b90506146d082826149d9565b919050565b6000604051905090565b600067ffffffffffffffff8211156146fa576146f9614ae0565b5b602082029050602081019050919050565b600067ffffffffffffffff82111561472657614725614ae0565b5b61472f82614b0f565b9050602081019050919050565b6000819050602082019050919050565b6000819050602082019050919050565b6000819050602082019050919050565b60008190508160005260206000209050919050565b60008190508160005260206000209050919050565b600081519050919050565b600081519050919050565b600081519050919050565b600081519050919050565b6000602082019050919050565b6000602082019050919050565b6000602082019050919050565b600082825260208201905092915050565b600082825260208201905092915050565b600082825260208201905092915050565b600082825260208201905092915050565b600082825260208201905092915050565b600081905092915050565b600061485482614937565b915061485f83614937565b9250827fffffffffffffffffffffffffffffffffffffffffffffffffffffffffffffffff0382111561489457614893614a53565b5b828201905092915050565b60006148aa82614937565b91506148b583614937565b9250828210156148c8576148c7614a53565b5b828203905092915050565b60006148de82614917565b9050919050565b60008115159050919050565b60008190506148ff82614c91565b919050565b600081905061491282614ca5565b919050565b600073ffffffffffffffffffffffffffffffffffffffff82169050919050565b6000819050919050565b600061494c826148f1565b9050919050565b600061495e82614904565b9050919050565b82818337600083830152505050565b60005b83811015614992578082015181840152602081019050614977565b838111156149a1576000848401525b50505050565b600060028204905060018216806149bf57607f821691505b602082108114156149d3576149d2614ab1565b5b50919050565b6149e282614b0f565b810181811067ffffffffffffffff82111715614a0157614a00614ae0565b5b80604052505050565b6000614a1582614937565b91507fffffffffffffffffffffffffffffffffffffffffffffffffffffffffffffffff821415614a4857614a47614a53565b5b600182019050919050565b7f4e487b7100000000000000000000000000000000000000000000000000000000600052601160045260246000fd5b7f4e487b7100000000000000000000000000000000000000000000000000000000600052602160045260246000fd5b7f4e487b7100000000000000000000000000000000000000000000000000000000600052602260045260246000fd5b7f4e487b7100000000000000000000000000000000000000000000000000000000600052604160045260246000fd5b6000601f19601f8301169050919050565b7f596f7520617265206e6f7420617574686f72697a65642e000000000000000000600082015250565b7f596f7520617265206e6f74206f6e776572206f662074686973207461736b2e00600082015250565b7f596f7520686176656e277420726567697374657265642e200000000000000000600082015250565b7f596f7520686176656e277420726567697374657265642e000000000000000000600082015250565b7f596f7572206f6666657220666f72205265717565737420000000000000000000600082015250565b7f546865206465616c207374617465206973206e6f742076616c69642e00000000600082015250565b7f207761732072656a65637465642e000000000000000000000000000000000000600082015250565b7f546865207461736b206973206e6f206c6f6e67657220617661696c61626c652e600082015250565b7f207761732041636365707465642e000000000000000000000000000000000000600082015250565b60038110614ca257614ca1614a82565b5b50565b60058110614cb657614cb5614a82565b5b50565b614cc2816148d3565b8114614ccd57600080fd5b50565b614cd9816148e5565b8114614ce457600080fd5b50565b614cf081614937565b8114614cfb57600080fd5b5056fea26469706673582212205fd4dbaca3be64e7cf8253722bb822d8d8aa395b81cfd9828488c8aab135c01b64736f6c63430008040033",
  "linkReferences": {},
  "deployedLinkReferences": {}
}