{
  "_format": "hh-sol-artifact-1",
  "contractName": "XContract",
  "sourceName": "contracts/XContract.sol",
  "abi": [
    {
      "inputs": [],
      "stateMutability": "nonpayable",
      "type": "constructor"
    },
    {
      "anonymous": false,
      "inputs": [
        {
          "indexed": false,
          "internalType": "string",
          "name": "newMsg",
          "type": "string"
        }
      ],
      "name": "TestMsg",
      "type": "event"
    },
    {
      "anonymous": false,
      "inputs": [
        {
          "indexed": false,
          "internalType": "address",
          "name": "add",
          "type": "address"
        },
        {
          "indexed": false,
          "internalType": "uint256",
          "name": "balance",
          "type": "uint256"
        }
      ],
      "name": "UpdateState",
      "type": "event"
    },
    {
      "inputs": [],
      "name": "association",
      "outputs": [
        {
          "internalType": "address",
          "name": "",
          "type": "address"
        }
      ],
      "stateMutability": "view",
      "type": "function"
    },
    {
      "inputs": [
        {
          "internalType": "address",
          "name": "account",
          "type": "address"
        }
      ],
      "name": "balanceOf",
      "outputs": [
        {
          "internalType": "uint256",
          "name": "",
          "type": "uint256"
        }
      ],
      "stateMutability": "view",
      "type": "function"
    },
    {
      "inputs": [
        {
          "internalType": "uint256",
          "name": "amt",
          "type": "uint256"
        },
        {
          "internalType": "address",
          "name": "user",
          "type": "address"
        }
      ],
      "name": "fundToAccount",
      "outputs": [],
      "stateMutability": "nonpayable",
      "type": "function"
    },
    {
      "inputs": [],
      "name": "greet",
      "outputs": [
        {
          "internalType": "string",
          "name": "",
          "type": "string"
        }
      ],
      "stateMutability": "view",
      "type": "function"
    },
    {
      "inputs": [],
      "name": "initialSupply",
      "outputs": [
        {
          "internalType": "uint256",
          "name": "",
          "type": "uint256"
        }
      ],
      "stateMutability": "view",
      "type": "function"
    },
    {
      "inputs": [],
      "name": "name",
      "outputs": [
        {
          "internalType": "string",
          "name": "",
          "type": "string"
        }
      ],
      "stateMutability": "view",
      "type": "function"
    },
    {
      "inputs": [],
      "name": "register",
      "outputs": [],
      "stateMutability": "nonpayable",
      "type": "function"
    },
    {
      "inputs": [
        {
          "internalType": "string",
          "name": "_taux",
          "type": "string"
        },
        {
          "internalType": "string",
          "name": "_muy",
          "type": "string"
        },
        {
          "internalType": "string",
          "name": "_t",
          "type": "string"
        },
        {
          "internalType": "string",
          "name": "_l",
          "type": "string"
        },
        {
          "internalType": "string",
          "name": "_r",
          "type": "string"
        },
        {
          "internalType": "string",
          "name": "_A",
          "type": "string"
        },
        {
          "internalType": "string",
          "name": "_S",
          "type": "string"
        },
        {
          "internalType": "string",
          "name": "_T1",
          "type": "string"
        },
        {
          "internalType": "string",
          "name": "_T2",
          "type": "string"
        },
        {
          "internalType": "string",
          "name": "_V",
          "type": "string"
        },
        {
          "internalType": "string",
          "name": "_sig",
          "type": "string"
        }
      ],
      "name": "sendProof",
      "outputs": [],
      "stateMutability": "view",
      "type": "function"
    },
    {
      "inputs": [
        {
          "internalType": "string",
          "name": "_greeting",
          "type": "string"
        }
      ],
      "name": "setGreeting",
      "outputs": [],
      "stateMutability": "nonpayable",
      "type": "function"
    },
    {
      "inputs": [],
      "name": "totalSupply",
      "outputs": [
        {
          "internalType": "uint256",
          "name": "",
          "type": "uint256"
        }
      ],
      "stateMutability": "view",
      "type": "function"
    },
    {
      "inputs": [
        {
          "internalType": "address",
          "name": "to",
          "type": "address"
        },
        {
          "internalType": "uint256",
          "name": "amount",
          "type": "uint256"
        }
      ],
      "name": "transfer",
      "outputs": [],
      "stateMutability": "nonpayable",
      "type": "function"
    }
  ],
  "bytecode": "0x60806040526040518060400160405280600981526020017f58636f6e747261637400000000000000000000000000000000000000000000008152506000908051906020019062000051929190620002f5565b50620f42406002556127106003553480156200006c57600080fd5b50600254600460003373ffffffffffffffffffffffffffffffffffffffff1673ffffffffffffffffffffffffffffffffffffffff1681526020019081526020016000208190555033600560006101000a81548173ffffffffffffffffffffffffffffffffffffffff021916908373ffffffffffffffffffffffffffffffffffffffff1602179055506040518060400160405280600381526020017f30303000000000000000000000000000000000000000000000000000000000008152506001908051906020019062000141929190620002f5565b50620002206040518060400160405280601b81526020017f4368616e67696e67206772656574696e672066726f6d20272573270000000000815250600180546200018b9062000473565b80601f0160208091040260200160405190810160405280929190818152602001828054620001b99062000473565b80156200020a5780601f10620001de576101008083540402835291602001916200020a565b820191906000526020600020905b815481529060010190602001808311620001ec57829003601f168201915b50505050506200022660201b620008af1760201c565b620004e9565b620002c882826040516024016200023f929190620003e6565b6040516020818303038152906040527f4b5c4277000000000000000000000000000000000000000000000000000000007bffffffffffffffffffffffffffffffffffffffffffffffffffffffff19166020820180517bffffffffffffffffffffffffffffffffffffffffffffffffffffffff8381831617835250505050620002cc60201b60201c565b5050565b60008151905060006a636f6e736f6c652e6c6f679050602083016000808483855afa5050505050565b828054620003039062000473565b90600052602060002090601f01602090048101928262000327576000855562000373565b82601f106200034257805160ff191683800117855562000373565b8280016001018555821562000373579182015b828111156200037257825182559160200191906001019062000355565b5b50905062000382919062000386565b5090565b5b80821115620003a157600081600090555060010162000387565b5090565b6000620003b28262000421565b620003be81856200042c565b9350620003d08185602086016200043d565b620003db81620004d8565b840191505092915050565b60006040820190508181036000830152620004028185620003a5565b90508181036020830152620004188184620003a5565b90509392505050565b600081519050919050565b600082825260208201905092915050565b60005b838110156200045d57808201518184015260208101905062000440565b838111156200046d576000848401525b50505050565b600060028204905060018216806200048c57607f821691505b60208210811415620004a357620004a2620004a9565b5b50919050565b7f4e487b7100000000000000000000000000000000000000000000000000000000600052602260045260246000fd5b6000601f19601f8301169050919050565b61146e80620004f96000396000f3fe608060405234801561001057600080fd5b50600436106100a95760003560e01c8063378dc3dc11610071578063378dc3dc1461012e57806370a082311461014c578063a41368621461017c578063a9059cbb14610198578063bad3d107146101b4578063cfae3217146101d0576100a9565b8063050d4f78146100ae57806306fdde03146100cc57806318160ddd146100ea5780631aa3a008146101085780632aff65d214610112575b600080fd5b6100b66101ee565b6040516100c39190610fb8565b60405180910390f35b6100d4610214565b6040516100e19190610ffc565b60405180910390f35b6100f26102a2565b6040516100ff9190611113565b60405180910390f35b6101106102a8565b005b61012c60048036038101906101279190610c8a565b6102f0565b005b6101366103ba565b6040516101439190611113565b60405180910390f35b61016660048036038101906101619190610be4565b6103c0565b6040516101739190611113565b60405180910390f35b61019660048036038101906101919190610c49565b610448565b005b6101b260048036038101906101ad9190610c0d565b610547565b005b6101ce60048036038101906101c99190610e82565b610769565b005b6101d861081d565b6040516101e59190610ffc565b60405180910390f35b600560009054906101000a900473ffffffffffffffffffffffffffffffffffffffff1681565b60008054610221906112bd565b80601f016020809104026020016040519081016040528092919081815260200182805461024d906112bd565b801561029a5780601f1061026f5761010080835404028352916020019161029a565b820191906000526020600020905b81548152906001019060200180831161027d57829003601f168201915b505050505081565b60025481565b600354600460003373ffffffffffffffffffffffffffffffffffffffff1673ffffffffffffffffffffffffffffffffffffffff16815260200190815260200160002081905550565b61032f6040518060400160405280600d81526020017f50726f6f662e74617578203a20000000000000000000000000000000000000008152508c6108af565b61036e6040518060400160405280600c81526020017f50726f6f662e6d7579203a2000000000000000000000000000000000000000008152508b6108af565b6103ad6040518060400160405280600c81526020017f50726f6f662e6d7579203a2000000000000000000000000000000000000000008152508a6108af565b5050505050505050505050565b60035481565b60006104016040518060400160405280601381526020017f4765742062616c616e6365206f662027257327000000000000000000000000008152508361094b565b600460008373ffffffffffffffffffffffffffffffffffffffff1673ffffffffffffffffffffffffffffffffffffffff168152602001908152602001600020549050919050565b6104f56040518060600160405280602381526020016114166023913960018054610471906112bd565b80601f016020809104026020016040519081016040528092919081815260200182805461049d906112bd565b80156104ea5780601f106104bf576101008083540402835291602001916104ea565b820191906000526020600020905b8154815290600101906020018083116104cd57829003601f168201915b5050505050836109e7565b806001908051906020019061050b929190610aaf565b507f57a57a410b51ac4751ea694c91cdcca4d61b6d997d46fb997eddc7d513341742600160405161053c91906110d1565b60405180910390a150565b80600460003373ffffffffffffffffffffffffffffffffffffffff1673ffffffffffffffffffffffffffffffffffffffff1681526020019081526020016000205410156105c9576040517f08c379a00000000000000000000000000000000000000000000000000000000081526004016105c0906110f3565b60405180910390fd5b80600460003373ffffffffffffffffffffffffffffffffffffffff1673ffffffffffffffffffffffffffffffffffffffff1681526020019081526020016000206000828254610618919061120b565b9250508190555080600460008473ffffffffffffffffffffffffffffffffffffffff1673ffffffffffffffffffffffffffffffffffffffff168152602001908152602001600020600082825461066e91906111b5565b925050819055507f364bc05a26076a4b591d11ae973bbc492605b49c871783d787f183e58f3fe08e33600460003373ffffffffffffffffffffffffffffffffffffffff1673ffffffffffffffffffffffffffffffffffffffff168152602001908152602001600020546040516106e5929190610fd3565b60405180910390a17f364bc05a26076a4b591d11ae973bbc492605b49c871783d787f183e58f3fe08e82600460008573ffffffffffffffffffffffffffffffffffffffff1673ffffffffffffffffffffffffffffffffffffffff1681526020019081526020016000205460405161075d929190610fd3565b60405180910390a15050565b600560009054906101000a900473ffffffffffffffffffffffffffffffffffffffff1673ffffffffffffffffffffffffffffffffffffffff163373ffffffffffffffffffffffffffffffffffffffff16146107c357600080fd5b81600460008373ffffffffffffffffffffffffffffffffffffffff1673ffffffffffffffffffffffffffffffffffffffff168152602001908152602001600020600082825461081291906111b5565b925050819055505050565b60606001805461082c906112bd565b80601f0160208091040260200160405190810160405280929190818152602001828054610858906112bd565b80156108a55780601f1061087a576101008083540402835291602001916108a5565b820191906000526020600020905b81548152906001019060200180831161088857829003601f168201915b5050505050905090565b61094782826040516024016108c592919061104e565b6040516020818303038152906040527f4b5c4277000000000000000000000000000000000000000000000000000000007bffffffffffffffffffffffffffffffffffffffffffffffffffffffff19166020820180517bffffffffffffffffffffffffffffffffffffffffffffffffffffffff8381831617835250505050610a86565b5050565b6109e3828260405160240161096192919061101e565b6040516020818303038152906040527f319af333000000000000000000000000000000000000000000000000000000007bffffffffffffffffffffffffffffffffffffffffffffffffffffffff19166020820180517bffffffffffffffffffffffffffffffffffffffffffffffffffffffff8381831617835250505050610a86565b5050565b610a818383836040516024016109ff93929190611085565b6040516020818303038152906040527f2ced7cef000000000000000000000000000000000000000000000000000000007bffffffffffffffffffffffffffffffffffffffffffffffffffffffff19166020820180517bffffffffffffffffffffffffffffffffffffffffffffffffffffffff8381831617835250505050610a86565b505050565b60008151905060006a636f6e736f6c652e6c6f679050602083016000808483855afa5050505050565b828054610abb906112bd565b90600052602060002090601f016020900481019282610add5760008555610b24565b82601f10610af657805160ff1916838001178555610b24565b82800160010185558215610b24579182015b82811115610b23578251825591602001919060010190610b08565b5b509050610b319190610b35565b5090565b5b80821115610b4e576000816000905550600101610b36565b5090565b6000610b65610b6084611153565b61112e565b905082815260208101848484011115610b7d57600080fd5b610b8884828561127b565b509392505050565b600081359050610b9f816113e7565b92915050565b600082601f830112610bb657600080fd5b8135610bc6848260208601610b52565b91505092915050565b600081359050610bde816113fe565b92915050565b600060208284031215610bf657600080fd5b6000610c0484828501610b90565b91505092915050565b60008060408385031215610c2057600080fd5b6000610c2e85828601610b90565b9250506020610c3f85828601610bcf565b9150509250929050565b600060208284031215610c5b57600080fd5b600082013567ffffffffffffffff811115610c7557600080fd5b610c8184828501610ba5565b91505092915050565b60008060008060008060008060008060006101608c8e031215610cac57600080fd5b60008c013567ffffffffffffffff811115610cc657600080fd5b610cd28e828f01610ba5565b9b505060208c013567ffffffffffffffff811115610cef57600080fd5b610cfb8e828f01610ba5565b9a505060408c013567ffffffffffffffff811115610d1857600080fd5b610d248e828f01610ba5565b99505060608c013567ffffffffffffffff811115610d4157600080fd5b610d4d8e828f01610ba5565b98505060808c013567ffffffffffffffff811115610d6a57600080fd5b610d768e828f01610ba5565b97505060a08c013567ffffffffffffffff811115610d9357600080fd5b610d9f8e828f01610ba5565b96505060c08c013567ffffffffffffffff811115610dbc57600080fd5b610dc88e828f01610ba5565b95505060e08c013567ffffffffffffffff811115610de557600080fd5b610df18e828f01610ba5565b9450506101008c013567ffffffffffffffff811115610e0f57600080fd5b610e1b8e828f01610ba5565b9350506101208c013567ffffffffffffffff811115610e3957600080fd5b610e458e828f01610ba5565b9250506101408c013567ffffffffffffffff811115610e6357600080fd5b610e6f8e828f01610ba5565b9150509295989b509295989b9093969950565b60008060408385031215610e9557600080fd5b6000610ea385828601610bcf565b9250506020610eb485828601610b90565b9150509250929050565b610ec78161123f565b82525050565b6000610ed882611199565b610ee281856111a4565b9350610ef281856020860161128a565b610efb816113ad565b840191505092915050565b60008154610f13816112bd565b610f1d81866111a4565b94506001821660008114610f385760018114610f4a57610f7d565b60ff1983168652602086019350610f7d565b610f5385611184565b60005b83811015610f7557815481890152600182019150602081019050610f56565b808801955050505b50505092915050565b6000610f936011836111a4565b9150610f9e826113be565b602082019050919050565b610fb281611271565b82525050565b6000602082019050610fcd6000830184610ebe565b92915050565b6000604082019050610fe86000830185610ebe565b610ff56020830184610fa9565b9392505050565b600060208201905081810360008301526110168184610ecd565b905092915050565b600060408201905081810360008301526110388185610ecd565b90506110476020830184610ebe565b9392505050565b600060408201905081810360008301526110688185610ecd565b9050818103602083015261107c8184610ecd565b90509392505050565b6000606082019050818103600083015261109f8186610ecd565b905081810360208301526110b38185610ecd565b905081810360408301526110c78184610ecd565b9050949350505050565b600060208201905081810360008301526110eb8184610f06565b905092915050565b6000602082019050818103600083015261110c81610f86565b9050919050565b60006020820190506111286000830184610fa9565b92915050565b6000611138611149565b905061114482826112ef565b919050565b6000604051905090565b600067ffffffffffffffff82111561116e5761116d61137e565b5b611177826113ad565b9050602081019050919050565b60008190508160005260206000209050919050565b600081519050919050565b600082825260208201905092915050565b60006111c082611271565b91506111cb83611271565b9250827fffffffffffffffffffffffffffffffffffffffffffffffffffffffffffffffff03821115611200576111ff611320565b5b828201905092915050565b600061121682611271565b915061122183611271565b92508282101561123457611233611320565b5b828203905092915050565b600061124a82611251565b9050919050565b600073ffffffffffffffffffffffffffffffffffffffff82169050919050565b6000819050919050565b82818337600083830152505050565b60005b838110156112a857808201518184015260208101905061128d565b838111156112b7576000848401525b50505050565b600060028204905060018216806112d557607f821691505b602082108114156112e9576112e861134f565b5b50919050565b6112f8826113ad565b810181811067ffffffffffffffff821117156113175761131661137e565b5b80604052505050565b7f4e487b7100000000000000000000000000000000000000000000000000000000600052601160045260246000fd5b7f4e487b7100000000000000000000000000000000000000000000000000000000600052602260045260246000fd5b7f4e487b7100000000000000000000000000000000000000000000000000000000600052604160045260246000fd5b6000601f19601f8301169050919050565b7f4e6f7420656e6f75676820746f6b656e73000000000000000000000000000000600082015250565b6113f08161123f565b81146113fb57600080fd5b50565b61140781611271565b811461141257600080fd5b5056fe4368616e67696e67206772656574696e672066726f6d202725732720746f2027257327a26469706673582212207655ac0dd649f99e83d0ff22196be4d7d4bf0ff9889878cb356c8692de44580564736f6c63430008040033",
  "linkReferences": {},
  "deployedLinkReferences": {}
}