{
  "_format": "hh-sol-artifact-1",
  "contractName": "XContract",
  "sourceName": "contracts/XContract.sol",
  "abi": [
    {
      "inputs": [],
      "stateMutability": "nonpayable",
      "type": "constructor"
    },
    {
      "anonymous": false,
      "inputs": [
        {
          "indexed": false,
          "internalType": "uint256",
          "name": "id",
          "type": "uint256"
        },
        {
          "indexed": false,
          "internalType": "string",
          "name": "proof",
          "type": "string"
        }
      ],
      "name": "NewRequest",
      "type": "event"
    },
    {
      "anonymous": false,
      "inputs": [
        {
          "indexed": false,
          "internalType": "string",
          "name": "newMsg",
          "type": "string"
        }
      ],
      "name": "TestMsg",
      "type": "event"
    },
    {
      "anonymous": false,
      "inputs": [
        {
          "indexed": false,
          "internalType": "address",
          "name": "add",
          "type": "address"
        },
        {
          "indexed": false,
          "internalType": "uint256",
          "name": "balance",
          "type": "uint256"
        }
      ],
      "name": "UpdateState",
      "type": "event"
    },
    {
      "inputs": [],
      "name": "association",
      "outputs": [
        {
          "internalType": "address",
          "name": "",
          "type": "address"
        }
      ],
      "stateMutability": "view",
      "type": "function"
    },
    {
      "inputs": [],
      "name": "balanceOf",
      "outputs": [
        {
          "internalType": "uint256",
          "name": "",
          "type": "uint256"
        }
      ],
      "stateMutability": "view",
      "type": "function"
    },
    {
      "inputs": [
        {
          "internalType": "uint256",
          "name": "id",
          "type": "uint256"
        },
        {
          "internalType": "bool",
          "name": "res",
          "type": "bool"
        }
      ],
      "name": "confirmProof",
      "outputs": [],
      "stateMutability": "nonpayable",
      "type": "function"
    },
    {
      "inputs": [
        {
          "internalType": "uint256",
          "name": "amt",
          "type": "uint256"
        },
        {
          "internalType": "address",
          "name": "user",
          "type": "address"
        }
      ],
      "name": "fundToAccount",
      "outputs": [],
      "stateMutability": "nonpayable",
      "type": "function"
    },
    {
      "inputs": [],
      "name": "greet",
      "outputs": [
        {
          "internalType": "string",
          "name": "",
          "type": "string"
        }
      ],
      "stateMutability": "view",
      "type": "function"
    },
    {
      "inputs": [],
      "name": "initialSupply",
      "outputs": [
        {
          "internalType": "uint256",
          "name": "",
          "type": "uint256"
        }
      ],
      "stateMutability": "view",
      "type": "function"
    },
    {
      "inputs": [],
      "name": "name",
      "outputs": [
        {
          "internalType": "string",
          "name": "",
          "type": "string"
        }
      ],
      "stateMutability": "view",
      "type": "function"
    },
    {
      "inputs": [
        {
          "internalType": "string",
          "name": "y",
          "type": "string"
        }
      ],
      "name": "privateTransfer",
      "outputs": [
        {
          "internalType": "uint256",
          "name": "",
          "type": "uint256"
        }
      ],
      "stateMutability": "nonpayable",
      "type": "function"
    },
    {
      "inputs": [
        {
          "internalType": "address",
          "name": "newAcc",
          "type": "address"
        }
      ],
      "name": "register",
      "outputs": [],
      "stateMutability": "nonpayable",
      "type": "function"
    },
    {
      "inputs": [
        {
          "internalType": "string",
          "name": "_greeting",
          "type": "string"
        }
      ],
      "name": "setGreeting",
      "outputs": [],
      "stateMutability": "nonpayable",
      "type": "function"
    },
    {
      "inputs": [],
      "name": "totalSupply",
      "outputs": [
        {
          "internalType": "uint256",
          "name": "",
          "type": "uint256"
        }
      ],
      "stateMutability": "view",
      "type": "function"
    },
    {
      "inputs": [
        {
          "internalType": "address",
          "name": "to",
          "type": "address"
        },
        {
          "internalType": "uint256",
          "name": "amount",
          "type": "uint256"
        }
      ],
      "name": "transfer",
      "outputs": [],
      "stateMutability": "nonpayable",
      "type": "function"
    }
  ],
  "bytecode": "0x60806040526040518060400160405280600981526020017f58636f6e74726163740000000000000000000000000000000000000000000000815250600090805190602001906200005192919062000305565b50620f42406002556127106003553480156200006c57600080fd5b50600254600460003373ffffffffffffffffffffffffffffffffffffffff1673ffffffffffffffffffffffffffffffffffffffff1681526020019081526020016000208190555033600660006101000a81548173ffffffffffffffffffffffffffffffffffffffff021916908373ffffffffffffffffffffffffffffffffffffffff1602179055506040518060400160405280600381526020017f3030300000000000000000000000000000000000000000000000000000000000815250600190805190602001906200014192919062000305565b50620002206040518060400160405280601b81526020017f4368616e67696e67206772656574696e672066726f6d20272573270000000000815250600180546200018b9062000483565b80601f0160208091040260200160405190810160405280929190818152602001828054620001b99062000483565b80156200020a5780601f10620001de576101008083540402835291602001916200020a565b820191906000526020600020905b815481529060010190602001808311620001ec57829003601f168201915b50505050506200023660201b62000b921760201c565b60006008819055506000600981905550620004f9565b620002d882826040516024016200024f929190620003f6565b6040516020818303038152906040527f4b5c4277000000000000000000000000000000000000000000000000000000007bffffffffffffffffffffffffffffffffffffffffffffffffffffffff19166020820180517bffffffffffffffffffffffffffffffffffffffffffffffffffffffff8381831617835250505050620002dc60201b60201c565b5050565b60008151905060006a636f6e736f6c652e6c6f679050602083016000808483855afa5050505050565b828054620003139062000483565b90600052602060002090601f01602090048101928262000337576000855562000383565b82601f106200035257805160ff191683800117855562000383565b8280016001018555821562000383579182015b828111156200038257825182559160200191906001019062000365565b5b50905062000392919062000396565b5090565b5b80821115620003b157600081600090555060010162000397565b5090565b6000620003c28262000431565b620003ce81856200043c565b9350620003e08185602086016200044d565b620003eb81620004e8565b840191505092915050565b60006040820190508181036000830152620004128185620003b5565b90508181036020830152620004288184620003b5565b90509392505050565b600081519050919050565b600082825260208201905092915050565b60005b838110156200046d57808201518184015260208101905062000450565b838111156200047d576000848401525b50505050565b600060028204905060018216806200049c57607f821691505b60208210811415620004b357620004b2620004b9565b5b50919050565b7f4e487b7100000000000000000000000000000000000000000000000000000000600052602260045260246000fd5b6000601f19601f8301169050919050565b61153180620005096000396000f3fe608060405234801561001057600080fd5b50600436106100b45760003560e01c80634420e486116100715780634420e4861461017d578063722713f714610199578063a4136862146101b7578063a9059cbb146101d3578063bad3d107146101ef578063cfae32171461020b576100b4565b8063050d4f78146100b957806306fdde03146100d757806318160ddd146100f55780631b25705414610113578063378dc3dc146101435780633a2568e914610161575b600080fd5b6100c1610229565b6040516100ce9190611058565b60405180910390f35b6100df61024f565b6040516100ec919061109c565b60405180910390f35b6100fd6102dd565b60405161010a9190611183565b60405180910390f35b61012d60048036038101906101289190610ea5565b6102e3565b60405161013a9190611183565b60405180910390f35b61014b6104b3565b6040516101589190611183565b60405180910390f35b61017b60048036038101906101769190610f22565b6104b9565b005b61019760048036038101906101929190610e40565b610604565b005b6101a16106ff565b6040516101ae9190611183565b60405180910390f35b6101d160048036038101906101cc9190610ea5565b6107a3565b005b6101ed60048036038101906101e89190610e69565b6108a2565b005b61020960048036038101906102049190610ee6565b610a4c565b005b610213610b00565b604051610220919061109c565b60405180910390f35b600660009054906101000a900473ffffffffffffffffffffffffffffffffffffffff1681565b6000805461025c90611369565b80601f016020809104026020016040519081016040528092919081815260200182805461028890611369565b80156102d55780601f106102aa576101008083540402835291602001916102d5565b820191906000526020600020905b8154815290600101906020018083116102b857829003601f168201915b505050505081565b60025481565b6000600760405180608001604052803373ffffffffffffffffffffffffffffffffffffffff168152602001600954815260200184815260200160006004811115610356577f4e487b7100000000000000000000000000000000000000000000000000000000600052602160045260246000fd5b815250908060018154018082558091505060019003906000526020600020906004020160009091909190915060008201518160000160006101000a81548173ffffffffffffffffffffffffffffffffffffffff021916908373ffffffffffffffffffffffffffffffffffffffff1602179055506020820151816001015560408201518160020190805190602001906103ef929190610cf6565b5060608201518160030160006101000a81548160ff02191690836004811115610441577f4e487b7100000000000000000000000000000000000000000000000000000000600052602160045260246000fd5b021790555050507f85808ba6b61b3e11f7dba026341d5ff5603fab7df37b176ebfa0f296264cd12e6009548360405161047b92919061119e565b60405180910390a16001600960008282546104969190611255565b9250508190555060016009546104ac91906112ab565b9050919050565b60035481565b60011515811515141561056557600160078381548110610502577f4e487b7100000000000000000000000000000000000000000000000000000000600052603260045260246000fd5b906000526020600020906004020160030160006101000a81548160ff0219169083600481111561055b577f4e487b7100000000000000000000000000000000000000000000000000000000600052602160045260246000fd5b0217905550610600565b6004600783815481106105a1577f4e487b7100000000000000000000000000000000000000000000000000000000600052603260045260246000fd5b906000526020600020906004020160030160006101000a81548160ff021916908360048111156105fa577f4e487b7100000000000000000000000000000000000000000000000000000000600052602160045260246000fd5b02179055505b5050565b600660009054906101000a900473ffffffffffffffffffffffffffffffffffffffff1673ffffffffffffffffffffffffffffffffffffffff163373ffffffffffffffffffffffffffffffffffffffff161461065e57600080fd5b600354600460008373ffffffffffffffffffffffffffffffffffffffff1673ffffffffffffffffffffffffffffffffffffffff168152602001908152602001600020819055506001600560008373ffffffffffffffffffffffffffffffffffffffff1673ffffffffffffffffffffffffffffffffffffffff16815260200190815260200160002060006101000a81548160ff02191690831515021790555050565b6000801515600560003373ffffffffffffffffffffffffffffffffffffffff1673ffffffffffffffffffffffffffffffffffffffff16815260200190815260200160002060009054906101000a900460ff161515141561075e57600080fd5b600460003373ffffffffffffffffffffffffffffffffffffffff1673ffffffffffffffffffffffffffffffffffffffff16815260200190815260200160002054905090565b6108506040518060600160405280602381526020016114d960239139600180546107cc90611369565b80601f01602080910402602001604051908101604052809291908181526020018280546107f890611369565b80156108455780601f1061081a57610100808354040283529160200191610845565b820191906000526020600020905b81548152906001019060200180831161082857829003601f168201915b505050505083610c2e565b8060019080519060200190610866929190610cf6565b507f57a57a410b51ac4751ea694c91cdcca4d61b6d997d46fb997eddc7d51334174260016040516108979190611141565b60405180910390a150565b80600460003373ffffffffffffffffffffffffffffffffffffffff1673ffffffffffffffffffffffffffffffffffffffff168152602001908152602001600020541015610924576040517f08c379a000000000000000000000000000000000000000000000000000000000815260040161091b90611163565b60405180910390fd5b80600460003373ffffffffffffffffffffffffffffffffffffffff1673ffffffffffffffffffffffffffffffffffffffff168152602001908152602001600020600082825461097391906112ab565b9250508190555080600460008473ffffffffffffffffffffffffffffffffffffffff1673ffffffffffffffffffffffffffffffffffffffff16815260200190815260200160002060008282546109c99190611255565b925050819055507f364bc05a26076a4b591d11ae973bbc492605b49c871783d787f183e58f3fe08e33600460003373ffffffffffffffffffffffffffffffffffffffff1673ffffffffffffffffffffffffffffffffffffffff16815260200190815260200160002054604051610a40929190611073565b60405180910390a15050565b600660009054906101000a900473ffffffffffffffffffffffffffffffffffffffff1673ffffffffffffffffffffffffffffffffffffffff163373ffffffffffffffffffffffffffffffffffffffff1614610aa657600080fd5b81600460008373ffffffffffffffffffffffffffffffffffffffff1673ffffffffffffffffffffffffffffffffffffffff1681526020019081526020016000206000828254610af59190611255565b925050819055505050565b606060018054610b0f90611369565b80601f0160208091040260200160405190810160405280929190818152602001828054610b3b90611369565b8015610b885780601f10610b5d57610100808354040283529160200191610b88565b820191906000526020600020905b815481529060010190602001808311610b6b57829003601f168201915b5050505050905090565b610c2a8282604051602401610ba89291906110be565b6040516020818303038152906040527f4b5c4277000000000000000000000000000000000000000000000000000000007bffffffffffffffffffffffffffffffffffffffffffffffffffffffff19166020820180517bffffffffffffffffffffffffffffffffffffffffffffffffffffffff8381831617835250505050610ccd565b5050565b610cc8838383604051602401610c46939291906110f5565b6040516020818303038152906040527f2ced7cef000000000000000000000000000000000000000000000000000000007bffffffffffffffffffffffffffffffffffffffffffffffffffffffff19166020820180517bffffffffffffffffffffffffffffffffffffffffffffffffffffffff8381831617835250505050610ccd565b505050565b60008151905060006a636f6e736f6c652e6c6f679050602083016000808483855afa5050505050565b828054610d0290611369565b90600052602060002090601f016020900481019282610d245760008555610d6b565b82601f10610d3d57805160ff1916838001178555610d6b565b82800160010185558215610d6b579182015b82811115610d6a578251825591602001919060010190610d4f565b5b509050610d789190610d7c565b5090565b5b80821115610d95576000816000905550600101610d7d565b5090565b6000610dac610da7846111f3565b6111ce565b905082815260208101848484011115610dc457600080fd5b610dcf848285611327565b509392505050565b600081359050610de681611493565b92915050565b600081359050610dfb816114aa565b92915050565b600082601f830112610e1257600080fd5b8135610e22848260208601610d99565b91505092915050565b600081359050610e3a816114c1565b92915050565b600060208284031215610e5257600080fd5b6000610e6084828501610dd7565b91505092915050565b60008060408385031215610e7c57600080fd5b6000610e8a85828601610dd7565b9250506020610e9b85828601610e2b565b9150509250929050565b600060208284031215610eb757600080fd5b600082013567ffffffffffffffff811115610ed157600080fd5b610edd84828501610e01565b91505092915050565b60008060408385031215610ef957600080fd5b6000610f0785828601610e2b565b9250506020610f1885828601610dd7565b9150509250929050565b60008060408385031215610f3557600080fd5b6000610f4385828601610e2b565b9250506020610f5485828601610dec565b9150509250929050565b610f67816112df565b82525050565b6000610f7882611239565b610f828185611244565b9350610f92818560208601611336565b610f9b81611459565b840191505092915050565b60008154610fb381611369565b610fbd8186611244565b94506001821660008114610fd85760018114610fea5761101d565b60ff198316865260208601935061101d565b610ff385611224565b60005b8381101561101557815481890152600182019150602081019050610ff6565b808801955050505b50505092915050565b6000611033601183611244565b915061103e8261146a565b602082019050919050565b6110528161131d565b82525050565b600060208201905061106d6000830184610f5e565b92915050565b60006040820190506110886000830185610f5e565b6110956020830184611049565b9392505050565b600060208201905081810360008301526110b68184610f6d565b905092915050565b600060408201905081810360008301526110d88185610f6d565b905081810360208301526110ec8184610f6d565b90509392505050565b6000606082019050818103600083015261110f8186610f6d565b905081810360208301526111238185610f6d565b905081810360408301526111378184610f6d565b9050949350505050565b6000602082019050818103600083015261115b8184610fa6565b905092915050565b6000602082019050818103600083015261117c81611026565b9050919050565b60006020820190506111986000830184611049565b92915050565b60006040820190506111b36000830185611049565b81810360208301526111c58184610f6d565b90509392505050565b60006111d86111e9565b90506111e4828261139b565b919050565b6000604051905090565b600067ffffffffffffffff82111561120e5761120d61142a565b5b61121782611459565b9050602081019050919050565b60008190508160005260206000209050919050565b600081519050919050565b600082825260208201905092915050565b60006112608261131d565b915061126b8361131d565b9250827fffffffffffffffffffffffffffffffffffffffffffffffffffffffffffffffff038211156112a05761129f6113cc565b5b828201905092915050565b60006112b68261131d565b91506112c18361131d565b9250828210156112d4576112d36113cc565b5b828203905092915050565b60006112ea826112fd565b9050919050565b60008115159050919050565b600073ffffffffffffffffffffffffffffffffffffffff82169050919050565b6000819050919050565b82818337600083830152505050565b60005b83811015611354578082015181840152602081019050611339565b83811115611363576000848401525b50505050565b6000600282049050600182168061138157607f821691505b60208210811415611395576113946113fb565b5b50919050565b6113a482611459565b810181811067ffffffffffffffff821117156113c3576113c261142a565b5b80604052505050565b7f4e487b7100000000000000000000000000000000000000000000000000000000600052601160045260246000fd5b7f4e487b7100000000000000000000000000000000000000000000000000000000600052602260045260246000fd5b7f4e487b7100000000000000000000000000000000000000000000000000000000600052604160045260246000fd5b6000601f19601f8301169050919050565b7f4e6f7420656e6f75676820746f6b656e73000000000000000000000000000000600082015250565b61149c816112df565b81146114a757600080fd5b50565b6114b3816112f1565b81146114be57600080fd5b50565b6114ca8161131d565b81146114d557600080fd5b5056fe4368616e67696e67206772656574696e672066726f6d202725732720746f2027257327a2646970667358221220d153ba2d892ee67791d679a582616ef625745ca557600320335a9e5bc601dc9264736f6c63430008040033",
  "linkReferences": {},
  "deployedLinkReferences": {}
}