{
  "_format": "hh-sol-artifact-1",
  "contractName": "XContract",
  "sourceName": "contracts/XContract.sol",
  "abi": [
    {
      "inputs": [],
      "stateMutability": "nonpayable",
      "type": "constructor"
    },
    {
      "anonymous": false,
      "inputs": [
        {
          "indexed": false,
          "internalType": "string",
          "name": "newMsg",
          "type": "string"
        }
      ],
      "name": "TestMsg",
      "type": "event"
    },
    {
      "anonymous": false,
      "inputs": [
        {
          "indexed": false,
          "internalType": "address",
          "name": "add",
          "type": "address"
        },
        {
          "indexed": false,
          "internalType": "uint256",
          "name": "balance",
          "type": "uint256"
        }
      ],
      "name": "UpdateState",
      "type": "event"
    },
    {
      "inputs": [],
      "name": "association",
      "outputs": [
        {
          "internalType": "address",
          "name": "",
          "type": "address"
        }
      ],
      "stateMutability": "view",
      "type": "function"
    },
    {
      "inputs": [
        {
          "internalType": "address",
          "name": "account",
          "type": "address"
        }
      ],
      "name": "balanceOf",
      "outputs": [
        {
          "internalType": "uint256",
          "name": "",
          "type": "uint256"
        }
      ],
      "stateMutability": "view",
      "type": "function"
    },
    {
      "inputs": [
        {
          "internalType": "uint256",
          "name": "amt",
          "type": "uint256"
        },
        {
          "internalType": "address",
          "name": "user",
          "type": "address"
        }
      ],
      "name": "fundToAccount",
      "outputs": [],
      "stateMutability": "nonpayable",
      "type": "function"
    },
    {
      "inputs": [],
      "name": "greet",
      "outputs": [
        {
          "internalType": "string",
          "name": "",
          "type": "string"
        }
      ],
      "stateMutability": "view",
      "type": "function"
    },
    {
      "inputs": [],
      "name": "initialSupply",
      "outputs": [
        {
          "internalType": "uint256",
          "name": "",
          "type": "uint256"
        }
      ],
      "stateMutability": "view",
      "type": "function"
    },
    {
      "inputs": [],
      "name": "name",
      "outputs": [
        {
          "internalType": "string",
          "name": "",
          "type": "string"
        }
      ],
      "stateMutability": "view",
      "type": "function"
    },
    {
      "inputs": [
        {
          "internalType": "bytes32[]",
          "name": "keys",
          "type": "bytes32[]"
        }
      ],
      "name": "privateTransfer",
      "outputs": [],
      "stateMutability": "nonpayable",
      "type": "function"
    },
    {
      "inputs": [],
      "name": "register",
      "outputs": [],
      "stateMutability": "nonpayable",
      "type": "function"
    },
    {
      "inputs": [
        {
          "internalType": "string",
          "name": "_greeting",
          "type": "string"
        }
      ],
      "name": "setGreeting",
      "outputs": [],
      "stateMutability": "nonpayable",
      "type": "function"
    },
    {
      "inputs": [],
      "name": "totalSupply",
      "outputs": [
        {
          "internalType": "uint256",
          "name": "",
          "type": "uint256"
        }
      ],
      "stateMutability": "view",
      "type": "function"
    },
    {
      "inputs": [
        {
          "internalType": "address",
          "name": "to",
          "type": "address"
        },
        {
          "internalType": "uint256",
          "name": "amount",
          "type": "uint256"
        }
      ],
      "name": "transfer",
      "outputs": [],
      "stateMutability": "nonpayable",
      "type": "function"
    }
  ],
  "bytecode": "0x60806040526040518060400160405280600981526020017f58636f6e747261637400000000000000000000000000000000000000000000008152506000908051906020019062000051929190620002f5565b50620f42406002556127106003553480156200006c57600080fd5b50600254600460003373ffffffffffffffffffffffffffffffffffffffff1673ffffffffffffffffffffffffffffffffffffffff1681526020019081526020016000208190555033600560006101000a81548173ffffffffffffffffffffffffffffffffffffffff021916908373ffffffffffffffffffffffffffffffffffffffff1602179055506040518060400160405280600381526020017f30303000000000000000000000000000000000000000000000000000000000008152506001908051906020019062000141929190620002f5565b50620002206040518060400160405280601b81526020017f4368616e67696e67206772656574696e672066726f6d20272573270000000000815250600180546200018b9062000473565b80601f0160208091040260200160405190810160405280929190818152602001828054620001b99062000473565b80156200020a5780601f10620001de576101008083540402835291602001916200020a565b820191906000526020600020905b815481529060010190602001808311620001ec57829003601f168201915b50505050506200022660201b620007701760201c565b620004e9565b620002c882826040516024016200023f929190620003e6565b6040516020818303038152906040527f4b5c4277000000000000000000000000000000000000000000000000000000007bffffffffffffffffffffffffffffffffffffffffffffffffffffffff19166020820180517bffffffffffffffffffffffffffffffffffffffffffffffffffffffff8381831617835250505050620002cc60201b60201c565b5050565b60008151905060006a636f6e736f6c652e6c6f679050602083016000808483855afa5050505050565b828054620003039062000473565b90600052602060002090601f01602090048101928262000327576000855562000373565b82601f106200034257805160ff191683800117855562000373565b8280016001018555821562000373579182015b828111156200037257825182559160200191906001019062000355565b5b50905062000382919062000386565b5090565b5b80821115620003a157600081600090555060010162000387565b5090565b6000620003b28262000421565b620003be81856200042c565b9350620003d08185602086016200043d565b620003db81620004d8565b840191505092915050565b60006040820190508181036000830152620004028185620003a5565b90508181036020830152620004188184620003a5565b90509392505050565b600081519050919050565b600082825260208201905092915050565b60005b838110156200045d57808201518184015260208101905062000440565b838111156200046d576000848401525b50505050565b600060028204905060018216806200048c57607f821691505b60208210811415620004a357620004a2620004a9565b5b50919050565b7f4e487b7100000000000000000000000000000000000000000000000000000000600052602260045260246000fd5b6000601f19601f8301169050919050565b61127080620004f96000396000f3fe608060405234801561001057600080fd5b50600436106100a95760003560e01c806345646d791161007157806345646d791461013057806370a082311461014c578063a41368621461017c578063a9059cbb14610198578063bad3d107146101b4578063cfae3217146101d0576100a9565b8063050d4f78146100ae57806306fdde03146100cc57806318160ddd146100ea5780631aa3a00814610108578063378dc3dc14610112575b600080fd5b6100b66101ee565b6040516100c39190610d6d565b60405180910390f35b6100d4610214565b6040516100e19190610db1565b60405180910390f35b6100f26102a2565b6040516100ff9190610ec8565b60405180910390f35b6101106102a8565b005b61011a6102f0565b6040516101279190610ec8565b60405180910390f35b61014a60048036038101906101459190610bb5565b6102f6565b005b61016660048036038101906101619190610b50565b6102f9565b6040516101739190610ec8565b60405180910390f35b61019660048036038101906101919190610bf6565b610381565b005b6101b260048036038101906101ad9190610b79565b610480565b005b6101ce60048036038101906101c99190610c37565b61062a565b005b6101d86106de565b6040516101e59190610db1565b60405180910390f35b600560009054906101000a900473ffffffffffffffffffffffffffffffffffffffff1681565b60008054610221906110a8565b80601f016020809104026020016040519081016040528092919081815260200182805461024d906110a8565b801561029a5780601f1061026f5761010080835404028352916020019161029a565b820191906000526020600020905b81548152906001019060200180831161027d57829003601f168201915b505050505081565b60025481565b600354600460003373ffffffffffffffffffffffffffffffffffffffff1673ffffffffffffffffffffffffffffffffffffffff16815260200190815260200160002081905550565b60035481565b50565b600061033a6040518060400160405280601381526020017f4765742062616c616e6365206f662027257327000000000000000000000000008152508361080c565b600460008373ffffffffffffffffffffffffffffffffffffffff1673ffffffffffffffffffffffffffffffffffffffff168152602001908152602001600020549050919050565b61042e60405180606001604052806023815260200161121860239139600180546103aa906110a8565b80601f01602080910402602001604051908101604052809291908181526020018280546103d6906110a8565b80156104235780601f106103f857610100808354040283529160200191610423565b820191906000526020600020905b81548152906001019060200180831161040657829003601f168201915b5050505050836108a8565b8060019080519060200190610444929190610970565b507f57a57a410b51ac4751ea694c91cdcca4d61b6d997d46fb997eddc7d51334174260016040516104759190610e86565b60405180910390a150565b80600460003373ffffffffffffffffffffffffffffffffffffffff1673ffffffffffffffffffffffffffffffffffffffff168152602001908152602001600020541015610502576040517f08c379a00000000000000000000000000000000000000000000000000000000081526004016104f990610ea8565b60405180910390fd5b80600460003373ffffffffffffffffffffffffffffffffffffffff1673ffffffffffffffffffffffffffffffffffffffff16815260200190815260200160002060008282546105519190610fec565b9250508190555080600460008473ffffffffffffffffffffffffffffffffffffffff1673ffffffffffffffffffffffffffffffffffffffff16815260200190815260200160002060008282546105a79190610f96565b925050819055507f364bc05a26076a4b591d11ae973bbc492605b49c871783d787f183e58f3fe08e33600460003373ffffffffffffffffffffffffffffffffffffffff1673ffffffffffffffffffffffffffffffffffffffff1681526020019081526020016000205460405161061e929190610d88565b60405180910390a15050565b600560009054906101000a900473ffffffffffffffffffffffffffffffffffffffff1673ffffffffffffffffffffffffffffffffffffffff163373ffffffffffffffffffffffffffffffffffffffff161461068457600080fd5b81600460008373ffffffffffffffffffffffffffffffffffffffff1673ffffffffffffffffffffffffffffffffffffffff16815260200190815260200160002060008282546106d39190610f96565b925050819055505050565b6060600180546106ed906110a8565b80601f0160208091040260200160405190810160405280929190818152602001828054610719906110a8565b80156107665780601f1061073b57610100808354040283529160200191610766565b820191906000526020600020905b81548152906001019060200180831161074957829003601f168201915b5050505050905090565b6108088282604051602401610786929190610e03565b6040516020818303038152906040527f4b5c4277000000000000000000000000000000000000000000000000000000007bffffffffffffffffffffffffffffffffffffffffffffffffffffffff19166020820180517bffffffffffffffffffffffffffffffffffffffffffffffffffffffff8381831617835250505050610947565b5050565b6108a48282604051602401610822929190610dd3565b6040516020818303038152906040527f319af333000000000000000000000000000000000000000000000000000000007bffffffffffffffffffffffffffffffffffffffffffffffffffffffff19166020820180517bffffffffffffffffffffffffffffffffffffffffffffffffffffffff8381831617835250505050610947565b5050565b6109428383836040516024016108c093929190610e3a565b6040516020818303038152906040527f2ced7cef000000000000000000000000000000000000000000000000000000007bffffffffffffffffffffffffffffffffffffffffffffffffffffffff19166020820180517bffffffffffffffffffffffffffffffffffffffffffffffffffffffff8381831617835250505050610947565b505050565b60008151905060006a636f6e736f6c652e6c6f679050602083016000808483855afa5050505050565b82805461097c906110a8565b90600052602060002090601f01602090048101928261099e57600085556109e5565b82601f106109b757805160ff19168380011785556109e5565b828001600101855582156109e5579182015b828111156109e45782518255916020019190600101906109c9565b5b5090506109f291906109f6565b5090565b5b80821115610a0f5760008160009055506001016109f7565b5090565b6000610a26610a2184610f08565b610ee3565b90508083825260208201905082856020860282011115610a4557600080fd5b60005b85811015610a755781610a5b8882610afc565b845260208401935060208301925050600181019050610a48565b5050509392505050565b6000610a92610a8d84610f34565b610ee3565b905082815260208101848484011115610aaa57600080fd5b610ab5848285611066565b509392505050565b600081359050610acc816111d2565b92915050565b600082601f830112610ae357600080fd5b8135610af3848260208601610a13565b91505092915050565b600081359050610b0b816111e9565b92915050565b600082601f830112610b2257600080fd5b8135610b32848260208601610a7f565b91505092915050565b600081359050610b4a81611200565b92915050565b600060208284031215610b6257600080fd5b6000610b7084828501610abd565b91505092915050565b60008060408385031215610b8c57600080fd5b6000610b9a85828601610abd565b9250506020610bab85828601610b3b565b9150509250929050565b600060208284031215610bc757600080fd5b600082013567ffffffffffffffff811115610be157600080fd5b610bed84828501610ad2565b91505092915050565b600060208284031215610c0857600080fd5b600082013567ffffffffffffffff811115610c2257600080fd5b610c2e84828501610b11565b91505092915050565b60008060408385031215610c4a57600080fd5b6000610c5885828601610b3b565b9250506020610c6985828601610abd565b9150509250929050565b610c7c81611020565b82525050565b6000610c8d82610f7a565b610c978185610f85565b9350610ca7818560208601611075565b610cb081611198565b840191505092915050565b60008154610cc8816110a8565b610cd28186610f85565b94506001821660008114610ced5760018114610cff57610d32565b60ff1983168652602086019350610d32565b610d0885610f65565b60005b83811015610d2a57815481890152600182019150602081019050610d0b565b808801955050505b50505092915050565b6000610d48601183610f85565b9150610d53826111a9565b602082019050919050565b610d678161105c565b82525050565b6000602082019050610d826000830184610c73565b92915050565b6000604082019050610d9d6000830185610c73565b610daa6020830184610d5e565b9392505050565b60006020820190508181036000830152610dcb8184610c82565b905092915050565b60006040820190508181036000830152610ded8185610c82565b9050610dfc6020830184610c73565b9392505050565b60006040820190508181036000830152610e1d8185610c82565b90508181036020830152610e318184610c82565b90509392505050565b60006060820190508181036000830152610e548186610c82565b90508181036020830152610e688185610c82565b90508181036040830152610e7c8184610c82565b9050949350505050565b60006020820190508181036000830152610ea08184610cbb565b905092915050565b60006020820190508181036000830152610ec181610d3b565b9050919050565b6000602082019050610edd6000830184610d5e565b92915050565b6000610eed610efe565b9050610ef982826110da565b919050565b6000604051905090565b600067ffffffffffffffff821115610f2357610f22611169565b5b602082029050602081019050919050565b600067ffffffffffffffff821115610f4f57610f4e611169565b5b610f5882611198565b9050602081019050919050565b60008190508160005260206000209050919050565b600081519050919050565b600082825260208201905092915050565b6000610fa18261105c565b9150610fac8361105c565b9250827fffffffffffffffffffffffffffffffffffffffffffffffffffffffffffffffff03821115610fe157610fe061110b565b5b828201905092915050565b6000610ff78261105c565b91506110028361105c565b9250828210156110155761101461110b565b5b828203905092915050565b600061102b8261103c565b9050919050565b6000819050919050565b600073ffffffffffffffffffffffffffffffffffffffff82169050919050565b6000819050919050565b82818337600083830152505050565b60005b83811015611093578082015181840152602081019050611078565b838111156110a2576000848401525b50505050565b600060028204905060018216806110c057607f821691505b602082108114156110d4576110d361113a565b5b50919050565b6110e382611198565b810181811067ffffffffffffffff8211171561110257611101611169565b5b80604052505050565b7f4e487b7100000000000000000000000000000000000000000000000000000000600052601160045260246000fd5b7f4e487b7100000000000000000000000000000000000000000000000000000000600052602260045260246000fd5b7f4e487b7100000000000000000000000000000000000000000000000000000000600052604160045260246000fd5b6000601f19601f8301169050919050565b7f4e6f7420656e6f75676820746f6b656e73000000000000000000000000000000600082015250565b6111db81611020565b81146111e657600080fd5b50565b6111f281611032565b81146111fd57600080fd5b50565b6112098161105c565b811461121457600080fd5b5056fe4368616e67696e67206772656574696e672066726f6d202725732720746f2027257327a2646970667358221220386933999d10c68b058e8dd80dc9e3d359b976f00609c2ecf7e64d810689c52c64736f6c63430008040033",
  "linkReferences": {},
  "deployedLinkReferences": {}
}