{
  "_format": "hh-sol-artifact-1",
  "contractName": "XContract",
  "sourceName": "contracts/XContract.sol",
  "abi": [
    {
      "inputs": [],
      "stateMutability": "nonpayable",
      "type": "constructor"
    },
    {
      "anonymous": false,
      "inputs": [
        {
          "indexed": false,
          "internalType": "string",
          "name": "pk",
          "type": "string"
        }
      ],
      "name": "InitBalance",
      "type": "event"
    },
    {
      "anonymous": false,
      "inputs": [
        {
          "indexed": false,
          "internalType": "uint256",
          "name": "id",
          "type": "uint256"
        },
        {
          "indexed": false,
          "internalType": "string",
          "name": "rangeproof1",
          "type": "string"
        },
        {
          "indexed": false,
          "internalType": "string",
          "name": "rangeproof2",
          "type": "string"
        },
        {
          "indexed": false,
          "internalType": "string",
          "name": "sigmaProof",
          "type": "string"
        },
        {
          "indexed": false,
          "internalType": "string",
          "name": "input",
          "type": "string"
        }
      ],
      "name": "NewConfTransfer",
      "type": "event"
    },
    {
      "anonymous": false,
      "inputs": [
        {
          "indexed": false,
          "internalType": "uint256",
          "name": "id",
          "type": "uint256"
        },
        {
          "indexed": false,
          "internalType": "string",
          "name": "CL_price",
          "type": "string"
        },
        {
          "indexed": false,
          "internalType": "string",
          "name": "CR_price",
          "type": "string"
        }
      ],
      "name": "NewPrice",
      "type": "event"
    },
    {
      "anonymous": false,
      "inputs": [
        {
          "indexed": false,
          "internalType": "uint256",
          "name": "id",
          "type": "uint256"
        },
        {
          "indexed": false,
          "internalType": "string",
          "name": "proof",
          "type": "string"
        }
      ],
      "name": "NewRequest",
      "type": "event"
    },
    {
      "anonymous": false,
      "inputs": [
        {
          "indexed": false,
          "internalType": "string",
          "name": "newMsg",
          "type": "string"
        }
      ],
      "name": "TestMsg",
      "type": "event"
    },
    {
      "anonymous": false,
      "inputs": [
        {
          "indexed": false,
          "internalType": "address",
          "name": "add",
          "type": "address"
        },
        {
          "indexed": false,
          "internalType": "uint256",
          "name": "balance",
          "type": "uint256"
        }
      ],
      "name": "UpdateState",
      "type": "event"
    },
    {
      "anonymous": false,
      "inputs": [
        {
          "indexed": false,
          "internalType": "uint256",
          "name": "id",
          "type": "uint256"
        },
        {
          "indexed": false,
          "internalType": "string",
          "name": "CL_price",
          "type": "string"
        },
        {
          "indexed": false,
          "internalType": "string",
          "name": "CR_price",
          "type": "string"
        },
        {
          "indexed": false,
          "internalType": "string",
          "name": "bidderKey",
          "type": "string"
        }
      ],
      "name": "makeDeal",
      "type": "event"
    },
    {
      "inputs": [
        {
          "internalType": "string",
          "name": "y",
          "type": "string"
        }
      ],
      "name": "ElBalanceOf",
      "outputs": [
        {
          "components": [
            {
              "internalType": "string",
              "name": "CL",
              "type": "string"
            },
            {
              "internalType": "string",
              "name": "CR",
              "type": "string"
            }
          ],
          "internalType": "struct XContract.ElBalance",
          "name": "",
          "type": "tuple"
        }
      ],
      "stateMutability": "view",
      "type": "function"
    },
    {
      "inputs": [
        {
          "internalType": "uint256",
          "name": "requestId",
          "type": "uint256"
        },
        {
          "internalType": "uint256",
          "name": "dealId",
          "type": "uint256"
        },
        {
          "internalType": "string",
          "name": "requestId_str",
          "type": "string"
        }
      ],
      "name": "acceptDeal",
      "outputs": [],
      "stateMutability": "nonpayable",
      "type": "function"
    },
    {
      "inputs": [],
      "name": "association",
      "outputs": [
        {
          "internalType": "address",
          "name": "",
          "type": "address"
        }
      ],
      "stateMutability": "view",
      "type": "function"
    },
    {
      "inputs": [
        {
          "internalType": "address[]",
          "name": "newAcc",
          "type": "address[]"
        }
      ],
      "name": "authorizeNewUser",
      "outputs": [],
      "stateMutability": "nonpayable",
      "type": "function"
    },
    {
      "inputs": [],
      "name": "balanceOf",
      "outputs": [
        {
          "components": [
            {
              "internalType": "string",
              "name": "CL",
              "type": "string"
            },
            {
              "internalType": "string",
              "name": "CR",
              "type": "string"
            }
          ],
          "internalType": "struct XContract.ElBalance",
          "name": "",
          "type": "tuple"
        }
      ],
      "stateMutability": "view",
      "type": "function"
    },
    {
      "inputs": [
        {
          "internalType": "address",
          "name": "newAcc",
          "type": "address"
        }
      ],
      "name": "checkAuthorizeNewUser",
      "outputs": [
        {
          "internalType": "bool",
          "name": "",
          "type": "bool"
        }
      ],
      "stateMutability": "view",
      "type": "function"
    },
    {
      "inputs": [],
      "name": "checkAuthorized",
      "outputs": [
        {
          "internalType": "bool",
          "name": "",
          "type": "bool"
        }
      ],
      "stateMutability": "view",
      "type": "function"
    },
    {
      "inputs": [
        {
          "internalType": "string",
          "name": "proofForAmt",
          "type": "string"
        },
        {
          "internalType": "string",
          "name": "proofForRemainBalance",
          "type": "string"
        },
        {
          "internalType": "string",
          "name": "sigmaProof",
          "type": "string"
        },
        {
          "internalType": "string",
          "name": "input",
          "type": "string"
        }
      ],
      "name": "confTransfer",
      "outputs": [],
      "stateMutability": "nonpayable",
      "type": "function"
    },
    {
      "inputs": [
        {
          "internalType": "uint256",
          "name": "id",
          "type": "uint256"
        },
        {
          "internalType": "bool",
          "name": "res",
          "type": "bool"
        }
      ],
      "name": "confirmProof",
      "outputs": [],
      "stateMutability": "nonpayable",
      "type": "function"
    },
    {
      "inputs": [],
      "name": "fetchPubkey",
      "outputs": [
        {
          "internalType": "string",
          "name": "",
          "type": "string"
        }
      ],
      "stateMutability": "view",
      "type": "function"
    },
    {
      "inputs": [],
      "name": "getAllAvailableTasks",
      "outputs": [
        {
          "components": [
            {
              "internalType": "uint256",
              "name": "id",
              "type": "uint256"
            },
            {
              "internalType": "string",
              "name": "content",
              "type": "string"
            },
            {
              "internalType": "string",
              "name": "pubkeyOfSender",
              "type": "string"
            },
            {
              "internalType": "enum XContract.State",
              "name": "state",
              "type": "uint8"
            }
          ],
          "internalType": "struct XContract.Request[]",
          "name": "",
          "type": "tuple[]"
        }
      ],
      "stateMutability": "view",
      "type": "function"
    },
    {
      "inputs": [],
      "name": "getMessages",
      "outputs": [
        {
          "internalType": "string[]",
          "name": "",
          "type": "string[]"
        }
      ],
      "stateMutability": "view",
      "type": "function"
    },
    {
      "inputs": [],
      "name": "getYourTasks",
      "outputs": [
        {
          "components": [
            {
              "internalType": "uint256",
              "name": "id",
              "type": "uint256"
            },
            {
              "internalType": "string",
              "name": "content",
              "type": "string"
            },
            {
              "internalType": "string",
              "name": "pubkeyOfSender",
              "type": "string"
            },
            {
              "internalType": "enum XContract.State",
              "name": "state",
              "type": "uint8"
            }
          ],
          "internalType": "struct XContract.Request[]",
          "name": "",
          "type": "tuple[]"
        }
      ],
      "stateMutability": "view",
      "type": "function"
    },
    {
      "inputs": [],
      "name": "greet",
      "outputs": [
        {
          "internalType": "string",
          "name": "",
          "type": "string"
        }
      ],
      "stateMutability": "view",
      "type": "function"
    },
    {
      "inputs": [],
      "name": "hasPubKey",
      "outputs": [
        {
          "internalType": "bool",
          "name": "",
          "type": "bool"
        }
      ],
      "stateMutability": "view",
      "type": "function"
    },
    {
      "inputs": [
        {
          "internalType": "string",
          "name": "y",
          "type": "string"
        },
        {
          "internalType": "string",
          "name": "cL",
          "type": "string"
        },
        {
          "internalType": "string",
          "name": "cR",
          "type": "string"
        }
      ],
      "name": "initPocket",
      "outputs": [],
      "stateMutability": "nonpayable",
      "type": "function"
    },
    {
      "inputs": [],
      "name": "initialSupply",
      "outputs": [
        {
          "internalType": "uint256",
          "name": "",
          "type": "uint256"
        }
      ],
      "stateMutability": "view",
      "type": "function"
    },
    {
      "inputs": [
        {
          "internalType": "uint256",
          "name": "id",
          "type": "uint256"
        }
      ],
      "name": "loadOffers",
      "outputs": [
        {
          "components": [
            {
              "internalType": "uint256",
              "name": "dealId",
              "type": "uint256"
            },
            {
              "components": [
                {
                  "internalType": "string",
                  "name": "CL",
                  "type": "string"
                },
                {
                  "internalType": "string",
                  "name": "CR",
                  "type": "string"
                }
              ],
              "internalType": "struct XContract.ElBalance",
              "name": "price",
              "type": "tuple"
            },
            {
              "internalType": "uint256",
              "name": "requestId",
              "type": "uint256"
            },
            {
              "internalType": "enum XContract.DealState",
              "name": "state",
              "type": "uint8"
            },
            {
              "internalType": "string",
              "name": "bidder",
              "type": "string"
            }
          ],
          "internalType": "struct XContract.Deal[]",
          "name": "",
          "type": "tuple[]"
        }
      ],
      "stateMutability": "view",
      "type": "function"
    },
    {
      "inputs": [],
      "name": "name",
      "outputs": [
        {
          "internalType": "string",
          "name": "",
          "type": "string"
        }
      ],
      "stateMutability": "view",
      "type": "function"
    },
    {
      "inputs": [
        {
          "internalType": "string",
          "name": "_task",
          "type": "string"
        }
      ],
      "name": "postTask",
      "outputs": [],
      "stateMutability": "nonpayable",
      "type": "function"
    },
    {
      "inputs": [
        {
          "internalType": "uint256",
          "name": "requestId",
          "type": "uint256"
        },
        {
          "internalType": "string",
          "name": "CL_price",
          "type": "string"
        },
        {
          "internalType": "string",
          "name": "CR_price",
          "type": "string"
        }
      ],
      "name": "raiseAPrice",
      "outputs": [],
      "stateMutability": "nonpayable",
      "type": "function"
    },
    {
      "inputs": [],
      "name": "totalSupply",
      "outputs": [
        {
          "internalType": "uint256",
          "name": "",
          "type": "uint256"
        }
      ],
      "stateMutability": "view",
      "type": "function"
    },
    {
      "inputs": [
        {
          "internalType": "string",
          "name": "y",
          "type": "string"
        },
        {
          "internalType": "string",
          "name": "C1",
          "type": "string"
        },
        {
          "internalType": "string",
          "name": "C2",
          "type": "string"
        },
        {
          "internalType": "string",
          "name": "yr",
          "type": "string"
        },
        {
          "internalType": "string",
          "name": "C3",
          "type": "string"
        },
        {
          "internalType": "string",
          "name": "C4",
          "type": "string"
        }
      ],
      "name": "updateBalance",
      "outputs": [],
      "stateMutability": "nonpayable",
      "type": "function"
    }
  ],
  "bytecode": "0x60806040526040518060400160405280600981526020017f58636f6e747261637400000000000000000000000000000000000000000000008152506000908051906020019062000051929190620002a9565b50620f42406002556127106003556040518060200160405280600081525060049080519060200190620000869291906200033a565b503480156200009457600080fd5b506001600560003373ffffffffffffffffffffffffffffffffffffffff1673ffffffffffffffffffffffffffffffffffffffff16815260200190815260200160002060006101000a81548160ff02191690831515021790555033600c60006101000a81548173ffffffffffffffffffffffffffffffffffffffff021916908373ffffffffffffffffffffffffffffffffffffffff1602179055506040518060400160405280600381526020017f3030300000000000000000000000000000000000000000000000000000000000815250600190805190602001906200017b929190620002a9565b50620001c76040518060400160405280601381526020017f4465706c6f79205375636365737366756c6c2000000000000000000000000000815250620001dd60201b620033c81760201c565b6000601081905550600060118190555062000517565b6200027d81604051602401620001f491906200042b565b6040516020818303038152906040527f41304fac000000000000000000000000000000000000000000000000000000007bffffffffffffffffffffffffffffffffffffffffffffffffffffffff19166020820180517bffffffffffffffffffffffffffffffffffffffffffffffffffffffff83818316178352505050506200028060201b60201c565b50565b60008151905060006a636f6e736f6c652e6c6f679050602083016000808483855afa5050505050565b828054620002b790620004a1565b90600052602060002090601f016020900481019282620002db576000855562000327565b82601f10620002f657805160ff191683800117855562000327565b8280016001018555821562000327579182015b828111156200032657825182559160200191906001019062000309565b5b509050620003369190620003cb565b5090565b8280546200034890620004a1565b90600052602060002090601f0160209004810192826200036c5760008555620003b8565b82601f106200038757805160ff1916838001178555620003b8565b82800160010185558215620003b8579182015b82811115620003b75782518255916020019190600101906200039a565b5b509050620003c79190620003cb565b5090565b5b80821115620003e6576000816000905550600101620003cc565b5090565b6000620003f7826200044f565b6200040381856200045a565b9350620004158185602086016200046b565b620004208162000506565b840191505092915050565b60006020820190508181036000830152620004478184620003ea565b905092915050565b600081519050919050565b600082825260208201905092915050565b60005b838110156200048b5780820151818401526020810190506200046e565b838111156200049b576000848401525b50505050565b60006002820490506001821680620004ba57607f821691505b60208210811415620004d157620004d0620004d7565b5b50919050565b7f4e487b7100000000000000000000000000000000000000000000000000000000600052602260045260246000fd5b6000601f19601f8301169050919050565b614dc380620005276000396000f3fe608060405234801561001057600080fd5b506004361061014d5760003560e01c80635ff6cbf3116100c3578063883764b11161007c578063883764b11461037c578063c4ca280d1461039a578063cfae3217146103b6578063d8b86fec146103d4578063ec406e9b146103f0578063f844dcc81461040e5761014d565b80635ff6cbf3146102b857806362746e6c146102d6578063712bef91146102f4578063722713f714610324578063817f4e3d146103425780638655854c146103605761014d565b80634118b16f116101155780634118b16f146101e6578063496cb056146102025780634f193a9114610232578063509145db146102625780635c260e501461027e5780635f32b6db1461029c5761014d565b8063050d4f781461015257806306fdde031461017057806318160ddd1461018e578063378dc3dc146101ac5780633a2568e9146101ca575b600080fd5b61015a61042a565b604051610167919061448e565b60405180910390f35b610178610450565b604051610185919061452a565b60405180910390f35b6101966104de565b6040516101a391906146bf565b60405180910390f35b6101b46104e4565b6040516101c191906146bf565b60405180910390f35b6101e460048036038101906101df9190613c46565b6104ea565b005b61020060048036038101906101fb9190613a41565b610596565b005b61021c600480360381019061021791906138f2565b6106c8565b604051610229919061450f565b60405180910390f35b61024c60048036038101906102479190613c1d565b6107ae565b60405161025991906144cb565b60405180910390f35b61027c6004803603810190610277919061391b565b610c13565b005b610286610d5e565b604051610293919061450f565b60405180910390f35b6102b660048036038101906102b19190613b04565b610e58565b005b6102c0610f40565b6040516102cd91906144a9565b60405180910390f35b6102de611195565b6040516102eb919061450f565b60405180910390f35b61030e60048036038101906103099190613a00565b6111e9565b60405161031b919061469d565b60405180910390f35b61032c611384565b604051610339919061469d565b60405180910390f35b61034a611580565b604051610357919061452a565b60405180910390f35b61037a6004803603810190610375919061395c565b6116ac565b005b610384611abb565b60405161039191906144ed565b60405180910390f35b6103b460048036038101906103af9190613a00565b611dfb565b005b6103be612128565b6040516103cb919061452a565b60405180910390f35b6103ee60048036038101906103e99190613c82565b6121ba565b005b6103f86125be565b60405161040591906144ed565b60405180910390f35b61042860048036038101906104239190613d01565b6129b5565b005b600c60009054906101000a900473ffffffffffffffffffffffffffffffffffffffff1681565b6000805461045d90614a36565b80601f016020809104026020016040519081016040528092919081815260200182805461048990614a36565b80156104d65780601f106104ab576101008083540402835291602001916104d6565b820191906000526020600020905b8154815290600101906020018083116104b957829003601f168201915b505050505081565b60025481565b60035481565b600115158115151415610592576001600d8381548110610533577f4e487b7100000000000000000000000000000000000000000000000000000000600052603260045260246000fd5b906000526020600020906004020160030160006101000a81548160ff0219169083600481111561058c577f4e487b7100000000000000000000000000000000000000000000000000000000600052602160045260246000fd5b02179055505b5050565b60011515600560003373ffffffffffffffffffffffffffffffffffffffff1673ffffffffffffffffffffffffffffffffffffffff16815260200190815260200160002060009054906101000a900460ff16151514610629576040517f08c379a00000000000000000000000000000000000000000000000000000000081526004016106209061461d565b60405180910390fd5b6106676040518060400160405280600b81526020017f54657374204576656e74270000000000000000000000000000000000000000008152506133c8565b7f2dddc06b1340f27d89cf9e1783165857c901b8fb2d67ac8443c795ec43ff341f601154858585856040516106a09594939291906146da565b60405180910390a16001601160008282546106bb91906148d8565b9250508190555050505050565b6000600c60009054906101000a900473ffffffffffffffffffffffffffffffffffffffff1673ffffffffffffffffffffffffffffffffffffffff163373ffffffffffffffffffffffffffffffffffffffff161461075a576040517f08c379a0000000000000000000000000000000000000000000000000000000008152600401610751906145dd565b60405180910390fd5b600560008373ffffffffffffffffffffffffffffffffffffffff1673ffffffffffffffffffffffffffffffffffffffff16815260200190815260200160002060009054906101000a900460ff169050919050565b60606000600d83815481106107ec577f4e487b7100000000000000000000000000000000000000000000000000000000600052603260045260246000fd5b9060005260206000209060040201600201805461080890614a36565b80601f016020809104026020016040519081016040528092919081815260200182805461083490614a36565b80156108815780601f1061085657610100808354040283529160200191610881565b820191906000526020600020905b81548152906001019060200180831161086457829003601f168201915b50505050509050610891816133c8565b3373ffffffffffffffffffffffffffffffffffffffff166008826040516108b891906143eb565b908152602001604051809103902060009054906101000a900473ffffffffffffffffffffffffffffffffffffffff1673ffffffffffffffffffffffffffffffffffffffff161461093d576040517f08c379a0000000000000000000000000000000000000000000000000000000008152600401610934906145fd565b60405180910390fd5b600a6000848152602001908152602001600020805480602002602001604051908101604052809291908181526020016000905b82821015610c0757838290600052602060002090600602016040518060a001604052908160008201548152602001600182016040518060400160405290816000820180546109bd90614a36565b80601f01602080910402602001604051908101604052809291908181526020018280546109e990614a36565b8015610a365780601f10610a0b57610100808354040283529160200191610a36565b820191906000526020600020905b815481529060010190602001808311610a1957829003601f168201915b50505050508152602001600182018054610a4f90614a36565b80601f0160208091040260200160405190810160405280929190818152602001828054610a7b90614a36565b8015610ac85780601f10610a9d57610100808354040283529160200191610ac8565b820191906000526020600020905b815481529060010190602001808311610aab57829003601f168201915b5050505050815250508152602001600382015481526020016004820160009054906101000a900460ff166002811115610b2a577f4e487b7100000000000000000000000000000000000000000000000000000000600052602160045260246000fd5b6002811115610b62577f4e487b7100000000000000000000000000000000000000000000000000000000600052602160045260246000fd5b8152602001600582018054610b7690614a36565b80601f0160208091040260200160405190810160405280929190818152602001828054610ba290614a36565b8015610bef5780601f10610bc457610100808354040283529160200191610bef565b820191906000526020600020905b815481529060010190602001808311610bd257829003601f168201915b50505050508152505081526020019060010190610970565b50505050915050919050565b600c60009054906101000a900473ffffffffffffffffffffffffffffffffffffffff1673ffffffffffffffffffffffffffffffffffffffff163373ffffffffffffffffffffffffffffffffffffffff1614610ca3576040517f08c379a0000000000000000000000000000000000000000000000000000000008152600401610c9a906145dd565b60405180910390fd5b60005b8151811015610d5a57600160056000848481518110610cee577f4e487b7100000000000000000000000000000000000000000000000000000000600052603260045260246000fd5b602002602001015173ffffffffffffffffffffffffffffffffffffffff1673ffffffffffffffffffffffffffffffffffffffff16815260200190815260200160002060006101000a81548160ff0219169083151502179055508080610d5290614a99565b915050610ca6565b5050565b600060011515600560003373ffffffffffffffffffffffffffffffffffffffff1673ffffffffffffffffffffffffffffffffffffffff16815260200190815260200160002060009054906101000a900460ff16151514610df3576040517f08c379a0000000000000000000000000000000000000000000000000000000008152600401610dea906145dd565b60405180910390fd5b6000600660003373ffffffffffffffffffffffffffffffffffffffff1673ffffffffffffffffffffffffffffffffffffffff1681526020019081526020016000208054610e3f90614a36565b90501415610e505760009050610e55565b600190505b90565b604051806040016040528086815260200185815250600787604051610e7d91906143eb565b90815260200160405180910390206000820151816000019080519060200190610ea79291906135c8565b506020820151816001019080519060200190610ec49291906135c8565b50905050604051806040016040528083815260200182815250600784604051610eed91906143eb565b90815260200160405180910390206000820151816000019080519060200190610f179291906135c8565b506020820151816001019080519060200190610f349291906135c8565b50905050505050505050565b606060011515600560003373ffffffffffffffffffffffffffffffffffffffff1673ffffffffffffffffffffffffffffffffffffffff16815260200190815260200160002060009054906101000a900460ff16151514610fd5576040517f08c379a0000000000000000000000000000000000000000000000000000000008152600401610fcc9061463d565b60405180910390fd5b6000600660003373ffffffffffffffffffffffffffffffffffffffff1673ffffffffffffffffffffffffffffffffffffffff168152602001908152602001600020805461102190614a36565b80601f016020809104026020016040519081016040528092919081815260200182805461104d90614a36565b801561109a5780601f1061106f5761010080835404028352916020019161109a565b820191906000526020600020905b81548152906001019060200180831161107d57829003601f168201915b50505050509050600b816040516110b191906143eb565b9081526020016040518091039020805480602002602001604051908101604052809291908181526020016000905b8282101561118b5783829060005260206000200180546110fe90614a36565b80601f016020809104026020016040519081016040528092919081815260200182805461112a90614a36565b80156111775780601f1061114c57610100808354040283529160200191611177565b820191906000526020600020905b81548152906001019060200180831161115a57829003601f168201915b5050505050815260200190600101906110df565b5050505091505090565b6000600560003373ffffffffffffffffffffffffffffffffffffffff1673ffffffffffffffffffffffffffffffffffffffff16815260200190815260200160002060009054906101000a900460ff16905090565b6111f161364e565b6112306040518060400160405280600781526020017f73656e646572200000000000000000000000000000000000000000000000000081525033613461565b60078260405161124091906143eb565b908152602001604051809103902060405180604001604052908160008201805461126990614a36565b80601f016020809104026020016040519081016040528092919081815260200182805461129590614a36565b80156112e25780601f106112b7576101008083540402835291602001916112e2565b820191906000526020600020905b8154815290600101906020018083116112c557829003601f168201915b505050505081526020016001820180546112fb90614a36565b80601f016020809104026020016040519081016040528092919081815260200182805461132790614a36565b80156113745780601f1061134957610100808354040283529160200191611374565b820191906000526020600020905b81548152906001019060200180831161135757829003601f168201915b5050505050815250509050919050565b61138c61364e565b60001515600560003373ffffffffffffffffffffffffffffffffffffffff1673ffffffffffffffffffffffffffffffffffffffff16815260200190815260200160002060009054906101000a900460ff16151514156113ea57600080fd5b6000600660003373ffffffffffffffffffffffffffffffffffffffff1673ffffffffffffffffffffffffffffffffffffffff168152602001908152602001600020905060078160405161143d9190614419565b908152602001604051809103902060405180604001604052908160008201805461146690614a36565b80601f016020809104026020016040519081016040528092919081815260200182805461149290614a36565b80156114df5780601f106114b4576101008083540402835291602001916114df565b820191906000526020600020905b8154815290600101906020018083116114c257829003601f168201915b505050505081526020016001820180546114f890614a36565b80601f016020809104026020016040519081016040528092919081815260200182805461152490614a36565b80156115715780601f1061154657610100808354040283529160200191611571565b820191906000526020600020905b81548152906001019060200180831161155457829003601f168201915b50505050508152505091505090565b606060011515600560003373ffffffffffffffffffffffffffffffffffffffff1673ffffffffffffffffffffffffffffffffffffffff16815260200190815260200160002060009054906101000a900460ff161515146115df57600080fd5b600660003373ffffffffffffffffffffffffffffffffffffffff1673ffffffffffffffffffffffffffffffffffffffff168152602001908152602001600020805461162990614a36565b80601f016020809104026020016040519081016040528092919081815260200182805461165590614a36565b80156116a25780601f10611677576101008083540402835291602001916116a2565b820191906000526020600020905b81548152906001019060200180831161168557829003601f168201915b5050505050905090565b60011515600560003373ffffffffffffffffffffffffffffffffffffffff1673ffffffffffffffffffffffffffffffffffffffff16815260200190815260200160002060009054906101000a900460ff1615151461173f576040517f08c379a00000000000000000000000000000000000000000000000000000000081526004016117369061461d565b60405180910390fd5b8585600660003373ffffffffffffffffffffffffffffffffffffffff1673ffffffffffffffffffffffffffffffffffffffff168152602001908152602001600020919061178d929190613668565b5033600887876040516117a19291906143d2565b908152602001604051809103902060006101000a81548173ffffffffffffffffffffffffffffffffffffffff021916908373ffffffffffffffffffffffffffffffffffffffff160217905550604051806040016040528085858080601f016020809104026020016040519081016040528093929190818152602001838380828437600081840152601f19601f82011690508083019250505050505050815260200183838080601f016020809104026020016040519081016040528093929190818152602001838380828437600081840152601f19601f820116905080830192505050505050508152506007878760405161189c9291906143d2565b908152602001604051809103902060008201518160000190805190602001906118c69291906135c8565b5060208201518160010190805190602001906118e39291906135c8565b50905050611ab36040518060400160405280600b81526020017f73656e6465722061636320000000000000000000000000000000000000000000815250600788886040516119329291906143d2565b9081526020016040518091039020600001805461194e90614a36565b80601f016020809104026020016040519081016040528092919081815260200182805461197a90614a36565b80156119c75780601f1061199c576101008083540402835291602001916119c7565b820191906000526020600020905b8154815290600101906020018083116119aa57829003601f168201915b50505050506040518060400160405280600581526020017f20616e642000000000000000000000000000000000000000000000000000000081525060078a8a604051611a149291906143d2565b90815260200160405180910390206001018054611a3090614a36565b80601f0160208091040260200160405190810160405280929190818152602001828054611a5c90614a36565b8015611aa95780601f10611a7e57610100808354040283529160200191611aa9565b820191906000526020600020905b815481529060010190602001808311611a8c57829003601f168201915b50505050506134fd565b505050505050565b60606000600e8054905067ffffffffffffffff811115611b04577f4e487b7100000000000000000000000000000000000000000000000000000000600052604160045260246000fd5b604051908082528060200260200182016040528015611b3d57816020015b611b2a6136ee565b815260200190600190039081611b225790505b50905060005b600e80549050811015611df357600d600e8281548110611b8c577f4e487b7100000000000000000000000000000000000000000000000000000000600052603260045260246000fd5b906000526020600020015481548110611bce577f4e487b7100000000000000000000000000000000000000000000000000000000600052603260045260246000fd5b906000526020600020906004020160405180608001604052908160008201548152602001600182018054611c0190614a36565b80601f0160208091040260200160405190810160405280929190818152602001828054611c2d90614a36565b8015611c7a5780601f10611c4f57610100808354040283529160200191611c7a565b820191906000526020600020905b815481529060010190602001808311611c5d57829003601f168201915b50505050508152602001600282018054611c9390614a36565b80601f0160208091040260200160405190810160405280929190818152602001828054611cbf90614a36565b8015611d0c5780601f10611ce157610100808354040283529160200191611d0c565b820191906000526020600020905b815481529060010190602001808311611cef57829003601f168201915b505050505081526020016003820160009054906101000a900460ff166004811115611d60577f4e487b7100000000000000000000000000000000000000000000000000000000600052602160045260246000fd5b6004811115611d98577f4e487b7100000000000000000000000000000000000000000000000000000000600052602160045260246000fd5b81525050828281518110611dd5577f4e487b7100000000000000000000000000000000000000000000000000000000600052603260045260246000fd5b60200260200101819052508080611deb90614a99565b915050611b43565b508091505090565b60011515600560003373ffffffffffffffffffffffffffffffffffffffff1673ffffffffffffffffffffffffffffffffffffffff16815260200190815260200160002060009054906101000a900460ff16151514611e8e576040517f08c379a0000000000000000000000000000000000000000000000000000000008152600401611e859061463d565b60405180910390fd5b600d60405180608001604052806011548152602001838152602001600660003373ffffffffffffffffffffffffffffffffffffffff1673ffffffffffffffffffffffffffffffffffffffff1681526020019081526020016000208054611ef390614a36565b80601f0160208091040260200160405190810160405280929190818152602001828054611f1f90614a36565b8015611f6c5780601f10611f4157610100808354040283529160200191611f6c565b820191906000526020600020905b815481529060010190602001808311611f4f57829003601f168201915b5050505050815260200160006004811115611fb0577f4e487b7100000000000000000000000000000000000000000000000000000000600052602160045260246000fd5b81525090806001815401808255809150506001900390600052602060002090600402016000909190919091506000820151816000015560208201518160010190805190602001906120029291906135c8565b50604082015181600201908051906020019061201f9291906135c8565b5060608201518160030160006101000a81548160ff02191690836004811115612071577f4e487b7100000000000000000000000000000000000000000000000000000000600052602160045260246000fd5b02179055505050600960003373ffffffffffffffffffffffffffffffffffffffff1673ffffffffffffffffffffffffffffffffffffffff1681526020019081526020016000206011549080600181540180825580915050600190039060005260206000200160009091909190915055600e601154908060018154018082558091505060019003906000526020600020016000909190919091505560016011600082825461211e91906148d8565b9250508190555050565b60606001805461213790614a36565b80601f016020809104026020016040519081016040528092919081815260200182805461216390614a36565b80156121b05780601f10612185576101008083540402835291602001916121b0565b820191906000526020600020905b81548152906001019060200180831161219357829003601f168201915b5050505050905090565b60011515600560003373ffffffffffffffffffffffffffffffffffffffff1673ffffffffffffffffffffffffffffffffffffffff16815260200190815260200160002060009054906101000a900460ff1615151461224d576040517f08c379a00000000000000000000000000000000000000000000000000000000081526004016122449061463d565b60405180910390fd5b60006004811115612287577f4e487b7100000000000000000000000000000000000000000000000000000000600052602160045260246000fd5b600d84815481106122c1577f4e487b7100000000000000000000000000000000000000000000000000000000600052603260045260246000fd5b906000526020600020906004020160030160009054906101000a900460ff166004811115612318577f4e487b7100000000000000000000000000000000000000000000000000000000600052602160045260246000fd5b14612358576040517f08c379a000000000000000000000000000000000000000000000000000000000815260040161234f9061467d565b60405180910390fd5b6000600a6000858152602001908152602001600020805490509050600a60008581526020019081526020016000206040518060a001604052808381526020016040518060400160405280878152602001868152508152602001868152602001600060028111156123f1577f4e487b7100000000000000000000000000000000000000000000000000000000600052602160045260246000fd5b8152602001600660003373ffffffffffffffffffffffffffffffffffffffff1673ffffffffffffffffffffffffffffffffffffffff168152602001908152602001600020805461244090614a36565b80601f016020809104026020016040519081016040528092919081815260200182805461246c90614a36565b80156124b95780601f1061248e576101008083540402835291602001916124b9565b820191906000526020600020905b81548152906001019060200180831161249c57829003601f168201915b505050505081525090806001815401808255809150506001900390600052602060002090600602016000909190919091506000820151816000015560208201518160010160008201518160000190805190602001906125199291906135c8565b5060208201518160010190805190602001906125369291906135c8565b5050506040820151816003015560608201518160040160006101000a81548160ff02191690836002811115612594577f4e487b7100000000000000000000000000000000000000000000000000000000600052602160045260246000fd5b021790555060808201518160050190805190602001906125b59291906135c8565b50505050505050565b60606000600960003373ffffffffffffffffffffffffffffffffffffffff1673ffffffffffffffffffffffffffffffffffffffff1681526020019081526020016000208054905067ffffffffffffffff811115612644577f4e487b7100000000000000000000000000000000000000000000000000000000600052604160045260246000fd5b60405190808252806020026020018201604052801561267d57816020015b61266a6136ee565b8152602001906001900390816126625790505b50905060005b600960003373ffffffffffffffffffffffffffffffffffffffff1673ffffffffffffffffffffffffffffffffffffffff168152602001908152602001600020805490508110156129ad57600d600960003373ffffffffffffffffffffffffffffffffffffffff1673ffffffffffffffffffffffffffffffffffffffff1681526020019081526020016000208281548110612746577f4e487b7100000000000000000000000000000000000000000000000000000000600052603260045260246000fd5b906000526020600020015481548110612788577f4e487b7100000000000000000000000000000000000000000000000000000000600052603260045260246000fd5b9060005260206000209060040201604051806080016040529081600082015481526020016001820180546127bb90614a36565b80601f01602080910402602001604051908101604052809291908181526020018280546127e790614a36565b80156128345780601f1061280957610100808354040283529160200191612834565b820191906000526020600020905b81548152906001019060200180831161281757829003601f168201915b5050505050815260200160028201805461284d90614a36565b80601f016020809104026020016040519081016040528092919081815260200182805461287990614a36565b80156128c65780601f1061289b576101008083540402835291602001916128c6565b820191906000526020600020905b8154815290600101906020018083116128a957829003601f168201915b505050505081526020016003820160009054906101000a900460ff16600481111561291a577f4e487b7100000000000000000000000000000000000000000000000000000000600052602160045260246000fd5b6004811115612952577f4e487b7100000000000000000000000000000000000000000000000000000000600052602160045260246000fd5b8152505082828151811061298f577f4e487b7100000000000000000000000000000000000000000000000000000000600052603260045260246000fd5b602002602001018190525080806129a590614a99565b915050612683565b508091505090565b60011515600560003373ffffffffffffffffffffffffffffffffffffffff1673ffffffffffffffffffffffffffffffffffffffff16815260200190815260200160002060009054906101000a900460ff16151514612a48576040517f08c379a0000000000000000000000000000000000000000000000000000000008152600401612a3f9061463d565b60405180910390fd5b6000600d8581548110612a84577f4e487b7100000000000000000000000000000000000000000000000000000000600052603260045260246000fd5b90600052602060002090600402016002018054612aa090614a36565b80601f0160208091040260200160405190810160405280929190818152602001828054612acc90614a36565b8015612b195780601f10612aee57610100808354040283529160200191612b19565b820191906000526020600020905b815481529060010190602001808311612afc57829003601f168201915b505050505090503373ffffffffffffffffffffffffffffffffffffffff16600882604051612b4791906143eb565b908152602001604051809103902060009054906101000a900473ffffffffffffffffffffffffffffffffffffffff1673ffffffffffffffffffffffffffffffffffffffff1614612bcc576040517f08c379a0000000000000000000000000000000000000000000000000000000008152600401612bc3906145fd565b60405180910390fd5b60006004811115612c06577f4e487b7100000000000000000000000000000000000000000000000000000000600052602160045260246000fd5b600d8681548110612c40577f4e487b7100000000000000000000000000000000000000000000000000000000600052603260045260246000fd5b906000526020600020906004020160030160009054906101000a900460ff166004811115612c97577f4e487b7100000000000000000000000000000000000000000000000000000000600052602160045260246000fd5b14612cd7576040517f08c379a0000000000000000000000000000000000000000000000000000000008152600401612cce9061467d565b60405180910390fd5b60006002811115612d11577f4e487b7100000000000000000000000000000000000000000000000000000000600052602160045260246000fd5b600a60008781526020019081526020016000208581548110612d5c577f4e487b7100000000000000000000000000000000000000000000000000000000600052603260045260246000fd5b906000526020600020906006020160040160009054906101000a900460ff166002811115612db3577f4e487b7100000000000000000000000000000000000000000000000000000000600052602160045260246000fd5b14612df3576040517f08c379a0000000000000000000000000000000000000000000000000000000008152600401612dea9061465d565b60405180910390fd5b60008383604051602001612e08929190614430565b604051602081830303815290604052905060005b600a600088815260200190815260200160002080549050811015612fb357858114612fa0576001600a60008981526020019081526020016000208281548110612e8e577f4e487b7100000000000000000000000000000000000000000000000000000000600052603260045260246000fd5b906000526020600020906006020160040160006101000a81548160ff02191690836002811115612ee7577f4e487b7100000000000000000000000000000000000000000000000000000000600052602160045260246000fd5b0217905550600b600a60008981526020019081526020016000208781548110612f39577f4e487b7100000000000000000000000000000000000000000000000000000000600052603260045260246000fd5b9060005260206000209060060201600501604051612f579190614402565b908152602001604051809103902082908060018154018082558091505060019003906000526020600020016000909190919091509080519060200190612f9e9291906135c8565b505b8080612fab90614a99565b915050612e1c565b506002600a60008881526020019081526020016000208681548110613001577f4e487b7100000000000000000000000000000000000000000000000000000000600052603260045260246000fd5b906000526020600020906006020160040160006101000a81548160ff0219169083600281111561305a577f4e487b7100000000000000000000000000000000000000000000000000000000600052602160045260246000fd5b0217905550838360405160200161307292919061445f565b60405160208183030381529060405290506000600a600088815260200190815260200160002086815481106130d0577f4e487b7100000000000000000000000000000000000000000000000000000000600052603260045260246000fd5b906000526020600020906006020160050180546130ec90614a36565b80601f016020809104026020016040519081016040528092919081815260200182805461311890614a36565b80156131655780601f1061313a57610100808354040283529160200191613165565b820191906000526020600020905b81548152906001019060200180831161314857829003601f168201915b50505050509050600b8160405161317c91906143eb565b9081526020016040518091039020829080600181540180825580915050600190039060005260206000200160009091909190915090805190602001906131c39291906135c8565b506001600d8881548110613200577f4e487b7100000000000000000000000000000000000000000000000000000000600052603260045260246000fd5b906000526020600020906004020160030160006101000a81548160ff02191690836004811115613259577f4e487b7100000000000000000000000000000000000000000000000000000000600052602160045260246000fd5b021790555060005b600e805490508110156133be5787600e82815481106132a9577f4e487b7100000000000000000000000000000000000000000000000000000000600052603260045260246000fd5b906000526020600020015414156133ab57600e6001600e805490506132ce919061492e565b81548110613305577f4e487b7100000000000000000000000000000000000000000000000000000000600052603260045260246000fd5b9060005260206000200154600e828154811061334a577f4e487b7100000000000000000000000000000000000000000000000000000000600052603260045260246000fd5b9060005260206000200181905550600e805480613390577f4e487b7100000000000000000000000000000000000000000000000000000000600052603160045260246000fd5b600190038181906000526020600020016000905590556133be565b80806133b690614a99565b915050613261565b5050505050505050565b61345e816040516024016133dc919061452a565b6040516020818303038152906040527f41304fac000000000000000000000000000000000000000000000000000000007bffffffffffffffffffffffffffffffffffffffffffffffffffffffff19166020820180517bffffffffffffffffffffffffffffffffffffffffffffffffffffffff838183161783525050505061359f565b50565b6134f9828260405160240161347792919061454c565b6040516020818303038152906040527f319af333000000000000000000000000000000000000000000000000000000007bffffffffffffffffffffffffffffffffffffffffffffffffffffffff19166020820180517bffffffffffffffffffffffffffffffffffffffffffffffffffffffff838183161783525050505061359f565b5050565b61359984848484604051602401613517949392919061457c565b6040516020818303038152906040527fde68f20a000000000000000000000000000000000000000000000000000000007bffffffffffffffffffffffffffffffffffffffffffffffffffffffff19166020820180517bffffffffffffffffffffffffffffffffffffffffffffffffffffffff838183161783525050505061359f565b50505050565b60008151905060006a636f6e736f6c652e6c6f679050602083016000808483855afa5050505050565b8280546135d490614a36565b90600052602060002090601f0160209004810192826135f6576000855561363d565b82601f1061360f57805160ff191683800117855561363d565b8280016001018555821561363d579182015b8281111561363c578251825591602001919060010190613621565b5b50905061364a919061374e565b5090565b604051806040016040528060608152602001606081525090565b82805461367490614a36565b90600052602060002090601f01602090048101928261369657600085556136dd565b82601f106136af57803560ff19168380011785556136dd565b828001600101855582156136dd579182015b828111156136dc5782358255916020019190600101906136c1565b5b5090506136ea919061374e565b5090565b604051806080016040528060008152602001606081526020016060815260200160006004811115613748577f4e487b7100000000000000000000000000000000000000000000000000000000600052602160045260246000fd5b81525090565b5b8082111561376757600081600090555060010161374f565b5090565b600061377e6137798461476e565b614749565b9050808382526020820190508285602086028201111561379d57600080fd5b60005b858110156137cd57816137b38882613815565b8452602084019350602083019250506001810190506137a0565b5050509392505050565b60006137ea6137e58461479a565b614749565b90508281526020810184848401111561380257600080fd5b61380d8482856149f4565b509392505050565b60008135905061382481614d48565b92915050565b600082601f83011261383b57600080fd5b813561384b84826020860161376b565b91505092915050565b60008135905061386381614d5f565b92915050565b60008083601f84011261387b57600080fd5b8235905067ffffffffffffffff81111561389457600080fd5b6020830191508360018202830111156138ac57600080fd5b9250929050565b600082601f8301126138c457600080fd5b81356138d48482602086016137d7565b91505092915050565b6000813590506138ec81614d76565b92915050565b60006020828403121561390457600080fd5b600061391284828501613815565b91505092915050565b60006020828403121561392d57600080fd5b600082013567ffffffffffffffff81111561394757600080fd5b6139538482850161382a565b91505092915050565b6000806000806000806060878903121561397557600080fd5b600087013567ffffffffffffffff81111561398f57600080fd5b61399b89828a01613869565b9650965050602087013567ffffffffffffffff8111156139ba57600080fd5b6139c689828a01613869565b9450945050604087013567ffffffffffffffff8111156139e557600080fd5b6139f189828a01613869565b92509250509295509295509295565b600060208284031215613a1257600080fd5b600082013567ffffffffffffffff811115613a2c57600080fd5b613a38848285016138b3565b91505092915050565b60008060008060808587031215613a5757600080fd5b600085013567ffffffffffffffff811115613a7157600080fd5b613a7d878288016138b3565b945050602085013567ffffffffffffffff811115613a9a57600080fd5b613aa6878288016138b3565b935050604085013567ffffffffffffffff811115613ac357600080fd5b613acf878288016138b3565b925050606085013567ffffffffffffffff811115613aec57600080fd5b613af8878288016138b3565b91505092959194509250565b60008060008060008060c08789031215613b1d57600080fd5b600087013567ffffffffffffffff811115613b3757600080fd5b613b4389828a016138b3565b965050602087013567ffffffffffffffff811115613b6057600080fd5b613b6c89828a016138b3565b955050604087013567ffffffffffffffff811115613b8957600080fd5b613b9589828a016138b3565b945050606087013567ffffffffffffffff811115613bb257600080fd5b613bbe89828a016138b3565b935050608087013567ffffffffffffffff811115613bdb57600080fd5b613be789828a016138b3565b92505060a087013567ffffffffffffffff811115613c0457600080fd5b613c1089828a016138b3565b9150509295509295509295565b600060208284031215613c2f57600080fd5b6000613c3d848285016138dd565b91505092915050565b60008060408385031215613c5957600080fd5b6000613c67858286016138dd565b9250506020613c7885828601613854565b9150509250929050565b600080600060608486031215613c9757600080fd5b6000613ca5868287016138dd565b935050602084013567ffffffffffffffff811115613cc257600080fd5b613cce868287016138b3565b925050604084013567ffffffffffffffff811115613ceb57600080fd5b613cf7868287016138b3565b9150509250925092565b60008060008060608587031215613d1757600080fd5b6000613d25878288016138dd565b9450506020613d36878288016138dd565b935050604085013567ffffffffffffffff811115613d5357600080fd5b613d5f87828801613869565b925092505092959194509250565b6000613d798383613f69565b905092915050565b6000613d8d8383614245565b905092915050565b6000613da1838361434a565b905092915050565b613db281614962565b82525050565b6000613dc382614825565b613dcd8185614878565b935083602082028501613ddf856147cb565b8060005b85811015613e1b5784840389528151613dfc8582613d6d565b9450613e0783614851565b925060208a01995050600181019050613de3565b50829750879550505050505092915050565b6000613e3882614830565b613e428185614889565b935083602082028501613e54856147db565b8060005b85811015613e905784840389528151613e718582613d81565b9450613e7c8361485e565b925060208a01995050600181019050613e58565b50829750879550505050505092915050565b6000613ead8261483b565b613eb7818561489a565b935083602082028501613ec9856147eb565b8060005b85811015613f055784840389528151613ee68582613d95565b9450613ef18361486b565b925060208a01995050600181019050613ecd565b50829750879550505050505092915050565b613f2081614974565b82525050565b613f2f816149d0565b82525050565b613f3e816149e2565b82525050565b6000613f5083856148cd565b9350613f5d8385846149f4565b82840190509392505050565b6000613f7482614846565b613f7e81856148ab565b9350613f8e818560208601614a03565b613f9781614b9e565b840191505092915050565b6000613fad82614846565b613fb781856148bc565b9350613fc7818560208601614a03565b613fd081614b9e565b840191505092915050565b6000613fe682614846565b613ff081856148cd565b9350614000818560208601614a03565b80840191505092915050565b6000815461401981614a36565b61402381866148cd565b9450600182166000811461403e576001811461404f57614082565b60ff19831686528186019350614082565b61405885614810565b60005b8381101561407a5781548189015260018201915060208101905061405b565b838801955050505b50505092915050565b6000815461409881614a36565b6140a281866148cd565b945060018216600081146140bd57600181146140ce57614101565b60ff19831686528186019350614101565b6140d7856147fb565b60005b838110156140f9578154818901526001820191506020810190506140da565b838801955050505b50505092915050565b6000614117600c836148cd565b915061412282614baf565b600c82019050919050565b600061413a6017836148bc565b915061414582614bd8565b602082019050919050565b600061415d601f836148bc565b915061416882614c01565b602082019050919050565b60006141806018836148bc565b915061418b82614c2a565b602082019050919050565b60006141a36017836148bc565b91506141ae82614c53565b602082019050919050565b60006141c66017836148cd565b91506141d182614c7c565b601782019050919050565b60006141e9601c836148bc565b91506141f482614ca5565b602082019050919050565b600061420c600c836148cd565b915061421782614cce565b600c82019050919050565b600061422f6020836148bc565b915061423a82614cf7565b602082019050919050565b600060a08301600083015161425d60008601826143b4565b506020830151848203602086015261427582826142c2565b915050604083015161428a60408601826143b4565b50606083015161429d6060860182613f26565b50608083015184820360808601526142b58282613f69565b9150508091505092915050565b600060408301600083015184820360008601526142df8282613f69565b915050602083015184820360208601526142f98282613f69565b9150508091505092915050565b600060408301600083015184820360008601526143238282613f69565b9150506020830151848203602086015261433d8282613f69565b9150508091505092915050565b600060808301600083015161436260008601826143b4565b506020830151848203602086015261437a8282613f69565b915050604083015184820360408601526143948282613f69565b91505060608301516143a96060860182613f35565b508091505092915050565b6143bd816149c6565b82525050565b6143cc816149c6565b82525050565b60006143df828486613f44565b91508190509392505050565b60006143f78284613fdb565b915081905092915050565b600061440e828461408b565b915081905092915050565b6000614425828461400c565b915081905092915050565b600061443b826141b9565b9150614448828486613f44565b91506144538261410a565b91508190509392505050565b600061446a826141b9565b9150614477828486613f44565b9150614482826141ff565b91508190509392505050565b60006020820190506144a36000830184613da9565b92915050565b600060208201905081810360008301526144c38184613db8565b905092915050565b600060208201905081810360008301526144e58184613e2d565b905092915050565b600060208201905081810360008301526145078184613ea2565b905092915050565b60006020820190506145246000830184613f17565b92915050565b600060208201905081810360008301526145448184613fa2565b905092915050565b600060408201905081810360008301526145668185613fa2565b90506145756020830184613da9565b9392505050565b600060808201905081810360008301526145968187613fa2565b905081810360208301526145aa8186613fa2565b905081810360408301526145be8185613fa2565b905081810360608301526145d28184613fa2565b905095945050505050565b600060208201905081810360008301526145f68161412d565b9050919050565b6000602082019050818103600083015261461681614150565b9050919050565b6000602082019050818103600083015261463681614173565b9050919050565b6000602082019050818103600083015261465681614196565b9050919050565b60006020820190508181036000830152614676816141dc565b9050919050565b6000602082019050818103600083015261469681614222565b9050919050565b600060208201905081810360008301526146b78184614306565b905092915050565b60006020820190506146d460008301846143c3565b92915050565b600060a0820190506146ef60008301886143c3565b81810360208301526147018187613fa2565b905081810360408301526147158186613fa2565b905081810360608301526147298185613fa2565b9050818103608083015261473d8184613fa2565b90509695505050505050565b6000614753614764565b905061475f8282614a68565b919050565b6000604051905090565b600067ffffffffffffffff82111561478957614788614b6f565b5b602082029050602081019050919050565b600067ffffffffffffffff8211156147b5576147b4614b6f565b5b6147be82614b9e565b9050602081019050919050565b6000819050602082019050919050565b6000819050602082019050919050565b6000819050602082019050919050565b60008190508160005260206000209050919050565b60008190508160005260206000209050919050565b600081519050919050565b600081519050919050565b600081519050919050565b600081519050919050565b6000602082019050919050565b6000602082019050919050565b6000602082019050919050565b600082825260208201905092915050565b600082825260208201905092915050565b600082825260208201905092915050565b600082825260208201905092915050565b600082825260208201905092915050565b600081905092915050565b60006148e3826149c6565b91506148ee836149c6565b9250827fffffffffffffffffffffffffffffffffffffffffffffffffffffffffffffffff0382111561492357614922614ae2565b5b828201905092915050565b6000614939826149c6565b9150614944836149c6565b92508282101561495757614956614ae2565b5b828203905092915050565b600061496d826149a6565b9050919050565b60008115159050919050565b600081905061498e82614d20565b919050565b60008190506149a182614d34565b919050565b600073ffffffffffffffffffffffffffffffffffffffff82169050919050565b6000819050919050565b60006149db82614980565b9050919050565b60006149ed82614993565b9050919050565b82818337600083830152505050565b60005b83811015614a21578082015181840152602081019050614a06565b83811115614a30576000848401525b50505050565b60006002820490506001821680614a4e57607f821691505b60208210811415614a6257614a61614b40565b5b50919050565b614a7182614b9e565b810181811067ffffffffffffffff82111715614a9057614a8f614b6f565b5b80604052505050565b6000614aa4826149c6565b91507fffffffffffffffffffffffffffffffffffffffffffffffffffffffffffffffff821415614ad757614ad6614ae2565b5b600182019050919050565b7f4e487b7100000000000000000000000000000000000000000000000000000000600052601160045260246000fd5b7f4e487b7100000000000000000000000000000000000000000000000000000000600052602160045260246000fd5b7f4e487b7100000000000000000000000000000000000000000000000000000000600052602260045260246000fd5b7f4e487b7100000000000000000000000000000000000000000000000000000000600052604160045260246000fd5b6000601f19601f8301169050919050565b7f69732072656a65637465642e0000000000000000000000000000000000000000600082015250565b7f596f7520617265206e6f7420617574686f72697a65642e000000000000000000600082015250565b7f596f7520617265206e6f74206f6e776572206f662074686973207461736b2e00600082015250565b7f596f7520686176656e277420726567697374657265642e200000000000000000600082015250565b7f596f7520686176656e277420726567697374657265642e000000000000000000600082015250565b7f596f7572206f6666657220666f72205265717565737420000000000000000000600082015250565b7f546865206465616c207374617465206973206e6f742076616c69642e00000000600082015250565b7f69732041636365707465642e0000000000000000000000000000000000000000600082015250565b7f546865207461736b206973206e6f206c6f6e67657220617661696c61626c652e600082015250565b60038110614d3157614d30614b11565b5b50565b60058110614d4557614d44614b11565b5b50565b614d5181614962565b8114614d5c57600080fd5b50565b614d6881614974565b8114614d7357600080fd5b50565b614d7f816149c6565b8114614d8a57600080fd5b5056fea2646970667358221220463d6662d0e0a4cdde7bdddf60a945b9e395d2bd2164a5160e659d3aca02cee564736f6c63430008040033",
  "linkReferences": {},
  "deployedLinkReferences": {}
}