{
  "_format": "hh-sol-artifact-1",
  "contractName": "XContract",
  "sourceName": "contracts/XContract.sol",
  "abi": [
    {
      "inputs": [],
      "stateMutability": "nonpayable",
      "type": "constructor"
    },
    {
      "anonymous": false,
      "inputs": [
        {
          "indexed": false,
          "internalType": "string",
          "name": "pk",
          "type": "string"
        }
      ],
      "name": "InitBalance",
      "type": "event"
    },
    {
      "anonymous": false,
      "inputs": [
        {
          "indexed": false,
          "internalType": "uint256",
          "name": "id",
          "type": "uint256"
        },
        {
          "indexed": false,
          "internalType": "string",
          "name": "proof",
          "type": "string"
        }
      ],
      "name": "NewRequest",
      "type": "event"
    },
    {
      "anonymous": false,
      "inputs": [
        {
          "indexed": false,
          "internalType": "string",
          "name": "newMsg",
          "type": "string"
        }
      ],
      "name": "TestMsg",
      "type": "event"
    },
    {
      "anonymous": false,
      "inputs": [
        {
          "indexed": false,
          "internalType": "address",
          "name": "add",
          "type": "address"
        },
        {
          "indexed": false,
          "internalType": "uint256",
          "name": "balance",
          "type": "uint256"
        }
      ],
      "name": "UpdateState",
      "type": "event"
    },
    {
      "inputs": [
        {
          "internalType": "string",
          "name": "y",
          "type": "string"
        }
      ],
      "name": "ElBalanceOf",
      "outputs": [
        {
          "components": [
            {
              "internalType": "string",
              "name": "CL",
              "type": "string"
            },
            {
              "internalType": "string",
              "name": "CR",
              "type": "string"
            }
          ],
          "internalType": "struct XContract.ElBalance",
          "name": "",
          "type": "tuple"
        }
      ],
      "stateMutability": "view",
      "type": "function"
    },
    {
      "inputs": [
        {
          "internalType": "string",
          "name": "",
          "type": "string"
        }
      ],
      "name": "acc",
      "outputs": [
        {
          "internalType": "string",
          "name": "CL",
          "type": "string"
        },
        {
          "internalType": "string",
          "name": "CR",
          "type": "string"
        }
      ],
      "stateMutability": "view",
      "type": "function"
    },
    {
      "inputs": [],
      "name": "association",
      "outputs": [
        {
          "internalType": "address",
          "name": "",
          "type": "address"
        }
      ],
      "stateMutability": "view",
      "type": "function"
    },
    {
      "inputs": [],
      "name": "balanceOf",
      "outputs": [
        {
          "internalType": "uint256",
          "name": "",
          "type": "uint256"
        }
      ],
      "stateMutability": "view",
      "type": "function"
    },
    {
      "inputs": [
        {
          "internalType": "uint256",
          "name": "id",
          "type": "uint256"
        },
        {
          "internalType": "bool",
          "name": "res",
          "type": "bool"
        }
      ],
      "name": "confirmProof",
      "outputs": [],
      "stateMutability": "nonpayable",
      "type": "function"
    },
    {
      "inputs": [
        {
          "internalType": "uint256",
          "name": "amt",
          "type": "uint256"
        },
        {
          "internalType": "address",
          "name": "user",
          "type": "address"
        }
      ],
      "name": "fundToAccount",
      "outputs": [],
      "stateMutability": "nonpayable",
      "type": "function"
    },
    {
      "inputs": [],
      "name": "greet",
      "outputs": [
        {
          "internalType": "string",
          "name": "",
          "type": "string"
        }
      ],
      "stateMutability": "view",
      "type": "function"
    },
    {
      "inputs": [
        {
          "internalType": "string",
          "name": "y",
          "type": "string"
        },
        {
          "internalType": "string",
          "name": "cL",
          "type": "string"
        },
        {
          "internalType": "string",
          "name": "cR",
          "type": "string"
        }
      ],
      "name": "initElBalance",
      "outputs": [],
      "stateMutability": "nonpayable",
      "type": "function"
    },
    {
      "inputs": [],
      "name": "initialSupply",
      "outputs": [
        {
          "internalType": "uint256",
          "name": "",
          "type": "uint256"
        }
      ],
      "stateMutability": "view",
      "type": "function"
    },
    {
      "inputs": [],
      "name": "name",
      "outputs": [
        {
          "internalType": "string",
          "name": "",
          "type": "string"
        }
      ],
      "stateMutability": "view",
      "type": "function"
    },
    {
      "inputs": [
        {
          "internalType": "string",
          "name": "y",
          "type": "string"
        }
      ],
      "name": "privateTransfer",
      "outputs": [
        {
          "internalType": "uint256",
          "name": "",
          "type": "uint256"
        }
      ],
      "stateMutability": "nonpayable",
      "type": "function"
    },
    {
      "inputs": [
        {
          "internalType": "address",
          "name": "newAcc",
          "type": "address"
        }
      ],
      "name": "register",
      "outputs": [],
      "stateMutability": "nonpayable",
      "type": "function"
    },
    {
      "inputs": [
        {
          "internalType": "string",
          "name": "key",
          "type": "string"
        }
      ],
      "name": "registerKey",
      "outputs": [],
      "stateMutability": "nonpayable",
      "type": "function"
    },
    {
      "inputs": [
        {
          "internalType": "string",
          "name": "_greeting",
          "type": "string"
        }
      ],
      "name": "setGreeting",
      "outputs": [],
      "stateMutability": "nonpayable",
      "type": "function"
    },
    {
      "inputs": [],
      "name": "totalSupply",
      "outputs": [
        {
          "internalType": "uint256",
          "name": "",
          "type": "uint256"
        }
      ],
      "stateMutability": "view",
      "type": "function"
    },
    {
      "inputs": [
        {
          "internalType": "address",
          "name": "to",
          "type": "address"
        },
        {
          "internalType": "uint256",
          "name": "amount",
          "type": "uint256"
        }
      ],
      "name": "transfer",
      "outputs": [],
      "stateMutability": "nonpayable",
      "type": "function"
    }
  ],
  "bytecode": "0x60806040526040518060400160405280600981526020017f58636f6e7472616374000000000000000000000000000000000000000000000081525060009080519060200190620000519291906200035d565b50620f42406002556127106003553480156200006c57600080fd5b50600254600460003373ffffffffffffffffffffffffffffffffffffffff1673ffffffffffffffffffffffffffffffffffffffff168152602001908152602001600020819055506001600560003373ffffffffffffffffffffffffffffffffffffffff1673ffffffffffffffffffffffffffffffffffffffff16815260200190815260200160002060006101000a81548160ff02191690831515021790555033600760006101000a81548173ffffffffffffffffffffffffffffffffffffffff021916908373ffffffffffffffffffffffffffffffffffffffff1602179055506040518060400160405280600381526020017f303030000000000000000000000000000000000000000000000000000000000081525060019080519060200190620001999291906200035d565b50620002786040518060400160405280601b81526020017f4368616e67696e67206772656574696e672066726f6d2027257327000000000081525060018054620001e390620004db565b80601f01602080910402602001604051908101604052809291908181526020018280546200021190620004db565b8015620002625780601f10620002365761010080835404028352916020019162000262565b820191906000526020600020905b8154815290600101906020018083116200024457829003601f168201915b50505050506200028e60201b620010941760201c565b60006009819055506000600a8190555062000551565b620003308282604051602401620002a79291906200044e565b6040516020818303038152906040527f4b5c4277000000000000000000000000000000000000000000000000000000007bffffffffffffffffffffffffffffffffffffffffffffffffffffffff19166020820180517bffffffffffffffffffffffffffffffffffffffffffffffffffffffff83818316178352505050506200033460201b60201c565b5050565b60008151905060006a636f6e736f6c652e6c6f679050602083016000808483855afa5050505050565b8280546200036b90620004db565b90600052602060002090601f0160209004810192826200038f5760008555620003db565b82601f10620003aa57805160ff1916838001178555620003db565b82800160010185558215620003db579182015b82811115620003da578251825591602001919060010190620003bd565b5b509050620003ea9190620003ee565b5090565b5b8082111562000409576000816000905550600101620003ef565b5090565b60006200041a8262000489565b62000426818562000494565b935062000438818560208601620004a5565b620004438162000540565b840191505092915050565b600060408201905081810360008301526200046a81856200040d565b905081810360208301526200048081846200040d565b90509392505050565b600081519050919050565b600082825260208201905092915050565b60005b83811015620004c5578082015181840152602081019050620004a8565b83811115620004d5576000848401525b50505050565b60006002820490506001821680620004f457607f821691505b602082108114156200050b576200050a62000511565b5b50919050565b7f4e487b7100000000000000000000000000000000000000000000000000000000600052602260045260246000fd5b6000601f19601f8301169050919050565b611dab80620005616000396000f3fe608060405234801561001057600080fd5b50600436106101005760003560e01c80634420e48611610097578063a413686211610066578063a41368621461029c578063a9059cbb146102b8578063bad3d107146102d4578063cfae3217146102f057610100565b80634420e486146102165780634a80f2ba14610232578063712bef911461024e578063722713f71461027e57610100565b80631a4ae8a7116100d35780631a4ae8a71461017b5780631b257054146101ac578063378dc3dc146101dc5780633a2568e9146101fa57610100565b8063050d4f781461010557806306fdde03146101235780630a1ae5aa1461014157806318160ddd1461015d575b600080fd5b61010d61030e565b60405161011a9190611870565b60405180910390f35b61012b610334565b60405161013891906118d8565b60405180910390f35b61015b600480360381019061015691906114e9565b6103c2565b005b6101656104f8565b60405161017291906119e1565b60405180910390f35b6101956004803603810190610190919061158d565b6104fe565b6040516101a39291906118fa565b60405180910390f35b6101c660048036038101906101c1919061158d565b610648565b6040516101d391906119e1565b60405180910390f35b6101e4610818565b6040516101f191906119e1565b60405180910390f35b610214600480360381019061020f919061160a565b61081e565b005b610230600480360381019061022b919061143f565b610969565b005b61024c600480360381019061024791906114a4565b610a0a565b005b6102686004803603810190610263919061158d565b610aa5565b60405161027591906119bf565b60405180910390f35b610286610c01565b60405161029391906119e1565b60405180910390f35b6102b660048036038101906102b1919061158d565b610ca5565b005b6102d260048036038101906102cd9190611468565b610da4565b005b6102ee60048036038101906102e991906115ce565b610f4e565b005b6102f8611002565b60405161030591906118d8565b60405180910390f35b600760009054906101000a900473ffffffffffffffffffffffffffffffffffffffff1681565b6000805461034190611be3565b80601f016020809104026020016040519081016040528092919081815260200182805461036d90611be3565b80156103ba5780601f1061038f576101008083540402835291602001916103ba565b820191906000526020600020905b81548152906001019060200180831161039d57829003601f168201915b505050505081565b6103cb33611130565b6103f6600760009054906101000a900473ffffffffffffffffffffffffffffffffffffffff16611130565b604051806040016040528085858080601f016020809104026020016040519081016040528093929190818152602001838380828437600081840152601f19601f82011690508083019250505050505050815260200183838080601f016020809104026020016040519081016040528093929190818152602001838380828437600081840152601f19601f82011690508083019250505050505050815250600687876040516104a5929190611840565b908152602001604051809103902060008201518160000190805190602001906104cf929190611291565b5060208201518160010190805190602001906104ec929190611291565b50905050505050505050565b60025481565b60068180516020810182018051848252602083016020850120818352809550505050505060009150905080600001805461053790611be3565b80601f016020809104026020016040519081016040528092919081815260200182805461056390611be3565b80156105b05780601f10610585576101008083540402835291602001916105b0565b820191906000526020600020905b81548152906001019060200180831161059357829003601f168201915b5050505050908060010180546105c590611be3565b80601f01602080910402602001604051908101604052809291908181526020018280546105f190611be3565b801561063e5780601f106106135761010080835404028352916020019161063e565b820191906000526020600020905b81548152906001019060200180831161062157829003601f168201915b5050505050905082565b6000600860405180608001604052803373ffffffffffffffffffffffffffffffffffffffff168152602001600a548152602001848152602001600060048111156106bb577f4e487b7100000000000000000000000000000000000000000000000000000000600052602160045260246000fd5b815250908060018154018082558091505060019003906000526020600020906004020160009091909190915060008201518160000160006101000a81548173ffffffffffffffffffffffffffffffffffffffff021916908373ffffffffffffffffffffffffffffffffffffffff160217905550602082015181600101556040820151816002019080519060200190610754929190611291565b5060608201518160030160006101000a81548160ff021916908360048111156107a6577f4e487b7100000000000000000000000000000000000000000000000000000000600052602160045260246000fd5b021790555050507f85808ba6b61b3e11f7dba026341d5ff5603fab7df37b176ebfa0f296264cd12e600a54836040516107e09291906119fc565b60405180910390a16001600a60008282546107fb9190611acf565b925050819055506001600a546108119190611b25565b9050919050565b60035481565b6001151581151514156108ca57600160088381548110610867577f4e487b7100000000000000000000000000000000000000000000000000000000600052603260045260246000fd5b906000526020600020906004020160030160006101000a81548160ff021916908360048111156108c0577f4e487b7100000000000000000000000000000000000000000000000000000000600052602160045260246000fd5b0217905550610965565b600460088381548110610906577f4e487b7100000000000000000000000000000000000000000000000000000000600052603260045260246000fd5b906000526020600020906004020160030160006101000a81548160ff0219169083600481111561095f577f4e487b7100000000000000000000000000000000000000000000000000000000600052602160045260246000fd5b02179055505b5050565b600354600460008373ffffffffffffffffffffffffffffffffffffffff1673ffffffffffffffffffffffffffffffffffffffff168152602001908152602001600020819055506001600560008373ffffffffffffffffffffffffffffffffffffffff1673ffffffffffffffffffffffffffffffffffffffff16815260200190815260200160002060006101000a81548160ff02191690831515021790555050565b60001515600560003373ffffffffffffffffffffffffffffffffffffffff1673ffffffffffffffffffffffffffffffffffffffff16815260200190815260200160002060009054906101000a900460ff1615151415610a6857600080fd5b7fc5c21db1f7aef3462dbf1bee14c3b88f616eb1986b5b1f17ab53c41b86daf19d8282604051610a999291906118b4565b60405180910390a15050565b610aad611317565b600682604051610abd9190611859565b9081526020016040518091039020604051806040016040529081600082018054610ae690611be3565b80601f0160208091040260200160405190810160405280929190818152602001828054610b1290611be3565b8015610b5f5780601f10610b3457610100808354040283529160200191610b5f565b820191906000526020600020905b815481529060010190602001808311610b4257829003601f168201915b50505050508152602001600182018054610b7890611be3565b80601f0160208091040260200160405190810160405280929190818152602001828054610ba490611be3565b8015610bf15780601f10610bc657610100808354040283529160200191610bf1565b820191906000526020600020905b815481529060010190602001808311610bd457829003601f168201915b5050505050815250509050919050565b6000801515600560003373ffffffffffffffffffffffffffffffffffffffff1673ffffffffffffffffffffffffffffffffffffffff16815260200190815260200160002060009054906101000a900460ff1615151415610c6057600080fd5b600460003373ffffffffffffffffffffffffffffffffffffffff1673ffffffffffffffffffffffffffffffffffffffff16815260200190815260200160002054905090565b610d52604051806060016040528060238152602001611d536023913960018054610cce90611be3565b80601f0160208091040260200160405190810160405280929190818152602001828054610cfa90611be3565b8015610d475780601f10610d1c57610100808354040283529160200191610d47565b820191906000526020600020905b815481529060010190602001808311610d2a57829003601f168201915b5050505050836111c9565b8060019080519060200190610d68929190611291565b507f57a57a410b51ac4751ea694c91cdcca4d61b6d997d46fb997eddc7d5133417426001604051610d99919061197d565b60405180910390a150565b80600460003373ffffffffffffffffffffffffffffffffffffffff1673ffffffffffffffffffffffffffffffffffffffff168152602001908152602001600020541015610e26576040517f08c379a0000000000000000000000000000000000000000000000000000000008152600401610e1d9061199f565b60405180910390fd5b80600460003373ffffffffffffffffffffffffffffffffffffffff1673ffffffffffffffffffffffffffffffffffffffff1681526020019081526020016000206000828254610e759190611b25565b9250508190555080600460008473ffffffffffffffffffffffffffffffffffffffff1673ffffffffffffffffffffffffffffffffffffffff1681526020019081526020016000206000828254610ecb9190611acf565b925050819055507f364bc05a26076a4b591d11ae973bbc492605b49c871783d787f183e58f3fe08e33600460003373ffffffffffffffffffffffffffffffffffffffff1673ffffffffffffffffffffffffffffffffffffffff16815260200190815260200160002054604051610f4292919061188b565b60405180910390a15050565b600760009054906101000a900473ffffffffffffffffffffffffffffffffffffffff1673ffffffffffffffffffffffffffffffffffffffff163373ffffffffffffffffffffffffffffffffffffffff1614610fa857600080fd5b81600460008373ffffffffffffffffffffffffffffffffffffffff1673ffffffffffffffffffffffffffffffffffffffff1681526020019081526020016000206000828254610ff79190611acf565b925050819055505050565b60606001805461101190611be3565b80601f016020809104026020016040519081016040528092919081815260200182805461103d90611be3565b801561108a5780601f1061105f5761010080835404028352916020019161108a565b820191906000526020600020905b81548152906001019060200180831161106d57829003601f168201915b5050505050905090565b61112c82826040516024016110aa9291906118fa565b6040516020818303038152906040527f4b5c4277000000000000000000000000000000000000000000000000000000007bffffffffffffffffffffffffffffffffffffffffffffffffffffffff19166020820180517bffffffffffffffffffffffffffffffffffffffffffffffffffffffff8381831617835250505050611268565b5050565b6111c6816040516024016111449190611870565b6040516020818303038152906040527f2c2ecbc2000000000000000000000000000000000000000000000000000000007bffffffffffffffffffffffffffffffffffffffffffffffffffffffff19166020820180517bffffffffffffffffffffffffffffffffffffffffffffffffffffffff8381831617835250505050611268565b50565b6112638383836040516024016111e193929190611931565b6040516020818303038152906040527f2ced7cef000000000000000000000000000000000000000000000000000000007bffffffffffffffffffffffffffffffffffffffffffffffffffffffff19166020820180517bffffffffffffffffffffffffffffffffffffffffffffffffffffffff8381831617835250505050611268565b505050565b60008151905060006a636f6e736f6c652e6c6f679050602083016000808483855afa5050505050565b82805461129d90611be3565b90600052602060002090601f0160209004810192826112bf5760008555611306565b82601f106112d857805160ff1916838001178555611306565b82800160010185558215611306579182015b828111156113055782518255916020019190600101906112ea565b5b5090506113139190611331565b5090565b604051806040016040528060608152602001606081525090565b5b8082111561134a576000816000905550600101611332565b5090565b600061136161135c84611a51565b611a2c565b90508281526020810184848401111561137957600080fd5b611384848285611ba1565b509392505050565b60008135905061139b81611d0d565b92915050565b6000813590506113b081611d24565b92915050565b60008083601f8401126113c857600080fd5b8235905067ffffffffffffffff8111156113e157600080fd5b6020830191508360018202830111156113f957600080fd5b9250929050565b600082601f83011261141157600080fd5b813561142184826020860161134e565b91505092915050565b60008135905061143981611d3b565b92915050565b60006020828403121561145157600080fd5b600061145f8482850161138c565b91505092915050565b6000806040838503121561147b57600080fd5b60006114898582860161138c565b925050602061149a8582860161142a565b9150509250929050565b600080602083850312156114b757600080fd5b600083013567ffffffffffffffff8111156114d157600080fd5b6114dd858286016113b6565b92509250509250929050565b6000806000806000806060878903121561150257600080fd5b600087013567ffffffffffffffff81111561151c57600080fd5b61152889828a016113b6565b9650965050602087013567ffffffffffffffff81111561154757600080fd5b61155389828a016113b6565b9450945050604087013567ffffffffffffffff81111561157257600080fd5b61157e89828a016113b6565b92509250509295509295509295565b60006020828403121561159f57600080fd5b600082013567ffffffffffffffff8111156115b957600080fd5b6115c584828501611400565b91505092915050565b600080604083850312156115e157600080fd5b60006115ef8582860161142a565b92505060206116008582860161138c565b9150509250929050565b6000806040838503121561161d57600080fd5b600061162b8582860161142a565b925050602061163c858286016113a1565b9150509250929050565b61164f81611b59565b82525050565b60006116618385611ab3565b935061166e838584611ba1565b61167783611cd3565b840190509392505050565b600061168e8385611ac4565b935061169b838584611ba1565b82840190509392505050565b60006116b282611a97565b6116bc8185611aa2565b93506116cc818560208601611bb0565b6116d581611cd3565b840191505092915050565b60006116eb82611a97565b6116f58185611ab3565b9350611705818560208601611bb0565b61170e81611cd3565b840191505092915050565b600061172482611a97565b61172e8185611ac4565b935061173e818560208601611bb0565b80840191505092915050565b6000815461175781611be3565b6117618186611ab3565b9450600182166000811461177c576001811461178e576117c1565b60ff19831686526020860193506117c1565b61179785611a82565b60005b838110156117b95781548189015260018201915060208101905061179a565b808801955050505b50505092915050565b60006117d7601183611ab3565b91506117e282611ce4565b602082019050919050565b6000604083016000830151848203600086015261180a82826116a7565b9150506020830151848203602086015261182482826116a7565b9150508091505092915050565b61183a81611b97565b82525050565b600061184d828486611682565b91508190509392505050565b60006118658284611719565b915081905092915050565b60006020820190506118856000830184611646565b92915050565b60006040820190506118a06000830185611646565b6118ad6020830184611831565b9392505050565b600060208201905081810360008301526118cf818486611655565b90509392505050565b600060208201905081810360008301526118f281846116e0565b905092915050565b6000604082019050818103600083015261191481856116e0565b9050818103602083015261192881846116e0565b90509392505050565b6000606082019050818103600083015261194b81866116e0565b9050818103602083015261195f81856116e0565b9050818103604083015261197381846116e0565b9050949350505050565b60006020820190508181036000830152611997818461174a565b905092915050565b600060208201905081810360008301526119b8816117ca565b9050919050565b600060208201905081810360008301526119d981846117ed565b905092915050565b60006020820190506119f66000830184611831565b92915050565b6000604082019050611a116000830185611831565b8181036020830152611a2381846116e0565b90509392505050565b6000611a36611a47565b9050611a428282611c15565b919050565b6000604051905090565b600067ffffffffffffffff821115611a6c57611a6b611ca4565b5b611a7582611cd3565b9050602081019050919050565b60008190508160005260206000209050919050565b600081519050919050565b600082825260208201905092915050565b600082825260208201905092915050565b600081905092915050565b6000611ada82611b97565b9150611ae583611b97565b9250827fffffffffffffffffffffffffffffffffffffffffffffffffffffffffffffffff03821115611b1a57611b19611c46565b5b828201905092915050565b6000611b3082611b97565b9150611b3b83611b97565b925082821015611b4e57611b4d611c46565b5b828203905092915050565b6000611b6482611b77565b9050919050565b60008115159050919050565b600073ffffffffffffffffffffffffffffffffffffffff82169050919050565b6000819050919050565b82818337600083830152505050565b60005b83811015611bce578082015181840152602081019050611bb3565b83811115611bdd576000848401525b50505050565b60006002820490506001821680611bfb57607f821691505b60208210811415611c0f57611c0e611c75565b5b50919050565b611c1e82611cd3565b810181811067ffffffffffffffff82111715611c3d57611c3c611ca4565b5b80604052505050565b7f4e487b7100000000000000000000000000000000000000000000000000000000600052601160045260246000fd5b7f4e487b7100000000000000000000000000000000000000000000000000000000600052602260045260246000fd5b7f4e487b7100000000000000000000000000000000000000000000000000000000600052604160045260246000fd5b6000601f19601f8301169050919050565b7f4e6f7420656e6f75676820746f6b656e73000000000000000000000000000000600082015250565b611d1681611b59565b8114611d2157600080fd5b50565b611d2d81611b6b565b8114611d3857600080fd5b50565b611d4481611b97565b8114611d4f57600080fd5b5056fe4368616e67696e67206772656574696e672066726f6d202725732720746f2027257327a2646970667358221220b2234513f2b3eefa852f2b54e44745d1ab51921da1d273988a686887665bbb4c64736f6c63430008040033",
  "linkReferences": {},
  "deployedLinkReferences": {}
}