{
  "_format": "hh-sol-artifact-1",
  "contractName": "XContract",
  "sourceName": "contracts/XContract.sol",
  "abi": [
    {
      "inputs": [],
      "stateMutability": "nonpayable",
      "type": "constructor"
    },
    {
      "anonymous": false,
      "inputs": [
        {
          "indexed": false,
          "internalType": "string",
          "name": "pk",
          "type": "string"
        }
      ],
      "name": "InitBalance",
      "type": "event"
    },
    {
      "anonymous": false,
      "inputs": [
        {
          "indexed": false,
          "internalType": "uint256",
          "name": "id",
          "type": "uint256"
        },
        {
          "indexed": false,
          "internalType": "string",
          "name": "rangeproof1",
          "type": "string"
        },
        {
          "indexed": false,
          "internalType": "string",
          "name": "rangeproof2",
          "type": "string"
        },
        {
          "indexed": false,
          "internalType": "string",
          "name": "sigmaProof",
          "type": "string"
        },
        {
          "indexed": false,
          "internalType": "string",
          "name": "input",
          "type": "string"
        }
      ],
      "name": "NewConfTransfer",
      "type": "event"
    },
    {
      "anonymous": false,
      "inputs": [
        {
          "indexed": false,
          "internalType": "uint256",
          "name": "id",
          "type": "uint256"
        },
        {
          "indexed": false,
          "internalType": "string",
          "name": "CL_price",
          "type": "string"
        },
        {
          "indexed": false,
          "internalType": "string",
          "name": "CR_price",
          "type": "string"
        }
      ],
      "name": "NewPrice",
      "type": "event"
    },
    {
      "anonymous": false,
      "inputs": [
        {
          "indexed": false,
          "internalType": "uint256",
          "name": "id",
          "type": "uint256"
        },
        {
          "indexed": false,
          "internalType": "string",
          "name": "proof",
          "type": "string"
        }
      ],
      "name": "NewRequest",
      "type": "event"
    },
    {
      "anonymous": false,
      "inputs": [
        {
          "indexed": false,
          "internalType": "string",
          "name": "newMsg",
          "type": "string"
        }
      ],
      "name": "TestMsg",
      "type": "event"
    },
    {
      "anonymous": false,
      "inputs": [
        {
          "indexed": false,
          "internalType": "address",
          "name": "add",
          "type": "address"
        },
        {
          "indexed": false,
          "internalType": "uint256",
          "name": "balance",
          "type": "uint256"
        }
      ],
      "name": "UpdateState",
      "type": "event"
    },
    {
      "anonymous": false,
      "inputs": [
        {
          "indexed": false,
          "internalType": "uint256",
          "name": "id",
          "type": "uint256"
        },
        {
          "indexed": false,
          "internalType": "string",
          "name": "CL_price",
          "type": "string"
        },
        {
          "indexed": false,
          "internalType": "string",
          "name": "CR_price",
          "type": "string"
        },
        {
          "indexed": false,
          "internalType": "string",
          "name": "bidderKey",
          "type": "string"
        }
      ],
      "name": "makeDeal",
      "type": "event"
    },
    {
      "inputs": [
        {
          "internalType": "string",
          "name": "y",
          "type": "string"
        }
      ],
      "name": "ElBalanceOf",
      "outputs": [
        {
          "components": [
            {
              "internalType": "string",
              "name": "CL",
              "type": "string"
            },
            {
              "internalType": "string",
              "name": "CR",
              "type": "string"
            }
          ],
          "internalType": "struct XContract.ElBalance",
          "name": "",
          "type": "tuple"
        }
      ],
      "stateMutability": "view",
      "type": "function"
    },
    {
      "inputs": [
        {
          "internalType": "uint256",
          "name": "requestId",
          "type": "uint256"
        },
        {
          "internalType": "uint256",
          "name": "dealId",
          "type": "uint256"
        },
        {
          "internalType": "string",
          "name": "requestId_str",
          "type": "string"
        }
      ],
      "name": "acceptDeal",
      "outputs": [],
      "stateMutability": "nonpayable",
      "type": "function"
    },
    {
      "inputs": [],
      "name": "association",
      "outputs": [
        {
          "internalType": "address",
          "name": "",
          "type": "address"
        }
      ],
      "stateMutability": "view",
      "type": "function"
    },
    {
      "inputs": [
        {
          "internalType": "address[]",
          "name": "newAcc",
          "type": "address[]"
        }
      ],
      "name": "authorizeNewUser",
      "outputs": [],
      "stateMutability": "nonpayable",
      "type": "function"
    },
    {
      "inputs": [],
      "name": "balanceOf",
      "outputs": [
        {
          "components": [
            {
              "internalType": "string",
              "name": "CL",
              "type": "string"
            },
            {
              "internalType": "string",
              "name": "CR",
              "type": "string"
            }
          ],
          "internalType": "struct XContract.ElBalance",
          "name": "",
          "type": "tuple"
        }
      ],
      "stateMutability": "view",
      "type": "function"
    },
    {
      "inputs": [
        {
          "internalType": "address",
          "name": "newAcc",
          "type": "address"
        }
      ],
      "name": "checkAuthorizeNewUser",
      "outputs": [
        {
          "internalType": "bool",
          "name": "",
          "type": "bool"
        }
      ],
      "stateMutability": "view",
      "type": "function"
    },
    {
      "inputs": [],
      "name": "checkAuthorized",
      "outputs": [
        {
          "internalType": "bool",
          "name": "",
          "type": "bool"
        }
      ],
      "stateMutability": "view",
      "type": "function"
    },
    {
      "inputs": [
        {
          "internalType": "string",
          "name": "proofForAmt",
          "type": "string"
        },
        {
          "internalType": "string",
          "name": "proofForRemainBalance",
          "type": "string"
        },
        {
          "internalType": "string",
          "name": "sigmaProof",
          "type": "string"
        },
        {
          "internalType": "string",
          "name": "input",
          "type": "string"
        }
      ],
      "name": "confTransfer",
      "outputs": [],
      "stateMutability": "nonpayable",
      "type": "function"
    },
    {
      "inputs": [
        {
          "internalType": "uint256",
          "name": "id",
          "type": "uint256"
        },
        {
          "internalType": "bool",
          "name": "res",
          "type": "bool"
        }
      ],
      "name": "confirmProof",
      "outputs": [],
      "stateMutability": "nonpayable",
      "type": "function"
    },
    {
      "inputs": [],
      "name": "fetchPubkey",
      "outputs": [
        {
          "internalType": "string",
          "name": "",
          "type": "string"
        }
      ],
      "stateMutability": "view",
      "type": "function"
    },
    {
      "inputs": [],
      "name": "getAllAvailableTasks",
      "outputs": [
        {
          "components": [
            {
              "internalType": "uint256",
              "name": "id",
              "type": "uint256"
            },
            {
              "internalType": "string",
              "name": "content",
              "type": "string"
            },
            {
              "internalType": "string",
              "name": "pubkeyOfSender",
              "type": "string"
            },
            {
              "internalType": "enum XContract.State",
              "name": "state",
              "type": "uint8"
            }
          ],
          "internalType": "struct XContract.Request[]",
          "name": "",
          "type": "tuple[]"
        }
      ],
      "stateMutability": "view",
      "type": "function"
    },
    {
      "inputs": [],
      "name": "getYourTasks",
      "outputs": [
        {
          "components": [
            {
              "internalType": "uint256",
              "name": "id",
              "type": "uint256"
            },
            {
              "internalType": "string",
              "name": "content",
              "type": "string"
            },
            {
              "internalType": "string",
              "name": "pubkeyOfSender",
              "type": "string"
            },
            {
              "internalType": "enum XContract.State",
              "name": "state",
              "type": "uint8"
            }
          ],
          "internalType": "struct XContract.Request[]",
          "name": "",
          "type": "tuple[]"
        }
      ],
      "stateMutability": "view",
      "type": "function"
    },
    {
      "inputs": [],
      "name": "greet",
      "outputs": [
        {
          "internalType": "string",
          "name": "",
          "type": "string"
        }
      ],
      "stateMutability": "view",
      "type": "function"
    },
    {
      "inputs": [],
      "name": "hasPubKey",
      "outputs": [
        {
          "internalType": "bool",
          "name": "",
          "type": "bool"
        }
      ],
      "stateMutability": "view",
      "type": "function"
    },
    {
      "inputs": [
        {
          "internalType": "string",
          "name": "y",
          "type": "string"
        },
        {
          "internalType": "string",
          "name": "cL",
          "type": "string"
        },
        {
          "internalType": "string",
          "name": "cR",
          "type": "string"
        }
      ],
      "name": "initPocket",
      "outputs": [],
      "stateMutability": "nonpayable",
      "type": "function"
    },
    {
      "inputs": [],
      "name": "initialSupply",
      "outputs": [
        {
          "internalType": "uint256",
          "name": "",
          "type": "uint256"
        }
      ],
      "stateMutability": "view",
      "type": "function"
    },
    {
      "inputs": [
        {
          "internalType": "uint256",
          "name": "id",
          "type": "uint256"
        }
      ],
      "name": "loadOffers",
      "outputs": [
        {
          "components": [
            {
              "internalType": "uint256",
              "name": "dealId",
              "type": "uint256"
            },
            {
              "components": [
                {
                  "internalType": "string",
                  "name": "CL",
                  "type": "string"
                },
                {
                  "internalType": "string",
                  "name": "CR",
                  "type": "string"
                }
              ],
              "internalType": "struct XContract.ElBalance",
              "name": "price",
              "type": "tuple"
            },
            {
              "internalType": "uint256",
              "name": "requestId",
              "type": "uint256"
            },
            {
              "internalType": "enum XContract.DealState",
              "name": "state",
              "type": "uint8"
            },
            {
              "internalType": "string",
              "name": "bidder",
              "type": "string"
            }
          ],
          "internalType": "struct XContract.Deal[]",
          "name": "",
          "type": "tuple[]"
        }
      ],
      "stateMutability": "view",
      "type": "function"
    },
    {
      "inputs": [],
      "name": "name",
      "outputs": [
        {
          "internalType": "string",
          "name": "",
          "type": "string"
        }
      ],
      "stateMutability": "view",
      "type": "function"
    },
    {
      "inputs": [
        {
          "internalType": "string",
          "name": "_task",
          "type": "string"
        }
      ],
      "name": "postTask",
      "outputs": [],
      "stateMutability": "nonpayable",
      "type": "function"
    },
    {
      "inputs": [
        {
          "internalType": "uint256",
          "name": "requestId",
          "type": "uint256"
        },
        {
          "internalType": "string",
          "name": "CL_price",
          "type": "string"
        },
        {
          "internalType": "string",
          "name": "CR_price",
          "type": "string"
        }
      ],
      "name": "raiseAPrice",
      "outputs": [],
      "stateMutability": "nonpayable",
      "type": "function"
    },
    {
      "inputs": [],
      "name": "totalSupply",
      "outputs": [
        {
          "internalType": "uint256",
          "name": "",
          "type": "uint256"
        }
      ],
      "stateMutability": "view",
      "type": "function"
    },
    {
      "inputs": [
        {
          "internalType": "string",
          "name": "y",
          "type": "string"
        },
        {
          "internalType": "string",
          "name": "C1",
          "type": "string"
        },
        {
          "internalType": "string",
          "name": "C2",
          "type": "string"
        },
        {
          "internalType": "string",
          "name": "yr",
          "type": "string"
        },
        {
          "internalType": "string",
          "name": "C3",
          "type": "string"
        },
        {
          "internalType": "string",
          "name": "C4",
          "type": "string"
        }
      ],
      "name": "updateBalance",
      "outputs": [],
      "stateMutability": "nonpayable",
      "type": "function"
    }
  ],
  "bytecode": "0x60806040526040518060400160405280600981526020017f58636f6e747261637400000000000000000000000000000000000000000000008152506000908051906020019062000051929190620002a9565b50620f42406002556127106003556040518060200160405280600081525060049080519060200190620000869291906200033a565b503480156200009457600080fd5b506001600560003373ffffffffffffffffffffffffffffffffffffffff1673ffffffffffffffffffffffffffffffffffffffff16815260200190815260200160002060006101000a81548160ff02191690831515021790555033600c60006101000a81548173ffffffffffffffffffffffffffffffffffffffff021916908373ffffffffffffffffffffffffffffffffffffffff1602179055506040518060400160405280600381526020017f3030300000000000000000000000000000000000000000000000000000000000815250600190805190602001906200017b929190620002a9565b50620001c76040518060400160405280601381526020017f4465706c6f79205375636365737366756c6c2000000000000000000000000000815250620001dd60201b620031af1760201c565b6000601081905550600060118190555062000517565b6200027d81604051602401620001f491906200042b565b6040516020818303038152906040527f41304fac000000000000000000000000000000000000000000000000000000007bffffffffffffffffffffffffffffffffffffffffffffffffffffffff19166020820180517bffffffffffffffffffffffffffffffffffffffffffffffffffffffff83818316178352505050506200028060201b60201c565b50565b60008151905060006a636f6e736f6c652e6c6f679050602083016000808483855afa5050505050565b828054620002b790620004a1565b90600052602060002090601f016020900481019282620002db576000855562000327565b82601f10620002f657805160ff191683800117855562000327565b8280016001018555821562000327579182015b828111156200032657825182559160200191906001019062000309565b5b509050620003369190620003cb565b5090565b8280546200034890620004a1565b90600052602060002090601f0160209004810192826200036c5760008555620003b8565b82601f106200038757805160ff1916838001178555620003b8565b82800160010185558215620003b8579182015b82811115620003b75782518255916020019190600101906200039a565b5b509050620003c79190620003cb565b5090565b5b80821115620003e6576000816000905550600101620003cc565b5090565b6000620003f7826200044f565b6200040381856200045a565b9350620004158185602086016200046b565b620004208162000506565b840191505092915050565b60006020820190508181036000830152620004478184620003ea565b905092915050565b600081519050919050565b600082825260208201905092915050565b60005b838110156200048b5780820151818401526020810190506200046e565b838111156200049b576000848401525b50505050565b60006002820490506001821680620004ba57607f821691505b60208210811415620004d157620004d0620004d7565b5b50919050565b7f4e487b7100000000000000000000000000000000000000000000000000000000600052602260045260246000fd5b6000601f19601f8301169050919050565b614ac680620005276000396000f3fe608060405234801561001057600080fd5b50600436106101425760003560e01c806362746e6c116100b8578063883764b11161007c578063883764b114610353578063c4ca280d14610371578063cfae32171461038d578063d8b86fec146103ab578063ec406e9b146103c7578063f844dcc8146103e557610142565b806362746e6c146102ad578063712bef91146102cb578063722713f7146102fb578063817f4e3d146103195780638655854c1461033757610142565b80634118b16f1161010a5780634118b16f146101db578063496cb056146101f75780634f193a9114610227578063509145db146102575780635c260e50146102735780635f32b6db1461029157610142565b8063050d4f781461014757806306fdde031461016557806318160ddd14610183578063378dc3dc146101a15780633a2568e9146101bf575b600080fd5b61014f610401565b60405161015c91906141ec565b60405180910390f35b61016d610427565b60405161017a9190614266565b60405180910390f35b61018b6104b5565b60405161019891906143fb565b60405180910390f35b6101a96104bb565b6040516101b691906143fb565b60405180910390f35b6101d960048036038101906101d49190613a2d565b6104c1565b005b6101f560048036038101906101f09190613828565b61056d565b005b610211600480360381019061020c91906136d9565b61069f565b60405161021e919061424b565b60405180910390f35b610241600480360381019061023c9190613a04565b610785565b60405161024e9190614207565b60405180910390f35b610271600480360381019061026c9190613702565b610bea565b005b61027b610d35565b604051610288919061424b565b60405180910390f35b6102ab60048036038101906102a691906138eb565b610e2f565b005b6102b5610f17565b6040516102c2919061424b565b60405180910390f35b6102e560048036038101906102e091906137e7565b610f6b565b6040516102f291906143d9565b60405180910390f35b610303611106565b60405161031091906143d9565b60405180910390f35b610321611302565b60405161032e9190614266565b60405180910390f35b610351600480360381019061034c9190613743565b61142e565b005b61035b61183d565b6040516103689190614229565b60405180910390f35b61038b600480360381019061038691906137e7565b611b7d565b005b610395611eaa565b6040516103a29190614266565b60405180910390f35b6103c560048036038101906103c09190613a69565b611f3c565b005b6103cf612340565b6040516103dc9190614229565b60405180910390f35b6103ff60048036038101906103fa9190613ae8565b612737565b005b600c60009054906101000a900473ffffffffffffffffffffffffffffffffffffffff1681565b6000805461043490614739565b80601f016020809104026020016040519081016040528092919081815260200182805461046090614739565b80156104ad5780601f10610482576101008083540402835291602001916104ad565b820191906000526020600020905b81548152906001019060200180831161049057829003601f168201915b505050505081565b60025481565b60035481565b600115158115151415610569576001600d838154811061050a577f4e487b7100000000000000000000000000000000000000000000000000000000600052603260045260246000fd5b906000526020600020906004020160030160006101000a81548160ff02191690836004811115610563577f4e487b7100000000000000000000000000000000000000000000000000000000600052602160045260246000fd5b02179055505b5050565b60011515600560003373ffffffffffffffffffffffffffffffffffffffff1673ffffffffffffffffffffffffffffffffffffffff16815260200190815260200160002060009054906101000a900460ff16151514610600576040517f08c379a00000000000000000000000000000000000000000000000000000000081526004016105f790614359565b60405180910390fd5b61063e6040518060400160405280600b81526020017f54657374204576656e74270000000000000000000000000000000000000000008152506131af565b7f2dddc06b1340f27d89cf9e1783165857c901b8fb2d67ac8443c795ec43ff341f60115485858585604051610677959493929190614416565b60405180910390a160016011600082825461069291906145db565b9250508190555050505050565b6000600c60009054906101000a900473ffffffffffffffffffffffffffffffffffffffff1673ffffffffffffffffffffffffffffffffffffffff163373ffffffffffffffffffffffffffffffffffffffff1614610731576040517f08c379a000000000000000000000000000000000000000000000000000000000815260040161072890614319565b60405180910390fd5b600560008373ffffffffffffffffffffffffffffffffffffffff1673ffffffffffffffffffffffffffffffffffffffff16815260200190815260200160002060009054906101000a900460ff169050919050565b60606000600d83815481106107c3577f4e487b7100000000000000000000000000000000000000000000000000000000600052603260045260246000fd5b906000526020600020906004020160020180546107df90614739565b80601f016020809104026020016040519081016040528092919081815260200182805461080b90614739565b80156108585780601f1061082d57610100808354040283529160200191610858565b820191906000526020600020905b81548152906001019060200180831161083b57829003601f168201915b50505050509050610868816131af565b3373ffffffffffffffffffffffffffffffffffffffff1660088260405161088f9190614149565b908152602001604051809103902060009054906101000a900473ffffffffffffffffffffffffffffffffffffffff1673ffffffffffffffffffffffffffffffffffffffff1614610914576040517f08c379a000000000000000000000000000000000000000000000000000000000815260040161090b90614339565b60405180910390fd5b600a6000848152602001908152602001600020805480602002602001604051908101604052809291908181526020016000905b82821015610bde57838290600052602060002090600602016040518060a0016040529081600082015481526020016001820160405180604001604052908160008201805461099490614739565b80601f01602080910402602001604051908101604052809291908181526020018280546109c090614739565b8015610a0d5780601f106109e257610100808354040283529160200191610a0d565b820191906000526020600020905b8154815290600101906020018083116109f057829003601f168201915b50505050508152602001600182018054610a2690614739565b80601f0160208091040260200160405190810160405280929190818152602001828054610a5290614739565b8015610a9f5780601f10610a7457610100808354040283529160200191610a9f565b820191906000526020600020905b815481529060010190602001808311610a8257829003601f168201915b5050505050815250508152602001600382015481526020016004820160009054906101000a900460ff166002811115610b01577f4e487b7100000000000000000000000000000000000000000000000000000000600052602160045260246000fd5b6002811115610b39577f4e487b7100000000000000000000000000000000000000000000000000000000600052602160045260246000fd5b8152602001600582018054610b4d90614739565b80601f0160208091040260200160405190810160405280929190818152602001828054610b7990614739565b8015610bc65780601f10610b9b57610100808354040283529160200191610bc6565b820191906000526020600020905b815481529060010190602001808311610ba957829003601f168201915b50505050508152505081526020019060010190610947565b50505050915050919050565b600c60009054906101000a900473ffffffffffffffffffffffffffffffffffffffff1673ffffffffffffffffffffffffffffffffffffffff163373ffffffffffffffffffffffffffffffffffffffff1614610c7a576040517f08c379a0000000000000000000000000000000000000000000000000000000008152600401610c7190614319565b60405180910390fd5b60005b8151811015610d3157600160056000848481518110610cc5577f4e487b7100000000000000000000000000000000000000000000000000000000600052603260045260246000fd5b602002602001015173ffffffffffffffffffffffffffffffffffffffff1673ffffffffffffffffffffffffffffffffffffffff16815260200190815260200160002060006101000a81548160ff0219169083151502179055508080610d299061479c565b915050610c7d565b5050565b600060011515600560003373ffffffffffffffffffffffffffffffffffffffff1673ffffffffffffffffffffffffffffffffffffffff16815260200190815260200160002060009054906101000a900460ff16151514610dca576040517f08c379a0000000000000000000000000000000000000000000000000000000008152600401610dc190614319565b60405180910390fd5b6000600660003373ffffffffffffffffffffffffffffffffffffffff1673ffffffffffffffffffffffffffffffffffffffff1681526020019081526020016000208054610e1690614739565b90501415610e275760009050610e2c565b600190505b90565b604051806040016040528086815260200185815250600787604051610e549190614149565b90815260200160405180910390206000820151816000019080519060200190610e7e9291906133af565b506020820151816001019080519060200190610e9b9291906133af565b50905050604051806040016040528083815260200182815250600784604051610ec49190614149565b90815260200160405180910390206000820151816000019080519060200190610eee9291906133af565b506020820151816001019080519060200190610f0b9291906133af565b50905050505050505050565b6000600560003373ffffffffffffffffffffffffffffffffffffffff1673ffffffffffffffffffffffffffffffffffffffff16815260200190815260200160002060009054906101000a900460ff16905090565b610f73613435565b610fb26040518060400160405280600781526020017f73656e646572200000000000000000000000000000000000000000000000000081525033613248565b600782604051610fc29190614149565b9081526020016040518091039020604051806040016040529081600082018054610feb90614739565b80601f016020809104026020016040519081016040528092919081815260200182805461101790614739565b80156110645780601f1061103957610100808354040283529160200191611064565b820191906000526020600020905b81548152906001019060200180831161104757829003601f168201915b5050505050815260200160018201805461107d90614739565b80601f01602080910402602001604051908101604052809291908181526020018280546110a990614739565b80156110f65780601f106110cb576101008083540402835291602001916110f6565b820191906000526020600020905b8154815290600101906020018083116110d957829003601f168201915b5050505050815250509050919050565b61110e613435565b60001515600560003373ffffffffffffffffffffffffffffffffffffffff1673ffffffffffffffffffffffffffffffffffffffff16815260200190815260200160002060009054906101000a900460ff161515141561116c57600080fd5b6000600660003373ffffffffffffffffffffffffffffffffffffffff1673ffffffffffffffffffffffffffffffffffffffff16815260200190815260200160002090506007816040516111bf9190614177565b90815260200160405180910390206040518060400160405290816000820180546111e890614739565b80601f016020809104026020016040519081016040528092919081815260200182805461121490614739565b80156112615780601f1061123657610100808354040283529160200191611261565b820191906000526020600020905b81548152906001019060200180831161124457829003601f168201915b5050505050815260200160018201805461127a90614739565b80601f01602080910402602001604051908101604052809291908181526020018280546112a690614739565b80156112f35780601f106112c8576101008083540402835291602001916112f3565b820191906000526020600020905b8154815290600101906020018083116112d657829003601f168201915b50505050508152505091505090565b606060011515600560003373ffffffffffffffffffffffffffffffffffffffff1673ffffffffffffffffffffffffffffffffffffffff16815260200190815260200160002060009054906101000a900460ff1615151461136157600080fd5b600660003373ffffffffffffffffffffffffffffffffffffffff1673ffffffffffffffffffffffffffffffffffffffff16815260200190815260200160002080546113ab90614739565b80601f01602080910402602001604051908101604052809291908181526020018280546113d790614739565b80156114245780601f106113f957610100808354040283529160200191611424565b820191906000526020600020905b81548152906001019060200180831161140757829003601f168201915b5050505050905090565b60011515600560003373ffffffffffffffffffffffffffffffffffffffff1673ffffffffffffffffffffffffffffffffffffffff16815260200190815260200160002060009054906101000a900460ff161515146114c1576040517f08c379a00000000000000000000000000000000000000000000000000000000081526004016114b890614359565b60405180910390fd5b8585600660003373ffffffffffffffffffffffffffffffffffffffff1673ffffffffffffffffffffffffffffffffffffffff168152602001908152602001600020919061150f92919061344f565b503360088787604051611523929190614130565b908152602001604051809103902060006101000a81548173ffffffffffffffffffffffffffffffffffffffff021916908373ffffffffffffffffffffffffffffffffffffffff160217905550604051806040016040528085858080601f016020809104026020016040519081016040528093929190818152602001838380828437600081840152601f19601f82011690508083019250505050505050815260200183838080601f016020809104026020016040519081016040528093929190818152602001838380828437600081840152601f19601f820116905080830192505050505050508152506007878760405161161e929190614130565b908152602001604051809103902060008201518160000190805190602001906116489291906133af565b5060208201518160010190805190602001906116659291906133af565b509050506118356040518060400160405280600b81526020017f73656e6465722061636320000000000000000000000000000000000000000000815250600788886040516116b4929190614130565b908152602001604051809103902060000180546116d090614739565b80601f01602080910402602001604051908101604052809291908181526020018280546116fc90614739565b80156117495780601f1061171e57610100808354040283529160200191611749565b820191906000526020600020905b81548152906001019060200180831161172c57829003601f168201915b50505050506040518060400160405280600581526020017f20616e642000000000000000000000000000000000000000000000000000000081525060078a8a604051611796929190614130565b908152602001604051809103902060010180546117b290614739565b80601f01602080910402602001604051908101604052809291908181526020018280546117de90614739565b801561182b5780601f106118005761010080835404028352916020019161182b565b820191906000526020600020905b81548152906001019060200180831161180e57829003601f168201915b50505050506132e4565b505050505050565b60606000600e8054905067ffffffffffffffff811115611886577f4e487b7100000000000000000000000000000000000000000000000000000000600052604160045260246000fd5b6040519080825280602002602001820160405280156118bf57816020015b6118ac6134d5565b8152602001906001900390816118a45790505b50905060005b600e80549050811015611b7557600d600e828154811061190e577f4e487b7100000000000000000000000000000000000000000000000000000000600052603260045260246000fd5b906000526020600020015481548110611950577f4e487b7100000000000000000000000000000000000000000000000000000000600052603260045260246000fd5b90600052602060002090600402016040518060800160405290816000820154815260200160018201805461198390614739565b80601f01602080910402602001604051908101604052809291908181526020018280546119af90614739565b80156119fc5780601f106119d1576101008083540402835291602001916119fc565b820191906000526020600020905b8154815290600101906020018083116119df57829003601f168201915b50505050508152602001600282018054611a1590614739565b80601f0160208091040260200160405190810160405280929190818152602001828054611a4190614739565b8015611a8e5780601f10611a6357610100808354040283529160200191611a8e565b820191906000526020600020905b815481529060010190602001808311611a7157829003601f168201915b505050505081526020016003820160009054906101000a900460ff166004811115611ae2577f4e487b7100000000000000000000000000000000000000000000000000000000600052602160045260246000fd5b6004811115611b1a577f4e487b7100000000000000000000000000000000000000000000000000000000600052602160045260246000fd5b81525050828281518110611b57577f4e487b7100000000000000000000000000000000000000000000000000000000600052603260045260246000fd5b60200260200101819052508080611b6d9061479c565b9150506118c5565b508091505090565b60011515600560003373ffffffffffffffffffffffffffffffffffffffff1673ffffffffffffffffffffffffffffffffffffffff16815260200190815260200160002060009054906101000a900460ff16151514611c10576040517f08c379a0000000000000000000000000000000000000000000000000000000008152600401611c0790614379565b60405180910390fd5b600d60405180608001604052806011548152602001838152602001600660003373ffffffffffffffffffffffffffffffffffffffff1673ffffffffffffffffffffffffffffffffffffffff1681526020019081526020016000208054611c7590614739565b80601f0160208091040260200160405190810160405280929190818152602001828054611ca190614739565b8015611cee5780601f10611cc357610100808354040283529160200191611cee565b820191906000526020600020905b815481529060010190602001808311611cd157829003601f168201915b5050505050815260200160006004811115611d32577f4e487b7100000000000000000000000000000000000000000000000000000000600052602160045260246000fd5b8152509080600181540180825580915050600190039060005260206000209060040201600090919091909150600082015181600001556020820151816001019080519060200190611d849291906133af565b506040820151816002019080519060200190611da19291906133af565b5060608201518160030160006101000a81548160ff02191690836004811115611df3577f4e487b7100000000000000000000000000000000000000000000000000000000600052602160045260246000fd5b02179055505050600960003373ffffffffffffffffffffffffffffffffffffffff1673ffffffffffffffffffffffffffffffffffffffff1681526020019081526020016000206011549080600181540180825580915050600190039060005260206000200160009091909190915055600e6011549080600181540180825580915050600190039060005260206000200160009091909190915055600160116000828254611ea091906145db565b9250508190555050565b606060018054611eb990614739565b80601f0160208091040260200160405190810160405280929190818152602001828054611ee590614739565b8015611f325780601f10611f0757610100808354040283529160200191611f32565b820191906000526020600020905b815481529060010190602001808311611f1557829003601f168201915b5050505050905090565b60011515600560003373ffffffffffffffffffffffffffffffffffffffff1673ffffffffffffffffffffffffffffffffffffffff16815260200190815260200160002060009054906101000a900460ff16151514611fcf576040517f08c379a0000000000000000000000000000000000000000000000000000000008152600401611fc690614379565b60405180910390fd5b60006004811115612009577f4e487b7100000000000000000000000000000000000000000000000000000000600052602160045260246000fd5b600d8481548110612043577f4e487b7100000000000000000000000000000000000000000000000000000000600052603260045260246000fd5b906000526020600020906004020160030160009054906101000a900460ff16600481111561209a577f4e487b7100000000000000000000000000000000000000000000000000000000600052602160045260246000fd5b146120da576040517f08c379a00000000000000000000000000000000000000000000000000000000081526004016120d1906143b9565b60405180910390fd5b6000600a6000858152602001908152602001600020805490509050600a60008581526020019081526020016000206040518060a00160405280838152602001604051806040016040528087815260200186815250815260200186815260200160006002811115612173577f4e487b7100000000000000000000000000000000000000000000000000000000600052602160045260246000fd5b8152602001600660003373ffffffffffffffffffffffffffffffffffffffff1673ffffffffffffffffffffffffffffffffffffffff16815260200190815260200160002080546121c290614739565b80601f01602080910402602001604051908101604052809291908181526020018280546121ee90614739565b801561223b5780601f106122105761010080835404028352916020019161223b565b820191906000526020600020905b81548152906001019060200180831161221e57829003601f168201915b5050505050815250908060018154018082558091505060019003906000526020600020906006020160009091909190915060008201518160000155602082015181600101600082015181600001908051906020019061229b9291906133af565b5060208201518160010190805190602001906122b89291906133af565b5050506040820151816003015560608201518160040160006101000a81548160ff02191690836002811115612316577f4e487b7100000000000000000000000000000000000000000000000000000000600052602160045260246000fd5b021790555060808201518160050190805190602001906123379291906133af565b50505050505050565b60606000600960003373ffffffffffffffffffffffffffffffffffffffff1673ffffffffffffffffffffffffffffffffffffffff1681526020019081526020016000208054905067ffffffffffffffff8111156123c6577f4e487b7100000000000000000000000000000000000000000000000000000000600052604160045260246000fd5b6040519080825280602002602001820160405280156123ff57816020015b6123ec6134d5565b8152602001906001900390816123e45790505b50905060005b600960003373ffffffffffffffffffffffffffffffffffffffff1673ffffffffffffffffffffffffffffffffffffffff1681526020019081526020016000208054905081101561272f57600d600960003373ffffffffffffffffffffffffffffffffffffffff1673ffffffffffffffffffffffffffffffffffffffff16815260200190815260200160002082815481106124c8577f4e487b7100000000000000000000000000000000000000000000000000000000600052603260045260246000fd5b90600052602060002001548154811061250a577f4e487b7100000000000000000000000000000000000000000000000000000000600052603260045260246000fd5b90600052602060002090600402016040518060800160405290816000820154815260200160018201805461253d90614739565b80601f016020809104026020016040519081016040528092919081815260200182805461256990614739565b80156125b65780601f1061258b576101008083540402835291602001916125b6565b820191906000526020600020905b81548152906001019060200180831161259957829003601f168201915b505050505081526020016002820180546125cf90614739565b80601f01602080910402602001604051908101604052809291908181526020018280546125fb90614739565b80156126485780601f1061261d57610100808354040283529160200191612648565b820191906000526020600020905b81548152906001019060200180831161262b57829003601f168201915b505050505081526020016003820160009054906101000a900460ff16600481111561269c577f4e487b7100000000000000000000000000000000000000000000000000000000600052602160045260246000fd5b60048111156126d4577f4e487b7100000000000000000000000000000000000000000000000000000000600052602160045260246000fd5b81525050828281518110612711577f4e487b7100000000000000000000000000000000000000000000000000000000600052603260045260246000fd5b602002602001018190525080806127279061479c565b915050612405565b508091505090565b60011515600560003373ffffffffffffffffffffffffffffffffffffffff1673ffffffffffffffffffffffffffffffffffffffff16815260200190815260200160002060009054906101000a900460ff161515146127ca576040517f08c379a00000000000000000000000000000000000000000000000000000000081526004016127c190614379565b60405180910390fd5b6000600d8581548110612806577f4e487b7100000000000000000000000000000000000000000000000000000000600052603260045260246000fd5b9060005260206000209060040201600201805461282290614739565b80601f016020809104026020016040519081016040528092919081815260200182805461284e90614739565b801561289b5780601f106128705761010080835404028352916020019161289b565b820191906000526020600020905b81548152906001019060200180831161287e57829003601f168201915b505050505090503373ffffffffffffffffffffffffffffffffffffffff166008826040516128c99190614149565b908152602001604051809103902060009054906101000a900473ffffffffffffffffffffffffffffffffffffffff1673ffffffffffffffffffffffffffffffffffffffff161461294e576040517f08c379a000000000000000000000000000000000000000000000000000000000815260040161294590614339565b60405180910390fd5b60006004811115612988577f4e487b7100000000000000000000000000000000000000000000000000000000600052602160045260246000fd5b600d86815481106129c2577f4e487b7100000000000000000000000000000000000000000000000000000000600052603260045260246000fd5b906000526020600020906004020160030160009054906101000a900460ff166004811115612a19577f4e487b7100000000000000000000000000000000000000000000000000000000600052602160045260246000fd5b14612a59576040517f08c379a0000000000000000000000000000000000000000000000000000000008152600401612a50906143b9565b60405180910390fd5b60006002811115612a93577f4e487b7100000000000000000000000000000000000000000000000000000000600052602160045260246000fd5b600a60008781526020019081526020016000208581548110612ade577f4e487b7100000000000000000000000000000000000000000000000000000000600052603260045260246000fd5b906000526020600020906006020160040160009054906101000a900460ff166002811115612b35577f4e487b7100000000000000000000000000000000000000000000000000000000600052602160045260246000fd5b14612b75576040517f08c379a0000000000000000000000000000000000000000000000000000000008152600401612b6c90614399565b60405180910390fd5b60008383604051602001612b8a92919061418e565b604051602081830303815290604052905060005b600a600088815260200190815260200160002080549050811015612d3557858114612d22576001600a60008981526020019081526020016000208281548110612c10577f4e487b7100000000000000000000000000000000000000000000000000000000600052603260045260246000fd5b906000526020600020906006020160040160006101000a81548160ff02191690836002811115612c69577f4e487b7100000000000000000000000000000000000000000000000000000000600052602160045260246000fd5b0217905550600b600a60008981526020019081526020016000208781548110612cbb577f4e487b7100000000000000000000000000000000000000000000000000000000600052603260045260246000fd5b9060005260206000209060060201600501604051612cd99190614160565b908152602001604051809103902082908060018154018082558091505060019003906000526020600020016000909190919091509080519060200190612d209291906133af565b505b8080612d2d9061479c565b915050612b9e565b50600280811115612d6f577f4e487b7100000000000000000000000000000000000000000000000000000000600052602160045260246000fd5b600a60008881526020019081526020016000208681548110612dba577f4e487b7100000000000000000000000000000000000000000000000000000000600052603260045260246000fd5b906000526020600020906006020160040160009054906101000a900460ff166002811115612e11577f4e487b7100000000000000000000000000000000000000000000000000000000600052602160045260246000fd5b50508383604051602001612e269291906141bd565b60405160208183030381529060405290506000600a60008881526020019081526020016000208681548110612e84577f4e487b7100000000000000000000000000000000000000000000000000000000600052603260045260246000fd5b90600052602060002090600602016005018054612ea090614739565b80601f0160208091040260200160405190810160405280929190818152602001828054612ecc90614739565b8015612f195780601f10612eee57610100808354040283529160200191612f19565b820191906000526020600020905b815481529060010190602001808311612efc57829003601f168201915b50505050509050600b81604051612f309190614149565b908152602001604051809103902082908060018154018082558091505060019003906000526020600020016000909190919091509080519060200190612f779291906133af565b5060016004811115612fb2577f4e487b7100000000000000000000000000000000000000000000000000000000600052602160045260246000fd5b600d8881548110612fec577f4e487b7100000000000000000000000000000000000000000000000000000000600052603260045260246000fd5b906000526020600020906004020160030160009054906101000a900460ff166004811115613043577f4e487b7100000000000000000000000000000000000000000000000000000000600052602160045260246000fd5b505060005b600e805490508110156131a55787600e8281548110613090577f4e487b7100000000000000000000000000000000000000000000000000000000600052603260045260246000fd5b9060005260206000200154141561319257600e6001600e805490506130b59190614631565b815481106130ec577f4e487b7100000000000000000000000000000000000000000000000000000000600052603260045260246000fd5b9060005260206000200154600e8281548110613131577f4e487b7100000000000000000000000000000000000000000000000000000000600052603260045260246000fd5b9060005260206000200181905550600e805480613177577f4e487b7100000000000000000000000000000000000000000000000000000000600052603160045260246000fd5b600190038181906000526020600020016000905590556131a5565b808061319d9061479c565b915050613048565b5050505050505050565b613245816040516024016131c39190614266565b6040516020818303038152906040527f41304fac000000000000000000000000000000000000000000000000000000007bffffffffffffffffffffffffffffffffffffffffffffffffffffffff19166020820180517bffffffffffffffffffffffffffffffffffffffffffffffffffffffff8381831617835250505050613386565b50565b6132e0828260405160240161325e929190614288565b6040516020818303038152906040527f319af333000000000000000000000000000000000000000000000000000000007bffffffffffffffffffffffffffffffffffffffffffffffffffffffff19166020820180517bffffffffffffffffffffffffffffffffffffffffffffffffffffffff8381831617835250505050613386565b5050565b613380848484846040516024016132fe94939291906142b8565b6040516020818303038152906040527fde68f20a000000000000000000000000000000000000000000000000000000007bffffffffffffffffffffffffffffffffffffffffffffffffffffffff19166020820180517bffffffffffffffffffffffffffffffffffffffffffffffffffffffff8381831617835250505050613386565b50505050565b60008151905060006a636f6e736f6c652e6c6f679050602083016000808483855afa5050505050565b8280546133bb90614739565b90600052602060002090601f0160209004810192826133dd5760008555613424565b82601f106133f657805160ff1916838001178555613424565b82800160010185558215613424579182015b82811115613423578251825591602001919060010190613408565b5b5090506134319190613535565b5090565b604051806040016040528060608152602001606081525090565b82805461345b90614739565b90600052602060002090601f01602090048101928261347d57600085556134c4565b82601f1061349657803560ff19168380011785556134c4565b828001600101855582156134c4579182015b828111156134c35782358255916020019190600101906134a8565b5b5090506134d19190613535565b5090565b60405180608001604052806000815260200160608152602001606081526020016000600481111561352f577f4e487b7100000000000000000000000000000000000000000000000000000000600052602160045260246000fd5b81525090565b5b8082111561354e576000816000905550600101613536565b5090565b6000613565613560846144aa565b614485565b9050808382526020820190508285602086028201111561358457600080fd5b60005b858110156135b4578161359a88826135fc565b845260208401935060208301925050600181019050613587565b5050509392505050565b60006135d16135cc846144d6565b614485565b9050828152602081018484840111156135e957600080fd5b6135f48482856146f7565b509392505050565b60008135905061360b81614a4b565b92915050565b600082601f83011261362257600080fd5b8135613632848260208601613552565b91505092915050565b60008135905061364a81614a62565b92915050565b60008083601f84011261366257600080fd5b8235905067ffffffffffffffff81111561367b57600080fd5b60208301915083600182028301111561369357600080fd5b9250929050565b600082601f8301126136ab57600080fd5b81356136bb8482602086016135be565b91505092915050565b6000813590506136d381614a79565b92915050565b6000602082840312156136eb57600080fd5b60006136f9848285016135fc565b91505092915050565b60006020828403121561371457600080fd5b600082013567ffffffffffffffff81111561372e57600080fd5b61373a84828501613611565b91505092915050565b6000806000806000806060878903121561375c57600080fd5b600087013567ffffffffffffffff81111561377657600080fd5b61378289828a01613650565b9650965050602087013567ffffffffffffffff8111156137a157600080fd5b6137ad89828a01613650565b9450945050604087013567ffffffffffffffff8111156137cc57600080fd5b6137d889828a01613650565b92509250509295509295509295565b6000602082840312156137f957600080fd5b600082013567ffffffffffffffff81111561381357600080fd5b61381f8482850161369a565b91505092915050565b6000806000806080858703121561383e57600080fd5b600085013567ffffffffffffffff81111561385857600080fd5b6138648782880161369a565b945050602085013567ffffffffffffffff81111561388157600080fd5b61388d8782880161369a565b935050604085013567ffffffffffffffff8111156138aa57600080fd5b6138b68782880161369a565b925050606085013567ffffffffffffffff8111156138d357600080fd5b6138df8782880161369a565b91505092959194509250565b60008060008060008060c0878903121561390457600080fd5b600087013567ffffffffffffffff81111561391e57600080fd5b61392a89828a0161369a565b965050602087013567ffffffffffffffff81111561394757600080fd5b61395389828a0161369a565b955050604087013567ffffffffffffffff81111561397057600080fd5b61397c89828a0161369a565b945050606087013567ffffffffffffffff81111561399957600080fd5b6139a589828a0161369a565b935050608087013567ffffffffffffffff8111156139c257600080fd5b6139ce89828a0161369a565b92505060a087013567ffffffffffffffff8111156139eb57600080fd5b6139f789828a0161369a565b9150509295509295509295565b600060208284031215613a1657600080fd5b6000613a24848285016136c4565b91505092915050565b60008060408385031215613a4057600080fd5b6000613a4e858286016136c4565b9250506020613a5f8582860161363b565b9150509250929050565b600080600060608486031215613a7e57600080fd5b6000613a8c868287016136c4565b935050602084013567ffffffffffffffff811115613aa957600080fd5b613ab58682870161369a565b925050604084013567ffffffffffffffff811115613ad257600080fd5b613ade8682870161369a565b9150509250925092565b60008060008060608587031215613afe57600080fd5b6000613b0c878288016136c4565b9450506020613b1d878288016136c4565b935050604085013567ffffffffffffffff811115613b3a57600080fd5b613b4687828801613650565b925092505092959194509250565b6000613b608383613fa3565b905092915050565b6000613b7483836140a8565b905092915050565b613b8581614665565b82525050565b6000613b9682614551565b613ba0818561458c565b935083602082028501613bb285614507565b8060005b85811015613bee5784840389528151613bcf8582613b54565b9450613bda83614572565b925060208a01995050600181019050613bb6565b50829750879550505050505092915050565b6000613c0b8261455c565b613c15818561459d565b935083602082028501613c2785614517565b8060005b85811015613c635784840389528151613c448582613b68565b9450613c4f8361457f565b925060208a01995050600181019050613c2b565b50829750879550505050505092915050565b613c7e81614677565b82525050565b613c8d816146d3565b82525050565b613c9c816146e5565b82525050565b6000613cae83856145d0565b9350613cbb8385846146f7565b82840190509392505050565b6000613cd282614567565b613cdc81856145ae565b9350613cec818560208601614706565b613cf5816148a1565b840191505092915050565b6000613d0b82614567565b613d1581856145bf565b9350613d25818560208601614706565b613d2e816148a1565b840191505092915050565b6000613d4482614567565b613d4e81856145d0565b9350613d5e818560208601614706565b80840191505092915050565b60008154613d7781614739565b613d8181866145d0565b94506001821660008114613d9c5760018114613dad57613de0565b60ff19831686528186019350613de0565b613db68561453c565b60005b83811015613dd857815481890152600182019150602081019050613db9565b838801955050505b50505092915050565b60008154613df681614739565b613e0081866145d0565b94506001821660008114613e1b5760018114613e2c57613e5f565b60ff19831686528186019350613e5f565b613e3585614527565b60005b83811015613e5757815481890152600182019150602081019050613e38565b838801955050505b50505092915050565b6000613e75600c836145d0565b9150613e80826148b2565b600c82019050919050565b6000613e986017836145bf565b9150613ea3826148db565b602082019050919050565b6000613ebb601f836145bf565b9150613ec682614904565b602082019050919050565b6000613ede6018836145bf565b9150613ee98261492d565b602082019050919050565b6000613f016017836145bf565b9150613f0c82614956565b602082019050919050565b6000613f246017836145d0565b9150613f2f8261497f565b601782019050919050565b6000613f47601c836145bf565b9150613f52826149a8565b602082019050919050565b6000613f6a600c836145d0565b9150613f75826149d1565b600c82019050919050565b6000613f8d6020836145bf565b9150613f98826149fa565b602082019050919050565b600060a083016000830151613fbb6000860182614112565b5060208301518482036020860152613fd38282614020565b9150506040830151613fe86040860182614112565b506060830151613ffb6060860182613c84565b50608083015184820360808601526140138282613cc7565b9150508091505092915050565b6000604083016000830151848203600086015261403d8282613cc7565b915050602083015184820360208601526140578282613cc7565b9150508091505092915050565b600060408301600083015184820360008601526140818282613cc7565b9150506020830151848203602086015261409b8282613cc7565b9150508091505092915050565b60006080830160008301516140c06000860182614112565b50602083015184820360208601526140d88282613cc7565b915050604083015184820360408601526140f28282613cc7565b91505060608301516141076060860182613c93565b508091505092915050565b61411b816146c9565b82525050565b61412a816146c9565b82525050565b600061413d828486613ca2565b91508190509392505050565b60006141558284613d39565b915081905092915050565b600061416c8284613de9565b915081905092915050565b60006141838284613d6a565b915081905092915050565b600061419982613f17565b91506141a6828486613ca2565b91506141b182613e68565b91508190509392505050565b60006141c882613f17565b91506141d5828486613ca2565b91506141e082613f5d565b91508190509392505050565b60006020820190506142016000830184613b7c565b92915050565b600060208201905081810360008301526142218184613b8b565b905092915050565b600060208201905081810360008301526142438184613c00565b905092915050565b60006020820190506142606000830184613c75565b92915050565b600060208201905081810360008301526142808184613d00565b905092915050565b600060408201905081810360008301526142a28185613d00565b90506142b16020830184613b7c565b9392505050565b600060808201905081810360008301526142d28187613d00565b905081810360208301526142e68186613d00565b905081810360408301526142fa8185613d00565b9050818103606083015261430e8184613d00565b905095945050505050565b6000602082019050818103600083015261433281613e8b565b9050919050565b6000602082019050818103600083015261435281613eae565b9050919050565b6000602082019050818103600083015261437281613ed1565b9050919050565b6000602082019050818103600083015261439281613ef4565b9050919050565b600060208201905081810360008301526143b281613f3a565b9050919050565b600060208201905081810360008301526143d281613f80565b9050919050565b600060208201905081810360008301526143f38184614064565b905092915050565b60006020820190506144106000830184614121565b92915050565b600060a08201905061442b6000830188614121565b818103602083015261443d8187613d00565b905081810360408301526144518186613d00565b905081810360608301526144658185613d00565b905081810360808301526144798184613d00565b90509695505050505050565b600061448f6144a0565b905061449b828261476b565b919050565b6000604051905090565b600067ffffffffffffffff8211156144c5576144c4614872565b5b602082029050602081019050919050565b600067ffffffffffffffff8211156144f1576144f0614872565b5b6144fa826148a1565b9050602081019050919050565b6000819050602082019050919050565b6000819050602082019050919050565b60008190508160005260206000209050919050565b60008190508160005260206000209050919050565b600081519050919050565b600081519050919050565b600081519050919050565b6000602082019050919050565b6000602082019050919050565b600082825260208201905092915050565b600082825260208201905092915050565b600082825260208201905092915050565b600082825260208201905092915050565b600081905092915050565b60006145e6826146c9565b91506145f1836146c9565b9250827fffffffffffffffffffffffffffffffffffffffffffffffffffffffffffffffff03821115614626576146256147e5565b5b828201905092915050565b600061463c826146c9565b9150614647836146c9565b92508282101561465a576146596147e5565b5b828203905092915050565b6000614670826146a9565b9050919050565b60008115159050919050565b600081905061469182614a23565b919050565b60008190506146a482614a37565b919050565b600073ffffffffffffffffffffffffffffffffffffffff82169050919050565b6000819050919050565b60006146de82614683565b9050919050565b60006146f082614696565b9050919050565b82818337600083830152505050565b60005b83811015614724578082015181840152602081019050614709565b83811115614733576000848401525b50505050565b6000600282049050600182168061475157607f821691505b6020821081141561476557614764614843565b5b50919050565b614774826148a1565b810181811067ffffffffffffffff8211171561479357614792614872565b5b80604052505050565b60006147a7826146c9565b91507fffffffffffffffffffffffffffffffffffffffffffffffffffffffffffffffff8214156147da576147d96147e5565b5b600182019050919050565b7f4e487b7100000000000000000000000000000000000000000000000000000000600052601160045260246000fd5b7f4e487b7100000000000000000000000000000000000000000000000000000000600052602160045260246000fd5b7f4e487b7100000000000000000000000000000000000000000000000000000000600052602260045260246000fd5b7f4e487b7100000000000000000000000000000000000000000000000000000000600052604160045260246000fd5b6000601f19601f8301169050919050565b7f69732072656a65637465642e0000000000000000000000000000000000000000600082015250565b7f596f7520617265206e6f7420617574686f72697a65642e000000000000000000600082015250565b7f596f7520617265206e6f74206f6e776572206f662074686973207461736b2e00600082015250565b7f596f7520686176656e277420726567697374657265642e200000000000000000600082015250565b7f596f7520686176656e277420726567697374657265642e000000000000000000600082015250565b7f596f7572206f6666657220666f72205265717565737420000000000000000000600082015250565b7f546865206465616c207374617465206973206e6f742076616c69642e00000000600082015250565b7f69732041636365707465642e0000000000000000000000000000000000000000600082015250565b7f546865207461736b206973206e6f206c6f6e67657220617661696c61626c652e600082015250565b60038110614a3457614a33614814565b5b50565b60058110614a4857614a47614814565b5b50565b614a5481614665565b8114614a5f57600080fd5b50565b614a6b81614677565b8114614a7657600080fd5b50565b614a82816146c9565b8114614a8d57600080fd5b5056fea26469706673582212200e617fa1e3ea7aa5c33c5a489ba359bf3a4325d79ca9498e7fd38700ab4a774464736f6c63430008040033",
  "linkReferences": {},
  "deployedLinkReferences": {}
}