{
  "_format": "hh-sol-artifact-1",
  "contractName": "XContract",
  "sourceName": "contracts/XContract.sol",
  "abi": [
    {
      "inputs": [],
      "stateMutability": "nonpayable",
      "type": "constructor"
    },
    {
      "anonymous": false,
      "inputs": [
        {
          "indexed": false,
          "internalType": "uint256",
          "name": "requestId",
          "type": "uint256"
        },
        {
          "indexed": false,
          "internalType": "uint256",
          "name": "id",
          "type": "uint256"
        },
        {
          "indexed": false,
          "internalType": "string",
          "name": "rangeproof1",
          "type": "string"
        },
        {
          "indexed": false,
          "internalType": "string",
          "name": "rangeproof2",
          "type": "string"
        },
        {
          "indexed": false,
          "internalType": "string",
          "name": "sigmaProof",
          "type": "string"
        },
        {
          "indexed": false,
          "internalType": "string",
          "name": "input",
          "type": "string"
        }
      ],
      "name": "NewPayment",
      "type": "event"
    },
    {
      "anonymous": false,
      "inputs": [
        {
          "indexed": false,
          "internalType": "uint256",
          "name": "id",
          "type": "uint256"
        },
        {
          "indexed": false,
          "internalType": "string",
          "name": "CL_price",
          "type": "string"
        },
        {
          "indexed": false,
          "internalType": "string",
          "name": "CR_price",
          "type": "string"
        }
      ],
      "name": "NewPrice",
      "type": "event"
    },
    {
      "anonymous": false,
      "inputs": [
        {
          "indexed": false,
          "internalType": "address",
          "name": "add",
          "type": "address"
        },
        {
          "indexed": false,
          "internalType": "uint256",
          "name": "balance",
          "type": "uint256"
        }
      ],
      "name": "UpdateState",
      "type": "event"
    },
    {
      "inputs": [
        {
          "internalType": "string",
          "name": "y",
          "type": "string"
        }
      ],
      "name": "ElBalanceOf",
      "outputs": [
        {
          "components": [
            {
              "internalType": "string",
              "name": "CL",
              "type": "string"
            },
            {
              "internalType": "string",
              "name": "CR",
              "type": "string"
            }
          ],
          "internalType": "struct XContract.ElBalance",
          "name": "",
          "type": "tuple"
        }
      ],
      "stateMutability": "view",
      "type": "function"
    },
    {
      "inputs": [
        {
          "internalType": "uint256",
          "name": "requestId",
          "type": "uint256"
        },
        {
          "internalType": "uint256",
          "name": "dealId",
          "type": "uint256"
        }
      ],
      "name": "acceptDeal",
      "outputs": [],
      "stateMutability": "nonpayable",
      "type": "function"
    },
    {
      "inputs": [],
      "name": "association",
      "outputs": [
        {
          "internalType": "address",
          "name": "",
          "type": "address"
        }
      ],
      "stateMutability": "view",
      "type": "function"
    },
    {
      "inputs": [
        {
          "internalType": "address[]",
          "name": "newAcc",
          "type": "address[]"
        }
      ],
      "name": "authorizeNewUser",
      "outputs": [],
      "stateMutability": "nonpayable",
      "type": "function"
    },
    {
      "inputs": [
        {
          "internalType": "uint256",
          "name": "id",
          "type": "uint256"
        }
      ],
      "name": "cancelRequest",
      "outputs": [],
      "stateMutability": "nonpayable",
      "type": "function"
    },
    {
      "inputs": [
        {
          "internalType": "address",
          "name": "newAcc",
          "type": "address"
        }
      ],
      "name": "checkAuthorizeNewUser",
      "outputs": [
        {
          "internalType": "bool",
          "name": "",
          "type": "bool"
        }
      ],
      "stateMutability": "view",
      "type": "function"
    },
    {
      "inputs": [
        {
          "internalType": "uint256",
          "name": "requestId",
          "type": "uint256"
        },
        {
          "internalType": "string",
          "name": "y",
          "type": "string"
        },
        {
          "internalType": "string",
          "name": "C1",
          "type": "string"
        },
        {
          "internalType": "string",
          "name": "C2",
          "type": "string"
        },
        {
          "internalType": "string",
          "name": "yr",
          "type": "string"
        },
        {
          "internalType": "string",
          "name": "C3",
          "type": "string"
        },
        {
          "internalType": "string",
          "name": "C4",
          "type": "string"
        }
      ],
      "name": "confirmProof",
      "outputs": [],
      "stateMutability": "nonpayable",
      "type": "function"
    },
    {
      "inputs": [],
      "name": "fetchPubkey",
      "outputs": [
        {
          "internalType": "string",
          "name": "",
          "type": "string"
        }
      ],
      "stateMutability": "view",
      "type": "function"
    },
    {
      "inputs": [],
      "name": "getAllAvailableTasks",
      "outputs": [
        {
          "components": [
            {
              "internalType": "uint256",
              "name": "id",
              "type": "uint256"
            },
            {
              "internalType": "string",
              "name": "content",
              "type": "string"
            },
            {
              "internalType": "string",
              "name": "pubkeyOfSender",
              "type": "string"
            },
            {
              "internalType": "enum XContract.State",
              "name": "state",
              "type": "uint8"
            },
            {
              "components": [
                {
                  "internalType": "string",
                  "name": "CL",
                  "type": "string"
                },
                {
                  "internalType": "string",
                  "name": "CR",
                  "type": "string"
                }
              ],
              "internalType": "struct XContract.ElBalance",
              "name": "acceptedPrice",
              "type": "tuple"
            },
            {
              "internalType": "string",
              "name": "worker",
              "type": "string"
            }
          ],
          "internalType": "struct XContract.Request[]",
          "name": "",
          "type": "tuple[]"
        }
      ],
      "stateMutability": "view",
      "type": "function"
    },
    {
      "inputs": [],
      "name": "getMessages",
      "outputs": [
        {
          "components": [
            {
              "internalType": "bool",
              "name": "code",
              "type": "bool"
            },
            {
              "internalType": "uint256",
              "name": "requestId",
              "type": "uint256"
            },
            {
              "components": [
                {
                  "internalType": "string",
                  "name": "CL",
                  "type": "string"
                },
                {
                  "internalType": "string",
                  "name": "CR",
                  "type": "string"
                }
              ],
              "internalType": "struct XContract.ElBalance",
              "name": "price",
              "type": "tuple"
            },
            {
              "internalType": "string",
              "name": "requestOwner",
              "type": "string"
            }
          ],
          "internalType": "struct XContract.Message[]",
          "name": "",
          "type": "tuple[]"
        }
      ],
      "stateMutability": "view",
      "type": "function"
    },
    {
      "inputs": [],
      "name": "getYourTasks",
      "outputs": [
        {
          "components": [
            {
              "internalType": "uint256",
              "name": "id",
              "type": "uint256"
            },
            {
              "internalType": "string",
              "name": "content",
              "type": "string"
            },
            {
              "internalType": "string",
              "name": "pubkeyOfSender",
              "type": "string"
            },
            {
              "internalType": "enum XContract.State",
              "name": "state",
              "type": "uint8"
            },
            {
              "components": [
                {
                  "internalType": "string",
                  "name": "CL",
                  "type": "string"
                },
                {
                  "internalType": "string",
                  "name": "CR",
                  "type": "string"
                }
              ],
              "internalType": "struct XContract.ElBalance",
              "name": "acceptedPrice",
              "type": "tuple"
            },
            {
              "internalType": "string",
              "name": "worker",
              "type": "string"
            }
          ],
          "internalType": "struct XContract.Request[]",
          "name": "",
          "type": "tuple[]"
        }
      ],
      "stateMutability": "view",
      "type": "function"
    },
    {
      "inputs": [],
      "name": "hasPubKey",
      "outputs": [
        {
          "internalType": "bool",
          "name": "",
          "type": "bool"
        }
      ],
      "stateMutability": "view",
      "type": "function"
    },
    {
      "inputs": [
        {
          "internalType": "string",
          "name": "y",
          "type": "string"
        },
        {
          "internalType": "string",
          "name": "cL",
          "type": "string"
        },
        {
          "internalType": "string",
          "name": "cR",
          "type": "string"
        }
      ],
      "name": "initPocket",
      "outputs": [],
      "stateMutability": "nonpayable",
      "type": "function"
    },
    {
      "inputs": [
        {
          "internalType": "uint256",
          "name": "id",
          "type": "uint256"
        }
      ],
      "name": "loadOffers",
      "outputs": [
        {
          "components": [
            {
              "internalType": "uint256",
              "name": "dealId",
              "type": "uint256"
            },
            {
              "components": [
                {
                  "internalType": "string",
                  "name": "CL",
                  "type": "string"
                },
                {
                  "internalType": "string",
                  "name": "CR",
                  "type": "string"
                }
              ],
              "internalType": "struct XContract.ElBalance",
              "name": "price",
              "type": "tuple"
            },
            {
              "internalType": "uint256",
              "name": "requestId",
              "type": "uint256"
            },
            {
              "internalType": "enum XContract.DealState",
              "name": "state",
              "type": "uint8"
            },
            {
              "internalType": "string",
              "name": "bidder",
              "type": "string"
            },
            {
              "internalType": "string",
              "name": "requestOwner",
              "type": "string"
            }
          ],
          "internalType": "struct XContract.Deal[]",
          "name": "",
          "type": "tuple[]"
        }
      ],
      "stateMutability": "view",
      "type": "function"
    },
    {
      "inputs": [],
      "name": "name",
      "outputs": [
        {
          "internalType": "string",
          "name": "",
          "type": "string"
        }
      ],
      "stateMutability": "view",
      "type": "function"
    },
    {
      "inputs": [
        {
          "internalType": "uint256",
          "name": "requestId",
          "type": "uint256"
        },
        {
          "internalType": "string",
          "name": "proofForAmt",
          "type": "string"
        },
        {
          "internalType": "string",
          "name": "proofForRemainBalance",
          "type": "string"
        },
        {
          "internalType": "string",
          "name": "sigmaProof",
          "type": "string"
        },
        {
          "internalType": "string",
          "name": "input",
          "type": "string"
        }
      ],
      "name": "payTheDeal",
      "outputs": [],
      "stateMutability": "nonpayable",
      "type": "function"
    },
    {
      "inputs": [
        {
          "internalType": "string",
          "name": "_task",
          "type": "string"
        }
      ],
      "name": "postTask",
      "outputs": [],
      "stateMutability": "nonpayable",
      "type": "function"
    },
    {
      "inputs": [
        {
          "internalType": "uint256",
          "name": "requestId",
          "type": "uint256"
        },
        {
          "internalType": "string",
          "name": "CL_price",
          "type": "string"
        },
        {
          "internalType": "string",
          "name": "CR_price",
          "type": "string"
        }
      ],
      "name": "raiseAPrice",
      "outputs": [],
      "stateMutability": "nonpayable",
      "type": "function"
    },
    {
      "inputs": [],
      "name": "yourBalance",
      "outputs": [
        {
          "components": [
            {
              "internalType": "string",
              "name": "CL",
              "type": "string"
            },
            {
              "internalType": "string",
              "name": "CR",
              "type": "string"
            }
          ],
          "internalType": "struct XContract.ElBalance",
          "name": "",
          "type": "tuple"
        }
      ],
      "stateMutability": "view",
      "type": "function"
    }
  ],
  "bytecode": "0x60c060405260096080819052681618dbdb9d1c9858dd60ba1b60a09081526200002c916000919062000134565b503480156200003a57600080fd5b5033600081815260016020818152604092839020805460ff1916909217909155600980546001600160a01b031916841790558151808301909252601382527f4465706c6f79205375636365737366756c2c200000000000000000000000000082820152620000b292906200370e620000c2821b17901c565b6000600d819055600e556200027e565b6200010f8282604051602401620000db929190620001da565b60408051601f198184030181529190526020810180516001600160e01b0390811663319af33360e01b179091526200011316565b5050565b80516a636f6e736f6c652e6c6f67602083016000808483855afa5050505050565b828054620001429062000241565b90600052602060002090601f016020900481019282620001665760008555620001b1565b82601f106200018157805160ff1916838001178555620001b1565b82800160010185558215620001b1579182015b82811115620001b157825182559160200191906001019062000194565b50620001bf929150620001c3565b5090565b5b80821115620001bf5760008155600101620001c4565b6040815260008351806040840152815b81811015620002095760208187018101516060868401015201620001ea565b818111156200021b5782606083860101525b506001600160a01b0393909316602083015250601f91909101601f191601606001919050565b600181811c908216806200025657607f821691505b602082108114156200027857634e487b7160e01b600052602260045260246000fd5b50919050565b614503806200028e6000396000f3fe608060405234801561001057600080fd5b50600436106101515760003560e01c8063804fed28116100cd578063bf8e176a11610081578063d8b86fec11610066578063d8b86fec146102b4578063ec406e9b146102c7578063fe58265e146102cf57600080fd5b8063bf8e176a1461028e578063c4ca280d146102a157600080fd5b80638655854c116100b25780638655854c14610253578063883764b114610266578063aed9142b1461027b57600080fd5b8063804fed2814610243578063817f4e3d1461024b57600080fd5b80634f193a91116101245780635c260e50116101095780635c260e50146102065780635ff6cbf31461020e578063712bef911461022357600080fd5b80634f193a91146101d3578063509145db146101f357600080fd5b8063050d4f781461015657806306fdde03146101865780633015394c1461019b578063496cb056146101b0575b600080fd5b600954610169906001600160a01b031681565b6040516001600160a01b0390911681526020015b60405180910390f35b61018e6102e2565b60405161017d9190614246565b6101ae6101a9366004613c8f565b610370565b005b6101c36101be366004613aee565b61060e565b604051901515815260200161017d565b6101e66101e1366004613c8f565b61068e565b60405161017d9190614007565b6101ae610201366004613b0f565b610afe565b6101c3610bd1565b610216610c63565b60405161017d91906140d7565b610236610231366004613c54565b610fc2565b60405161017d9190614301565b610236611184565b61018e6113a1565b6101ae610261366004613bbe565b611465565b61026e6117de565b60405161017d9190614166565b6101ae610289366004613d11565b611c46565b6101ae61029c366004613dc3565b611f4f565b6101ae6102af366004613c54565b612192565b6101ae6102c2366004613ca7565b61244c565b61026e612810565b6101ae6102dd366004613ebc565b612c9a565b600080546102ef9061443b565b80601f016020809104026020016040519081016040528092919081815260200182805461031b9061443b565b80156103685780601f1061033d57610100808354040283529160200191610368565b820191906000526020600020905b81548152906001019060200180831161034b57829003601f168201915b505050505081565b6000600a828154811061039357634e487b7160e01b600052603260045260246000fd5b906000526020600020906007020160020180546103af9061443b565b80601f01602080910402602001604051908101604052809291908181526020018280546103db9061443b565b80156104285780601f106103fd57610100808354040283529160200191610428565b820191906000526020600020905b81548152906001019060200180831161040b57829003601f168201915b50505050509050336001600160a01b03166004826040516104499190613f50565b908152604051908190036020019020546001600160a01b0316146104b45760405162461bcd60e51b815260206004820152601f60248201527f596f7520617265206e6f74206f6e776572206f662074686973207461736b2e0060448201526064015b60405180910390fd5b6004600a83815481106104d757634e487b7160e01b600052603260045260246000fd5b60009182526020909120600360079092020101805460ff1916600183600481111561051257634e487b7160e01b600052602160045260246000fd5b021790555060005b600b548110156106095782600b828154811061054657634e487b7160e01b600052603260045260246000fd5b906000526020600020015414156105f757600b8054610567906001906143f8565b8154811061058557634e487b7160e01b600052603260045260246000fd5b9060005260206000200154600b82815481106105b157634e487b7160e01b600052603260045260246000fd5b600091825260209091200155600b8054806105dc57634e487b7160e01b600052603160045260246000fd5b60019003818190600052602060002001600090559055505050565b8061060181614470565b91505061051a565b505050565b6009546000906001600160a01b0316331461066b5760405162461bcd60e51b815260206004820152601960248201527f596f7520646f6e277420686176652070726976696c6567652e0000000000000060448201526064016104ab565b506001600160a01b03811660009081526001602052604090205460ff165b919050565b60606000600a83815481106106b357634e487b7160e01b600052603260045260246000fd5b906000526020600020906007020160020180546106cf9061443b565b80601f01602080910402602001604051908101604052809291908181526020018280546106fb9061443b565b80156107485780601f1061071d57610100808354040283529160200191610748565b820191906000526020600020905b81548152906001019060200180831161072b57829003601f168201915b505050505090506107588161376c565b336001600160a01b03166004826040516107729190613f50565b908152604051908190036020019020546001600160a01b0316146107d85760405162461bcd60e51b815260206004820152601f60248201527f596f7520617265206e6f74206f6e776572206f662074686973207461736b2e0060448201526064016104ab565b600083815260066020908152604080832080548251818502810185019093528083529193909284015b82821015610af257838290600052602060002090600702016040518060c0016040529081600082015481526020016001820160405180604001604052908160008201805461084e9061443b565b80601f016020809104026020016040519081016040528092919081815260200182805461087a9061443b565b80156108c75780601f1061089c576101008083540402835291602001916108c7565b820191906000526020600020905b8154815290600101906020018083116108aa57829003601f168201915b505050505081526020016001820180546108e09061443b565b80601f016020809104026020016040519081016040528092919081815260200182805461090c9061443b565b80156109595780601f1061092e57610100808354040283529160200191610959565b820191906000526020600020905b81548152906001019060200180831161093c57829003601f168201915b50505091909252505050815260038201546020820152600482015460409091019060ff16600281111561099c57634e487b7160e01b600052602160045260246000fd5b60028111156109bb57634e487b7160e01b600052602160045260246000fd5b81526020016005820180546109cf9061443b565b80601f01602080910402602001604051908101604052809291908181526020018280546109fb9061443b565b8015610a485780601f10610a1d57610100808354040283529160200191610a48565b820191906000526020600020905b815481529060010190602001808311610a2b57829003601f168201915b50505050508152602001600682018054610a619061443b565b80601f0160208091040260200160405190810160405280929190818152602001828054610a8d9061443b565b8015610ada5780601f10610aaf57610100808354040283529160200191610ada565b820191906000526020600020905b815481529060010190602001808311610abd57829003601f168201915b50505050508152505081526020019060010190610801565b50505050915050919050565b6009546001600160a01b03163314610b585760405162461bcd60e51b815260206004820152601960248201527f596f7520646f6e277420686176652070726976696c6567652e0000000000000060448201526064016104ab565b60005b8151811015610bcd576001806000848481518110610b8957634e487b7160e01b600052603260045260246000fd5b6020908102919091018101516001600160a01b03168252810191909152604001600020805460ff191691151591909117905580610bc581614470565b915050610b5b565b5050565b33600090815260016020819052604082205460ff16151514610c355760405162461bcd60e51b815260206004820152601760248201527f596f7520617265206e6f7420617574686f72697a65642e00000000000000000060448201526064016104ab565b3360009081526002602052604090208054610c4f9061443b565b15159050610c5d5750600090565b50600190565b3360009081526001602081905260409091205460609160ff909116151514610ccd5760405162461bcd60e51b815260206004820152601760248201527f596f7520686176656e277420726567697374657265642e00000000000000000060448201526064016104ab565b3360009081526002602052604081208054610ce79061443b565b80601f0160208091040260200160405190810160405280929190818152602001828054610d139061443b565b8015610d605780601f10610d3557610100808354040283529160200191610d60565b820191906000526020600020905b815481529060010190602001808311610d4357829003601f168201915b50505050509050600781604051610d779190613f50565b9081526020016040518091039020805480602002602001604051908101604052809291908181526020016000905b82821015610fb85760008481526020908190206040805160808101825260058602909201805460ff1615158352600181015493830193909352805180820182526002840180549394939285019282908290610dff9061443b565b80601f0160208091040260200160405190810160405280929190818152602001828054610e2b9061443b565b8015610e785780601f10610e4d57610100808354040283529160200191610e78565b820191906000526020600020905b815481529060010190602001808311610e5b57829003601f168201915b50505050508152602001600182018054610e919061443b565b80601f0160208091040260200160405190810160405280929190818152602001828054610ebd9061443b565b8015610f0a5780601f10610edf57610100808354040283529160200191610f0a565b820191906000526020600020905b815481529060010190602001808311610eed57829003601f168201915b5050505050815250508152602001600482018054610f279061443b565b80601f0160208091040260200160405190810160405280929190818152602001828054610f539061443b565b8015610fa05780601f10610f7557610100808354040283529160200191610fa0565b820191906000526020600020905b815481529060010190602001808311610f8357829003601f168201915b50505050508152505081526020019060010190610da5565b5050505091505090565b60408051808201909152606080825260208201526009546001600160a01b031633146110305760405162461bcd60e51b815260206004820152601960248201527f596f7520646f6e277420686176652070726976696c6567652e0000000000000060448201526064016104ab565b6003826040516110409190613f50565b90815260200160405180910390206040518060400160405290816000820180546110699061443b565b80601f01602080910402602001604051908101604052809291908181526020018280546110959061443b565b80156110e25780601f106110b7576101008083540402835291602001916110e2565b820191906000526020600020905b8154815290600101906020018083116110c557829003601f168201915b505050505081526020016001820180546110fb9061443b565b80601f01602080910402602001604051908101604052809291908181526020018280546111279061443b565b80156111745780601f1061114957610100808354040283529160200191611174565b820191906000526020600020905b81548152906001019060200180831161115757829003601f168201915b5050505050815250509050919050565b60408051808201909152606080825260208201523360009081526001602052604090205460ff166111b457600080fd5b33600090815260026020526040812080546111ce9061443b565b80601f01602080910402602001604051908101604052809291908181526020018280546111fa9061443b565b80156112475780601f1061121c57610100808354040283529160200191611247565b820191906000526020600020905b81548152906001019060200180831161122a57829003601f168201915b5050505050905060038160405161125e9190613f50565b90815260200160405180910390206040518060400160405290816000820180546112879061443b565b80601f01602080910402602001604051908101604052809291908181526020018280546112b39061443b565b80156113005780601f106112d557610100808354040283529160200191611300565b820191906000526020600020905b8154815290600101906020018083116112e357829003601f168201915b505050505081526020016001820180546113199061443b565b80601f01602080910402602001604051908101604052809291908181526020018280546113459061443b565b80156113925780601f1061136757610100808354040283529160200191611392565b820191906000526020600020905b81548152906001019060200180831161137557829003601f168201915b50505050508152505091505090565b3360009081526001602081905260409091205460609160ff9091161515146113c857600080fd5b33600090815260026020526040902080546113e29061443b565b80601f016020809104026020016040519081016040528092919081815260200182805461140e9061443b565b801561145b5780601f106114305761010080835404028352916020019161145b565b820191906000526020600020905b81548152906001019060200180831161143e57829003601f168201915b5050505050905090565b3360009081526001602081905260409091205460ff161515146114ca5760405162461bcd60e51b815260206004820152601860248201527f596f7520686176656e277420726567697374657265642e20000000000000000060448201526064016104ab565b3360009081526002602052604090206114e49087876138a8565b5033600487876040516114f8929190613f40565b908152604080516020928190038301812080547fffffffffffffffffffffffff0000000000000000000000000000000000000000166001600160a01b039590951694909417909355601f860182900490910282016060908101825290820185815282918790879081908501838280828437600092019190915250505090825250604080516020601f86018190048102820181019092528481529181019190859085908190840183828082843760009201919091525050509152506040516003906115c59089908990613f40565b908152602001604051809103902060008201518160000190805190602001906115ef92919061392c565b506020828101518051611608926001850192019061392c565b509050506117d66040518060400160405280600b81526020017f73656e646572206163632000000000000000000000000000000000000000000081525060038888604051611657929190613f40565b90815260405190819003602001902080546116719061443b565b80601f016020809104026020016040519081016040528092919081815260200182805461169d9061443b565b80156116ea5780601f106116bf576101008083540402835291602001916116ea565b820191906000526020600020905b8154815290600101906020018083116116cd57829003601f168201915b50505050506040518060400160405280600581526020017f20616e642000000000000000000000000000000000000000000000000000000081525060038a8a604051611737929190613f40565b908152602001604051809103902060010180546117539061443b565b80601f016020809104026020016040519081016040528092919081815260200182805461177f9061443b565b80156117cc5780601f106117a1576101008083540402835291602001916117cc565b820191906000526020600020905b8154815290600101906020018083116117af57829003601f168201915b50505050506137cb565b505050505050565b600b5460609060009067ffffffffffffffff81111561180d57634e487b7160e01b600052604160045260246000fd5b60405190808252806020026020018201604052801561184657816020015b6118336139a0565b81526020019060019003908161182b5790505b50905060005b600b54811015611c4057600a600b828154811061187957634e487b7160e01b600052603260045260246000fd5b9060005260206000200154815481106118a257634e487b7160e01b600052603260045260246000fd5b90600052602060002090600702016040518060c0016040529081600082015481526020016001820180546118d59061443b565b80601f01602080910402602001604051908101604052809291908181526020018280546119019061443b565b801561194e5780601f106119235761010080835404028352916020019161194e565b820191906000526020600020905b81548152906001019060200180831161193157829003601f168201915b505050505081526020016002820180546119679061443b565b80601f01602080910402602001604051908101604052809291908181526020018280546119939061443b565b80156119e05780601f106119b5576101008083540402835291602001916119e0565b820191906000526020600020905b8154815290600101906020018083116119c357829003601f168201915b5050509183525050600382015460209091019060ff166004811115611a1557634e487b7160e01b600052602160045260246000fd5b6004811115611a3457634e487b7160e01b600052602160045260246000fd5b815260200160048201604051806040016040529081600082018054611a589061443b565b80601f0160208091040260200160405190810160405280929190818152602001828054611a849061443b565b8015611ad15780601f10611aa657610100808354040283529160200191611ad1565b820191906000526020600020905b815481529060010190602001808311611ab457829003601f168201915b50505050508152602001600182018054611aea9061443b565b80601f0160208091040260200160405190810160405280929190818152602001828054611b169061443b565b8015611b635780601f10611b3857610100808354040283529160200191611b63565b820191906000526020600020905b815481529060010190602001808311611b4657829003601f168201915b5050505050815250508152602001600682018054611b809061443b565b80601f0160208091040260200160405190810160405280929190818152602001828054611bac9061443b565b8015611bf95780601f10611bce57610100808354040283529160200191611bf9565b820191906000526020600020905b815481529060010190602001808311611bdc57829003601f168201915b505050505081525050828281518110611c2257634e487b7160e01b600052603260045260246000fd5b60200260200101819052508080611c3890614470565b91505061184c565b50919050565b3360009081526001602081905260409091205460ff16151514611cab5760405162461bcd60e51b815260206004820152601360248201527f496e76616c6964205472616e73616374696f6e0000000000000000000000000060448201526064016104ab565b6000600a8681548110611cce57634e487b7160e01b600052603260045260246000fd5b90600052602060002090600702016002018054611cea9061443b565b80601f0160208091040260200160405190810160405280929190818152602001828054611d169061443b565b8015611d635780601f10611d3857610100808354040283529160200191611d63565b820191906000526020600020905b815481529060010190602001808311611d4657829003601f168201915b50505050509050336001600160a01b0316600482604051611d849190613f50565b908152604051908190036020019020546001600160a01b031614611dea5760405162461bcd60e51b815260206004820152600f60248201527f496e76616c6964205061796d656e74000000000000000000000000000000000060448201526064016104ab565b6001600a8781548110611e0d57634e487b7160e01b600052603260045260246000fd5b600091825260209091206003600790920201015460ff166004811115611e4357634e487b7160e01b600052602160045260246000fd5b1415611f04576002600a8781548110611e6c57634e487b7160e01b600052603260045260246000fd5b60009182526020909120600360079092020101805460ff19166001836004811115611ea757634e487b7160e01b600052602160045260246000fd5b0217905550611eeb6040518060400160405280600681526020017f696e7075742000000000000000000000000000000000000000000000000000008152508361382d565b6001600e6000828254611efe91906143e0565b90915550505b7f716eedf64a91f0ef5de874deb27dfa9eb08938e696311dd89c2754611018365a86600e5487878787604051611f3f96959493929190614349565b60405180910390a1505050505050565b6009546001600160a01b03163314611fa95760405162461bcd60e51b815260206004820152601960248201527f596f7520646f6e277420686176652070726976696c6567652e0000000000000060448201526064016104ab565b6002600a8881548110611fcc57634e487b7160e01b600052603260045260246000fd5b600091825260209091206003600790920201015460ff16600481111561200257634e487b7160e01b600052602160045260246000fd5b1461204f5760405162461bcd60e51b815260206004820181905260248201527f546865207461736b206973206e6f206c6f6e67657220617661696c61626c652e60448201526064016104ab565b6003600a888154811061207257634e487b7160e01b600052603260045260246000fd5b60009182526020909120600360079092020101805460ff191660018360048111156120ad57634e487b7160e01b600052602160045260246000fd5b02179055506040518060400160405280868152602001858152506003876040516120d79190613f50565b9081526020016040518091039020600082015181600001908051906020019061210192919061392c565b50602082810151805161211a926001850192019061392c565b509050506040518060400160405280838152602001828152506003846040516121439190613f50565b9081526020016040518091039020600082015181600001908051906020019061216d92919061392c565b506020828101518051612186926001850192019061392c565b50505050505050505050565b3360009081526001602081905260409091205460ff161515146121f75760405162461bcd60e51b815260206004820152601760248201527f596f7520686176656e277420726567697374657265642e00000000000000000060448201526064016104ab565b6040805160c081018252600d548152602080820184905233600090815260029091528290208054600a938301919061222e9061443b565b80601f016020809104026020016040519081016040528092919081815260200182805461225a9061443b565b80156122a75780601f1061227c576101008083540402835291602001916122a7565b820191906000526020600020905b81548152906001019060200180831161228a57829003601f168201915b505050918352505060200160008152604080516060810182526000818301818152825282516020818101855282825283810191909152808501929092528251808301845281815292909301919091528354600181810186559483529181902083516007909302019182558281015180519394929361232c93850192919091019061392c565b506040820151805161234891600284019160209091019061392c565b50606082015160038201805460ff1916600183600481111561237a57634e487b7160e01b600052602160045260246000fd5b0217905550608082015180518051600484019161239c9183916020019061392c565b5060208281015180516123b5926001850192019061392c565b50505060a082015180516123d391600684019160209091019061392c565b50503360009081526005602090815260408220600d8054825460018181018555938652938520909301929092558154600b805480840182559085527f0175b7a638427703f0dbe7bb9bbf987a2551717b34e79f33b5b1008d1fa01db9018190559093509091906124449084906143e0565b909155505050565b3360009081526001602081905260409091205460ff161515146124b15760405162461bcd60e51b815260206004820152601760248201527f596f7520686176656e277420726567697374657265642e00000000000000000060448201526064016104ab565b6000600a84815481106124d457634e487b7160e01b600052603260045260246000fd5b600091825260209091206003600790920201015460ff16600481111561250a57634e487b7160e01b600052602160045260246000fd5b146125575760405162461bcd60e51b815260206004820181905260248201527f546865207461736b206973206e6f206c6f6e67657220617661696c61626c652e60448201526064016104ab565b60008381526006602090815260408083208054825160c0810184528181528351808501855288815280860188905281860152808401899052606081018690523386526002909452919093208054919392916080830191906125b79061443b565b80601f01602080910402602001604051908101604052809291908181526020018280546125e39061443b565b80156126305780601f1061260557610100808354040283529160200191612630565b820191906000526020600020905b81548152906001019060200180831161261357829003601f168201915b50505050508152602001600a878154811061265b57634e487b7160e01b600052603260045260246000fd5b906000526020600020906007020160020180546126779061443b565b80601f01602080910402602001604051908101604052809291908181526020018280546126a39061443b565b80156126f05780601f106126c5576101008083540402835291602001916126f0565b820191906000526020600020905b8154815290600101906020018083116126d357829003601f168201915b505050919092525050815460018181018455600093845260209384902083516007909302019182558383015180518051949593949193928501926127399284929091019061392c565b506020828101518051612752926001850192019061392c565b50505060408201516003820155606082015160048201805460ff1916600183600281111561279057634e487b7160e01b600052602160045260246000fd5b0217905550608082015180516127b091600584019160209091019061392c565b5060a082015180516127cc91600684019160209091019061392c565b5050507ffc32bd222e726fe09dc6c0804de5504630d963f256bf63673200d819dd2405f384848460405161280293929190614314565b60405180910390a150505050565b336000908152600560205260408120546060919067ffffffffffffffff81111561284a57634e487b7160e01b600052604160045260246000fd5b60405190808252806020026020018201604052801561288357816020015b6128706139a0565b8152602001906001900390816128685790505b50905060005b33600090815260056020526040902054811015611c40573360009081526005602052604090208054600a9190839081106128d357634e487b7160e01b600052603260045260246000fd5b9060005260206000200154815481106128fc57634e487b7160e01b600052603260045260246000fd5b90600052602060002090600702016040518060c00160405290816000820154815260200160018201805461292f9061443b565b80601f016020809104026020016040519081016040528092919081815260200182805461295b9061443b565b80156129a85780601f1061297d576101008083540402835291602001916129a8565b820191906000526020600020905b81548152906001019060200180831161298b57829003601f168201915b505050505081526020016002820180546129c19061443b565b80601f01602080910402602001604051908101604052809291908181526020018280546129ed9061443b565b8015612a3a5780601f10612a0f57610100808354040283529160200191612a3a565b820191906000526020600020905b815481529060010190602001808311612a1d57829003601f168201915b5050509183525050600382015460209091019060ff166004811115612a6f57634e487b7160e01b600052602160045260246000fd5b6004811115612a8e57634e487b7160e01b600052602160045260246000fd5b815260200160048201604051806040016040529081600082018054612ab29061443b565b80601f0160208091040260200160405190810160405280929190818152602001828054612ade9061443b565b8015612b2b5780601f10612b0057610100808354040283529160200191612b2b565b820191906000526020600020905b815481529060010190602001808311612b0e57829003601f168201915b50505050508152602001600182018054612b449061443b565b80601f0160208091040260200160405190810160405280929190818152602001828054612b709061443b565b8015612bbd5780601f10612b9257610100808354040283529160200191612bbd565b820191906000526020600020905b815481529060010190602001808311612ba057829003601f168201915b5050505050815250508152602001600682018054612bda9061443b565b80601f0160208091040260200160405190810160405280929190818152602001828054612c069061443b565b8015612c535780601f10612c2857610100808354040283529160200191612c53565b820191906000526020600020905b815481529060010190602001808311612c3657829003601f168201915b505050505081525050828281518110612c7c57634e487b7160e01b600052603260045260246000fd5b60200260200101819052508080612c9290614470565b915050612889565b3360009081526001602081905260409091205460ff16151514612cff5760405162461bcd60e51b815260206004820152601760248201527f596f7520686176656e277420726567697374657265642e00000000000000000060448201526064016104ab565b6000600a8381548110612d2257634e487b7160e01b600052603260045260246000fd5b90600052602060002090600702016002018054612d3e9061443b565b80601f0160208091040260200160405190810160405280929190818152602001828054612d6a9061443b565b8015612db75780601f10612d8c57610100808354040283529160200191612db7565b820191906000526020600020905b815481529060010190602001808311612d9a57829003601f168201915b50505050509050336001600160a01b0316600482604051612dd89190613f50565b908152604051908190036020019020546001600160a01b031614612e3e5760405162461bcd60e51b815260206004820152601f60248201527f596f7520617265206e6f74206f6e776572206f662074686973207461736b2e0060448201526064016104ab565b6000600a8481548110612e6157634e487b7160e01b600052603260045260246000fd5b600091825260209091206003600790920201015460ff166004811115612e9757634e487b7160e01b600052602160045260246000fd5b14612ee45760405162461bcd60e51b815260206004820181905260248201527f546865207461736b206973206e6f206c6f6e67657220617661696c61626c652e60448201526064016104ab565b6000838152600660205260408120805484908110612f1257634e487b7160e01b600052603260045260246000fd5b600091825260209091206004600790920201015460ff166002811115612f4857634e487b7160e01b600052602160045260246000fd5b14612f955760405162461bcd60e51b815260206004820152601c60248201527f546865206465616c207374617465206973206e6f742076616c69642e0000000060448201526064016104ab565b6001600a8481548110612fb857634e487b7160e01b600052603260045260246000fd5b60009182526020909120600360079092020101805460ff19166001836004811115612ff357634e487b7160e01b600052602160045260246000fd5b021790555060005b6000848152600660205260409020548110156133205782811461330e5760008481526006602052604090208054600191908390811061304a57634e487b7160e01b600052603260045260246000fd5b60009182526020909120600460079092020101805460ff1916600183600281111561308557634e487b7160e01b600052602160045260246000fd5b02179055506000848152600660205260409020805460079190839081106130bc57634e487b7160e01b600052603260045260246000fd5b90600052602060002090600702016005016040516130da9190613f6c565b9081526020016040518091039020604051806080016040528060001515815260200186815260200160066000888152602001908152602001600020848154811061313457634e487b7160e01b600052603260045260246000fd5b90600052602060002090600702016001016040518060400160405290816000820180546131609061443b565b80601f016020809104026020016040519081016040528092919081815260200182805461318c9061443b565b80156131d95780601f106131ae576101008083540402835291602001916131d9565b820191906000526020600020905b8154815290600101906020018083116131bc57829003601f168201915b505050505081526020016001820180546131f29061443b565b80601f016020809104026020016040519081016040528092919081815260200182805461321e9061443b565b801561326b5780601f106132405761010080835404028352916020019161326b565b820191906000526020600020905b81548152906001019060200180831161324e57829003601f168201915b50505091909252505050815260209081018590528254600180820185556000948552938290208351600590920201805460ff19169115159190911781558282015193810193909355604082015180518051939493919260028501926132d3928492019061392c565b5060208281015180516132ec926001850192019061392c565b5050506060820151805161330a91600484019160209091019061392c565b5050505b8061331881614470565b915050612ffb565b5060008381526006602052604090208054600291908490811061335357634e487b7160e01b600052603260045260246000fd5b60009182526020909120600460079092020101805460ff1916600183600281111561338e57634e487b7160e01b600052602160045260246000fd5b02179055506000838152600660205260409020805460079190849081106133c557634e487b7160e01b600052603260045260246000fd5b90600052602060002090600702016005016040516133e39190613f6c565b9081526020016040518091039020604051806080016040528060011515815260200185815260200160066000878152602001908152602001600020858154811061343d57634e487b7160e01b600052603260045260246000fd5b90600052602060002090600702016001016040518060400160405290816000820180546134699061443b565b80601f01602080910402602001604051908101604052809291908181526020018280546134959061443b565b80156134e25780601f106134b7576101008083540402835291602001916134e2565b820191906000526020600020905b8154815290600101906020018083116134c557829003601f168201915b505050505081526020016001820180546134fb9061443b565b80601f01602080910402602001604051908101604052809291908181526020018280546135279061443b565b80156135745780601f1061354957610100808354040283529160200191613574565b820191906000526020600020905b81548152906001019060200180831161355757829003601f168201915b50505091909252505050815260209081018490528254600180820185556000948552938290208351600590920201805460ff19169115159190911781558282015193810193909355604082015180518051939493919260028501926135dc928492019061392c565b5060208281015180516135f5926001850192019061392c565b5050506060820151805161361391600484019160209091019061392c565b50505060005b600b548110156137085783600b828154811061364557634e487b7160e01b600052603260045260246000fd5b906000526020600020015414156136f657600b8054613666906001906143f8565b8154811061368457634e487b7160e01b600052603260045260246000fd5b9060005260206000200154600b82815481106136b057634e487b7160e01b600052603260045260246000fd5b600091825260209091200155600b8054806136db57634e487b7160e01b600052603160045260246000fd5b60019003818190600052602060002001600090559055613708565b8061370081614470565b915050613619565b50505050565b610bcd8282604051602401613724929190614259565b60408051601f198184030181529190526020810180516001600160e01b03167f319af33300000000000000000000000000000000000000000000000000000000179052613887565b6137c8816040516024016137809190614246565b60408051601f198184030181529190526020810180516001600160e01b03167f41304fac00000000000000000000000000000000000000000000000000000000179052613887565b50565b613708848484846040516024016137e594939291906142a9565b60408051601f198184030181529190526020810180516001600160e01b03167fde68f20a00000000000000000000000000000000000000000000000000000000179052613887565b610bcd8282604051602401613843929190614284565b60408051601f198184030181529190526020810180516001600160e01b03167f4b5c4277000000000000000000000000000000000000000000000000000000001790525b80516a636f6e736f6c652e6c6f67602083016000808483855afa5050505050565b8280546138b49061443b565b90600052602060002090601f0160209004810192826138d6576000855561391c565b82601f106138ef5782800160ff1982351617855561391c565b8280016001018555821561391c579182015b8281111561391c578235825591602001919060010190613901565b50613928929150613a10565b5090565b8280546139389061443b565b90600052602060002090601f01602090048101928261395a576000855561391c565b82601f1061397357805160ff191683800117855561391c565b8280016001018555821561391c579182015b8281111561391c578251825591602001919060010190613985565b6040518060c00160405280600081526020016060815260200160608152602001600060048111156139e157634e487b7160e01b600052602160045260246000fd5b8152602001613a03604051806040016040528060608152602001606081525090565b8152602001606081525090565b5b808211156139285760008155600101613a11565b80356001600160a01b038116811461068957600080fd5b60008083601f840112613a4d578182fd5b50813567ffffffffffffffff811115613a64578182fd5b602083019150836020828501011115613a7c57600080fd5b9250929050565b600082601f830112613a93578081fd5b813567ffffffffffffffff811115613aad57613aad6144b7565b613ac0601f8201601f19166020016143af565b818152846020838601011115613ad4578283fd5b816020850160208301379081016020019190915292915050565b600060208284031215613aff578081fd5b613b0882613a25565b9392505050565b60006020808385031215613b21578182fd5b823567ffffffffffffffff80821115613b38578384fd5b818501915085601f830112613b4b578384fd5b813581811115613b5d57613b5d6144b7565b8060051b9150613b6e8483016143af565b8181528481019084860184860187018a1015613b88578788fd5b8795505b83861015613bb157613b9d81613a25565b835260019590950194918601918601613b8c565b5098975050505050505050565b60008060008060008060608789031215613bd6578182fd5b863567ffffffffffffffff80821115613bed578384fd5b613bf98a838b01613a3c565b90985096506020890135915080821115613c11578384fd5b613c1d8a838b01613a3c565b90965094506040890135915080821115613c35578384fd5b50613c4289828a01613a3c565b979a9699509497509295939492505050565b600060208284031215613c65578081fd5b813567ffffffffffffffff811115613c7b578182fd5b613c8784828501613a83565b949350505050565b600060208284031215613ca0578081fd5b5035919050565b600080600060608486031215613cbb578283fd5b83359250602084013567ffffffffffffffff80821115613cd9578384fd5b613ce587838801613a83565b93506040860135915080821115613cfa578283fd5b50613d0786828701613a83565b9150509250925092565b600080600080600060a08688031215613d28578081fd5b85359450602086013567ffffffffffffffff80821115613d46578283fd5b613d5289838a01613a83565b95506040880135915080821115613d67578283fd5b613d7389838a01613a83565b94506060880135915080821115613d88578283fd5b613d9489838a01613a83565b93506080880135915080821115613da9578283fd5b50613db688828901613a83565b9150509295509295909350565b600080600080600080600060e0888a031215613ddd578081fd5b87359650602088013567ffffffffffffffff80821115613dfb578283fd5b613e078b838c01613a83565b975060408a0135915080821115613e1c578283fd5b613e288b838c01613a83565b965060608a0135915080821115613e3d578283fd5b613e498b838c01613a83565b955060808a0135915080821115613e5e578283fd5b613e6a8b838c01613a83565b945060a08a0135915080821115613e7f578283fd5b613e8b8b838c01613a83565b935060c08a0135915080821115613ea0578283fd5b50613ead8a828b01613a83565b91505092959891949750929550565b60008060408385031215613ece578182fd5b50508035926020909101359150565b60008151808452613ef581602086016020860161440f565b601f01601f19169290920160200192915050565b6000815160408452613f1e6040850182613edd565b905060208301518482036020860152613f378282613edd565b95945050505050565b8183823760009101908152919050565b60008251613f6281846020870161440f565b9190910192915050565b600080835482600182811c915080831680613f8857607f831692505b6020808410821415613fa857634e487b7160e01b87526022600452602487fd5b818015613fbc5760018114613fcd57613ff9565b60ff19861689528489019650613ff9565b60008a815260209020885b86811015613ff15781548b820152908501908301613fd8565b505084890196505b509498975050505050505050565b60006020808301818452808551808352604092508286019150828160051b870101848801865b838110156140c957603f19898403018552815160c08151855288820151818a87015261405b82870182613f09565b91505087820151888601526060808301516003811061407c5761407c6144a1565b90860152608082810151868303828801526140978382613edd565b9250505060a080830151925085820381870152506140b58183613edd565b96890196945050509086019060010161402d565b509098975050505050505050565b60006020808301818452808551808352604092508286019150828160051b870101848801865b838110156140c957603f1989840301855281516080815115158552888201518986015287820151818987015261413582870182613f09565b915050606080830151925085820381870152506141528183613edd565b9689019694505050908601906001016140fd565b602080825282518282018190526000919060409081850190600581811b87018401888601875b8481101561423757603f198a8403018652815160c08151855289820151818b8701526141ba82870182613edd565b915050888201518582038a8701526141d28282613edd565b9150506060808301518781106141ea576141ea6144a1565b90860152608082810151868303828801526142058382613f09565b9250505060a080830151925085820381870152506142238183613edd565b978a0197945050509087019060010161418c565b50909998505050505050505050565b602081526000613b086020830184613edd565b60408152600061426c6040830185613edd565b90506001600160a01b03831660208301529392505050565b6040815260006142976040830185613edd565b8281036020840152613f378185613edd565b6080815260006142bc6080830187613edd565b82810360208401526142ce8187613edd565b905082810360408401526142e28186613edd565b905082810360608401526142f68185613edd565b979650505050505050565b602081526000613b086020830184613f09565b83815260606020820152600061432d6060830185613edd565b828103604084015261433f8185613edd565b9695505050505050565b86815285602082015260c06040820152600061436860c0830187613edd565b828103606084015261437a8187613edd565b9050828103608084015261438e8186613edd565b905082810360a08401526143a28185613edd565b9998505050505050505050565b604051601f8201601f1916810167ffffffffffffffff811182821017156143d8576143d86144b7565b604052919050565b600082198211156143f3576143f361448b565b500190565b60008282101561440a5761440a61448b565b500390565b60005b8381101561442a578181015183820152602001614412565b838111156137085750506000910152565b600181811c9082168061444f57607f821691505b60208210811415611c4057634e487b7160e01b600052602260045260246000fd5b60006000198214156144845761448461448b565b5060010190565b634e487b7160e01b600052601160045260246000fd5b634e487b7160e01b600052602160045260246000fd5b634e487b7160e01b600052604160045260246000fdfea264697066735822122092cffb86d2cf2aa4f5513405e1d6354c04e949efb88114236a11876a2342fa4364736f6c63430008040033",
  "linkReferences": {},
  "deployedLinkReferences": {}
}