{
  "_format": "hh-sol-artifact-1",
  "contractName": "XContract",
  "sourceName": "contracts/XContract.sol",
  "abi": [
    {
      "inputs": [],
      "stateMutability": "nonpayable",
      "type": "constructor"
    },
    {
      "anonymous": false,
      "inputs": [
        {
          "indexed": false,
          "internalType": "string",
          "name": "pk",
          "type": "string"
        }
      ],
      "name": "InitBalance",
      "type": "event"
    },
    {
      "anonymous": false,
      "inputs": [
        {
          "indexed": false,
          "internalType": "string",
          "name": "proof1",
          "type": "string"
        }
      ],
      "name": "NewConfTransfer",
      "type": "event"
    },
    {
      "anonymous": false,
      "inputs": [
        {
          "indexed": false,
          "internalType": "uint256",
          "name": "id",
          "type": "uint256"
        },
        {
          "indexed": false,
          "internalType": "string",
          "name": "proof",
          "type": "string"
        }
      ],
      "name": "NewRequest",
      "type": "event"
    },
    {
      "anonymous": false,
      "inputs": [
        {
          "indexed": false,
          "internalType": "string",
          "name": "newMsg",
          "type": "string"
        }
      ],
      "name": "TestMsg",
      "type": "event"
    },
    {
      "anonymous": false,
      "inputs": [
        {
          "indexed": false,
          "internalType": "address",
          "name": "add",
          "type": "address"
        },
        {
          "indexed": false,
          "internalType": "uint256",
          "name": "balance",
          "type": "uint256"
        }
      ],
      "name": "UpdateState",
      "type": "event"
    },
    {
      "inputs": [
        {
          "internalType": "string",
          "name": "y",
          "type": "string"
        }
      ],
      "name": "ElBalanceOf",
      "outputs": [
        {
          "components": [
            {
              "internalType": "string",
              "name": "CL",
              "type": "string"
            },
            {
              "internalType": "string",
              "name": "CR",
              "type": "string"
            }
          ],
          "internalType": "struct XContract.ElBalance",
          "name": "",
          "type": "tuple"
        }
      ],
      "stateMutability": "view",
      "type": "function"
    },
    {
      "inputs": [
        {
          "internalType": "string",
          "name": "",
          "type": "string"
        }
      ],
      "name": "acc",
      "outputs": [
        {
          "internalType": "string",
          "name": "CL",
          "type": "string"
        },
        {
          "internalType": "string",
          "name": "CR",
          "type": "string"
        }
      ],
      "stateMutability": "view",
      "type": "function"
    },
    {
      "inputs": [],
      "name": "association",
      "outputs": [
        {
          "internalType": "address",
          "name": "",
          "type": "address"
        }
      ],
      "stateMutability": "view",
      "type": "function"
    },
    {
      "inputs": [],
      "name": "balanceOf",
      "outputs": [
        {
          "internalType": "uint256",
          "name": "",
          "type": "uint256"
        }
      ],
      "stateMutability": "view",
      "type": "function"
    },
    {
      "inputs": [
        {
          "internalType": "string",
          "name": "proofForAmt",
          "type": "string"
        },
        {
          "internalType": "string",
          "name": "proofForRemainBalance",
          "type": "string"
        }
      ],
      "name": "confTransfer",
      "outputs": [],
      "stateMutability": "nonpayable",
      "type": "function"
    },
    {
      "inputs": [
        {
          "internalType": "uint256",
          "name": "id",
          "type": "uint256"
        },
        {
          "internalType": "bool",
          "name": "res",
          "type": "bool"
        }
      ],
      "name": "confirmProof",
      "outputs": [],
      "stateMutability": "nonpayable",
      "type": "function"
    },
    {
      "inputs": [
        {
          "internalType": "uint256",
          "name": "amt",
          "type": "uint256"
        },
        {
          "internalType": "address",
          "name": "user",
          "type": "address"
        }
      ],
      "name": "fundToAccount",
      "outputs": [],
      "stateMutability": "nonpayable",
      "type": "function"
    },
    {
      "inputs": [],
      "name": "greet",
      "outputs": [
        {
          "internalType": "string",
          "name": "",
          "type": "string"
        }
      ],
      "stateMutability": "view",
      "type": "function"
    },
    {
      "inputs": [
        {
          "internalType": "string",
          "name": "y",
          "type": "string"
        },
        {
          "internalType": "string",
          "name": "cL",
          "type": "string"
        },
        {
          "internalType": "string",
          "name": "cR",
          "type": "string"
        }
      ],
      "name": "initElBalance",
      "outputs": [],
      "stateMutability": "nonpayable",
      "type": "function"
    },
    {
      "inputs": [],
      "name": "initialSupply",
      "outputs": [
        {
          "internalType": "uint256",
          "name": "",
          "type": "uint256"
        }
      ],
      "stateMutability": "view",
      "type": "function"
    },
    {
      "inputs": [],
      "name": "name",
      "outputs": [
        {
          "internalType": "string",
          "name": "",
          "type": "string"
        }
      ],
      "stateMutability": "view",
      "type": "function"
    },
    {
      "inputs": [
        {
          "internalType": "string",
          "name": "y",
          "type": "string"
        }
      ],
      "name": "privateTransfer",
      "outputs": [
        {
          "internalType": "uint256",
          "name": "",
          "type": "uint256"
        }
      ],
      "stateMutability": "nonpayable",
      "type": "function"
    },
    {
      "inputs": [
        {
          "internalType": "address",
          "name": "newAcc",
          "type": "address"
        }
      ],
      "name": "register",
      "outputs": [],
      "stateMutability": "nonpayable",
      "type": "function"
    },
    {
      "inputs": [
        {
          "internalType": "string",
          "name": "key",
          "type": "string"
        }
      ],
      "name": "registerKey",
      "outputs": [],
      "stateMutability": "nonpayable",
      "type": "function"
    },
    {
      "inputs": [
        {
          "internalType": "string",
          "name": "_greeting",
          "type": "string"
        }
      ],
      "name": "setGreeting",
      "outputs": [],
      "stateMutability": "nonpayable",
      "type": "function"
    },
    {
      "inputs": [],
      "name": "totalSupply",
      "outputs": [
        {
          "internalType": "uint256",
          "name": "",
          "type": "uint256"
        }
      ],
      "stateMutability": "view",
      "type": "function"
    },
    {
      "inputs": [
        {
          "internalType": "address",
          "name": "to",
          "type": "address"
        },
        {
          "internalType": "uint256",
          "name": "amount",
          "type": "uint256"
        }
      ],
      "name": "transfer",
      "outputs": [],
      "stateMutability": "nonpayable",
      "type": "function"
    }
  ],
  "bytecode": "0x60806040526040518060400160405280600981526020017f58636f6e7472616374000000000000000000000000000000000000000000000081525060009080519060200190620000519291906200035d565b50620f42406002556127106003553480156200006c57600080fd5b50600254600460003373ffffffffffffffffffffffffffffffffffffffff1673ffffffffffffffffffffffffffffffffffffffff168152602001908152602001600020819055506001600560003373ffffffffffffffffffffffffffffffffffffffff1673ffffffffffffffffffffffffffffffffffffffff16815260200190815260200160002060006101000a81548160ff02191690831515021790555033600760006101000a81548173ffffffffffffffffffffffffffffffffffffffff021916908373ffffffffffffffffffffffffffffffffffffffff1602179055506040518060400160405280600381526020017f303030000000000000000000000000000000000000000000000000000000000081525060019080519060200190620001999291906200035d565b50620002786040518060400160405280601b81526020017f4368616e67696e67206772656574696e672066726f6d2027257327000000000081525060018054620001e390620004db565b80601f01602080910402602001604051908101604052809291908181526020018280546200021190620004db565b8015620002625780601f10620002365761010080835404028352916020019162000262565b820191906000526020600020905b8154815290600101906020018083116200024457829003601f168201915b50505050506200028e60201b6200133f1760201c565b60006009819055506000600a8190555062000551565b620003308282604051602401620002a79291906200044e565b6040516020818303038152906040527f4b5c4277000000000000000000000000000000000000000000000000000000007bffffffffffffffffffffffffffffffffffffffffffffffffffffffff19166020820180517bffffffffffffffffffffffffffffffffffffffffffffffffffffffff83818316178352505050506200033460201b60201c565b5050565b60008151905060006a636f6e736f6c652e6c6f679050602083016000808483855afa5050505050565b8280546200036b90620004db565b90600052602060002090601f0160209004810192826200038f5760008555620003db565b82601f10620003aa57805160ff1916838001178555620003db565b82800160010185558215620003db579182015b82811115620003da578251825591602001919060010190620003bd565b5b509050620003ea9190620003ee565b5090565b5b8082111562000409576000816000905550600101620003ef565b5090565b60006200041a8262000489565b62000426818562000494565b935062000438818560208601620004a5565b620004438162000540565b840191505092915050565b600060408201905081810360008301526200046a81856200040d565b905081810360208301526200048081846200040d565b90509392505050565b600081519050919050565b600082825260208201905092915050565b60005b83811015620004c5578082015181840152602081019050620004a8565b83811115620004d5576000848401525b50505050565b60006002820490506001821680620004f457607f821691505b602082108114156200050b576200050a62000511565b5b50919050565b7f4e487b7100000000000000000000000000000000000000000000000000000000600052602260045260246000fd5b6000601f19601f8301169050919050565b61232a80620005616000396000f3fe608060405234801561001057600080fd5b506004361061010b5760003560e01c80634420e486116100a25780638f3f510b116100715780638f3f510b146102a7578063a4136862146102c3578063a9059cbb146102df578063bad3d107146102fb578063cfae3217146103175761010b565b80634420e486146102215780634a80f2ba1461023d578063712bef9114610259578063722713f7146102895761010b565b80631a4ae8a7116100de5780631a4ae8a7146101865780631b257054146101b7578063378dc3dc146101e75780633a2568e9146102055761010b565b8063050d4f781461011057806306fdde031461012e5780630a1ae5aa1461014c57806318160ddd14610168575b600080fd5b610118610335565b6040516101259190611d5e565b60405180910390f35b61013661035b565b6040516101439190611dc6565b60405180910390f35b6101666004803603810190610161919061196b565b6103e9565b005b6101706106eb565b60405161017d9190611f60565b60405180910390f35b6101a0600480360381019061019b9190611a0f565b6106f1565b6040516101ae929190611e18565b60405180910390f35b6101d160048036038101906101cc9190611a0f565b61083b565b6040516101de9190611f60565b60405180910390f35b6101ef610a0b565b6040516101fc9190611f60565b60405180910390f35b61021f600480360381019061021a9190611af8565b610a11565b005b61023b600480360381019061023691906118c1565b610b5c565b005b61025760048036038101906102529190611926565b610bfd565b005b610273600480360381019061026e9190611a0f565b610c98565b6040516102809190611f3e565b60405180910390f35b610291610e33565b60405161029e9190611f60565b60405180910390f35b6102c160048036038101906102bc9190611a50565b610ed7565b005b6102dd60048036038101906102d89190611a0f565b610f50565b005b6102f960048036038101906102f491906118ea565b61104f565b005b61031560048036038101906103109190611abc565b6111f9565b005b61031f6112ad565b60405161032c9190611dc6565b60405180910390f35b600760009054906101000a900473ffffffffffffffffffffffffffffffffffffffff1681565b6000805461036890612162565b80601f016020809104026020016040519081016040528092919081815260200182805461039490612162565b80156103e15780601f106103b6576101008083540402835291602001916103e1565b820191906000526020600020905b8154815290600101906020018083116103c457829003601f168201915b505050505081565b6103f2336113db565b61041d600760009054906101000a900473ffffffffffffffffffffffffffffffffffffffff166113db565b604051806040016040528085858080601f016020809104026020016040519081016040528093929190818152602001838380828437600081840152601f19601f82011690508083019250505050505050815260200183838080601f016020809104026020016040519081016040528093929190818152602001838380828437600081840152601f19601f82011690508083019250505050505050815250600687876040516104cc929190611d2e565b908152602001604051809103902060008201518160000190805190602001906104f6929190611713565b506020820151816001019080519060200190610513929190611713565b509050506106e36040518060400160405280600b81526020017f73656e646572206163632000000000000000000000000000000000000000000081525060068888604051610562929190611d2e565b9081526020016040518091039020600001805461057e90612162565b80601f01602080910402602001604051908101604052809291908181526020018280546105aa90612162565b80156105f75780601f106105cc576101008083540402835291602001916105f7565b820191906000526020600020905b8154815290600101906020018083116105da57829003601f168201915b50505050506040518060400160405280600581526020017f20616e642000000000000000000000000000000000000000000000000000000081525060068a8a604051610644929190611d2e565b9081526020016040518091039020600101805461066090612162565b80601f016020809104026020016040519081016040528092919081815260200182805461068c90612162565b80156106d95780601f106106ae576101008083540402835291602001916106d9565b820191906000526020600020905b8154815290600101906020018083116106bc57829003601f168201915b5050505050611474565b505050505050565b60025481565b60068180516020810182018051848252602083016020850120818352809550505050505060009150905080600001805461072a90612162565b80601f016020809104026020016040519081016040528092919081815260200182805461075690612162565b80156107a35780601f10610778576101008083540402835291602001916107a3565b820191906000526020600020905b81548152906001019060200180831161078657829003601f168201915b5050505050908060010180546107b890612162565b80601f01602080910402602001604051908101604052809291908181526020018280546107e490612162565b80156108315780601f1061080657610100808354040283529160200191610831565b820191906000526020600020905b81548152906001019060200180831161081457829003601f168201915b5050505050905082565b6000600860405180608001604052803373ffffffffffffffffffffffffffffffffffffffff168152602001600a548152602001848152602001600060048111156108ae577f4e487b7100000000000000000000000000000000000000000000000000000000600052602160045260246000fd5b815250908060018154018082558091505060019003906000526020600020906004020160009091909190915060008201518160000160006101000a81548173ffffffffffffffffffffffffffffffffffffffff021916908373ffffffffffffffffffffffffffffffffffffffff160217905550602082015181600101556040820151816002019080519060200190610947929190611713565b5060608201518160030160006101000a81548160ff02191690836004811115610999577f4e487b7100000000000000000000000000000000000000000000000000000000600052602160045260246000fd5b021790555050507f85808ba6b61b3e11f7dba026341d5ff5603fab7df37b176ebfa0f296264cd12e600a54836040516109d3929190611f7b565b60405180910390a16001600a60008282546109ee919061204e565b925050819055506001600a54610a0491906120a4565b9050919050565b60035481565b600115158115151415610abd57600160088381548110610a5a577f4e487b7100000000000000000000000000000000000000000000000000000000600052603260045260246000fd5b906000526020600020906004020160030160006101000a81548160ff02191690836004811115610ab3577f4e487b7100000000000000000000000000000000000000000000000000000000600052602160045260246000fd5b0217905550610b58565b600460088381548110610af9577f4e487b7100000000000000000000000000000000000000000000000000000000600052603260045260246000fd5b906000526020600020906004020160030160006101000a81548160ff02191690836004811115610b52577f4e487b7100000000000000000000000000000000000000000000000000000000600052602160045260246000fd5b02179055505b5050565b600354600460008373ffffffffffffffffffffffffffffffffffffffff1673ffffffffffffffffffffffffffffffffffffffff168152602001908152602001600020819055506001600560008373ffffffffffffffffffffffffffffffffffffffff1673ffffffffffffffffffffffffffffffffffffffff16815260200190815260200160002060006101000a81548160ff02191690831515021790555050565b60001515600560003373ffffffffffffffffffffffffffffffffffffffff1673ffffffffffffffffffffffffffffffffffffffff16815260200190815260200160002060009054906101000a900460ff1615151415610c5b57600080fd5b7fc5c21db1f7aef3462dbf1bee14c3b88f616eb1986b5b1f17ab53c41b86daf19d8282604051610c8c929190611da2565b60405180910390a15050565b610ca0611799565b610cdf6040518060400160405280600781526020017f73656e646572200000000000000000000000000000000000000000000000000081525033611516565b600682604051610cef9190611d47565b9081526020016040518091039020604051806040016040529081600082018054610d1890612162565b80601f0160208091040260200160405190810160405280929190818152602001828054610d4490612162565b8015610d915780601f10610d6657610100808354040283529160200191610d91565b820191906000526020600020905b815481529060010190602001808311610d7457829003601f168201915b50505050508152602001600182018054610daa90612162565b80601f0160208091040260200160405190810160405280929190818152602001828054610dd690612162565b8015610e235780601f10610df857610100808354040283529160200191610e23565b820191906000526020600020905b815481529060010190602001808311610e0657829003601f168201915b5050505050815250509050919050565b6000801515600560003373ffffffffffffffffffffffffffffffffffffffff1673ffffffffffffffffffffffffffffffffffffffff16815260200190815260200160002060009054906101000a900460ff1615151415610e9257600080fd5b600460003373ffffffffffffffffffffffffffffffffffffffff1673ffffffffffffffffffffffffffffffffffffffff16815260200190815260200160002054905090565b610f156040518060400160405280600b81526020017f54657374204576656e74270000000000000000000000000000000000000000008152506115b2565b7f0f7c723cbf39203170d7d5c89ac4854b15776ae66937dfd7027069858bcd100b82604051610f449190611dc6565b60405180910390a15050565b610ffd6040518060600160405280602381526020016122d26023913960018054610f7990612162565b80601f0160208091040260200160405190810160405280929190818152602001828054610fa590612162565b8015610ff25780601f10610fc757610100808354040283529160200191610ff2565b820191906000526020600020905b815481529060010190602001808311610fd557829003601f168201915b50505050508361164b565b8060019080519060200190611013929190611713565b507f57a57a410b51ac4751ea694c91cdcca4d61b6d997d46fb997eddc7d51334174260016040516110449190611efc565b60405180910390a150565b80600460003373ffffffffffffffffffffffffffffffffffffffff1673ffffffffffffffffffffffffffffffffffffffff1681526020019081526020016000205410156110d1576040517f08c379a00000000000000000000000000000000000000000000000000000000081526004016110c890611f1e565b60405180910390fd5b80600460003373ffffffffffffffffffffffffffffffffffffffff1673ffffffffffffffffffffffffffffffffffffffff168152602001908152602001600020600082825461112091906120a4565b9250508190555080600460008473ffffffffffffffffffffffffffffffffffffffff1673ffffffffffffffffffffffffffffffffffffffff1681526020019081526020016000206000828254611176919061204e565b925050819055507f364bc05a26076a4b591d11ae973bbc492605b49c871783d787f183e58f3fe08e33600460003373ffffffffffffffffffffffffffffffffffffffff1673ffffffffffffffffffffffffffffffffffffffff168152602001908152602001600020546040516111ed929190611d79565b60405180910390a15050565b600760009054906101000a900473ffffffffffffffffffffffffffffffffffffffff1673ffffffffffffffffffffffffffffffffffffffff163373ffffffffffffffffffffffffffffffffffffffff161461125357600080fd5b81600460008373ffffffffffffffffffffffffffffffffffffffff1673ffffffffffffffffffffffffffffffffffffffff16815260200190815260200160002060008282546112a2919061204e565b925050819055505050565b6060600180546112bc90612162565b80601f01602080910402602001604051908101604052809291908181526020018280546112e890612162565b80156113355780601f1061130a57610100808354040283529160200191611335565b820191906000526020600020905b81548152906001019060200180831161131857829003601f168201915b5050505050905090565b6113d78282604051602401611355929190611e18565b6040516020818303038152906040527f4b5c4277000000000000000000000000000000000000000000000000000000007bffffffffffffffffffffffffffffffffffffffffffffffffffffffff19166020820180517bffffffffffffffffffffffffffffffffffffffffffffffffffffffff83818316178352505050506116ea565b5050565b611471816040516024016113ef9190611d5e565b6040516020818303038152906040527f2c2ecbc2000000000000000000000000000000000000000000000000000000007bffffffffffffffffffffffffffffffffffffffffffffffffffffffff19166020820180517bffffffffffffffffffffffffffffffffffffffffffffffffffffffff83818316178352505050506116ea565b50565b6115108484848460405160240161148e9493929190611e9b565b6040516020818303038152906040527fde68f20a000000000000000000000000000000000000000000000000000000007bffffffffffffffffffffffffffffffffffffffffffffffffffffffff19166020820180517bffffffffffffffffffffffffffffffffffffffffffffffffffffffff83818316178352505050506116ea565b50505050565b6115ae828260405160240161152c929190611de8565b6040516020818303038152906040527f319af333000000000000000000000000000000000000000000000000000000007bffffffffffffffffffffffffffffffffffffffffffffffffffffffff19166020820180517bffffffffffffffffffffffffffffffffffffffffffffffffffffffff83818316178352505050506116ea565b5050565b611648816040516024016115c69190611dc6565b6040516020818303038152906040527f41304fac000000000000000000000000000000000000000000000000000000007bffffffffffffffffffffffffffffffffffffffffffffffffffffffff19166020820180517bffffffffffffffffffffffffffffffffffffffffffffffffffffffff83818316178352505050506116ea565b50565b6116e583838360405160240161166393929190611e4f565b6040516020818303038152906040527f2ced7cef000000000000000000000000000000000000000000000000000000007bffffffffffffffffffffffffffffffffffffffffffffffffffffffff19166020820180517bffffffffffffffffffffffffffffffffffffffffffffffffffffffff83818316178352505050506116ea565b505050565b60008151905060006a636f6e736f6c652e6c6f679050602083016000808483855afa5050505050565b82805461171f90612162565b90600052602060002090601f0160209004810192826117415760008555611788565b82601f1061175a57805160ff1916838001178555611788565b82800160010185558215611788579182015b8281111561178757825182559160200191906001019061176c565b5b50905061179591906117b3565b5090565b604051806040016040528060608152602001606081525090565b5b808211156117cc5760008160009055506001016117b4565b5090565b60006117e36117de84611fd0565b611fab565b9050828152602081018484840111156117fb57600080fd5b611806848285612120565b509392505050565b60008135905061181d8161228c565b92915050565b600081359050611832816122a3565b92915050565b60008083601f84011261184a57600080fd5b8235905067ffffffffffffffff81111561186357600080fd5b60208301915083600182028301111561187b57600080fd5b9250929050565b600082601f83011261189357600080fd5b81356118a38482602086016117d0565b91505092915050565b6000813590506118bb816122ba565b92915050565b6000602082840312156118d357600080fd5b60006118e18482850161180e565b91505092915050565b600080604083850312156118fd57600080fd5b600061190b8582860161180e565b925050602061191c858286016118ac565b9150509250929050565b6000806020838503121561193957600080fd5b600083013567ffffffffffffffff81111561195357600080fd5b61195f85828601611838565b92509250509250929050565b6000806000806000806060878903121561198457600080fd5b600087013567ffffffffffffffff81111561199e57600080fd5b6119aa89828a01611838565b9650965050602087013567ffffffffffffffff8111156119c957600080fd5b6119d589828a01611838565b9450945050604087013567ffffffffffffffff8111156119f457600080fd5b611a0089828a01611838565b92509250509295509295509295565b600060208284031215611a2157600080fd5b600082013567ffffffffffffffff811115611a3b57600080fd5b611a4784828501611882565b91505092915050565b60008060408385031215611a6357600080fd5b600083013567ffffffffffffffff811115611a7d57600080fd5b611a8985828601611882565b925050602083013567ffffffffffffffff811115611aa657600080fd5b611ab285828601611882565b9150509250929050565b60008060408385031215611acf57600080fd5b6000611add858286016118ac565b9250506020611aee8582860161180e565b9150509250929050565b60008060408385031215611b0b57600080fd5b6000611b19858286016118ac565b9250506020611b2a85828601611823565b9150509250929050565b611b3d816120d8565b82525050565b6000611b4f8385612032565b9350611b5c838584612120565b611b6583612252565b840190509392505050565b6000611b7c8385612043565b9350611b89838584612120565b82840190509392505050565b6000611ba082612016565b611baa8185612021565b9350611bba81856020860161212f565b611bc381612252565b840191505092915050565b6000611bd982612016565b611be38185612032565b9350611bf381856020860161212f565b611bfc81612252565b840191505092915050565b6000611c1282612016565b611c1c8185612043565b9350611c2c81856020860161212f565b80840191505092915050565b60008154611c4581612162565b611c4f8186612032565b94506001821660008114611c6a5760018114611c7c57611caf565b60ff1983168652602086019350611caf565b611c8585612001565b60005b83811015611ca757815481890152600182019150602081019050611c88565b808801955050505b50505092915050565b6000611cc5601183612032565b9150611cd082612263565b602082019050919050565b60006040830160008301518482036000860152611cf88282611b95565b91505060208301518482036020860152611d128282611b95565b9150508091505092915050565b611d2881612116565b82525050565b6000611d3b828486611b70565b91508190509392505050565b6000611d538284611c07565b915081905092915050565b6000602082019050611d736000830184611b34565b92915050565b6000604082019050611d8e6000830185611b34565b611d9b6020830184611d1f565b9392505050565b60006020820190508181036000830152611dbd818486611b43565b90509392505050565b60006020820190508181036000830152611de08184611bce565b905092915050565b60006040820190508181036000830152611e028185611bce565b9050611e116020830184611b34565b9392505050565b60006040820190508181036000830152611e328185611bce565b90508181036020830152611e468184611bce565b90509392505050565b60006060820190508181036000830152611e698186611bce565b90508181036020830152611e7d8185611bce565b90508181036040830152611e918184611bce565b9050949350505050565b60006080820190508181036000830152611eb58187611bce565b90508181036020830152611ec98186611bce565b90508181036040830152611edd8185611bce565b90508181036060830152611ef18184611bce565b905095945050505050565b60006020820190508181036000830152611f168184611c38565b905092915050565b60006020820190508181036000830152611f3781611cb8565b9050919050565b60006020820190508181036000830152611f588184611cdb565b905092915050565b6000602082019050611f756000830184611d1f565b92915050565b6000604082019050611f906000830185611d1f565b8181036020830152611fa28184611bce565b90509392505050565b6000611fb5611fc6565b9050611fc18282612194565b919050565b6000604051905090565b600067ffffffffffffffff821115611feb57611fea612223565b5b611ff482612252565b9050602081019050919050565b60008190508160005260206000209050919050565b600081519050919050565b600082825260208201905092915050565b600082825260208201905092915050565b600081905092915050565b600061205982612116565b915061206483612116565b9250827fffffffffffffffffffffffffffffffffffffffffffffffffffffffffffffffff03821115612099576120986121c5565b5b828201905092915050565b60006120af82612116565b91506120ba83612116565b9250828210156120cd576120cc6121c5565b5b828203905092915050565b60006120e3826120f6565b9050919050565b60008115159050919050565b600073ffffffffffffffffffffffffffffffffffffffff82169050919050565b6000819050919050565b82818337600083830152505050565b60005b8381101561214d578082015181840152602081019050612132565b8381111561215c576000848401525b50505050565b6000600282049050600182168061217a57607f821691505b6020821081141561218e5761218d6121f4565b5b50919050565b61219d82612252565b810181811067ffffffffffffffff821117156121bc576121bb612223565b5b80604052505050565b7f4e487b7100000000000000000000000000000000000000000000000000000000600052601160045260246000fd5b7f4e487b7100000000000000000000000000000000000000000000000000000000600052602260045260246000fd5b7f4e487b7100000000000000000000000000000000000000000000000000000000600052604160045260246000fd5b6000601f19601f8301169050919050565b7f4e6f7420656e6f75676820746f6b656e73000000000000000000000000000000600082015250565b612295816120d8565b81146122a057600080fd5b50565b6122ac816120ea565b81146122b757600080fd5b50565b6122c381612116565b81146122ce57600080fd5b5056fe4368616e67696e67206772656574696e672066726f6d202725732720746f2027257327a26469706673582212201e8e818c6382f71257f3e7abd9ca3870bd1851eda059d4e85538e5bcffc1ee5164736f6c63430008040033",
  "linkReferences": {},
  "deployedLinkReferences": {}
}