{
  "_format": "hh-sol-artifact-1",
  "contractName": "XContract",
  "sourceName": "contracts/XContract.sol",
  "abi": [
    {
      "inputs": [],
      "stateMutability": "nonpayable",
      "type": "constructor"
    },
    {
      "anonymous": false,
      "inputs": [
        {
          "indexed": false,
          "internalType": "string",
          "name": "pk",
          "type": "string"
        }
      ],
      "name": "InitBalance",
      "type": "event"
    },
    {
      "anonymous": false,
      "inputs": [
        {
          "indexed": false,
          "internalType": "uint256",
          "name": "id",
          "type": "uint256"
        },
        {
          "indexed": false,
          "internalType": "string",
          "name": "rangeproof1",
          "type": "string"
        },
        {
          "indexed": false,
          "internalType": "string",
          "name": "rangeproof2",
          "type": "string"
        },
        {
          "indexed": false,
          "internalType": "string",
          "name": "sigmaProof",
          "type": "string"
        },
        {
          "indexed": false,
          "internalType": "string",
          "name": "input",
          "type": "string"
        }
      ],
      "name": "NewConfTransfer",
      "type": "event"
    },
    {
      "anonymous": false,
      "inputs": [
        {
          "indexed": false,
          "internalType": "uint256",
          "name": "id",
          "type": "uint256"
        },
        {
          "indexed": false,
          "internalType": "string",
          "name": "proof",
          "type": "string"
        }
      ],
      "name": "NewRequest",
      "type": "event"
    },
    {
      "anonymous": false,
      "inputs": [
        {
          "indexed": false,
          "internalType": "string",
          "name": "newMsg",
          "type": "string"
        }
      ],
      "name": "TestMsg",
      "type": "event"
    },
    {
      "anonymous": false,
      "inputs": [
        {
          "indexed": false,
          "internalType": "address",
          "name": "add",
          "type": "address"
        },
        {
          "indexed": false,
          "internalType": "uint256",
          "name": "balance",
          "type": "uint256"
        }
      ],
      "name": "UpdateState",
      "type": "event"
    },
    {
      "anonymous": false,
      "inputs": [
        {
          "indexed": false,
          "internalType": "uint256",
          "name": "id",
          "type": "uint256"
        },
        {
          "indexed": false,
          "internalType": "string",
          "name": "_price",
          "type": "string"
        },
        {
          "indexed": false,
          "internalType": "string",
          "name": "bidderKey",
          "type": "string"
        }
      ],
      "name": "aNewPrice",
      "type": "event"
    },
    {
      "inputs": [
        {
          "internalType": "string",
          "name": "y",
          "type": "string"
        }
      ],
      "name": "ElBalanceOf",
      "outputs": [
        {
          "components": [
            {
              "internalType": "string",
              "name": "CL",
              "type": "string"
            },
            {
              "internalType": "string",
              "name": "CR",
              "type": "string"
            }
          ],
          "internalType": "struct XContract.ElBalance",
          "name": "",
          "type": "tuple"
        }
      ],
      "stateMutability": "view",
      "type": "function"
    },
    {
      "inputs": [
        {
          "internalType": "string",
          "name": "_price",
          "type": "string"
        },
        {
          "internalType": "uint256",
          "name": "id",
          "type": "uint256"
        }
      ],
      "name": "assignWithAcceptionOfPrice",
      "outputs": [],
      "stateMutability": "nonpayable",
      "type": "function"
    },
    {
      "inputs": [],
      "name": "association",
      "outputs": [
        {
          "internalType": "address",
          "name": "",
          "type": "address"
        }
      ],
      "stateMutability": "view",
      "type": "function"
    },
    {
      "inputs": [
        {
          "internalType": "address[]",
          "name": "newAcc",
          "type": "address[]"
        }
      ],
      "name": "authorizeNewUser",
      "outputs": [],
      "stateMutability": "nonpayable",
      "type": "function"
    },
    {
      "inputs": [],
      "name": "balanceOf",
      "outputs": [
        {
          "components": [
            {
              "internalType": "string",
              "name": "CL",
              "type": "string"
            },
            {
              "internalType": "string",
              "name": "CR",
              "type": "string"
            }
          ],
          "internalType": "struct XContract.ElBalance",
          "name": "",
          "type": "tuple"
        }
      ],
      "stateMutability": "view",
      "type": "function"
    },
    {
      "inputs": [
        {
          "internalType": "address",
          "name": "newAcc",
          "type": "address"
        }
      ],
      "name": "checkAuthorizeNewUser",
      "outputs": [
        {
          "internalType": "bool",
          "name": "",
          "type": "bool"
        }
      ],
      "stateMutability": "view",
      "type": "function"
    },
    {
      "inputs": [],
      "name": "checkAuthorized",
      "outputs": [
        {
          "internalType": "bool",
          "name": "",
          "type": "bool"
        }
      ],
      "stateMutability": "view",
      "type": "function"
    },
    {
      "inputs": [
        {
          "internalType": "string",
          "name": "proofForAmt",
          "type": "string"
        },
        {
          "internalType": "string",
          "name": "proofForRemainBalance",
          "type": "string"
        },
        {
          "internalType": "string",
          "name": "sigmaProof",
          "type": "string"
        },
        {
          "internalType": "string",
          "name": "input",
          "type": "string"
        }
      ],
      "name": "confTransfer",
      "outputs": [],
      "stateMutability": "nonpayable",
      "type": "function"
    },
    {
      "inputs": [
        {
          "internalType": "uint256",
          "name": "id",
          "type": "uint256"
        },
        {
          "internalType": "bool",
          "name": "res",
          "type": "bool"
        }
      ],
      "name": "confirmProof",
      "outputs": [],
      "stateMutability": "nonpayable",
      "type": "function"
    },
    {
      "inputs": [],
      "name": "fetchPubkey",
      "outputs": [
        {
          "internalType": "string",
          "name": "",
          "type": "string"
        }
      ],
      "stateMutability": "view",
      "type": "function"
    },
    {
      "inputs": [],
      "name": "getTasks",
      "outputs": [
        {
          "components": [
            {
              "internalType": "uint256",
              "name": "id",
              "type": "uint256"
            },
            {
              "internalType": "string",
              "name": "content",
              "type": "string"
            },
            {
              "internalType": "string",
              "name": "pubkeyOfSender",
              "type": "string"
            },
            {
              "internalType": "enum XContract.State",
              "name": "state",
              "type": "uint8"
            }
          ],
          "internalType": "struct XContract.Request[]",
          "name": "",
          "type": "tuple[]"
        }
      ],
      "stateMutability": "view",
      "type": "function"
    },
    {
      "inputs": [],
      "name": "greet",
      "outputs": [
        {
          "internalType": "string",
          "name": "",
          "type": "string"
        }
      ],
      "stateMutability": "view",
      "type": "function"
    },
    {
      "inputs": [],
      "name": "hasPubKey",
      "outputs": [
        {
          "internalType": "bool",
          "name": "",
          "type": "bool"
        }
      ],
      "stateMutability": "view",
      "type": "function"
    },
    {
      "inputs": [
        {
          "internalType": "string",
          "name": "y",
          "type": "string"
        },
        {
          "internalType": "string",
          "name": "cL",
          "type": "string"
        },
        {
          "internalType": "string",
          "name": "cR",
          "type": "string"
        }
      ],
      "name": "initPocket",
      "outputs": [],
      "stateMutability": "nonpayable",
      "type": "function"
    },
    {
      "inputs": [],
      "name": "initialSupply",
      "outputs": [
        {
          "internalType": "uint256",
          "name": "",
          "type": "uint256"
        }
      ],
      "stateMutability": "view",
      "type": "function"
    },
    {
      "inputs": [],
      "name": "name",
      "outputs": [
        {
          "internalType": "string",
          "name": "",
          "type": "string"
        }
      ],
      "stateMutability": "view",
      "type": "function"
    },
    {
      "inputs": [
        {
          "internalType": "string",
          "name": "_task",
          "type": "string"
        }
      ],
      "name": "postTask",
      "outputs": [],
      "stateMutability": "nonpayable",
      "type": "function"
    },
    {
      "inputs": [
        {
          "internalType": "string",
          "name": "_price",
          "type": "string"
        },
        {
          "internalType": "uint256",
          "name": "id",
          "type": "uint256"
        }
      ],
      "name": "raiseAPrice",
      "outputs": [],
      "stateMutability": "nonpayable",
      "type": "function"
    },
    {
      "inputs": [],
      "name": "totalSupply",
      "outputs": [
        {
          "internalType": "uint256",
          "name": "",
          "type": "uint256"
        }
      ],
      "stateMutability": "view",
      "type": "function"
    },
    {
      "inputs": [
        {
          "internalType": "string",
          "name": "y",
          "type": "string"
        },
        {
          "internalType": "string",
          "name": "C1",
          "type": "string"
        },
        {
          "internalType": "string",
          "name": "C2",
          "type": "string"
        },
        {
          "internalType": "string",
          "name": "yr",
          "type": "string"
        },
        {
          "internalType": "string",
          "name": "C3",
          "type": "string"
        },
        {
          "internalType": "string",
          "name": "C4",
          "type": "string"
        }
      ],
      "name": "updateBalance",
      "outputs": [],
      "stateMutability": "nonpayable",
      "type": "function"
    }
  ],
  "bytecode": "0x60806040526040518060400160405280600981526020017f58636f6e747261637400000000000000000000000000000000000000000000008152506000908051906020019062000051929190620002a9565b50620f42406002556127106003556040518060200160405280600081525060049080519060200190620000869291906200033a565b503480156200009457600080fd5b506001600560003373ffffffffffffffffffffffffffffffffffffffff1673ffffffffffffffffffffffffffffffffffffffff16815260200190815260200160002060006101000a81548160ff02191690831515021790555033600960006101000a81548173ffffffffffffffffffffffffffffffffffffffff021916908373ffffffffffffffffffffffffffffffffffffffff1602179055506040518060400160405280600381526020017f3030300000000000000000000000000000000000000000000000000000000000815250600190805190602001906200017b929190620002a9565b50620001c76040518060400160405280601381526020017f4465706c6f79205375636365737366756c6c2000000000000000000000000000815250620001dd60201b62001e2b1760201c565b6000600b819055506000600c8190555062000517565b6200027d81604051602401620001f491906200042b565b6040516020818303038152906040527f41304fac000000000000000000000000000000000000000000000000000000007bffffffffffffffffffffffffffffffffffffffffffffffffffffffff19166020820180517bffffffffffffffffffffffffffffffffffffffffffffffffffffffff83818316178352505050506200028060201b60201c565b50565b60008151905060006a636f6e736f6c652e6c6f679050602083016000808483855afa5050505050565b828054620002b790620004a1565b90600052602060002090601f016020900481019282620002db576000855562000327565b82601f10620002f657805160ff191683800117855562000327565b8280016001018555821562000327579182015b828111156200032657825182559160200191906001019062000309565b5b509050620003369190620003cb565b5090565b8280546200034890620004a1565b90600052602060002090601f0160209004810192826200036c5760008555620003b8565b82601f106200038757805160ff1916838001178555620003b8565b82800160010185558215620003b8579182015b82811115620003b75782518255916020019190600101906200039a565b5b509050620003c79190620003cb565b5090565b5b80821115620003e6576000816000905550600101620003cc565b5090565b6000620003f7826200044f565b6200040381856200045a565b9350620004158185602086016200046b565b620004208162000506565b840191505092915050565b60006020820190508181036000830152620004478184620003ea565b905092915050565b600081519050919050565b600082825260208201905092915050565b60005b838110156200048b5780820151818401526020810190506200046e565b838111156200049b576000848401525b50505050565b60006002820490506001821680620004ba57607f821691505b60208210811415620004d157620004d0620004d7565b5b50919050565b7f4e487b7100000000000000000000000000000000000000000000000000000000600052602260045260246000fd5b6000601f19601f8301169050919050565b61311580620005276000396000f3fe608060405234801561001057600080fd5b506004361061012c5760003560e01c80635c260e50116100ad578063817f4e3d11610071578063817f4e3d1461030d5780638655854c1461032b5780639518f52d14610347578063c4ca280d14610363578063cfae32171461037f5761012c565b80635c260e50146102675780635f32b6db1461028557806362746e6c146102a1578063712bef91146102bf578063722713f7146102ef5761012c565b8063378dc3dc116100f4578063378dc3dc146101c55780633a2568e9146101e35780634118b16f146101ff578063496cb0561461021b578063509145db1461024b5761012c565b806304a87e3814610131578063050d4f781461014f57806306fdde031461016d57806318160ddd1461018b57806322fce061146101a9575b600080fd5b61013961039d565b6040516101469190612a44565b60405180910390f35b6101576105b1565b6040516101649190612a29565b60405180910390f35b6101756105d7565b6040516101829190612a81565b60405180910390f35b610193610665565b6040516101a09190612bb6565b60405180910390f35b6101c360048036038101906101be9190612620565b61066b565b005b6101cd61080a565b6040516101da9190612bb6565b60405180910390f35b6101fd60048036038101906101f89190612674565b610810565b005b61021960048036038101906102149190612444565b61095b565b005b610235600480360381019061023091906122f5565b610c86565b6040516102429190612a66565b60405180910390f35b6102656004803603810190610260919061231e565b610d6c565b005b61026f610eb7565b60405161027c9190612a66565b60405180910390f35b61029f600480360381019061029a9190612507565b610fb1565b005b6102a9611099565b6040516102b69190612a66565b60405180910390f35b6102d960048036038101906102d49190612403565b6110ed565b6040516102e69190612b94565b60405180910390f35b6102f7611288565b6040516103049190612b94565b60405180910390f35b610315611484565b6040516103229190612a81565b60405180910390f35b6103456004803603810190610340919061235f565b6115b0565b005b610361600480360381019061035c9190612620565b611960565b005b61037d60048036038101906103789190612403565b611aff565b005b610387611d99565b6040516103949190612a81565b60405180910390f35b6060600a805480602002602001604051908101604052809291908181526020016000905b828210156105a85783829060005260206000209060040201604051806080016040529081600082015481526020016001820180546103fe90612e92565b80601f016020809104026020016040519081016040528092919081815260200182805461042a90612e92565b80156104775780601f1061044c57610100808354040283529160200191610477565b820191906000526020600020905b81548152906001019060200180831161045a57829003601f168201915b5050505050815260200160028201805461049090612e92565b80601f01602080910402602001604051908101604052809291908181526020018280546104bc90612e92565b80156105095780601f106104de57610100808354040283529160200191610509565b820191906000526020600020905b8154815290600101906020018083116104ec57829003601f168201915b505050505081526020016003820160009054906101000a900460ff16600581111561055d577f4e487b7100000000000000000000000000000000000000000000000000000000600052602160045260246000fd5b6005811115610595577f4e487b7100000000000000000000000000000000000000000000000000000000600052602160045260246000fd5b81525050815260200190600101906103c1565b50505050905090565b600960009054906101000a900473ffffffffffffffffffffffffffffffffffffffff1681565b600080546105e490612e92565b80601f016020809104026020016040519081016040528092919081815260200182805461061090612e92565b801561065d5780601f106106325761010080835404028352916020019161065d565b820191906000526020600020905b81548152906001019060200180831161064057829003601f168201915b505050505081565b60025481565b60011515600560003373ffffffffffffffffffffffffffffffffffffffff1673ffffffffffffffffffffffffffffffffffffffff16815260200190815260200160002060009054906101000a900460ff161515146106fe576040517f08c379a00000000000000000000000000000000000000000000000000000000081526004016106f590612b54565b60405180910390fd5b6000600660003373ffffffffffffffffffffffffffffffffffffffff1673ffffffffffffffffffffffffffffffffffffffff168152602001908152602001600020805461074a90612e92565b80601f016020809104026020016040519081016040528092919081815260200182805461077690612e92565b80156107c35780601f10610798576101008083540402835291602001916107c3565b820191906000526020600020905b8154815290600101906020018083116107a657829003601f168201915b505050505090507fbf5f4e9a08b4aeb5cbe7b020185de2e84cd9218d73bdc4f85c5a94c52a7a4bd98284836040516107fd93929190612bd1565b60405180910390a1505050565b60035481565b6001151581151514156108bc576002600a8381548110610859577f4e487b7100000000000000000000000000000000000000000000000000000000600052603260045260246000fd5b906000526020600020906004020160030160006101000a81548160ff021916908360058111156108b2577f4e487b7100000000000000000000000000000000000000000000000000000000600052602160045260246000fd5b0217905550610957565b6005600a83815481106108f8577f4e487b7100000000000000000000000000000000000000000000000000000000600052603260045260246000fd5b906000526020600020906004020160030160006101000a81548160ff02191690836005811115610951577f4e487b7100000000000000000000000000000000000000000000000000000000600052602160045260246000fd5b02179055505b5050565b60011515600560003373ffffffffffffffffffffffffffffffffffffffff1673ffffffffffffffffffffffffffffffffffffffff16815260200190815260200160002060009054906101000a900460ff161515146109ee576040517f08c379a00000000000000000000000000000000000000000000000000000000081526004016109e590612b54565b60405180910390fd5b600a6040518060800160405280600c548152602001604051806020016040528060008152508152602001600660003373ffffffffffffffffffffffffffffffffffffffff1673ffffffffffffffffffffffffffffffffffffffff1681526020019081526020016000208054610a6290612e92565b80601f0160208091040260200160405190810160405280929190818152602001828054610a8e90612e92565b8015610adb5780601f10610ab057610100808354040283529160200191610adb565b820191906000526020600020905b815481529060010190602001808311610abe57829003601f168201915b5050505050815260200160016005811115610b1f577f4e487b7100000000000000000000000000000000000000000000000000000000600052602160045260246000fd5b8152509080600181540180825580915050600190039060005260206000209060040201600090919091909150600082015181600001556020820151816001019080519060200190610b7192919061202b565b506040820151816002019080519060200190610b8e92919061202b565b5060608201518160030160006101000a81548160ff02191690836005811115610be0577f4e487b7100000000000000000000000000000000000000000000000000000000600052602160045260246000fd5b02179055505050610c256040518060400160405280600b81526020017f54657374204576656e7427000000000000000000000000000000000000000000815250611e2b565b7f2dddc06b1340f27d89cf9e1783165857c901b8fb2d67ac8443c795ec43ff341f600c5485858585604051610c5e959493929190612c16565b60405180910390a16001600c6000828254610c799190612d8d565b9250508190555050505050565b6000600960009054906101000a900473ffffffffffffffffffffffffffffffffffffffff1673ffffffffffffffffffffffffffffffffffffffff163373ffffffffffffffffffffffffffffffffffffffff1614610d18576040517f08c379a0000000000000000000000000000000000000000000000000000000008152600401610d0f90612b34565b60405180910390fd5b600560008373ffffffffffffffffffffffffffffffffffffffff1673ffffffffffffffffffffffffffffffffffffffff16815260200190815260200160002060009054906101000a900460ff169050919050565b600960009054906101000a900473ffffffffffffffffffffffffffffffffffffffff1673ffffffffffffffffffffffffffffffffffffffff163373ffffffffffffffffffffffffffffffffffffffff1614610dfc576040517f08c379a0000000000000000000000000000000000000000000000000000000008152600401610df390612b34565b60405180910390fd5b60005b8151811015610eb357600160056000848481518110610e47577f4e487b7100000000000000000000000000000000000000000000000000000000600052603260045260246000fd5b602002602001015173ffffffffffffffffffffffffffffffffffffffff1673ffffffffffffffffffffffffffffffffffffffff16815260200190815260200160002060006101000a81548160ff0219169083151502179055508080610eab90612ef5565b915050610dff565b5050565b600060011515600560003373ffffffffffffffffffffffffffffffffffffffff1673ffffffffffffffffffffffffffffffffffffffff16815260200190815260200160002060009054906101000a900460ff16151514610f4c576040517f08c379a0000000000000000000000000000000000000000000000000000000008152600401610f4390612b34565b60405180910390fd5b6000600660003373ffffffffffffffffffffffffffffffffffffffff1673ffffffffffffffffffffffffffffffffffffffff1681526020019081526020016000208054610f9890612e92565b90501415610fa95760009050610fae565b600190505b90565b604051806040016040528086815260200185815250600787604051610fd691906129fb565b9081526020016040518091039020600082015181600001908051906020019061100092919061202b565b50602082015181600101908051906020019061101d92919061202b565b5090505060405180604001604052808381526020018281525060078460405161104691906129fb565b9081526020016040518091039020600082015181600001908051906020019061107092919061202b565b50602082015181600101908051906020019061108d92919061202b565b50905050505050505050565b6000600560003373ffffffffffffffffffffffffffffffffffffffff1673ffffffffffffffffffffffffffffffffffffffff16815260200190815260200160002060009054906101000a900460ff16905090565b6110f56120b1565b6111346040518060400160405280600781526020017f73656e646572200000000000000000000000000000000000000000000000000081525033611ec4565b60078260405161114491906129fb565b908152602001604051809103902060405180604001604052908160008201805461116d90612e92565b80601f016020809104026020016040519081016040528092919081815260200182805461119990612e92565b80156111e65780601f106111bb576101008083540402835291602001916111e6565b820191906000526020600020905b8154815290600101906020018083116111c957829003601f168201915b505050505081526020016001820180546111ff90612e92565b80601f016020809104026020016040519081016040528092919081815260200182805461122b90612e92565b80156112785780601f1061124d57610100808354040283529160200191611278565b820191906000526020600020905b81548152906001019060200180831161125b57829003601f168201915b5050505050815250509050919050565b6112906120b1565b60001515600560003373ffffffffffffffffffffffffffffffffffffffff1673ffffffffffffffffffffffffffffffffffffffff16815260200190815260200160002060009054906101000a900460ff16151514156112ee57600080fd5b6000600660003373ffffffffffffffffffffffffffffffffffffffff1673ffffffffffffffffffffffffffffffffffffffff16815260200190815260200160002090506007816040516113419190612a12565b908152602001604051809103902060405180604001604052908160008201805461136a90612e92565b80601f016020809104026020016040519081016040528092919081815260200182805461139690612e92565b80156113e35780601f106113b8576101008083540402835291602001916113e3565b820191906000526020600020905b8154815290600101906020018083116113c657829003601f168201915b505050505081526020016001820180546113fc90612e92565b80601f016020809104026020016040519081016040528092919081815260200182805461142890612e92565b80156114755780601f1061144a57610100808354040283529160200191611475565b820191906000526020600020905b81548152906001019060200180831161145857829003601f168201915b50505050508152505091505090565b606060011515600560003373ffffffffffffffffffffffffffffffffffffffff1673ffffffffffffffffffffffffffffffffffffffff16815260200190815260200160002060009054906101000a900460ff161515146114e357600080fd5b600660003373ffffffffffffffffffffffffffffffffffffffff1673ffffffffffffffffffffffffffffffffffffffff168152602001908152602001600020805461152d90612e92565b80601f016020809104026020016040519081016040528092919081815260200182805461155990612e92565b80156115a65780601f1061157b576101008083540402835291602001916115a6565b820191906000526020600020905b81548152906001019060200180831161158957829003601f168201915b5050505050905090565b60011515600560003373ffffffffffffffffffffffffffffffffffffffff1673ffffffffffffffffffffffffffffffffffffffff16815260200190815260200160002060009054906101000a900460ff16151514611643576040517f08c379a000000000000000000000000000000000000000000000000000000000815260040161163a90612b54565b60405180910390fd5b8585600660003373ffffffffffffffffffffffffffffffffffffffff1673ffffffffffffffffffffffffffffffffffffffff16815260200190815260200160002091906116919291906120cb565b50604051806040016040528085858080601f016020809104026020016040519081016040528093929190818152602001838380828437600081840152601f19601f82011690508083019250505050505050815260200183838080601f016020809104026020016040519081016040528093929190818152602001838380828437600081840152601f19601f82011690508083019250505050505050815250600787876040516117419291906129e2565b9081526020016040518091039020600082015181600001908051906020019061176b92919061202b565b50602082015181600101908051906020019061178892919061202b565b509050506119586040518060400160405280600b81526020017f73656e6465722061636320000000000000000000000000000000000000000000815250600788886040516117d79291906129e2565b908152602001604051809103902060000180546117f390612e92565b80601f016020809104026020016040519081016040528092919081815260200182805461181f90612e92565b801561186c5780601f106118415761010080835404028352916020019161186c565b820191906000526020600020905b81548152906001019060200180831161184f57829003601f168201915b50505050506040518060400160405280600581526020017f20616e642000000000000000000000000000000000000000000000000000000081525060078a8a6040516118b99291906129e2565b908152602001604051809103902060010180546118d590612e92565b80601f016020809104026020016040519081016040528092919081815260200182805461190190612e92565b801561194e5780601f106119235761010080835404028352916020019161194e565b820191906000526020600020905b81548152906001019060200180831161193157829003601f168201915b5050505050611f60565b505050505050565b60011515600560003373ffffffffffffffffffffffffffffffffffffffff1673ffffffffffffffffffffffffffffffffffffffff16815260200190815260200160002060009054906101000a900460ff161515146119f3576040517f08c379a00000000000000000000000000000000000000000000000000000000081526004016119ea90612b54565b60405180910390fd5b6000600660003373ffffffffffffffffffffffffffffffffffffffff1673ffffffffffffffffffffffffffffffffffffffff1681526020019081526020016000208054611a3f90612e92565b80601f0160208091040260200160405190810160405280929190818152602001828054611a6b90612e92565b8015611ab85780601f10611a8d57610100808354040283529160200191611ab8565b820191906000526020600020905b815481529060010190602001808311611a9b57829003601f168201915b505050505090507fbf5f4e9a08b4aeb5cbe7b020185de2e84cd9218d73bdc4f85c5a94c52a7a4bd9828483604051611af293929190612bd1565b60405180910390a1505050565b60011515600560003373ffffffffffffffffffffffffffffffffffffffff1673ffffffffffffffffffffffffffffffffffffffff16815260200190815260200160002060009054906101000a900460ff16151514611b92576040517f08c379a0000000000000000000000000000000000000000000000000000000008152600401611b8990612b74565b60405180910390fd5b600a6040518060800160405280600c548152602001838152602001600660003373ffffffffffffffffffffffffffffffffffffffff1673ffffffffffffffffffffffffffffffffffffffff1681526020019081526020016000208054611bf790612e92565b80601f0160208091040260200160405190810160405280929190818152602001828054611c2390612e92565b8015611c705780601f10611c4557610100808354040283529160200191611c70565b820191906000526020600020905b815481529060010190602001808311611c5357829003601f168201915b5050505050815260200160006005811115611cb4577f4e487b7100000000000000000000000000000000000000000000000000000000600052602160045260246000fd5b8152509080600181540180825580915050600190039060005260206000209060040201600090919091909150600082015181600001556020820151816001019080519060200190611d0692919061202b565b506040820151816002019080519060200190611d2392919061202b565b5060608201518160030160006101000a81548160ff02191690836005811115611d75577f4e487b7100000000000000000000000000000000000000000000000000000000600052602160045260246000fd5b021790555050506001600c6000828254611d8f9190612d8d565b9250508190555050565b606060018054611da890612e92565b80601f0160208091040260200160405190810160405280929190818152602001828054611dd490612e92565b8015611e215780601f10611df657610100808354040283529160200191611e21565b820191906000526020600020905b815481529060010190602001808311611e0457829003601f168201915b5050505050905090565b611ec181604051602401611e3f9190612a81565b6040516020818303038152906040527f41304fac000000000000000000000000000000000000000000000000000000007bffffffffffffffffffffffffffffffffffffffffffffffffffffffff19166020820180517bffffffffffffffffffffffffffffffffffffffffffffffffffffffff8381831617835250505050612002565b50565b611f5c8282604051602401611eda929190612aa3565b6040516020818303038152906040527f319af333000000000000000000000000000000000000000000000000000000007bffffffffffffffffffffffffffffffffffffffffffffffffffffffff19166020820180517bffffffffffffffffffffffffffffffffffffffffffffffffffffffff8381831617835250505050612002565b5050565b611ffc84848484604051602401611f7a9493929190612ad3565b6040516020818303038152906040527fde68f20a000000000000000000000000000000000000000000000000000000007bffffffffffffffffffffffffffffffffffffffffffffffffffffffff19166020820180517bffffffffffffffffffffffffffffffffffffffffffffffffffffffff8381831617835250505050612002565b50505050565b60008151905060006a636f6e736f6c652e6c6f679050602083016000808483855afa5050505050565b82805461203790612e92565b90600052602060002090601f01602090048101928261205957600085556120a0565b82601f1061207257805160ff19168380011785556120a0565b828001600101855582156120a0579182015b8281111561209f578251825591602001919060010190612084565b5b5090506120ad9190612151565b5090565b604051806040016040528060608152602001606081525090565b8280546120d790612e92565b90600052602060002090601f0160209004810192826120f95760008555612140565b82601f1061211257803560ff1916838001178555612140565b82800160010185558215612140579182015b8281111561213f578235825591602001919060010190612124565b5b50905061214d9190612151565b5090565b5b8082111561216a576000816000905550600101612152565b5090565b600061218161217c84612caa565b612c85565b905080838252602082019050828560208602820111156121a057600080fd5b60005b858110156121d057816121b68882612218565b8452602084019350602083019250506001810190506121a3565b5050509392505050565b60006121ed6121e884612cd6565b612c85565b90508281526020810184848401111561220557600080fd5b612210848285612e50565b509392505050565b6000813590506122278161309a565b92915050565b600082601f83011261223e57600080fd5b813561224e84826020860161216e565b91505092915050565b600081359050612266816130b1565b92915050565b60008083601f84011261227e57600080fd5b8235905067ffffffffffffffff81111561229757600080fd5b6020830191508360018202830111156122af57600080fd5b9250929050565b600082601f8301126122c757600080fd5b81356122d78482602086016121da565b91505092915050565b6000813590506122ef816130c8565b92915050565b60006020828403121561230757600080fd5b600061231584828501612218565b91505092915050565b60006020828403121561233057600080fd5b600082013567ffffffffffffffff81111561234a57600080fd5b6123568482850161222d565b91505092915050565b6000806000806000806060878903121561237857600080fd5b600087013567ffffffffffffffff81111561239257600080fd5b61239e89828a0161226c565b9650965050602087013567ffffffffffffffff8111156123bd57600080fd5b6123c989828a0161226c565b9450945050604087013567ffffffffffffffff8111156123e857600080fd5b6123f489828a0161226c565b92509250509295509295509295565b60006020828403121561241557600080fd5b600082013567ffffffffffffffff81111561242f57600080fd5b61243b848285016122b6565b91505092915050565b6000806000806080858703121561245a57600080fd5b600085013567ffffffffffffffff81111561247457600080fd5b612480878288016122b6565b945050602085013567ffffffffffffffff81111561249d57600080fd5b6124a9878288016122b6565b935050604085013567ffffffffffffffff8111156124c657600080fd5b6124d2878288016122b6565b925050606085013567ffffffffffffffff8111156124ef57600080fd5b6124fb878288016122b6565b91505092959194509250565b60008060008060008060c0878903121561252057600080fd5b600087013567ffffffffffffffff81111561253a57600080fd5b61254689828a016122b6565b965050602087013567ffffffffffffffff81111561256357600080fd5b61256f89828a016122b6565b955050604087013567ffffffffffffffff81111561258c57600080fd5b61259889828a016122b6565b945050606087013567ffffffffffffffff8111156125b557600080fd5b6125c189828a016122b6565b935050608087013567ffffffffffffffff8111156125de57600080fd5b6125ea89828a016122b6565b92505060a087013567ffffffffffffffff81111561260757600080fd5b61261389828a016122b6565b9150509295509295509295565b6000806040838503121561263357600080fd5b600083013567ffffffffffffffff81111561264d57600080fd5b612659858286016122b6565b925050602061266a858286016122e0565b9150509250929050565b6000806040838503121561268757600080fd5b6000612695858286016122e0565b92505060206126a685828601612257565b9150509250929050565b60006126bc838361295a565b905092915050565b6126cd81612de3565b82525050565b60006126de82612d2c565b6126e88185612d4f565b9350836020820285016126fa85612d07565b8060005b85811015612736578484038952815161271785826126b0565b945061272283612d42565b925060208a019950506001810190506126fe565b50829750879550505050505092915050565b61275181612df5565b82525050565b61276081612e3e565b82525050565b60006127728385612d82565b935061277f838584612e50565b82840190509392505050565b600061279682612d37565b6127a08185612d60565b93506127b0818560208601612e5f565b6127b981612ffa565b840191505092915050565b60006127cf82612d37565b6127d98185612d71565b93506127e9818560208601612e5f565b6127f281612ffa565b840191505092915050565b600061280882612d37565b6128128185612d82565b9350612822818560208601612e5f565b80840191505092915050565b6000815461283b81612e92565b6128458186612d82565b945060018216600081146128605760018114612871576128a4565b60ff198316865281860193506128a4565b61287a85612d17565b60005b8381101561289c5781548189015260018201915060208101905061287d565b838801955050505b50505092915050565b60006128ba601783612d71565b91506128c58261300b565b602082019050919050565b60006128dd601883612d71565b91506128e882613034565b602082019050919050565b6000612900601783612d71565b915061290b8261305d565b602082019050919050565b60006040830160008301518482036000860152612933828261278b565b9150506020830151848203602086015261294d828261278b565b9150508091505092915050565b600060808301600083015161297260008601826129c4565b506020830151848203602086015261298a828261278b565b915050604083015184820360408601526129a4828261278b565b91505060608301516129b96060860182612757565b508091505092915050565b6129cd81612e34565b82525050565b6129dc81612e34565b82525050565b60006129ef828486612766565b91508190509392505050565b6000612a0782846127fd565b915081905092915050565b6000612a1e828461282e565b915081905092915050565b6000602082019050612a3e60008301846126c4565b92915050565b60006020820190508181036000830152612a5e81846126d3565b905092915050565b6000602082019050612a7b6000830184612748565b92915050565b60006020820190508181036000830152612a9b81846127c4565b905092915050565b60006040820190508181036000830152612abd81856127c4565b9050612acc60208301846126c4565b9392505050565b60006080820190508181036000830152612aed81876127c4565b90508181036020830152612b0181866127c4565b90508181036040830152612b1581856127c4565b90508181036060830152612b2981846127c4565b905095945050505050565b60006020820190508181036000830152612b4d816128ad565b9050919050565b60006020820190508181036000830152612b6d816128d0565b9050919050565b60006020820190508181036000830152612b8d816128f3565b9050919050565b60006020820190508181036000830152612bae8184612916565b905092915050565b6000602082019050612bcb60008301846129d3565b92915050565b6000606082019050612be660008301866129d3565b8181036020830152612bf881856127c4565b90508181036040830152612c0c81846127c4565b9050949350505050565b600060a082019050612c2b60008301886129d3565b8181036020830152612c3d81876127c4565b90508181036040830152612c5181866127c4565b90508181036060830152612c6581856127c4565b90508181036080830152612c7981846127c4565b90509695505050505050565b6000612c8f612ca0565b9050612c9b8282612ec4565b919050565b6000604051905090565b600067ffffffffffffffff821115612cc557612cc4612fcb565b5b602082029050602081019050919050565b600067ffffffffffffffff821115612cf157612cf0612fcb565b5b612cfa82612ffa565b9050602081019050919050565b6000819050602082019050919050565b60008190508160005260206000209050919050565b600081519050919050565b600081519050919050565b6000602082019050919050565b600082825260208201905092915050565b600082825260208201905092915050565b600082825260208201905092915050565b600081905092915050565b6000612d9882612e34565b9150612da383612e34565b9250827fffffffffffffffffffffffffffffffffffffffffffffffffffffffffffffffff03821115612dd857612dd7612f3e565b5b828201905092915050565b6000612dee82612e14565b9050919050565b60008115159050919050565b6000819050612e0f82613086565b919050565b600073ffffffffffffffffffffffffffffffffffffffff82169050919050565b6000819050919050565b6000612e4982612e01565b9050919050565b82818337600083830152505050565b60005b83811015612e7d578082015181840152602081019050612e62565b83811115612e8c576000848401525b50505050565b60006002820490506001821680612eaa57607f821691505b60208210811415612ebe57612ebd612f9c565b5b50919050565b612ecd82612ffa565b810181811067ffffffffffffffff82111715612eec57612eeb612fcb565b5b80604052505050565b6000612f0082612e34565b91507fffffffffffffffffffffffffffffffffffffffffffffffffffffffffffffffff821415612f3357612f32612f3e565b5b600182019050919050565b7f4e487b7100000000000000000000000000000000000000000000000000000000600052601160045260246000fd5b7f4e487b7100000000000000000000000000000000000000000000000000000000600052602160045260246000fd5b7f4e487b7100000000000000000000000000000000000000000000000000000000600052602260045260246000fd5b7f4e487b7100000000000000000000000000000000000000000000000000000000600052604160045260246000fd5b6000601f19601f8301169050919050565b7f596f7520617265206e6f7420617574686f72697a65642e000000000000000000600082015250565b7f596f7520686176656e277420726567697374657265642e200000000000000000600082015250565b7f596f7520686176656e277420726567697374657265642e000000000000000000600082015250565b6006811061309757613096612f6d565b5b50565b6130a381612de3565b81146130ae57600080fd5b50565b6130ba81612df5565b81146130c557600080fd5b50565b6130d181612e34565b81146130dc57600080fd5b5056fea2646970667358221220647fe34183a5d1340aa8214cfab5c4e6f459e232131605dac1795ddcb695117664736f6c63430008040033",
  "linkReferences": {},
  "deployedLinkReferences": {}
}