{
  "_format": "hh-sol-artifact-1",
  "contractName": "XContract",
  "sourceName": "contracts/XContract.sol",
  "abi": [
    {
      "inputs": [],
      "stateMutability": "nonpayable",
      "type": "constructor"
    },
    {
      "anonymous": false,
      "inputs": [
        {
          "indexed": false,
          "internalType": "string",
          "name": "pk",
          "type": "string"
        }
      ],
      "name": "InitBalance",
      "type": "event"
    },
    {
      "anonymous": false,
      "inputs": [
        {
          "indexed": false,
          "internalType": "uint256",
          "name": "id",
          "type": "uint256"
        },
        {
          "indexed": false,
          "internalType": "string",
          "name": "rangeproof1",
          "type": "string"
        },
        {
          "indexed": false,
          "internalType": "string",
          "name": "rangeproof2",
          "type": "string"
        },
        {
          "indexed": false,
          "internalType": "string",
          "name": "sigmaProof",
          "type": "string"
        },
        {
          "indexed": false,
          "internalType": "string",
          "name": "input",
          "type": "string"
        }
      ],
      "name": "NewConfTransfer",
      "type": "event"
    },
    {
      "anonymous": false,
      "inputs": [
        {
          "indexed": false,
          "internalType": "uint256",
          "name": "id",
          "type": "uint256"
        },
        {
          "indexed": false,
          "internalType": "string",
          "name": "proof",
          "type": "string"
        }
      ],
      "name": "NewRequest",
      "type": "event"
    },
    {
      "anonymous": false,
      "inputs": [
        {
          "indexed": false,
          "internalType": "string",
          "name": "newMsg",
          "type": "string"
        }
      ],
      "name": "TestMsg",
      "type": "event"
    },
    {
      "anonymous": false,
      "inputs": [
        {
          "indexed": false,
          "internalType": "address",
          "name": "add",
          "type": "address"
        },
        {
          "indexed": false,
          "internalType": "uint256",
          "name": "balance",
          "type": "uint256"
        }
      ],
      "name": "UpdateState",
      "type": "event"
    },
    {
      "inputs": [
        {
          "internalType": "string",
          "name": "y",
          "type": "string"
        }
      ],
      "name": "ElBalanceOf",
      "outputs": [
        {
          "components": [
            {
              "internalType": "string",
              "name": "CL",
              "type": "string"
            },
            {
              "internalType": "string",
              "name": "CR",
              "type": "string"
            }
          ],
          "internalType": "struct XContract.ElBalance",
          "name": "",
          "type": "tuple"
        }
      ],
      "stateMutability": "view",
      "type": "function"
    },
    {
      "inputs": [],
      "name": "association",
      "outputs": [
        {
          "internalType": "address",
          "name": "",
          "type": "address"
        }
      ],
      "stateMutability": "view",
      "type": "function"
    },
    {
      "inputs": [
        {
          "internalType": "address[]",
          "name": "newAcc",
          "type": "address[]"
        }
      ],
      "name": "authorizeNewUser",
      "outputs": [],
      "stateMutability": "nonpayable",
      "type": "function"
    },
    {
      "inputs": [],
      "name": "balanceOf",
      "outputs": [
        {
          "components": [
            {
              "internalType": "string",
              "name": "CL",
              "type": "string"
            },
            {
              "internalType": "string",
              "name": "CR",
              "type": "string"
            }
          ],
          "internalType": "struct XContract.ElBalance",
          "name": "",
          "type": "tuple"
        }
      ],
      "stateMutability": "view",
      "type": "function"
    },
    {
      "inputs": [],
      "name": "checkAuthorized",
      "outputs": [
        {
          "internalType": "bool",
          "name": "",
          "type": "bool"
        }
      ],
      "stateMutability": "view",
      "type": "function"
    },
    {
      "inputs": [
        {
          "internalType": "string",
          "name": "proofForAmt",
          "type": "string"
        },
        {
          "internalType": "string",
          "name": "proofForRemainBalance",
          "type": "string"
        },
        {
          "internalType": "string",
          "name": "sigmaProof",
          "type": "string"
        },
        {
          "internalType": "string",
          "name": "input",
          "type": "string"
        }
      ],
      "name": "confTransfer",
      "outputs": [],
      "stateMutability": "nonpayable",
      "type": "function"
    },
    {
      "inputs": [
        {
          "internalType": "uint256",
          "name": "id",
          "type": "uint256"
        },
        {
          "internalType": "bool",
          "name": "res",
          "type": "bool"
        }
      ],
      "name": "confirmProof",
      "outputs": [],
      "stateMutability": "nonpayable",
      "type": "function"
    },
    {
      "inputs": [],
      "name": "fetchPubkey",
      "outputs": [
        {
          "internalType": "string",
          "name": "",
          "type": "string"
        }
      ],
      "stateMutability": "view",
      "type": "function"
    },
    {
      "inputs": [],
      "name": "greet",
      "outputs": [
        {
          "internalType": "string",
          "name": "",
          "type": "string"
        }
      ],
      "stateMutability": "view",
      "type": "function"
    },
    {
      "inputs": [],
      "name": "hasPubKey",
      "outputs": [
        {
          "internalType": "bool",
          "name": "",
          "type": "bool"
        }
      ],
      "stateMutability": "view",
      "type": "function"
    },
    {
      "inputs": [
        {
          "internalType": "string",
          "name": "y",
          "type": "string"
        },
        {
          "internalType": "string",
          "name": "cL",
          "type": "string"
        },
        {
          "internalType": "string",
          "name": "cR",
          "type": "string"
        }
      ],
      "name": "initElBalance",
      "outputs": [],
      "stateMutability": "nonpayable",
      "type": "function"
    },
    {
      "inputs": [],
      "name": "initialSupply",
      "outputs": [
        {
          "internalType": "uint256",
          "name": "",
          "type": "uint256"
        }
      ],
      "stateMutability": "view",
      "type": "function"
    },
    {
      "inputs": [],
      "name": "name",
      "outputs": [
        {
          "internalType": "string",
          "name": "",
          "type": "string"
        }
      ],
      "stateMutability": "view",
      "type": "function"
    },
    {
      "inputs": [
        {
          "internalType": "string",
          "name": "_greeting",
          "type": "string"
        }
      ],
      "name": "setGreeting",
      "outputs": [],
      "stateMutability": "nonpayable",
      "type": "function"
    },
    {
      "inputs": [],
      "name": "totalSupply",
      "outputs": [
        {
          "internalType": "uint256",
          "name": "",
          "type": "uint256"
        }
      ],
      "stateMutability": "view",
      "type": "function"
    },
    {
      "inputs": [
        {
          "internalType": "string",
          "name": "y",
          "type": "string"
        },
        {
          "internalType": "string",
          "name": "C1",
          "type": "string"
        },
        {
          "internalType": "string",
          "name": "C2",
          "type": "string"
        },
        {
          "internalType": "string",
          "name": "yr",
          "type": "string"
        },
        {
          "internalType": "string",
          "name": "C3",
          "type": "string"
        },
        {
          "internalType": "string",
          "name": "C4",
          "type": "string"
        }
      ],
      "name": "updateBalance",
      "outputs": [],
      "stateMutability": "nonpayable",
      "type": "function"
    }
  ],
  "bytecode": "0x60806040526040518060400160405280600981526020017f58636f6e747261637400000000000000000000000000000000000000000000008152506000908051906020019062000051929190620002a9565b50620f42406002556127106003556040518060200160405280600081525060049080519060200190620000869291906200033a565b503480156200009457600080fd5b506001600560003373ffffffffffffffffffffffffffffffffffffffff1673ffffffffffffffffffffffffffffffffffffffff16815260200190815260200160002060006101000a81548160ff02191690831515021790555033600860006101000a81548173ffffffffffffffffffffffffffffffffffffffff021916908373ffffffffffffffffffffffffffffffffffffffff1602179055506040518060400160405280600381526020017f3030300000000000000000000000000000000000000000000000000000000000815250600190805190602001906200017b929190620002a9565b50620001c76040518060400160405280601381526020017f4465706c6f79205375636365737366756c6c2000000000000000000000000000815250620001dd60201b6200143f1760201c565b6000600a819055506000600b8190555062000517565b6200027d81604051602401620001f491906200042b565b6040516020818303038152906040527f41304fac000000000000000000000000000000000000000000000000000000007bffffffffffffffffffffffffffffffffffffffffffffffffffffffff19166020820180517bffffffffffffffffffffffffffffffffffffffffffffffffffffffff83818316178352505050506200028060201b60201c565b50565b60008151905060006a636f6e736f6c652e6c6f679050602083016000808483855afa5050505050565b828054620002b790620004a1565b90600052602060002090601f016020900481019282620002db576000855562000327565b82601f10620002f657805160ff191683800117855562000327565b8280016001018555821562000327579182015b828111156200032657825182559160200191906001019062000309565b5b509050620003369190620003cb565b5090565b8280546200034890620004a1565b90600052602060002090601f0160209004810192826200036c5760008555620003b8565b82601f106200038757805160ff1916838001178555620003b8565b82800160010185558215620003b8579182015b82811115620003b75782518255916020019190600101906200039a565b5b509050620003c79190620003cb565b5090565b5b80821115620003e6576000816000905550600101620003cc565b5090565b6000620003f7826200044f565b6200040381856200045a565b9350620004158185602086016200046b565b620004208162000506565b840191505092915050565b60006020820190508181036000830152620004478184620003ea565b905092915050565b600081519050919050565b600082825260208201905092915050565b60005b838110156200048b5780820151818401526020810190506200046e565b838111156200049b576000848401525b50505050565b60006002820490506001821680620004ba57607f821691505b60208210811415620004d157620004d0620004d7565b5b50919050565b7f4e487b7100000000000000000000000000000000000000000000000000000000600052602260045260246000fd5b6000601f19601f8301169050919050565b6125ff80620005276000396000f3fe608060405234801561001057600080fd5b50600436106101005760003560e01c80635c260e5011610097578063722713f711610066578063722713f714610275578063817f4e3d14610293578063a4136862146102b1578063cfae3217146102cd57610100565b80635c260e50146101ed5780635f32b6db1461020b57806362746e6c14610227578063712bef911461024557610100565b8063378dc3dc116100d3578063378dc3dc1461017b5780633a2568e9146101995780634118b16f146101b5578063509145db146101d157610100565b8063050d4f781461010557806306fdde03146101235780630a1ae5aa1461014157806318160ddd1461015d575b600080fd5b61010d6102eb565b60405161011a9190611fbe565b60405180910390f35b61012b610311565b6040516101389190611ff4565b60405180910390f35b61015b600480360381019061015691906119fc565b61039f565b005b610165610734565b6040516101729190612177565b60405180910390f35b61018361073a565b6040516101909190612177565b60405180910390f35b6101b360048036038101906101ae9190611cbd565b610740565b005b6101cf60048036038101906101ca9190611ae1565b61088b565b005b6101eb60048036038101906101e691906119bb565b610a6a565b005b6101f5610bb5565b6040516102029190611fd9565b60405180910390f35b61022560048036038101906102209190611ba4565b610caf565b005b61022f610d97565b60405161023c9190611fd9565b60405180910390f35b61025f600480360381019061025a9190611aa0565b610deb565b60405161026c9190612155565b60405180910390f35b61027d610f86565b60405161028a9190612155565b60405180910390f35b61029b611182565b6040516102a89190611ff4565b60405180910390f35b6102cb60048036038101906102c69190611aa0565b6112ae565b005b6102d56113ad565b6040516102e29190611ff4565b60405180910390f35b600860009054906101000a900473ffffffffffffffffffffffffffffffffffffffff1681565b6000805461031e906123c5565b80601f016020809104026020016040519081016040528092919081815260200182805461034a906123c5565b80156103975780601f1061036c57610100808354040283529160200191610397565b820191906000526020600020905b81548152906001019060200180831161037a57829003601f168201915b505050505081565b60011515600560003373ffffffffffffffffffffffffffffffffffffffff1673ffffffffffffffffffffffffffffffffffffffff16815260200190815260200160002060009054906101000a900460ff16151514610432576040517f08c379a000000000000000000000000000000000000000000000000000000000815260040161042990612135565b60405180910390fd5b61043b336114d8565b610466600860009054906101000a900473ffffffffffffffffffffffffffffffffffffffff166114d8565b604051806040016040528085858080601f016020809104026020016040519081016040528093929190818152602001838380828437600081840152601f19601f82011690508083019250505050505050815260200183838080601f016020809104026020016040519081016040528093929190818152602001838380828437600081840152601f19601f8201169050808301925050505050505081525060078787604051610515929190611f77565b9081526020016040518091039020600082015181600001908051906020019061053f929190611777565b50602082015181600101908051906020019061055c929190611777565b5090505061072c6040518060400160405280600b81526020017f73656e6465722061636320000000000000000000000000000000000000000000815250600788886040516105ab929190611f77565b908152602001604051809103902060000180546105c7906123c5565b80601f01602080910402602001604051908101604052809291908181526020018280546105f3906123c5565b80156106405780601f1061061557610100808354040283529160200191610640565b820191906000526020600020905b81548152906001019060200180831161062357829003601f168201915b50505050506040518060400160405280600581526020017f20616e642000000000000000000000000000000000000000000000000000000081525060078a8a60405161068d929190611f77565b908152602001604051809103902060010180546106a9906123c5565b80601f01602080910402602001604051908101604052809291908181526020018280546106d5906123c5565b80156107225780601f106106f757610100808354040283529160200191610722565b820191906000526020600020905b81548152906001019060200180831161070557829003601f168201915b5050505050611571565b505050505050565b60025481565b60035481565b6001151581151514156107ec57600160098381548110610789577f4e487b7100000000000000000000000000000000000000000000000000000000600052603260045260246000fd5b906000526020600020906003020160020160006101000a81548160ff021916908360048111156107e2577f4e487b7100000000000000000000000000000000000000000000000000000000600052602160045260246000fd5b0217905550610887565b600460098381548110610828577f4e487b7100000000000000000000000000000000000000000000000000000000600052603260045260246000fd5b906000526020600020906003020160020160006101000a81548160ff02191690836004811115610881577f4e487b7100000000000000000000000000000000000000000000000000000000600052602160045260246000fd5b02179055505b5050565b600960405180606001604052803373ffffffffffffffffffffffffffffffffffffffff168152602001600b548152602001600060048111156108f6577f4e487b7100000000000000000000000000000000000000000000000000000000600052602160045260246000fd5b815250908060018154018082558091505060019003906000526020600020906003020160009091909190915060008201518160000160006101000a81548173ffffffffffffffffffffffffffffffffffffffff021916908373ffffffffffffffffffffffffffffffffffffffff1602179055506020820151816001015560408201518160020160006101000a81548160ff021916908360048111156109c4577f4e487b7100000000000000000000000000000000000000000000000000000000600052602160045260246000fd5b02179055505050610a096040518060400160405280600b81526020017f54657374204576656e742700000000000000000000000000000000000000000081525061143f565b7f2dddc06b1340f27d89cf9e1783165857c901b8fb2d67ac8443c795ec43ff341f600b5485858585604051610a42959493929190612192565b60405180910390a16001600b6000828254610a5d91906122e5565b9250508190555050505050565b600860009054906101000a900473ffffffffffffffffffffffffffffffffffffffff1673ffffffffffffffffffffffffffffffffffffffff163373ffffffffffffffffffffffffffffffffffffffff1614610afa576040517f08c379a0000000000000000000000000000000000000000000000000000000008152600401610af190612115565b60405180910390fd5b60005b8151811015610bb157600160056000848481518110610b45577f4e487b7100000000000000000000000000000000000000000000000000000000600052603260045260246000fd5b602002602001015173ffffffffffffffffffffffffffffffffffffffff1673ffffffffffffffffffffffffffffffffffffffff16815260200190815260200160002060006101000a81548160ff0219169083151502179055508080610ba990612428565b915050610afd565b5050565b600060011515600560003373ffffffffffffffffffffffffffffffffffffffff1673ffffffffffffffffffffffffffffffffffffffff16815260200190815260200160002060009054906101000a900460ff16151514610c4a576040517f08c379a0000000000000000000000000000000000000000000000000000000008152600401610c4190612115565b60405180910390fd5b6000600660003373ffffffffffffffffffffffffffffffffffffffff1673ffffffffffffffffffffffffffffffffffffffff1681526020019081526020016000208054610c96906123c5565b90501415610ca75760009050610cac565b600190505b90565b604051806040016040528086815260200185815250600787604051610cd49190611f90565b90815260200160405180910390206000820151816000019080519060200190610cfe929190611777565b506020820151816001019080519060200190610d1b929190611777565b50905050604051806040016040528083815260200182815250600784604051610d449190611f90565b90815260200160405180910390206000820151816000019080519060200190610d6e929190611777565b506020820151816001019080519060200190610d8b929190611777565b50905050505050505050565b6000600560003373ffffffffffffffffffffffffffffffffffffffff1673ffffffffffffffffffffffffffffffffffffffff16815260200190815260200160002060009054906101000a900460ff16905090565b610df36117fd565b610e326040518060400160405280600781526020017f73656e646572200000000000000000000000000000000000000000000000000081525033611613565b600782604051610e429190611f90565b9081526020016040518091039020604051806040016040529081600082018054610e6b906123c5565b80601f0160208091040260200160405190810160405280929190818152602001828054610e97906123c5565b8015610ee45780601f10610eb957610100808354040283529160200191610ee4565b820191906000526020600020905b815481529060010190602001808311610ec757829003601f168201915b50505050508152602001600182018054610efd906123c5565b80601f0160208091040260200160405190810160405280929190818152602001828054610f29906123c5565b8015610f765780601f10610f4b57610100808354040283529160200191610f76565b820191906000526020600020905b815481529060010190602001808311610f5957829003601f168201915b5050505050815250509050919050565b610f8e6117fd565b60001515600560003373ffffffffffffffffffffffffffffffffffffffff1673ffffffffffffffffffffffffffffffffffffffff16815260200190815260200160002060009054906101000a900460ff1615151415610fec57600080fd5b6000600660003373ffffffffffffffffffffffffffffffffffffffff1673ffffffffffffffffffffffffffffffffffffffff168152602001908152602001600020905060078160405161103f9190611fa7565b9081526020016040518091039020604051806040016040529081600082018054611068906123c5565b80601f0160208091040260200160405190810160405280929190818152602001828054611094906123c5565b80156110e15780601f106110b6576101008083540402835291602001916110e1565b820191906000526020600020905b8154815290600101906020018083116110c457829003601f168201915b505050505081526020016001820180546110fa906123c5565b80601f0160208091040260200160405190810160405280929190818152602001828054611126906123c5565b80156111735780601f1061114857610100808354040283529160200191611173565b820191906000526020600020905b81548152906001019060200180831161115657829003601f168201915b50505050508152505091505090565b606060011515600560003373ffffffffffffffffffffffffffffffffffffffff1673ffffffffffffffffffffffffffffffffffffffff16815260200190815260200160002060009054906101000a900460ff161515146111e157600080fd5b600660003373ffffffffffffffffffffffffffffffffffffffff1673ffffffffffffffffffffffffffffffffffffffff168152602001908152602001600020805461122b906123c5565b80601f0160208091040260200160405190810160405280929190818152602001828054611257906123c5565b80156112a45780601f10611279576101008083540402835291602001916112a4565b820191906000526020600020905b81548152906001019060200180831161128757829003601f168201915b5050505050905090565b61135b6040518060600160405280602381526020016125a760239139600180546112d7906123c5565b80601f0160208091040260200160405190810160405280929190818152602001828054611303906123c5565b80156113505780601f1061132557610100808354040283529160200191611350565b820191906000526020600020905b81548152906001019060200180831161133357829003601f168201915b5050505050836116af565b8060019080519060200190611371929190611777565b507f57a57a410b51ac4751ea694c91cdcca4d61b6d997d46fb997eddc7d51334174260016040516113a291906120f3565b60405180910390a150565b6060600180546113bc906123c5565b80601f01602080910402602001604051908101604052809291908181526020018280546113e8906123c5565b80156114355780601f1061140a57610100808354040283529160200191611435565b820191906000526020600020905b81548152906001019060200180831161141857829003601f168201915b5050505050905090565b6114d5816040516024016114539190611ff4565b6040516020818303038152906040527f41304fac000000000000000000000000000000000000000000000000000000007bffffffffffffffffffffffffffffffffffffffffffffffffffffffff19166020820180517bffffffffffffffffffffffffffffffffffffffffffffffffffffffff838183161783525050505061174e565b50565b61156e816040516024016114ec9190611fbe565b6040516020818303038152906040527f2c2ecbc2000000000000000000000000000000000000000000000000000000007bffffffffffffffffffffffffffffffffffffffffffffffffffffffff19166020820180517bffffffffffffffffffffffffffffffffffffffffffffffffffffffff838183161783525050505061174e565b50565b61160d8484848460405160240161158b9493929190612092565b6040516020818303038152906040527fde68f20a000000000000000000000000000000000000000000000000000000007bffffffffffffffffffffffffffffffffffffffffffffffffffffffff19166020820180517bffffffffffffffffffffffffffffffffffffffffffffffffffffffff838183161783525050505061174e565b50505050565b6116ab8282604051602401611629929190612016565b6040516020818303038152906040527f319af333000000000000000000000000000000000000000000000000000000007bffffffffffffffffffffffffffffffffffffffffffffffffffffffff19166020820180517bffffffffffffffffffffffffffffffffffffffffffffffffffffffff838183161783525050505061174e565b5050565b6117498383836040516024016116c793929190612046565b6040516020818303038152906040527f2ced7cef000000000000000000000000000000000000000000000000000000007bffffffffffffffffffffffffffffffffffffffffffffffffffffffff19166020820180517bffffffffffffffffffffffffffffffffffffffffffffffffffffffff838183161783525050505061174e565b505050565b60008151905060006a636f6e736f6c652e6c6f679050602083016000808483855afa5050505050565b828054611783906123c5565b90600052602060002090601f0160209004810192826117a557600085556117ec565b82601f106117be57805160ff19168380011785556117ec565b828001600101855582156117ec579182015b828111156117eb5782518255916020019190600101906117d0565b5b5090506117f99190611817565b5090565b604051806040016040528060608152602001606081525090565b5b80821115611830576000816000905550600101611818565b5090565b600061184761184284612226565b612201565b9050808382526020820190508285602086028201111561186657600080fd5b60005b85811015611896578161187c88826118de565b845260208401935060208301925050600181019050611869565b5050509392505050565b60006118b36118ae84612252565b612201565b9050828152602081018484840111156118cb57600080fd5b6118d6848285612383565b509392505050565b6000813590506118ed81612561565b92915050565b600082601f83011261190457600080fd5b8135611914848260208601611834565b91505092915050565b60008135905061192c81612578565b92915050565b60008083601f84011261194457600080fd5b8235905067ffffffffffffffff81111561195d57600080fd5b60208301915083600182028301111561197557600080fd5b9250929050565b600082601f83011261198d57600080fd5b813561199d8482602086016118a0565b91505092915050565b6000813590506119b58161258f565b92915050565b6000602082840312156119cd57600080fd5b600082013567ffffffffffffffff8111156119e757600080fd5b6119f3848285016118f3565b91505092915050565b60008060008060008060608789031215611a1557600080fd5b600087013567ffffffffffffffff811115611a2f57600080fd5b611a3b89828a01611932565b9650965050602087013567ffffffffffffffff811115611a5a57600080fd5b611a6689828a01611932565b9450945050604087013567ffffffffffffffff811115611a8557600080fd5b611a9189828a01611932565b92509250509295509295509295565b600060208284031215611ab257600080fd5b600082013567ffffffffffffffff811115611acc57600080fd5b611ad88482850161197c565b91505092915050565b60008060008060808587031215611af757600080fd5b600085013567ffffffffffffffff811115611b1157600080fd5b611b1d8782880161197c565b945050602085013567ffffffffffffffff811115611b3a57600080fd5b611b468782880161197c565b935050604085013567ffffffffffffffff811115611b6357600080fd5b611b6f8782880161197c565b925050606085013567ffffffffffffffff811115611b8c57600080fd5b611b988782880161197c565b91505092959194509250565b60008060008060008060c08789031215611bbd57600080fd5b600087013567ffffffffffffffff811115611bd757600080fd5b611be389828a0161197c565b965050602087013567ffffffffffffffff811115611c0057600080fd5b611c0c89828a0161197c565b955050604087013567ffffffffffffffff811115611c2957600080fd5b611c3589828a0161197c565b945050606087013567ffffffffffffffff811115611c5257600080fd5b611c5e89828a0161197c565b935050608087013567ffffffffffffffff811115611c7b57600080fd5b611c8789828a0161197c565b92505060a087013567ffffffffffffffff811115611ca457600080fd5b611cb089828a0161197c565b9150509295509295509295565b60008060408385031215611cd057600080fd5b6000611cde858286016119a6565b9250506020611cef8582860161191d565b9150509250929050565b611d028161233b565b82525050565b611d118161234d565b82525050565b6000611d2383856122da565b9350611d30838584612383565b82840190509392505050565b6000611d47826122ad565b611d5181856122b8565b9350611d61818560208601612392565b611d6a816124fe565b840191505092915050565b6000611d80826122ad565b611d8a81856122c9565b9350611d9a818560208601612392565b611da3816124fe565b840191505092915050565b6000611db9826122ad565b611dc381856122da565b9350611dd3818560208601612392565b80840191505092915050565b60008154611dec816123c5565b611df681866122da565b94506001821660008114611e115760018114611e2257611e55565b60ff19831686528186019350611e55565b611e2b85612298565b60005b83811015611e4d57815481890152600182019150602081019050611e2e565b838801955050505b50505092915050565b60008154611e6b816123c5565b611e7581866122c9565b94506001821660008114611e905760018114611ea257611ed5565b60ff1983168652602086019350611ed5565b611eab85612283565b60005b83811015611ecd57815481890152600182019150602081019050611eae565b808801955050505b50505092915050565b6000611eeb6017836122c9565b9150611ef68261250f565b602082019050919050565b6000611f0e6018836122c9565b9150611f1982612538565b602082019050919050565b60006040830160008301518482036000860152611f418282611d3c565b91505060208301518482036020860152611f5b8282611d3c565b9150508091505092915050565b611f7181612379565b82525050565b6000611f84828486611d17565b91508190509392505050565b6000611f9c8284611dae565b915081905092915050565b6000611fb38284611ddf565b915081905092915050565b6000602082019050611fd36000830184611cf9565b92915050565b6000602082019050611fee6000830184611d08565b92915050565b6000602082019050818103600083015261200e8184611d75565b905092915050565b600060408201905081810360008301526120308185611d75565b905061203f6020830184611cf9565b9392505050565b600060608201905081810360008301526120608186611d75565b905081810360208301526120748185611d75565b905081810360408301526120888184611d75565b9050949350505050565b600060808201905081810360008301526120ac8187611d75565b905081810360208301526120c08186611d75565b905081810360408301526120d48185611d75565b905081810360608301526120e88184611d75565b905095945050505050565b6000602082019050818103600083015261210d8184611e5e565b905092915050565b6000602082019050818103600083015261212e81611ede565b9050919050565b6000602082019050818103600083015261214e81611f01565b9050919050565b6000602082019050818103600083015261216f8184611f24565b905092915050565b600060208201905061218c6000830184611f68565b92915050565b600060a0820190506121a76000830188611f68565b81810360208301526121b98187611d75565b905081810360408301526121cd8186611d75565b905081810360608301526121e18185611d75565b905081810360808301526121f58184611d75565b90509695505050505050565b600061220b61221c565b905061221782826123f7565b919050565b6000604051905090565b600067ffffffffffffffff821115612241576122406124cf565b5b602082029050602081019050919050565b600067ffffffffffffffff82111561226d5761226c6124cf565b5b612276826124fe565b9050602081019050919050565b60008190508160005260206000209050919050565b60008190508160005260206000209050919050565b600081519050919050565b600082825260208201905092915050565b600082825260208201905092915050565b600081905092915050565b60006122f082612379565b91506122fb83612379565b9250827fffffffffffffffffffffffffffffffffffffffffffffffffffffffffffffffff038211156123305761232f612471565b5b828201905092915050565b600061234682612359565b9050919050565b60008115159050919050565b600073ffffffffffffffffffffffffffffffffffffffff82169050919050565b6000819050919050565b82818337600083830152505050565b60005b838110156123b0578082015181840152602081019050612395565b838111156123bf576000848401525b50505050565b600060028204905060018216806123dd57607f821691505b602082108114156123f1576123f06124a0565b5b50919050565b612400826124fe565b810181811067ffffffffffffffff8211171561241f5761241e6124cf565b5b80604052505050565b600061243382612379565b91507fffffffffffffffffffffffffffffffffffffffffffffffffffffffffffffffff82141561246657612465612471565b5b600182019050919050565b7f4e487b7100000000000000000000000000000000000000000000000000000000600052601160045260246000fd5b7f4e487b7100000000000000000000000000000000000000000000000000000000600052602260045260246000fd5b7f4e487b7100000000000000000000000000000000000000000000000000000000600052604160045260246000fd5b6000601f19601f8301169050919050565b7f596f7520617265206e6f7420617574686f72697a65642e000000000000000000600082015250565b7f596f7520686176656e277420726567697374657265642e200000000000000000600082015250565b61256a8161233b565b811461257557600080fd5b50565b6125818161234d565b811461258c57600080fd5b50565b61259881612379565b81146125a357600080fd5b5056fe4368616e67696e67206772656574696e672066726f6d202725732720746f2027257327a2646970667358221220df619cc7b70634427077143cd845e7828ed4991c06b196fc7dde62dd1e02e2eb64736f6c63430008040033",
  "linkReferences": {},
  "deployedLinkReferences": {}
}