{
  "_format": "hh-sol-artifact-1",
  "contractName": "XContract",
  "sourceName": "contracts/XContract.sol",
  "abi": [
    {
      "inputs": [],
      "stateMutability": "nonpayable",
      "type": "constructor"
    },
    {
      "anonymous": false,
      "inputs": [
        {
          "indexed": false,
          "internalType": "string",
          "name": "pk",
          "type": "string"
        }
      ],
      "name": "InitBalance",
      "type": "event"
    },
    {
      "anonymous": false,
      "inputs": [
        {
          "indexed": false,
          "internalType": "uint256",
          "name": "id",
          "type": "uint256"
        },
        {
          "indexed": false,
          "internalType": "string",
          "name": "rangeproof1",
          "type": "string"
        },
        {
          "indexed": false,
          "internalType": "string",
          "name": "rangeproof2",
          "type": "string"
        },
        {
          "indexed": false,
          "internalType": "string",
          "name": "sigmaProof",
          "type": "string"
        },
        {
          "indexed": false,
          "internalType": "string",
          "name": "input",
          "type": "string"
        }
      ],
      "name": "NewConfTransfer",
      "type": "event"
    },
    {
      "anonymous": false,
      "inputs": [
        {
          "indexed": false,
          "internalType": "uint256",
          "name": "id",
          "type": "uint256"
        },
        {
          "indexed": false,
          "internalType": "string",
          "name": "CL_price",
          "type": "string"
        },
        {
          "indexed": false,
          "internalType": "string",
          "name": "CR_price",
          "type": "string"
        }
      ],
      "name": "NewPrice",
      "type": "event"
    },
    {
      "anonymous": false,
      "inputs": [
        {
          "indexed": false,
          "internalType": "uint256",
          "name": "id",
          "type": "uint256"
        },
        {
          "indexed": false,
          "internalType": "string",
          "name": "proof",
          "type": "string"
        }
      ],
      "name": "NewRequest",
      "type": "event"
    },
    {
      "anonymous": false,
      "inputs": [
        {
          "indexed": false,
          "internalType": "string",
          "name": "newMsg",
          "type": "string"
        }
      ],
      "name": "TestMsg",
      "type": "event"
    },
    {
      "anonymous": false,
      "inputs": [
        {
          "indexed": false,
          "internalType": "address",
          "name": "add",
          "type": "address"
        },
        {
          "indexed": false,
          "internalType": "uint256",
          "name": "balance",
          "type": "uint256"
        }
      ],
      "name": "UpdateState",
      "type": "event"
    },
    {
      "anonymous": false,
      "inputs": [
        {
          "indexed": false,
          "internalType": "uint256",
          "name": "id",
          "type": "uint256"
        },
        {
          "indexed": false,
          "internalType": "string",
          "name": "CL_price",
          "type": "string"
        },
        {
          "indexed": false,
          "internalType": "string",
          "name": "CR_price",
          "type": "string"
        },
        {
          "indexed": false,
          "internalType": "string",
          "name": "bidderKey",
          "type": "string"
        }
      ],
      "name": "makeDeal",
      "type": "event"
    },
    {
      "inputs": [
        {
          "internalType": "string",
          "name": "y",
          "type": "string"
        }
      ],
      "name": "ElBalanceOf",
      "outputs": [
        {
          "components": [
            {
              "internalType": "string",
              "name": "CL",
              "type": "string"
            },
            {
              "internalType": "string",
              "name": "CR",
              "type": "string"
            }
          ],
          "internalType": "struct XContract.ElBalance",
          "name": "",
          "type": "tuple"
        }
      ],
      "stateMutability": "view",
      "type": "function"
    },
    {
      "inputs": [
        {
          "internalType": "uint256",
          "name": "requestId",
          "type": "uint256"
        },
        {
          "internalType": "uint256",
          "name": "dealId",
          "type": "uint256"
        }
      ],
      "name": "acceptDeal",
      "outputs": [],
      "stateMutability": "nonpayable",
      "type": "function"
    },
    {
      "inputs": [],
      "name": "association",
      "outputs": [
        {
          "internalType": "address",
          "name": "",
          "type": "address"
        }
      ],
      "stateMutability": "view",
      "type": "function"
    },
    {
      "inputs": [
        {
          "internalType": "address[]",
          "name": "newAcc",
          "type": "address[]"
        }
      ],
      "name": "authorizeNewUser",
      "outputs": [],
      "stateMutability": "nonpayable",
      "type": "function"
    },
    {
      "inputs": [],
      "name": "balanceOf",
      "outputs": [
        {
          "components": [
            {
              "internalType": "string",
              "name": "CL",
              "type": "string"
            },
            {
              "internalType": "string",
              "name": "CR",
              "type": "string"
            }
          ],
          "internalType": "struct XContract.ElBalance",
          "name": "",
          "type": "tuple"
        }
      ],
      "stateMutability": "view",
      "type": "function"
    },
    {
      "inputs": [
        {
          "internalType": "address",
          "name": "newAcc",
          "type": "address"
        }
      ],
      "name": "checkAuthorizeNewUser",
      "outputs": [
        {
          "internalType": "bool",
          "name": "",
          "type": "bool"
        }
      ],
      "stateMutability": "view",
      "type": "function"
    },
    {
      "inputs": [],
      "name": "checkAuthorized",
      "outputs": [
        {
          "internalType": "bool",
          "name": "",
          "type": "bool"
        }
      ],
      "stateMutability": "view",
      "type": "function"
    },
    {
      "inputs": [
        {
          "internalType": "string",
          "name": "proofForAmt",
          "type": "string"
        },
        {
          "internalType": "string",
          "name": "proofForRemainBalance",
          "type": "string"
        },
        {
          "internalType": "string",
          "name": "sigmaProof",
          "type": "string"
        },
        {
          "internalType": "string",
          "name": "input",
          "type": "string"
        }
      ],
      "name": "confTransfer",
      "outputs": [],
      "stateMutability": "nonpayable",
      "type": "function"
    },
    {
      "inputs": [
        {
          "internalType": "uint256",
          "name": "id",
          "type": "uint256"
        },
        {
          "internalType": "bool",
          "name": "res",
          "type": "bool"
        }
      ],
      "name": "confirmProof",
      "outputs": [],
      "stateMutability": "nonpayable",
      "type": "function"
    },
    {
      "inputs": [],
      "name": "fetchPubkey",
      "outputs": [
        {
          "internalType": "string",
          "name": "",
          "type": "string"
        }
      ],
      "stateMutability": "view",
      "type": "function"
    },
    {
      "inputs": [],
      "name": "getAllAvailableTasks",
      "outputs": [
        {
          "components": [
            {
              "internalType": "uint256",
              "name": "id",
              "type": "uint256"
            },
            {
              "internalType": "string",
              "name": "content",
              "type": "string"
            },
            {
              "internalType": "string",
              "name": "pubkeyOfSender",
              "type": "string"
            },
            {
              "internalType": "enum XContract.State",
              "name": "state",
              "type": "uint8"
            },
            {
              "components": [
                {
                  "internalType": "string",
                  "name": "CL",
                  "type": "string"
                },
                {
                  "internalType": "string",
                  "name": "CR",
                  "type": "string"
                }
              ],
              "internalType": "struct XContract.ElBalance",
              "name": "acceptedPrice",
              "type": "tuple"
            },
            {
              "internalType": "string",
              "name": "worker",
              "type": "string"
            }
          ],
          "internalType": "struct XContract.Request[]",
          "name": "",
          "type": "tuple[]"
        }
      ],
      "stateMutability": "view",
      "type": "function"
    },
    {
      "inputs": [],
      "name": "getMessages",
      "outputs": [
        {
          "components": [
            {
              "internalType": "bool",
              "name": "code",
              "type": "bool"
            },
            {
              "internalType": "uint256",
              "name": "requestId",
              "type": "uint256"
            },
            {
              "components": [
                {
                  "internalType": "string",
                  "name": "CL",
                  "type": "string"
                },
                {
                  "internalType": "string",
                  "name": "CR",
                  "type": "string"
                }
              ],
              "internalType": "struct XContract.ElBalance",
              "name": "price",
              "type": "tuple"
            },
            {
              "internalType": "string",
              "name": "requestOwner",
              "type": "string"
            }
          ],
          "internalType": "struct XContract.Message[]",
          "name": "",
          "type": "tuple[]"
        }
      ],
      "stateMutability": "view",
      "type": "function"
    },
    {
      "inputs": [],
      "name": "getYourTasks",
      "outputs": [
        {
          "components": [
            {
              "internalType": "uint256",
              "name": "id",
              "type": "uint256"
            },
            {
              "internalType": "string",
              "name": "content",
              "type": "string"
            },
            {
              "internalType": "string",
              "name": "pubkeyOfSender",
              "type": "string"
            },
            {
              "internalType": "enum XContract.State",
              "name": "state",
              "type": "uint8"
            },
            {
              "components": [
                {
                  "internalType": "string",
                  "name": "CL",
                  "type": "string"
                },
                {
                  "internalType": "string",
                  "name": "CR",
                  "type": "string"
                }
              ],
              "internalType": "struct XContract.ElBalance",
              "name": "acceptedPrice",
              "type": "tuple"
            },
            {
              "internalType": "string",
              "name": "worker",
              "type": "string"
            }
          ],
          "internalType": "struct XContract.Request[]",
          "name": "",
          "type": "tuple[]"
        }
      ],
      "stateMutability": "view",
      "type": "function"
    },
    {
      "inputs": [],
      "name": "greet",
      "outputs": [
        {
          "internalType": "string",
          "name": "",
          "type": "string"
        }
      ],
      "stateMutability": "view",
      "type": "function"
    },
    {
      "inputs": [],
      "name": "hasPubKey",
      "outputs": [
        {
          "internalType": "bool",
          "name": "",
          "type": "bool"
        }
      ],
      "stateMutability": "view",
      "type": "function"
    },
    {
      "inputs": [
        {
          "internalType": "string",
          "name": "y",
          "type": "string"
        },
        {
          "internalType": "string",
          "name": "cL",
          "type": "string"
        },
        {
          "internalType": "string",
          "name": "cR",
          "type": "string"
        }
      ],
      "name": "initPocket",
      "outputs": [],
      "stateMutability": "nonpayable",
      "type": "function"
    },
    {
      "inputs": [
        {
          "internalType": "uint256",
          "name": "id",
          "type": "uint256"
        }
      ],
      "name": "loadOffers",
      "outputs": [
        {
          "components": [
            {
              "internalType": "uint256",
              "name": "dealId",
              "type": "uint256"
            },
            {
              "components": [
                {
                  "internalType": "string",
                  "name": "CL",
                  "type": "string"
                },
                {
                  "internalType": "string",
                  "name": "CR",
                  "type": "string"
                }
              ],
              "internalType": "struct XContract.ElBalance",
              "name": "price",
              "type": "tuple"
            },
            {
              "internalType": "uint256",
              "name": "requestId",
              "type": "uint256"
            },
            {
              "internalType": "enum XContract.DealState",
              "name": "state",
              "type": "uint8"
            },
            {
              "internalType": "string",
              "name": "bidder",
              "type": "string"
            },
            {
              "internalType": "string",
              "name": "requestOwner",
              "type": "string"
            }
          ],
          "internalType": "struct XContract.Deal[]",
          "name": "",
          "type": "tuple[]"
        }
      ],
      "stateMutability": "view",
      "type": "function"
    },
    {
      "inputs": [],
      "name": "name",
      "outputs": [
        {
          "internalType": "string",
          "name": "",
          "type": "string"
        }
      ],
      "stateMutability": "view",
      "type": "function"
    },
    {
      "inputs": [
        {
          "internalType": "uint256",
          "name": "requestId",
          "type": "uint256"
        },
        {
          "internalType": "uint256",
          "name": "dealId",
          "type": "uint256"
        },
        {
          "internalType": "string",
          "name": "proofForAmt",
          "type": "string"
        },
        {
          "internalType": "string",
          "name": "proofForRemainBalance",
          "type": "string"
        },
        {
          "internalType": "string",
          "name": "sigmaProof",
          "type": "string"
        },
        {
          "internalType": "string",
          "name": "input",
          "type": "string"
        }
      ],
      "name": "payTheDeal",
      "outputs": [],
      "stateMutability": "nonpayable",
      "type": "function"
    },
    {
      "inputs": [
        {
          "internalType": "string",
          "name": "_task",
          "type": "string"
        }
      ],
      "name": "postTask",
      "outputs": [],
      "stateMutability": "nonpayable",
      "type": "function"
    },
    {
      "inputs": [
        {
          "internalType": "uint256",
          "name": "requestId",
          "type": "uint256"
        },
        {
          "internalType": "string",
          "name": "CL_price",
          "type": "string"
        },
        {
          "internalType": "string",
          "name": "CR_price",
          "type": "string"
        }
      ],
      "name": "raiseAPrice",
      "outputs": [],
      "stateMutability": "nonpayable",
      "type": "function"
    },
    {
      "inputs": [
        {
          "internalType": "string",
          "name": "y",
          "type": "string"
        },
        {
          "internalType": "string",
          "name": "C1",
          "type": "string"
        },
        {
          "internalType": "string",
          "name": "C2",
          "type": "string"
        },
        {
          "internalType": "string",
          "name": "yr",
          "type": "string"
        },
        {
          "internalType": "string",
          "name": "C3",
          "type": "string"
        },
        {
          "internalType": "string",
          "name": "C4",
          "type": "string"
        }
      ],
      "name": "updateBalance",
      "outputs": [],
      "stateMutability": "nonpayable",
      "type": "function"
    }
  ],
  "bytecode": "0x60806040526040518060400160405280600981526020017f58636f6e747261637400000000000000000000000000000000000000000000008152506000908051906020019062000051929190620002a4565b5060405180602001604052806000815250600290805190602001906200007992919062000335565b503480156200008757600080fd5b506001600360003373ffffffffffffffffffffffffffffffffffffffff1673ffffffffffffffffffffffffffffffffffffffff16815260200190815260200160002060006101000a81548160ff02191690831515021790555033600a60006101000a81548173ffffffffffffffffffffffffffffffffffffffff021916908373ffffffffffffffffffffffffffffffffffffffff1602179055506040518060400160405280600381526020017f3030300000000000000000000000000000000000000000000000000000000000815250600190805190602001906200016e929190620002a4565b50620001ba6040518060400160405280601181526020017f4465706c6f79205375636365737366756c000000000000000000000000000000815250620001d860201b620042ae1760201c565b6000600e819055506000600f81905550600060108190555062000512565b6200027881604051602401620001ef919062000426565b6040516020818303038152906040527f41304fac000000000000000000000000000000000000000000000000000000007bffffffffffffffffffffffffffffffffffffffffffffffffffffffff19166020820180517bffffffffffffffffffffffffffffffffffffffffffffffffffffffff83818316178352505050506200027b60201b60201c565b50565b60008151905060006a636f6e736f6c652e6c6f679050602083016000808483855afa5050505050565b828054620002b2906200049c565b90600052602060002090601f016020900481019282620002d6576000855562000322565b82601f10620002f157805160ff191683800117855562000322565b8280016001018555821562000322579182015b828111156200032157825182559160200191906001019062000304565b5b509050620003319190620003c6565b5090565b82805462000343906200049c565b90600052602060002090601f016020900481019282620003675760008555620003b3565b82601f106200038257805160ff1916838001178555620003b3565b82800160010185558215620003b3579182015b82811115620003b257825182559160200191906001019062000395565b5b509050620003c29190620003c6565b5090565b5b80821115620003e1576000816000905550600101620003c7565b5090565b6000620003f2826200044a565b620003fe818562000455565b93506200041081856020860162000466565b6200041b8162000501565b840191505092915050565b60006020820190508181036000830152620004428184620003e5565b905092915050565b600081519050919050565b600082825260208201905092915050565b60005b838110156200048657808201518184015260208101905062000469565b8381111562000496576000848401525b50505050565b60006002820490506001821680620004b557607f821691505b60208210811415620004cc57620004cb620004d2565b5b50919050565b7f4e487b7100000000000000000000000000000000000000000000000000000000600052602260045260246000fd5b6000601f19601f8301169050919050565b615db880620005226000396000f3fe608060405234801561001057600080fd5b50600436106101425760003560e01c8063712bef91116100b8578063c4ca280d1161007c578063c4ca280d14610353578063cfae32171461036f578063d8b86fec1461038d578063e04fa817146103a9578063ec406e9b146103c5578063fe58265e146103e357610142565b8063712bef91146102ad578063722713f7146102dd578063817f4e3d146102fb5780638655854c14610319578063883764b11461033557610142565b80634f193a911161010a5780634f193a91146101eb578063509145db1461021b5780635c260e50146102375780635f32b6db146102555780635ff6cbf31461027157806362746e6c1461028f57610142565b8063050d4f781461014757806306fdde03146101655780633a2568e9146101835780634118b16f1461019f578063496cb056146101bb575b600080fd5b61014f6103ff565b60405161015c9190615487565b60405180910390f35b61016d610425565b60405161017a9190615523565b60405180910390f35b61019d60048036038101906101989190614b40565b6104b3565b005b6101b960048036038101906101b4919061493b565b61055f565b005b6101d560048036038101906101d091906147ec565b610653565b6040516101e29190615508565b60405180910390f35b61020560048036038101906102009190614b17565b610739565b60405161021291906154a2565b60405180910390f35b61023560048036038101906102309190614815565b610c30565b005b61023f610d7b565b60405161024c9190615508565b60405180910390f35b61026f600480360381019061026a91906149fe565b610e75565b005b610279610f5d565b60405161028691906154c4565b60405180910390f35b610297611327565b6040516102a49190615508565b60405180910390f35b6102c760048036038101906102c291906148fa565b61137b565b6040516102d491906156d6565b60405180910390f35b6102e5611516565b6040516102f291906156d6565b60405180910390f35b610303611712565b6040516103109190615523565b60405180910390f35b610333600480360381019061032e9190614856565b61183e565b005b61033d611c4d565b60405161034a91906154e6565b60405180910390f35b61036d600480360381019061036891906148fa565b612157565b005b610377612533565b6040516103849190615523565b60405180910390f35b6103a760048036038101906103a29190614b7c565b6125c5565b005b6103c360048036038101906103be9190614c37565b612abf565b005b6103cd612f60565b6040516103da91906154e6565b60405180910390f35b6103fd60048036038101906103f89190614bfb565b613521565b005b600a60009054906101000a900473ffffffffffffffffffffffffffffffffffffffff1681565b6000805461043290615a54565b80601f016020809104026020016040519081016040528092919081815260200182805461045e90615a54565b80156104ab5780601f10610480576101008083540402835291602001916104ab565b820191906000526020600020905b81548152906001019060200180831161048e57829003601f168201915b505050505081565b60011515811515141561055b576001600b83815481106104fc577f4e487b7100000000000000000000000000000000000000000000000000000000600052603260045260246000fd5b906000526020600020906007020160030160006101000a81548160ff02191690836003811115610555577f4e487b7100000000000000000000000000000000000000000000000000000000600052602160045260246000fd5b02179055505b5050565b60011515600360003373ffffffffffffffffffffffffffffffffffffffff1673ffffffffffffffffffffffffffffffffffffffff16815260200190815260200160002060009054906101000a900460ff161515146105f2576040517f08c379a00000000000000000000000000000000000000000000000000000000081526004016105e990615656565b60405180910390fd5b7f2dddc06b1340f27d89cf9e1783165857c901b8fb2d67ac8443c795ec43ff341f6010548585858560405161062b9594939291906156f8565b60405180910390a160016010600082825461064691906158f6565b9250508190555050505050565b6000600a60009054906101000a900473ffffffffffffffffffffffffffffffffffffffff1673ffffffffffffffffffffffffffffffffffffffff163373ffffffffffffffffffffffffffffffffffffffff16146106e5576040517f08c379a00000000000000000000000000000000000000000000000000000000081526004016106dc906155d6565b60405180910390fd5b600360008373ffffffffffffffffffffffffffffffffffffffff1673ffffffffffffffffffffffffffffffffffffffff16815260200190815260200160002060009054906101000a900460ff169050919050565b60606000600b8381548110610777577f4e487b7100000000000000000000000000000000000000000000000000000000600052603260045260246000fd5b9060005260206000209060070201600201805461079390615a54565b80601f01602080910402602001604051908101604052809291908181526020018280546107bf90615a54565b801561080c5780601f106107e15761010080835404028352916020019161080c565b820191906000526020600020905b8154815290600101906020018083116107ef57829003601f168201915b5050505050905061081c816142ae565b3373ffffffffffffffffffffffffffffffffffffffff166006826040516108439190615442565b908152602001604051809103902060009054906101000a900473ffffffffffffffffffffffffffffffffffffffff1673ffffffffffffffffffffffffffffffffffffffff16146108c8576040517f08c379a00000000000000000000000000000000000000000000000000000000081526004016108bf90615616565b60405180910390fd5b60086000848152602001908152602001600020805480602002602001604051908101604052809291908181526020016000905b82821015610c2457838290600052602060002090600702016040518060c0016040529081600082015481526020016001820160405180604001604052908160008201805461094890615a54565b80601f016020809104026020016040519081016040528092919081815260200182805461097490615a54565b80156109c15780601f10610996576101008083540402835291602001916109c1565b820191906000526020600020905b8154815290600101906020018083116109a457829003601f168201915b505050505081526020016001820180546109da90615a54565b80601f0160208091040260200160405190810160405280929190818152602001828054610a0690615a54565b8015610a535780601f10610a2857610100808354040283529160200191610a53565b820191906000526020600020905b815481529060010190602001808311610a3657829003601f168201915b5050505050815250508152602001600382015481526020016004820160009054906101000a900460ff166002811115610ab5577f4e487b7100000000000000000000000000000000000000000000000000000000600052602160045260246000fd5b6002811115610aed577f4e487b7100000000000000000000000000000000000000000000000000000000600052602160045260246000fd5b8152602001600582018054610b0190615a54565b80601f0160208091040260200160405190810160405280929190818152602001828054610b2d90615a54565b8015610b7a5780601f10610b4f57610100808354040283529160200191610b7a565b820191906000526020600020905b815481529060010190602001808311610b5d57829003601f168201915b50505050508152602001600682018054610b9390615a54565b80601f0160208091040260200160405190810160405280929190818152602001828054610bbf90615a54565b8015610c0c5780601f10610be157610100808354040283529160200191610c0c565b820191906000526020600020905b815481529060010190602001808311610bef57829003601f168201915b505050505081525050815260200190600101906108fb565b50505050915050919050565b600a60009054906101000a900473ffffffffffffffffffffffffffffffffffffffff1673ffffffffffffffffffffffffffffffffffffffff163373ffffffffffffffffffffffffffffffffffffffff1614610cc0576040517f08c379a0000000000000000000000000000000000000000000000000000000008152600401610cb7906155d6565b60405180910390fd5b60005b8151811015610d7757600160036000848481518110610d0b577f4e487b7100000000000000000000000000000000000000000000000000000000600052603260045260246000fd5b602002602001015173ffffffffffffffffffffffffffffffffffffffff1673ffffffffffffffffffffffffffffffffffffffff16815260200190815260200160002060006101000a81548160ff0219169083151502179055508080610d6f90615ab7565b915050610cc3565b5050565b600060011515600360003373ffffffffffffffffffffffffffffffffffffffff1673ffffffffffffffffffffffffffffffffffffffff16815260200190815260200160002060009054906101000a900460ff16151514610e10576040517f08c379a0000000000000000000000000000000000000000000000000000000008152600401610e07906155d6565b60405180910390fd5b6000600460003373ffffffffffffffffffffffffffffffffffffffff1673ffffffffffffffffffffffffffffffffffffffff1681526020019081526020016000208054610e5c90615a54565b90501415610e6d5760009050610e72565b600190505b90565b604051806040016040528086815260200185815250600587604051610e9a9190615442565b90815260200160405180910390206000820151816000019080519060200190610ec49291906144ae565b506020820151816001019080519060200190610ee19291906144ae565b50905050604051806040016040528083815260200182815250600584604051610f0a9190615442565b90815260200160405180910390206000820151816000019080519060200190610f349291906144ae565b506020820151816001019080519060200190610f519291906144ae565b50905050505050505050565b606060011515600360003373ffffffffffffffffffffffffffffffffffffffff1673ffffffffffffffffffffffffffffffffffffffff16815260200190815260200160002060009054906101000a900460ff16151514610ff2576040517f08c379a0000000000000000000000000000000000000000000000000000000008152600401610fe990615676565b60405180910390fd5b6000600460003373ffffffffffffffffffffffffffffffffffffffff1673ffffffffffffffffffffffffffffffffffffffff168152602001908152602001600020805461103e90615a54565b80601f016020809104026020016040519081016040528092919081815260200182805461106a90615a54565b80156110b75780601f1061108c576101008083540402835291602001916110b7565b820191906000526020600020905b81548152906001019060200180831161109a57829003601f168201915b505050505090506009816040516110ce9190615442565b9081526020016040518091039020805480602002602001604051908101604052809291908181526020016000905b8282101561131d57838290600052602060002090600502016040518060800160405290816000820160009054906101000a900460ff16151515158152602001600182015481526020016002820160405180604001604052908160008201805461116490615a54565b80601f016020809104026020016040519081016040528092919081815260200182805461119090615a54565b80156111dd5780601f106111b2576101008083540402835291602001916111dd565b820191906000526020600020905b8154815290600101906020018083116111c057829003601f168201915b505050505081526020016001820180546111f690615a54565b80601f016020809104026020016040519081016040528092919081815260200182805461122290615a54565b801561126f5780601f106112445761010080835404028352916020019161126f565b820191906000526020600020905b81548152906001019060200180831161125257829003601f168201915b505050505081525050815260200160048201805461128c90615a54565b80601f01602080910402602001604051908101604052809291908181526020018280546112b890615a54565b80156113055780601f106112da57610100808354040283529160200191611305565b820191906000526020600020905b8154815290600101906020018083116112e857829003601f168201915b505050505081525050815260200190600101906110fc565b5050505091505090565b6000600360003373ffffffffffffffffffffffffffffffffffffffff1673ffffffffffffffffffffffffffffffffffffffff16815260200190815260200160002060009054906101000a900460ff16905090565b611383614534565b6113c26040518060400160405280600781526020017f73656e646572200000000000000000000000000000000000000000000000000081525033614347565b6005826040516113d29190615442565b90815260200160405180910390206040518060400160405290816000820180546113fb90615a54565b80601f016020809104026020016040519081016040528092919081815260200182805461142790615a54565b80156114745780601f1061144957610100808354040283529160200191611474565b820191906000526020600020905b81548152906001019060200180831161145757829003601f168201915b5050505050815260200160018201805461148d90615a54565b80601f01602080910402602001604051908101604052809291908181526020018280546114b990615a54565b80156115065780601f106114db57610100808354040283529160200191611506565b820191906000526020600020905b8154815290600101906020018083116114e957829003601f168201915b5050505050815250509050919050565b61151e614534565b60001515600360003373ffffffffffffffffffffffffffffffffffffffff1673ffffffffffffffffffffffffffffffffffffffff16815260200190815260200160002060009054906101000a900460ff161515141561157c57600080fd5b6000600460003373ffffffffffffffffffffffffffffffffffffffff1673ffffffffffffffffffffffffffffffffffffffff16815260200190815260200160002090506005816040516115cf9190615470565b90815260200160405180910390206040518060400160405290816000820180546115f890615a54565b80601f016020809104026020016040519081016040528092919081815260200182805461162490615a54565b80156116715780601f1061164657610100808354040283529160200191611671565b820191906000526020600020905b81548152906001019060200180831161165457829003601f168201915b5050505050815260200160018201805461168a90615a54565b80601f01602080910402602001604051908101604052809291908181526020018280546116b690615a54565b80156117035780601f106116d857610100808354040283529160200191611703565b820191906000526020600020905b8154815290600101906020018083116116e657829003601f168201915b50505050508152505091505090565b606060011515600360003373ffffffffffffffffffffffffffffffffffffffff1673ffffffffffffffffffffffffffffffffffffffff16815260200190815260200160002060009054906101000a900460ff1615151461177157600080fd5b600460003373ffffffffffffffffffffffffffffffffffffffff1673ffffffffffffffffffffffffffffffffffffffff16815260200190815260200160002080546117bb90615a54565b80601f01602080910402602001604051908101604052809291908181526020018280546117e790615a54565b80156118345780601f1061180957610100808354040283529160200191611834565b820191906000526020600020905b81548152906001019060200180831161181757829003601f168201915b5050505050905090565b60011515600360003373ffffffffffffffffffffffffffffffffffffffff1673ffffffffffffffffffffffffffffffffffffffff16815260200190815260200160002060009054906101000a900460ff161515146118d1576040517f08c379a00000000000000000000000000000000000000000000000000000000081526004016118c890615656565b60405180910390fd5b8585600460003373ffffffffffffffffffffffffffffffffffffffff1673ffffffffffffffffffffffffffffffffffffffff168152602001908152602001600020919061191f92919061454e565b503360068787604051611933929190615429565b908152602001604051809103902060006101000a81548173ffffffffffffffffffffffffffffffffffffffff021916908373ffffffffffffffffffffffffffffffffffffffff160217905550604051806040016040528085858080601f016020809104026020016040519081016040528093929190818152602001838380828437600081840152601f19601f82011690508083019250505050505050815260200183838080601f016020809104026020016040519081016040528093929190818152602001838380828437600081840152601f19601f8201169050808301925050505050505081525060058787604051611a2e929190615429565b90815260200160405180910390206000820151816000019080519060200190611a589291906144ae565b506020820151816001019080519060200190611a759291906144ae565b50905050611c456040518060400160405280600b81526020017f73656e646572206163632000000000000000000000000000000000000000000081525060058888604051611ac4929190615429565b90815260200160405180910390206000018054611ae090615a54565b80601f0160208091040260200160405190810160405280929190818152602001828054611b0c90615a54565b8015611b595780601f10611b2e57610100808354040283529160200191611b59565b820191906000526020600020905b815481529060010190602001808311611b3c57829003601f168201915b50505050506040518060400160405280600581526020017f20616e642000000000000000000000000000000000000000000000000000000081525060058a8a604051611ba6929190615429565b90815260200160405180910390206001018054611bc290615a54565b80601f0160208091040260200160405190810160405280929190818152602001828054611bee90615a54565b8015611c3b5780601f10611c1057610100808354040283529160200191611c3b565b820191906000526020600020905b815481529060010190602001808311611c1e57829003601f168201915b50505050506143e3565b505050505050565b60606000600c8054905067ffffffffffffffff811115611c96577f4e487b7100000000000000000000000000000000000000000000000000000000600052604160045260246000fd5b604051908082528060200260200182016040528015611ccf57816020015b611cbc6145d4565b815260200190600190039081611cb45790505b50905060005b600c8054905081101561214f57600b600c8281548110611d1e577f4e487b7100000000000000000000000000000000000000000000000000000000600052603260045260246000fd5b906000526020600020015481548110611d60577f4e487b7100000000000000000000000000000000000000000000000000000000600052603260045260246000fd5b90600052602060002090600702016040518060c001604052908160008201548152602001600182018054611d9390615a54565b80601f0160208091040260200160405190810160405280929190818152602001828054611dbf90615a54565b8015611e0c5780601f10611de157610100808354040283529160200191611e0c565b820191906000526020600020905b815481529060010190602001808311611def57829003601f168201915b50505050508152602001600282018054611e2590615a54565b80601f0160208091040260200160405190810160405280929190818152602001828054611e5190615a54565b8015611e9e5780601f10611e7357610100808354040283529160200191611e9e565b820191906000526020600020905b815481529060010190602001808311611e8157829003601f168201915b505050505081526020016003820160009054906101000a900460ff166003811115611ef2577f4e487b7100000000000000000000000000000000000000000000000000000000600052602160045260246000fd5b6003811115611f2a577f4e487b7100000000000000000000000000000000000000000000000000000000600052602160045260246000fd5b815260200160048201604051806040016040529081600082018054611f4e90615a54565b80601f0160208091040260200160405190810160405280929190818152602001828054611f7a90615a54565b8015611fc75780601f10611f9c57610100808354040283529160200191611fc7565b820191906000526020600020905b815481529060010190602001808311611faa57829003601f168201915b50505050508152602001600182018054611fe090615a54565b80601f016020809104026020016040519081016040528092919081815260200182805461200c90615a54565b80156120595780601f1061202e57610100808354040283529160200191612059565b820191906000526020600020905b81548152906001019060200180831161203c57829003601f168201915b505050505081525050815260200160068201805461207690615a54565b80601f01602080910402602001604051908101604052809291908181526020018280546120a290615a54565b80156120ef5780601f106120c4576101008083540402835291602001916120ef565b820191906000526020600020905b8154815290600101906020018083116120d257829003601f168201915b505050505081525050828281518110612131577f4e487b7100000000000000000000000000000000000000000000000000000000600052603260045260246000fd5b6020026020010181905250808061214790615ab7565b915050611cd5565b508091505090565b60011515600360003373ffffffffffffffffffffffffffffffffffffffff1673ffffffffffffffffffffffffffffffffffffffff16815260200190815260200160002060009054906101000a900460ff161515146121ea576040517f08c379a00000000000000000000000000000000000000000000000000000000081526004016121e190615676565b60405180910390fd5b600b6040518060c00160405280600f548152602001838152602001600460003373ffffffffffffffffffffffffffffffffffffffff1673ffffffffffffffffffffffffffffffffffffffff168152602001908152602001600020805461224f90615a54565b80601f016020809104026020016040519081016040528092919081815260200182805461227b90615a54565b80156122c85780601f1061229d576101008083540402835291602001916122c8565b820191906000526020600020905b8154815290600101906020018083116122ab57829003601f168201915b505050505081526020016000600381111561230c577f4e487b7100000000000000000000000000000000000000000000000000000000600052602160045260246000fd5b815260200160405180604001604052806040518060200160405280600081525081526020016040518060200160405280600081525081525081526020016040518060200160405280600081525081525090806001815401808255809150506001900390600052602060002090600702016000909190919091506000820151816000015560208201518160010190805190602001906123ab9291906144ae565b5060408201518160020190805190602001906123c89291906144ae565b5060608201518160030160006101000a81548160ff0219169083600381111561241a577f4e487b7100000000000000000000000000000000000000000000000000000000600052602160045260246000fd5b021790555060808201518160040160008201518160000190805190602001906124449291906144ae565b5060208201518160010190805190602001906124619291906144ae565b50505060a08201518160060190805190602001906124809291906144ae565b505050600760003373ffffffffffffffffffffffffffffffffffffffff1673ffffffffffffffffffffffffffffffffffffffff168152602001908152602001600020600f549080600181540180825580915050600190039060005260206000200160009091909190915055600c600f5490806001815401808255809150506001900390600052602060002001600090919091909150556001600f600082825461252991906158f6565b9250508190555050565b60606001805461254290615a54565b80601f016020809104026020016040519081016040528092919081815260200182805461256e90615a54565b80156125bb5780601f10612590576101008083540402835291602001916125bb565b820191906000526020600020905b81548152906001019060200180831161259e57829003601f168201915b5050505050905090565b60011515600360003373ffffffffffffffffffffffffffffffffffffffff1673ffffffffffffffffffffffffffffffffffffffff16815260200190815260200160002060009054906101000a900460ff16151514612658576040517f08c379a000000000000000000000000000000000000000000000000000000000815260040161264f90615676565b60405180910390fd5b60006003811115612692577f4e487b7100000000000000000000000000000000000000000000000000000000600052602160045260246000fd5b600b84815481106126cc577f4e487b7100000000000000000000000000000000000000000000000000000000600052603260045260246000fd5b906000526020600020906007020160030160009054906101000a900460ff166003811115612723577f4e487b7100000000000000000000000000000000000000000000000000000000600052602160045260246000fd5b14612763576040517f08c379a000000000000000000000000000000000000000000000000000000000815260040161275a906156b6565b60405180910390fd5b600060086000858152602001908152602001600020805490509050600860008581526020019081526020016000206040518060c001604052808381526020016040518060400160405280878152602001868152508152602001868152602001600060028111156127fc577f4e487b7100000000000000000000000000000000000000000000000000000000600052602160045260246000fd5b8152602001600460003373ffffffffffffffffffffffffffffffffffffffff1673ffffffffffffffffffffffffffffffffffffffff168152602001908152602001600020805461284b90615a54565b80601f016020809104026020016040519081016040528092919081815260200182805461287790615a54565b80156128c45780601f10612899576101008083540402835291602001916128c4565b820191906000526020600020905b8154815290600101906020018083116128a757829003601f168201915b50505050508152602001600b8781548110612908577f4e487b7100000000000000000000000000000000000000000000000000000000600052603260045260246000fd5b9060005260206000209060070201600201805461292490615a54565b80601f016020809104026020016040519081016040528092919081815260200182805461295090615a54565b801561299d5780601f106129725761010080835404028352916020019161299d565b820191906000526020600020905b81548152906001019060200180831161298057829003601f168201915b505050505081525090806001815401808255809150506001900390600052602060002090600702016000909190919091506000820151816000015560208201518160010160008201518160000190805190602001906129fd9291906144ae565b506020820151816001019080519060200190612a1a9291906144ae565b5050506040820151816003015560608201518160040160006101000a81548160ff02191690836002811115612a78577f4e487b7100000000000000000000000000000000000000000000000000000000600052602160045260246000fd5b02179055506080820151816005019080519060200190612a999291906144ae565b5060a0820151816006019080519060200190612ab69291906144ae565b50505050505050565b60011515600360003373ffffffffffffffffffffffffffffffffffffffff1673ffffffffffffffffffffffffffffffffffffffff16815260200190815260200160002060009054906101000a900460ff16151514612b52576040517f08c379a0000000000000000000000000000000000000000000000000000000008152600401612b4990615636565b60405180910390fd5b6000600b8781548110612b8e577f4e487b7100000000000000000000000000000000000000000000000000000000600052603260045260246000fd5b90600052602060002090600702016002018054612baa90615a54565b80601f0160208091040260200160405190810160405280929190818152602001828054612bd690615a54565b8015612c235780601f10612bf857610100808354040283529160200191612c23565b820191906000526020600020905b815481529060010190602001808311612c0657829003601f168201915b505050505090503373ffffffffffffffffffffffffffffffffffffffff16600682604051612c519190615442565b908152602001604051809103902060009054906101000a900473ffffffffffffffffffffffffffffffffffffffff1673ffffffffffffffffffffffffffffffffffffffff1614612cd6576040517f08c379a0000000000000000000000000000000000000000000000000000000008152600401612ccd906155f6565b60405180910390fd5b600280811115612d0f577f4e487b7100000000000000000000000000000000000000000000000000000000600052602160045260246000fd5b600860008981526020019081526020016000208781548110612d5a577f4e487b7100000000000000000000000000000000000000000000000000000000600052603260045260246000fd5b906000526020600020906007020160040160009054906101000a900460ff166002811115612db1577f4e487b7100000000000000000000000000000000000000000000000000000000600052602160045260246000fd5b14612df1576040517f08c379a0000000000000000000000000000000000000000000000000000000008152600401612de8906155f6565b60405180910390fd5b60016003811115612e2b577f4e487b7100000000000000000000000000000000000000000000000000000000600052602160045260246000fd5b600b8881548110612e65577f4e487b7100000000000000000000000000000000000000000000000000000000600052603260045260246000fd5b906000526020600020906007020160030160009054906101000a900460ff166003811115612ebc577f4e487b7100000000000000000000000000000000000000000000000000000000600052602160045260246000fd5b14612efc576040517f08c379a0000000000000000000000000000000000000000000000000000000008152600401612ef3906155f6565b60405180910390fd5b7f2dddc06b1340f27d89cf9e1783165857c901b8fb2d67ac8443c795ec43ff341f60105486868686604051612f359594939291906156f8565b60405180910390a1600160106000828254612f5091906158f6565b9250508190555050505050505050565b60606000600760003373ffffffffffffffffffffffffffffffffffffffff1673ffffffffffffffffffffffffffffffffffffffff1681526020019081526020016000208054905067ffffffffffffffff811115612fe6577f4e487b7100000000000000000000000000000000000000000000000000000000600052604160045260246000fd5b60405190808252806020026020018201604052801561301f57816020015b61300c6145d4565b8152602001906001900390816130045790505b50905060005b600760003373ffffffffffffffffffffffffffffffffffffffff1673ffffffffffffffffffffffffffffffffffffffff1681526020019081526020016000208054905081101561351957600b600760003373ffffffffffffffffffffffffffffffffffffffff1673ffffffffffffffffffffffffffffffffffffffff16815260200190815260200160002082815481106130e8577f4e487b7100000000000000000000000000000000000000000000000000000000600052603260045260246000fd5b90600052602060002001548154811061312a577f4e487b7100000000000000000000000000000000000000000000000000000000600052603260045260246000fd5b90600052602060002090600702016040518060c00160405290816000820154815260200160018201805461315d90615a54565b80601f016020809104026020016040519081016040528092919081815260200182805461318990615a54565b80156131d65780601f106131ab576101008083540402835291602001916131d6565b820191906000526020600020905b8154815290600101906020018083116131b957829003601f168201915b505050505081526020016002820180546131ef90615a54565b80601f016020809104026020016040519081016040528092919081815260200182805461321b90615a54565b80156132685780601f1061323d57610100808354040283529160200191613268565b820191906000526020600020905b81548152906001019060200180831161324b57829003601f168201915b505050505081526020016003820160009054906101000a900460ff1660038111156132bc577f4e487b7100000000000000000000000000000000000000000000000000000000600052602160045260246000fd5b60038111156132f4577f4e487b7100000000000000000000000000000000000000000000000000000000600052602160045260246000fd5b81526020016004820160405180604001604052908160008201805461331890615a54565b80601f016020809104026020016040519081016040528092919081815260200182805461334490615a54565b80156133915780601f1061336657610100808354040283529160200191613391565b820191906000526020600020905b81548152906001019060200180831161337457829003601f168201915b505050505081526020016001820180546133aa90615a54565b80601f01602080910402602001604051908101604052809291908181526020018280546133d690615a54565b80156134235780601f106133f857610100808354040283529160200191613423565b820191906000526020600020905b81548152906001019060200180831161340657829003601f168201915b505050505081525050815260200160068201805461344090615a54565b80601f016020809104026020016040519081016040528092919081815260200182805461346c90615a54565b80156134b95780601f1061348e576101008083540402835291602001916134b9565b820191906000526020600020905b81548152906001019060200180831161349c57829003601f168201915b5050505050815250508282815181106134fb577f4e487b7100000000000000000000000000000000000000000000000000000000600052603260045260246000fd5b6020026020010181905250808061351190615ab7565b915050613025565b508091505090565b60011515600360003373ffffffffffffffffffffffffffffffffffffffff1673ffffffffffffffffffffffffffffffffffffffff16815260200190815260200160002060009054906101000a900460ff161515146135b4576040517f08c379a00000000000000000000000000000000000000000000000000000000081526004016135ab90615676565b60405180910390fd5b6000600b83815481106135f0577f4e487b7100000000000000000000000000000000000000000000000000000000600052603260045260246000fd5b9060005260206000209060070201600201805461360c90615a54565b80601f016020809104026020016040519081016040528092919081815260200182805461363890615a54565b80156136855780601f1061365a57610100808354040283529160200191613685565b820191906000526020600020905b81548152906001019060200180831161366857829003601f168201915b505050505090503373ffffffffffffffffffffffffffffffffffffffff166006826040516136b39190615442565b908152602001604051809103902060009054906101000a900473ffffffffffffffffffffffffffffffffffffffff1673ffffffffffffffffffffffffffffffffffffffff1614613738576040517f08c379a000000000000000000000000000000000000000000000000000000000815260040161372f90615616565b60405180910390fd5b60006003811115613772577f4e487b7100000000000000000000000000000000000000000000000000000000600052602160045260246000fd5b600b84815481106137ac577f4e487b7100000000000000000000000000000000000000000000000000000000600052603260045260246000fd5b906000526020600020906007020160030160009054906101000a900460ff166003811115613803577f4e487b7100000000000000000000000000000000000000000000000000000000600052602160045260246000fd5b14613843576040517f08c379a000000000000000000000000000000000000000000000000000000000815260040161383a906156b6565b60405180910390fd5b6000600281111561387d577f4e487b7100000000000000000000000000000000000000000000000000000000600052602160045260246000fd5b6008600085815260200190815260200160002083815481106138c8577f4e487b7100000000000000000000000000000000000000000000000000000000600052603260045260246000fd5b906000526020600020906007020160040160009054906101000a900460ff16600281111561391f577f4e487b7100000000000000000000000000000000000000000000000000000000600052602160045260246000fd5b1461395f576040517f08c379a000000000000000000000000000000000000000000000000000000000815260040161395690615696565b60405180910390fd5b60005b6008600085815260200190815260200160002080549050811015613d2457828114613d115760016008600086815260200190815260200160002082815481106139d4577f4e487b7100000000000000000000000000000000000000000000000000000000600052603260045260246000fd5b906000526020600020906007020160040160006101000a81548160ff02191690836002811115613a2d577f4e487b7100000000000000000000000000000000000000000000000000000000600052602160045260246000fd5b02179055506009600860008681526020019081526020016000208281548110613a7f577f4e487b7100000000000000000000000000000000000000000000000000000000600052603260045260246000fd5b9060005260206000209060070201600501604051613a9d9190615459565b90815260200160405180910390206040518060800160405280600015158152602001868152602001600860008881526020019081526020016000208481548110613b10577f4e487b7100000000000000000000000000000000000000000000000000000000600052603260045260246000fd5b9060005260206000209060070201600101604051806040016040529081600082018054613b3c90615a54565b80601f0160208091040260200160405190810160405280929190818152602001828054613b6890615a54565b8015613bb55780601f10613b8a57610100808354040283529160200191613bb5565b820191906000526020600020905b815481529060010190602001808311613b9857829003601f168201915b50505050508152602001600182018054613bce90615a54565b80601f0160208091040260200160405190810160405280929190818152602001828054613bfa90615a54565b8015613c475780601f10613c1c57610100808354040283529160200191613c47565b820191906000526020600020905b815481529060010190602001808311613c2a57829003601f168201915b505050505081525050815260200184815250908060018154018082558091505060019003906000526020600020906005020160009091909190915060008201518160000160006101000a81548160ff021916908315150217905550602082015181600101556040820151816002016000820151816000019080519060200190613cd19291906144ae565b506020820151816001019080519060200190613cee9291906144ae565b5050506060820151816004019080519060200190613d0d9291906144ae565b5050505b8080613d1c90615ab7565b915050613962565b506002600860008581526020019081526020016000208381548110613d72577f4e487b7100000000000000000000000000000000000000000000000000000000600052603260045260246000fd5b906000526020600020906007020160040160006101000a81548160ff02191690836002811115613dcb577f4e487b7100000000000000000000000000000000000000000000000000000000600052602160045260246000fd5b02179055506009600860008581526020019081526020016000208381548110613e1d577f4e487b7100000000000000000000000000000000000000000000000000000000600052603260045260246000fd5b9060005260206000209060070201600501604051613e3b9190615459565b90815260200160405180910390206040518060800160405280600115158152602001858152602001600860008781526020019081526020016000208581548110613eae577f4e487b7100000000000000000000000000000000000000000000000000000000600052603260045260246000fd5b9060005260206000209060070201600101604051806040016040529081600082018054613eda90615a54565b80601f0160208091040260200160405190810160405280929190818152602001828054613f0690615a54565b8015613f535780601f10613f2857610100808354040283529160200191613f53565b820191906000526020600020905b815481529060010190602001808311613f3657829003601f168201915b50505050508152602001600182018054613f6c90615a54565b80601f0160208091040260200160405190810160405280929190818152602001828054613f9890615a54565b8015613fe55780601f10613fba57610100808354040283529160200191613fe5565b820191906000526020600020905b815481529060010190602001808311613fc857829003601f168201915b505050505081525050815260200183815250908060018154018082558091505060019003906000526020600020906005020160009091909190915060008201518160000160006101000a81548160ff02191690831515021790555060208201518160010155604082015181600201600082015181600001908051906020019061406f9291906144ae565b50602082015181600101908051906020019061408c9291906144ae565b50505060608201518160040190805190602001906140ab9291906144ae565b5050506001600b84815481106140ea577f4e487b7100000000000000000000000000000000000000000000000000000000600052603260045260246000fd5b906000526020600020906007020160030160006101000a81548160ff02191690836003811115614143577f4e487b7100000000000000000000000000000000000000000000000000000000600052602160045260246000fd5b021790555060005b600c805490508110156142a85783600c8281548110614193577f4e487b7100000000000000000000000000000000000000000000000000000000600052603260045260246000fd5b9060005260206000200154141561429557600c6001600c805490506141b8919061594c565b815481106141ef577f4e487b7100000000000000000000000000000000000000000000000000000000600052603260045260246000fd5b9060005260206000200154600c8281548110614234577f4e487b7100000000000000000000000000000000000000000000000000000000600052603260045260246000fd5b9060005260206000200181905550600c80548061427a577f4e487b7100000000000000000000000000000000000000000000000000000000600052603160045260246000fd5b600190038181906000526020600020016000905590556142a8565b80806142a090615ab7565b91505061414b565b50505050565b614344816040516024016142c29190615523565b6040516020818303038152906040527f41304fac000000000000000000000000000000000000000000000000000000007bffffffffffffffffffffffffffffffffffffffffffffffffffffffff19166020820180517bffffffffffffffffffffffffffffffffffffffffffffffffffffffff8381831617835250505050614485565b50565b6143df828260405160240161435d929190615545565b6040516020818303038152906040527f319af333000000000000000000000000000000000000000000000000000000007bffffffffffffffffffffffffffffffffffffffffffffffffffffffff19166020820180517bffffffffffffffffffffffffffffffffffffffffffffffffffffffff8381831617835250505050614485565b5050565b61447f848484846040516024016143fd9493929190615575565b6040516020818303038152906040527fde68f20a000000000000000000000000000000000000000000000000000000007bffffffffffffffffffffffffffffffffffffffffffffffffffffffff19166020820180517bffffffffffffffffffffffffffffffffffffffffffffffffffffffff8381831617835250505050614485565b50505050565b60008151905060006a636f6e736f6c652e6c6f679050602083016000808483855afa5050505050565b8280546144ba90615a54565b90600052602060002090601f0160209004810192826144dc5760008555614523565b82601f106144f557805160ff1916838001178555614523565b82800160010185558215614523579182015b82811115614522578251825591602001919060010190614507565b5b5090506145309190614648565b5090565b604051806040016040528060608152602001606081525090565b82805461455a90615a54565b90600052602060002090601f01602090048101928261457c57600085556145c3565b82601f1061459557803560ff19168380011785556145c3565b828001600101855582156145c3579182015b828111156145c25782358255916020019190600101906145a7565b5b5090506145d09190614648565b5090565b6040518060c001604052806000815260200160608152602001606081526020016000600381111561462e577f4e487b7100000000000000000000000000000000000000000000000000000000600052602160045260246000fd5b815260200161463b614534565b8152602001606081525090565b5b80821115614661576000816000905550600101614649565b5090565b60006146786146738461578c565b615767565b9050808382526020820190508285602086028201111561469757600080fd5b60005b858110156146c757816146ad888261470f565b84526020840193506020830192505060018101905061469a565b5050509392505050565b60006146e46146df846157b8565b615767565b9050828152602081018484840111156146fc57600080fd5b614707848285615a12565b509392505050565b60008135905061471e81615d3d565b92915050565b600082601f83011261473557600080fd5b8135614745848260208601614665565b91505092915050565b60008135905061475d81615d54565b92915050565b60008083601f84011261477557600080fd5b8235905067ffffffffffffffff81111561478e57600080fd5b6020830191508360018202830111156147a657600080fd5b9250929050565b600082601f8301126147be57600080fd5b81356147ce8482602086016146d1565b91505092915050565b6000813590506147e681615d6b565b92915050565b6000602082840312156147fe57600080fd5b600061480c8482850161470f565b91505092915050565b60006020828403121561482757600080fd5b600082013567ffffffffffffffff81111561484157600080fd5b61484d84828501614724565b91505092915050565b6000806000806000806060878903121561486f57600080fd5b600087013567ffffffffffffffff81111561488957600080fd5b61489589828a01614763565b9650965050602087013567ffffffffffffffff8111156148b457600080fd5b6148c089828a01614763565b9450945050604087013567ffffffffffffffff8111156148df57600080fd5b6148eb89828a01614763565b92509250509295509295509295565b60006020828403121561490c57600080fd5b600082013567ffffffffffffffff81111561492657600080fd5b614932848285016147ad565b91505092915050565b6000806000806080858703121561495157600080fd5b600085013567ffffffffffffffff81111561496b57600080fd5b614977878288016147ad565b945050602085013567ffffffffffffffff81111561499457600080fd5b6149a0878288016147ad565b935050604085013567ffffffffffffffff8111156149bd57600080fd5b6149c9878288016147ad565b925050606085013567ffffffffffffffff8111156149e657600080fd5b6149f2878288016147ad565b91505092959194509250565b60008060008060008060c08789031215614a1757600080fd5b600087013567ffffffffffffffff811115614a3157600080fd5b614a3d89828a016147ad565b965050602087013567ffffffffffffffff811115614a5a57600080fd5b614a6689828a016147ad565b955050604087013567ffffffffffffffff811115614a8357600080fd5b614a8f89828a016147ad565b945050606087013567ffffffffffffffff811115614aac57600080fd5b614ab889828a016147ad565b935050608087013567ffffffffffffffff811115614ad557600080fd5b614ae189828a016147ad565b92505060a087013567ffffffffffffffff811115614afe57600080fd5b614b0a89828a016147ad565b9150509295509295509295565b600060208284031215614b2957600080fd5b6000614b37848285016147d7565b91505092915050565b60008060408385031215614b5357600080fd5b6000614b61858286016147d7565b9250506020614b728582860161474e565b9150509250929050565b600080600060608486031215614b9157600080fd5b6000614b9f868287016147d7565b935050602084013567ffffffffffffffff811115614bbc57600080fd5b614bc8868287016147ad565b925050604084013567ffffffffffffffff811115614be557600080fd5b614bf1868287016147ad565b9150509250925092565b60008060408385031215614c0e57600080fd5b6000614c1c858286016147d7565b9250506020614c2d858286016147d7565b9150509250929050565b60008060008060008060c08789031215614c5057600080fd5b6000614c5e89828a016147d7565b9650506020614c6f89828a016147d7565b955050604087013567ffffffffffffffff811115614c8c57600080fd5b614c9889828a016147ad565b945050606087013567ffffffffffffffff811115614cb557600080fd5b614cc189828a016147ad565b935050608087013567ffffffffffffffff811115614cde57600080fd5b614cea89828a016147ad565b92505060a087013567ffffffffffffffff811115614d0757600080fd5b614d1389828a016147ad565b9150509295509295509295565b6000614d2c83836151e4565b905092915050565b6000614d408383615303565b905092915050565b6000614d54838361536d565b905092915050565b614d6581615980565b82525050565b6000614d7682615843565b614d808185615896565b935083602082028501614d92856157e9565b8060005b85811015614dce5784840389528151614daf8582614d20565b9450614dba8361586f565b925060208a01995050600181019050614d96565b50829750879550505050505092915050565b6000614deb8261584e565b614df581856158a7565b935083602082028501614e07856157f9565b8060005b85811015614e435784840389528151614e248582614d34565b9450614e2f8361587c565b925060208a01995050600181019050614e0b565b50829750879550505050505092915050565b6000614e6082615859565b614e6a81856158b8565b935083602082028501614e7c85615809565b8060005b85811015614eb85784840389528151614e998582614d48565b9450614ea483615889565b925060208a01995050600181019050614e80565b50829750879550505050505092915050565b614ed381615992565b82525050565b614ee281615992565b82525050565b614ef1816159ee565b82525050565b614f0081615a00565b82525050565b6000614f1283856158eb565b9350614f1f838584615a12565b82840190509392505050565b6000614f3682615864565b614f4081856158c9565b9350614f50818560208601615a21565b614f5981615bbc565b840191505092915050565b6000614f6f82615864565b614f7981856158da565b9350614f89818560208601615a21565b614f9281615bbc565b840191505092915050565b6000614fa882615864565b614fb281856158eb565b9350614fc2818560208601615a21565b80840191505092915050565b60008154614fdb81615a54565b614fe581866158eb565b94506001821660008114615000576001811461501157615044565b60ff19831686528186019350615044565b61501a8561582e565b60005b8381101561503c5781548189015260018201915060208101905061501d565b838801955050505b50505092915050565b6000815461505a81615a54565b61506481866158eb565b9450600182166000811461507f5760018114615090576150c3565b60ff198316865281860193506150c3565b61509985615819565b60005b838110156150bb5781548189015260018201915060208101905061509c565b838801955050505b50505092915050565b60006150d96017836158da565b91506150e482615bcd565b602082019050919050565b60006150fc600f836158da565b915061510782615bf6565b602082019050919050565b600061511f601f836158da565b915061512a82615c1f565b602082019050919050565b60006151426013836158da565b915061514d82615c48565b602082019050919050565b60006151656018836158da565b915061517082615c71565b602082019050919050565b60006151886017836158da565b915061519382615c9a565b602082019050919050565b60006151ab601c836158da565b91506151b682615cc3565b602082019050919050565b60006151ce6020836158da565b91506151d982615cec565b602082019050919050565b600060c0830160008301516151fc600086018261540b565b5060208301518482036020860152615214828261527b565b9150506040830151615229604086018261540b565b50606083015161523c6060860182614ee8565b50608083015184820360808601526152548282614f2b565b91505060a083015184820360a086015261526e8282614f2b565b9150508091505092915050565b600060408301600083015184820360008601526152988282614f2b565b915050602083015184820360208601526152b28282614f2b565b9150508091505092915050565b600060408301600083015184820360008601526152dc8282614f2b565b915050602083015184820360208601526152f68282614f2b565b9150508091505092915050565b600060808301600083015161531b6000860182614eca565b50602083015161532e602086018261540b565b5060408301518482036040860152615346828261527b565b915050606083015184820360608601526153608282614f2b565b9150508091505092915050565b600060c083016000830151615385600086018261540b565b506020830151848203602086015261539d8282614f2b565b915050604083015184820360408601526153b78282614f2b565b91505060608301516153cc6060860182614ef7565b50608083015184820360808601526153e4828261527b565b91505060a083015184820360a08601526153fe8282614f2b565b9150508091505092915050565b615414816159e4565b82525050565b615423816159e4565b82525050565b6000615436828486614f06565b91508190509392505050565b600061544e8284614f9d565b915081905092915050565b6000615465828461504d565b915081905092915050565b600061547c8284614fce565b915081905092915050565b600060208201905061549c6000830184614d5c565b92915050565b600060208201905081810360008301526154bc8184614d6b565b905092915050565b600060208201905081810360008301526154de8184614de0565b905092915050565b600060208201905081810360008301526155008184614e55565b905092915050565b600060208201905061551d6000830184614ed9565b92915050565b6000602082019050818103600083015261553d8184614f64565b905092915050565b6000604082019050818103600083015261555f8185614f64565b905061556e6020830184614d5c565b9392505050565b6000608082019050818103600083015261558f8187614f64565b905081810360208301526155a38186614f64565b905081810360408301526155b78185614f64565b905081810360608301526155cb8184614f64565b905095945050505050565b600060208201905081810360008301526155ef816150cc565b9050919050565b6000602082019050818103600083015261560f816150ef565b9050919050565b6000602082019050818103600083015261562f81615112565b9050919050565b6000602082019050818103600083015261564f81615135565b9050919050565b6000602082019050818103600083015261566f81615158565b9050919050565b6000602082019050818103600083015261568f8161517b565b9050919050565b600060208201905081810360008301526156af8161519e565b9050919050565b600060208201905081810360008301526156cf816151c1565b9050919050565b600060208201905081810360008301526156f081846152bf565b905092915050565b600060a08201905061570d600083018861541a565b818103602083015261571f8187614f64565b905081810360408301526157338186614f64565b905081810360608301526157478185614f64565b9050818103608083015261575b8184614f64565b90509695505050505050565b6000615771615782565b905061577d8282615a86565b919050565b6000604051905090565b600067ffffffffffffffff8211156157a7576157a6615b8d565b5b602082029050602081019050919050565b600067ffffffffffffffff8211156157d3576157d2615b8d565b5b6157dc82615bbc565b9050602081019050919050565b6000819050602082019050919050565b6000819050602082019050919050565b6000819050602082019050919050565b60008190508160005260206000209050919050565b60008190508160005260206000209050919050565b600081519050919050565b600081519050919050565b600081519050919050565b600081519050919050565b6000602082019050919050565b6000602082019050919050565b6000602082019050919050565b600082825260208201905092915050565b600082825260208201905092915050565b600082825260208201905092915050565b600082825260208201905092915050565b600082825260208201905092915050565b600081905092915050565b6000615901826159e4565b915061590c836159e4565b9250827fffffffffffffffffffffffffffffffffffffffffffffffffffffffffffffffff0382111561594157615940615b00565b5b828201905092915050565b6000615957826159e4565b9150615962836159e4565b92508282101561597557615974615b00565b5b828203905092915050565b600061598b826159c4565b9050919050565b60008115159050919050565b60008190506159ac82615d15565b919050565b60008190506159bf82615d29565b919050565b600073ffffffffffffffffffffffffffffffffffffffff82169050919050565b6000819050919050565b60006159f98261599e565b9050919050565b6000615a0b826159b1565b9050919050565b82818337600083830152505050565b60005b83811015615a3f578082015181840152602081019050615a24565b83811115615a4e576000848401525b50505050565b60006002820490506001821680615a6c57607f821691505b60208210811415615a8057615a7f615b5e565b5b50919050565b615a8f82615bbc565b810181811067ffffffffffffffff82111715615aae57615aad615b8d565b5b80604052505050565b6000615ac2826159e4565b91507fffffffffffffffffffffffffffffffffffffffffffffffffffffffffffffffff821415615af557615af4615b00565b5b600182019050919050565b7f4e487b7100000000000000000000000000000000000000000000000000000000600052601160045260246000fd5b7f4e487b7100000000000000000000000000000000000000000000000000000000600052602160045260246000fd5b7f4e487b7100000000000000000000000000000000000000000000000000000000600052602260045260246000fd5b7f4e487b7100000000000000000000000000000000000000000000000000000000600052604160045260246000fd5b6000601f19601f8301169050919050565b7f596f7520617265206e6f7420617574686f72697a65642e000000000000000000600082015250565b7f496e76616c6964205061796d656e740000000000000000000000000000000000600082015250565b7f596f7520617265206e6f74206f6e776572206f662074686973207461736b2e00600082015250565b7f496e76616c6964205472616e73616374696f6e00000000000000000000000000600082015250565b7f596f7520686176656e277420726567697374657265642e200000000000000000600082015250565b7f596f7520686176656e277420726567697374657265642e000000000000000000600082015250565b7f546865206465616c207374617465206973206e6f742076616c69642e00000000600082015250565b7f546865207461736b206973206e6f206c6f6e67657220617661696c61626c652e600082015250565b60038110615d2657615d25615b2f565b5b50565b60048110615d3a57615d39615b2f565b5b50565b615d4681615980565b8114615d5157600080fd5b50565b615d5d81615992565b8114615d6857600080fd5b50565b615d74816159e4565b8114615d7f57600080fd5b5056fea26469706673582212201cd9a931a4611106e17df68356e6ba53456c57aa58db59bf05b55171498652bc64736f6c63430008040033",
  "linkReferences": {},
  "deployedLinkReferences": {}
}