{
  "_format": "hh-sol-artifact-1",
  "contractName": "XContract",
  "sourceName": "contracts/XContract.sol",
  "abi": [
    {
      "inputs": [],
      "stateMutability": "nonpayable",
      "type": "constructor"
    },
    {
      "anonymous": false,
      "inputs": [
        {
          "indexed": false,
          "internalType": "string",
          "name": "pk",
          "type": "string"
        }
      ],
      "name": "InitBalance",
      "type": "event"
    },
    {
      "anonymous": false,
      "inputs": [
        {
          "indexed": false,
          "internalType": "uint256",
          "name": "id",
          "type": "uint256"
        },
        {
          "indexed": false,
          "internalType": "string",
          "name": "rangeproof1",
          "type": "string"
        },
        {
          "indexed": false,
          "internalType": "string",
          "name": "rangeproof2",
          "type": "string"
        },
        {
          "indexed": false,
          "internalType": "string",
          "name": "sigmaProof",
          "type": "string"
        },
        {
          "indexed": false,
          "internalType": "string",
          "name": "input",
          "type": "string"
        }
      ],
      "name": "NewConfTransfer",
      "type": "event"
    },
    {
      "anonymous": false,
      "inputs": [
        {
          "indexed": false,
          "internalType": "uint256",
          "name": "id",
          "type": "uint256"
        },
        {
          "indexed": false,
          "internalType": "string",
          "name": "proof",
          "type": "string"
        }
      ],
      "name": "NewRequest",
      "type": "event"
    },
    {
      "anonymous": false,
      "inputs": [
        {
          "indexed": false,
          "internalType": "string",
          "name": "newMsg",
          "type": "string"
        }
      ],
      "name": "TestMsg",
      "type": "event"
    },
    {
      "anonymous": false,
      "inputs": [
        {
          "indexed": false,
          "internalType": "address",
          "name": "add",
          "type": "address"
        },
        {
          "indexed": false,
          "internalType": "uint256",
          "name": "balance",
          "type": "uint256"
        }
      ],
      "name": "UpdateState",
      "type": "event"
    },
    {
      "inputs": [
        {
          "internalType": "string",
          "name": "y",
          "type": "string"
        }
      ],
      "name": "ElBalanceOf",
      "outputs": [
        {
          "components": [
            {
              "internalType": "string",
              "name": "CL",
              "type": "string"
            },
            {
              "internalType": "string",
              "name": "CR",
              "type": "string"
            }
          ],
          "internalType": "struct XContract.ElBalance",
          "name": "",
          "type": "tuple"
        }
      ],
      "stateMutability": "view",
      "type": "function"
    },
    {
      "inputs": [
        {
          "internalType": "string",
          "name": "",
          "type": "string"
        }
      ],
      "name": "acc",
      "outputs": [
        {
          "internalType": "string",
          "name": "CL",
          "type": "string"
        },
        {
          "internalType": "string",
          "name": "CR",
          "type": "string"
        }
      ],
      "stateMutability": "view",
      "type": "function"
    },
    {
      "inputs": [],
      "name": "association",
      "outputs": [
        {
          "internalType": "address",
          "name": "",
          "type": "address"
        }
      ],
      "stateMutability": "view",
      "type": "function"
    },
    {
      "inputs": [],
      "name": "balanceOf",
      "outputs": [
        {
          "internalType": "uint256",
          "name": "",
          "type": "uint256"
        }
      ],
      "stateMutability": "view",
      "type": "function"
    },
    {
      "inputs": [
        {
          "internalType": "string",
          "name": "proofForAmt",
          "type": "string"
        },
        {
          "internalType": "string",
          "name": "proofForRemainBalance",
          "type": "string"
        },
        {
          "internalType": "string",
          "name": "sigmaProof",
          "type": "string"
        },
        {
          "internalType": "string",
          "name": "input",
          "type": "string"
        }
      ],
      "name": "confTransfer",
      "outputs": [],
      "stateMutability": "nonpayable",
      "type": "function"
    },
    {
      "inputs": [
        {
          "internalType": "uint256",
          "name": "id",
          "type": "uint256"
        },
        {
          "internalType": "bool",
          "name": "res",
          "type": "bool"
        }
      ],
      "name": "confirmProof",
      "outputs": [],
      "stateMutability": "nonpayable",
      "type": "function"
    },
    {
      "inputs": [],
      "name": "fetchPubkey",
      "outputs": [
        {
          "internalType": "string",
          "name": "",
          "type": "string"
        }
      ],
      "stateMutability": "nonpayable",
      "type": "function"
    },
    {
      "inputs": [
        {
          "internalType": "uint256",
          "name": "amt",
          "type": "uint256"
        },
        {
          "internalType": "address",
          "name": "user",
          "type": "address"
        }
      ],
      "name": "fundToAccount",
      "outputs": [],
      "stateMutability": "nonpayable",
      "type": "function"
    },
    {
      "inputs": [],
      "name": "greet",
      "outputs": [
        {
          "internalType": "string",
          "name": "",
          "type": "string"
        }
      ],
      "stateMutability": "view",
      "type": "function"
    },
    {
      "inputs": [
        {
          "internalType": "string",
          "name": "y",
          "type": "string"
        },
        {
          "internalType": "string",
          "name": "cL",
          "type": "string"
        },
        {
          "internalType": "string",
          "name": "cR",
          "type": "string"
        }
      ],
      "name": "initElBalance",
      "outputs": [],
      "stateMutability": "nonpayable",
      "type": "function"
    },
    {
      "inputs": [],
      "name": "initialSupply",
      "outputs": [
        {
          "internalType": "uint256",
          "name": "",
          "type": "uint256"
        }
      ],
      "stateMutability": "view",
      "type": "function"
    },
    {
      "inputs": [],
      "name": "name",
      "outputs": [
        {
          "internalType": "string",
          "name": "",
          "type": "string"
        }
      ],
      "stateMutability": "view",
      "type": "function"
    },
    {
      "inputs": [
        {
          "internalType": "address",
          "name": "newAcc",
          "type": "address"
        }
      ],
      "name": "register",
      "outputs": [],
      "stateMutability": "nonpayable",
      "type": "function"
    },
    {
      "inputs": [
        {
          "internalType": "string",
          "name": "key",
          "type": "string"
        }
      ],
      "name": "registerKey",
      "outputs": [],
      "stateMutability": "nonpayable",
      "type": "function"
    },
    {
      "inputs": [
        {
          "internalType": "string",
          "name": "_greeting",
          "type": "string"
        }
      ],
      "name": "setGreeting",
      "outputs": [],
      "stateMutability": "nonpayable",
      "type": "function"
    },
    {
      "inputs": [],
      "name": "totalSupply",
      "outputs": [
        {
          "internalType": "uint256",
          "name": "",
          "type": "uint256"
        }
      ],
      "stateMutability": "view",
      "type": "function"
    },
    {
      "inputs": [
        {
          "internalType": "address",
          "name": "to",
          "type": "address"
        },
        {
          "internalType": "uint256",
          "name": "amount",
          "type": "uint256"
        }
      ],
      "name": "transfer",
      "outputs": [],
      "stateMutability": "nonpayable",
      "type": "function"
    },
    {
      "inputs": [
        {
          "internalType": "string",
          "name": "y",
          "type": "string"
        },
        {
          "internalType": "string",
          "name": "C1",
          "type": "string"
        },
        {
          "internalType": "string",
          "name": "C2",
          "type": "string"
        },
        {
          "internalType": "string",
          "name": "yr",
          "type": "string"
        },
        {
          "internalType": "string",
          "name": "C3",
          "type": "string"
        },
        {
          "internalType": "string",
          "name": "C4",
          "type": "string"
        }
      ],
      "name": "updateBalance",
      "outputs": [],
      "stateMutability": "nonpayable",
      "type": "function"
    }
  ],
  "bytecode": "0x60806040526040518060400160405280600981526020017f58636f6e747261637400000000000000000000000000000000000000000000008152506000908051906020019062000051929190620002c7565b50620f42406002556127106003553480156200006c57600080fd5b50600254600460003373ffffffffffffffffffffffffffffffffffffffff1673ffffffffffffffffffffffffffffffffffffffff168152602001908152602001600020819055506001600560003373ffffffffffffffffffffffffffffffffffffffff1673ffffffffffffffffffffffffffffffffffffffff16815260200190815260200160002060006101000a81548160ff02191690831515021790555033600860006101000a81548173ffffffffffffffffffffffffffffffffffffffff021916908373ffffffffffffffffffffffffffffffffffffffff1602179055506040518060400160405280600381526020017f30303000000000000000000000000000000000000000000000000000000000008152506001908051906020019062000199929190620002c7565b50620001e56040518060400160405280601381526020017f4465706c6f79205375636365737366756c6c2000000000000000000000000000815250620001fb60201b620014fe1760201c565b6000600a819055506000600b81905550620004a4565b6200029b81604051602401620002129190620003b8565b6040516020818303038152906040527f41304fac000000000000000000000000000000000000000000000000000000007bffffffffffffffffffffffffffffffffffffffffffffffffffffffff19166020820180517bffffffffffffffffffffffffffffffffffffffffffffffffffffffff83818316178352505050506200029e60201b60201c565b50565b60008151905060006a636f6e736f6c652e6c6f679050602083016000808483855afa5050505050565b828054620002d5906200042e565b90600052602060002090601f016020900481019282620002f9576000855562000345565b82601f106200031457805160ff191683800117855562000345565b8280016001018555821562000345579182015b828111156200034457825182559160200191906001019062000327565b5b50905062000354919062000358565b5090565b5b808211156200037357600081600090555060010162000359565b5090565b60006200038482620003dc565b620003908185620003e7565b9350620003a2818560208601620003f8565b620003ad8162000493565b840191505092915050565b60006020820190508181036000830152620003d4818462000377565b905092915050565b600081519050919050565b600082825260208201905092915050565b60005b8381101562000418578082015181840152602081019050620003fb565b8381111562000428576000848401525b50505050565b600060028204905060018216806200044757607f821691505b602082108114156200045e576200045d62000464565b5b50919050565b7f4e487b7100000000000000000000000000000000000000000000000000000000600052602260045260246000fd5b6000601f19601f8301169050919050565b6125fc80620004b46000396000f3fe608060405234801561001057600080fd5b50600436106101165760003560e01c80634a80f2ba116100a2578063817f4e3d11610071578063817f4e3d146102ba578063a4136862146102d8578063a9059cbb146102f4578063bad3d10714610310578063cfae32171461032c57610116565b80634a80f2ba146102345780635f32b6db14610250578063712bef911461026c578063722713f71461029c57610116565b80631a4ae8a7116100e95780631a4ae8a714610191578063378dc3dc146101c25780633a2568e9146101e05780634118b16f146101fc5780634420e4861461021857610116565b8063050d4f781461011b57806306fdde03146101395780630a1ae5aa1461015757806318160ddd14610173575b600080fd5b61012361034a565b6040516101309190611ff1565b60405180910390f35b610141610370565b60405161014e9190612059565b60405180910390f35b610171600480360381019061016c9190611a8e565b6103fe565b005b61017b610700565b60405161018891906121f3565b60405180910390f35b6101ab60048036038101906101a69190611b32565b610706565b6040516101b99291906120ab565b60405180910390f35b6101ca610850565b6040516101d791906121f3565b60405180910390f35b6101fa60048036038101906101f59190611d8b565b610856565b005b61021660048036038101906102119190611b73565b6109a1565b005b610232600480360381019061022d91906119e4565b610b80565b005b61024e60048036038101906102499190611a49565b610c21565b005b61026a60048036038101906102659190611c36565b610cbc565b005b61028660048036038101906102819190611b32565b610da4565b60405161029391906121d1565b60405180910390f35b6102a4610f3f565b6040516102b191906121f3565b60405180910390f35b6102c2610fe3565b6040516102cf9190612059565b60405180910390f35b6102f260048036038101906102ed9190611b32565b61110f565b005b61030e60048036038101906103099190611a0d565b61120e565b005b61032a60048036038101906103259190611d4f565b6113b8565b005b61033461146c565b6040516103419190612059565b60405180910390f35b600860009054906101000a900473ffffffffffffffffffffffffffffffffffffffff1681565b6000805461037d90612434565b80601f01602080910402602001604051908101604052809291908181526020018280546103a990612434565b80156103f65780601f106103cb576101008083540402835291602001916103f6565b820191906000526020600020905b8154815290600101906020018083116103d957829003601f168201915b505050505081565b61040733611597565b610432600860009054906101000a900473ffffffffffffffffffffffffffffffffffffffff16611597565b604051806040016040528085858080601f016020809104026020016040519081016040528093929190818152602001838380828437600081840152601f19601f82011690508083019250505050505050815260200183838080601f016020809104026020016040519081016040528093929190818152602001838380828437600081840152601f19601f82011690508083019250505050505050815250600787876040516104e1929190611fc1565b9081526020016040518091039020600082015181600001908051906020019061050b929190611836565b506020820151816001019080519060200190610528929190611836565b509050506106f86040518060400160405280600b81526020017f73656e646572206163632000000000000000000000000000000000000000000081525060078888604051610577929190611fc1565b9081526020016040518091039020600001805461059390612434565b80601f01602080910402602001604051908101604052809291908181526020018280546105bf90612434565b801561060c5780601f106105e15761010080835404028352916020019161060c565b820191906000526020600020905b8154815290600101906020018083116105ef57829003601f168201915b50505050506040518060400160405280600581526020017f20616e642000000000000000000000000000000000000000000000000000000081525060078a8a604051610659929190611fc1565b9081526020016040518091039020600101805461067590612434565b80601f01602080910402602001604051908101604052809291908181526020018280546106a190612434565b80156106ee5780601f106106c3576101008083540402835291602001916106ee565b820191906000526020600020905b8154815290600101906020018083116106d157829003601f168201915b5050505050611630565b505050505050565b60025481565b60078180516020810182018051848252602083016020850120818352809550505050505060009150905080600001805461073f90612434565b80601f016020809104026020016040519081016040528092919081815260200182805461076b90612434565b80156107b85780601f1061078d576101008083540402835291602001916107b8565b820191906000526020600020905b81548152906001019060200180831161079b57829003601f168201915b5050505050908060010180546107cd90612434565b80601f01602080910402602001604051908101604052809291908181526020018280546107f990612434565b80156108465780601f1061081b57610100808354040283529160200191610846565b820191906000526020600020905b81548152906001019060200180831161082957829003601f168201915b5050505050905082565b60035481565b6001151581151514156109025760016009838154811061089f577f4e487b7100000000000000000000000000000000000000000000000000000000600052603260045260246000fd5b906000526020600020906003020160020160006101000a81548160ff021916908360048111156108f8577f4e487b7100000000000000000000000000000000000000000000000000000000600052602160045260246000fd5b021790555061099d565b60046009838154811061093e577f4e487b7100000000000000000000000000000000000000000000000000000000600052603260045260246000fd5b906000526020600020906003020160020160006101000a81548160ff02191690836004811115610997577f4e487b7100000000000000000000000000000000000000000000000000000000600052602160045260246000fd5b02179055505b5050565b600960405180606001604052803373ffffffffffffffffffffffffffffffffffffffff168152602001600b54815260200160006004811115610a0c577f4e487b7100000000000000000000000000000000000000000000000000000000600052602160045260246000fd5b815250908060018154018082558091505060019003906000526020600020906003020160009091909190915060008201518160000160006101000a81548173ffffffffffffffffffffffffffffffffffffffff021916908373ffffffffffffffffffffffffffffffffffffffff1602179055506020820151816001015560408201518160020160006101000a81548160ff02191690836004811115610ada577f4e487b7100000000000000000000000000000000000000000000000000000000600052602160045260246000fd5b02179055505050610b1f6040518060400160405280600b81526020017f54657374204576656e74270000000000000000000000000000000000000000008152506114fe565b7f2dddc06b1340f27d89cf9e1783165857c901b8fb2d67ac8443c795ec43ff341f600b5485858585604051610b5895949392919061220e565b60405180910390a16001600b6000828254610b739190612320565b9250508190555050505050565b600354600460008373ffffffffffffffffffffffffffffffffffffffff1673ffffffffffffffffffffffffffffffffffffffff168152602001908152602001600020819055506001600560008373ffffffffffffffffffffffffffffffffffffffff1673ffffffffffffffffffffffffffffffffffffffff16815260200190815260200160002060006101000a81548160ff02191690831515021790555050565b60001515600560003373ffffffffffffffffffffffffffffffffffffffff1673ffffffffffffffffffffffffffffffffffffffff16815260200190815260200160002060009054906101000a900460ff1615151415610c7f57600080fd5b7fc5c21db1f7aef3462dbf1bee14c3b88f616eb1986b5b1f17ab53c41b86daf19d8282604051610cb0929190612035565b60405180910390a15050565b604051806040016040528086815260200185815250600787604051610ce19190611fda565b90815260200160405180910390206000820151816000019080519060200190610d0b929190611836565b506020820151816001019080519060200190610d28929190611836565b50905050604051806040016040528083815260200182815250600784604051610d519190611fda565b90815260200160405180910390206000820151816000019080519060200190610d7b929190611836565b506020820151816001019080519060200190610d98929190611836565b50905050505050505050565b610dac6118bc565b610deb6040518060400160405280600781526020017f73656e6465722000000000000000000000000000000000000000000000000000815250336116d2565b600782604051610dfb9190611fda565b9081526020016040518091039020604051806040016040529081600082018054610e2490612434565b80601f0160208091040260200160405190810160405280929190818152602001828054610e5090612434565b8015610e9d5780601f10610e7257610100808354040283529160200191610e9d565b820191906000526020600020905b815481529060010190602001808311610e8057829003601f168201915b50505050508152602001600182018054610eb690612434565b80601f0160208091040260200160405190810160405280929190818152602001828054610ee290612434565b8015610f2f5780601f10610f0457610100808354040283529160200191610f2f565b820191906000526020600020905b815481529060010190602001808311610f1257829003601f168201915b5050505050815250509050919050565b6000801515600560003373ffffffffffffffffffffffffffffffffffffffff1673ffffffffffffffffffffffffffffffffffffffff16815260200190815260200160002060009054906101000a900460ff1615151415610f9e57600080fd5b600460003373ffffffffffffffffffffffffffffffffffffffff1673ffffffffffffffffffffffffffffffffffffffff16815260200190815260200160002054905090565b606060011515600560003373ffffffffffffffffffffffffffffffffffffffff1673ffffffffffffffffffffffffffffffffffffffff16815260200190815260200160002060009054906101000a900460ff1615151461104257600080fd5b600660003373ffffffffffffffffffffffffffffffffffffffff1673ffffffffffffffffffffffffffffffffffffffff168152602001908152602001600020805461108c90612434565b80601f01602080910402602001604051908101604052809291908181526020018280546110b890612434565b80156111055780601f106110da57610100808354040283529160200191611105565b820191906000526020600020905b8154815290600101906020018083116110e857829003601f168201915b5050505050905090565b6111bc6040518060600160405280602381526020016125a4602391396001805461113890612434565b80601f016020809104026020016040519081016040528092919081815260200182805461116490612434565b80156111b15780601f10611186576101008083540402835291602001916111b1565b820191906000526020600020905b81548152906001019060200180831161119457829003601f168201915b50505050508361176e565b80600190805190602001906111d2929190611836565b507f57a57a410b51ac4751ea694c91cdcca4d61b6d997d46fb997eddc7d5133417426001604051611203919061218f565b60405180910390a150565b80600460003373ffffffffffffffffffffffffffffffffffffffff1673ffffffffffffffffffffffffffffffffffffffff168152602001908152602001600020541015611290576040517f08c379a0000000000000000000000000000000000000000000000000000000008152600401611287906121b1565b60405180910390fd5b80600460003373ffffffffffffffffffffffffffffffffffffffff1673ffffffffffffffffffffffffffffffffffffffff16815260200190815260200160002060008282546112df9190612376565b9250508190555080600460008473ffffffffffffffffffffffffffffffffffffffff1673ffffffffffffffffffffffffffffffffffffffff16815260200190815260200160002060008282546113359190612320565b925050819055507f364bc05a26076a4b591d11ae973bbc492605b49c871783d787f183e58f3fe08e33600460003373ffffffffffffffffffffffffffffffffffffffff1673ffffffffffffffffffffffffffffffffffffffff168152602001908152602001600020546040516113ac92919061200c565b60405180910390a15050565b600860009054906101000a900473ffffffffffffffffffffffffffffffffffffffff1673ffffffffffffffffffffffffffffffffffffffff163373ffffffffffffffffffffffffffffffffffffffff161461141257600080fd5b81600460008373ffffffffffffffffffffffffffffffffffffffff1673ffffffffffffffffffffffffffffffffffffffff16815260200190815260200160002060008282546114619190612320565b925050819055505050565b60606001805461147b90612434565b80601f01602080910402602001604051908101604052809291908181526020018280546114a790612434565b80156114f45780601f106114c9576101008083540402835291602001916114f4565b820191906000526020600020905b8154815290600101906020018083116114d757829003601f168201915b5050505050905090565b611594816040516024016115129190612059565b6040516020818303038152906040527f41304fac000000000000000000000000000000000000000000000000000000007bffffffffffffffffffffffffffffffffffffffffffffffffffffffff19166020820180517bffffffffffffffffffffffffffffffffffffffffffffffffffffffff838183161783525050505061180d565b50565b61162d816040516024016115ab9190611ff1565b6040516020818303038152906040527f2c2ecbc2000000000000000000000000000000000000000000000000000000007bffffffffffffffffffffffffffffffffffffffffffffffffffffffff19166020820180517bffffffffffffffffffffffffffffffffffffffffffffffffffffffff838183161783525050505061180d565b50565b6116cc8484848460405160240161164a949392919061212e565b6040516020818303038152906040527fde68f20a000000000000000000000000000000000000000000000000000000007bffffffffffffffffffffffffffffffffffffffffffffffffffffffff19166020820180517bffffffffffffffffffffffffffffffffffffffffffffffffffffffff838183161783525050505061180d565b50505050565b61176a82826040516024016116e892919061207b565b6040516020818303038152906040527f319af333000000000000000000000000000000000000000000000000000000007bffffffffffffffffffffffffffffffffffffffffffffffffffffffff19166020820180517bffffffffffffffffffffffffffffffffffffffffffffffffffffffff838183161783525050505061180d565b5050565b611808838383604051602401611786939291906120e2565b6040516020818303038152906040527f2ced7cef000000000000000000000000000000000000000000000000000000007bffffffffffffffffffffffffffffffffffffffffffffffffffffffff19166020820180517bffffffffffffffffffffffffffffffffffffffffffffffffffffffff838183161783525050505061180d565b505050565b60008151905060006a636f6e736f6c652e6c6f679050602083016000808483855afa5050505050565b82805461184290612434565b90600052602060002090601f01602090048101928261186457600085556118ab565b82601f1061187d57805160ff19168380011785556118ab565b828001600101855582156118ab579182015b828111156118aa57825182559160200191906001019061188f565b5b5090506118b891906118d6565b5090565b604051806040016040528060608152602001606081525090565b5b808211156118ef5760008160009055506001016118d7565b5090565b6000611906611901846122a2565b61227d565b90508281526020810184848401111561191e57600080fd5b6119298482856123f2565b509392505050565b6000813590506119408161255e565b92915050565b60008135905061195581612575565b92915050565b60008083601f84011261196d57600080fd5b8235905067ffffffffffffffff81111561198657600080fd5b60208301915083600182028301111561199e57600080fd5b9250929050565b600082601f8301126119b657600080fd5b81356119c68482602086016118f3565b91505092915050565b6000813590506119de8161258c565b92915050565b6000602082840312156119f657600080fd5b6000611a0484828501611931565b91505092915050565b60008060408385031215611a2057600080fd5b6000611a2e85828601611931565b9250506020611a3f858286016119cf565b9150509250929050565b60008060208385031215611a5c57600080fd5b600083013567ffffffffffffffff811115611a7657600080fd5b611a828582860161195b565b92509250509250929050565b60008060008060008060608789031215611aa757600080fd5b600087013567ffffffffffffffff811115611ac157600080fd5b611acd89828a0161195b565b9650965050602087013567ffffffffffffffff811115611aec57600080fd5b611af889828a0161195b565b9450945050604087013567ffffffffffffffff811115611b1757600080fd5b611b2389828a0161195b565b92509250509295509295509295565b600060208284031215611b4457600080fd5b600082013567ffffffffffffffff811115611b5e57600080fd5b611b6a848285016119a5565b91505092915050565b60008060008060808587031215611b8957600080fd5b600085013567ffffffffffffffff811115611ba357600080fd5b611baf878288016119a5565b945050602085013567ffffffffffffffff811115611bcc57600080fd5b611bd8878288016119a5565b935050604085013567ffffffffffffffff811115611bf557600080fd5b611c01878288016119a5565b925050606085013567ffffffffffffffff811115611c1e57600080fd5b611c2a878288016119a5565b91505092959194509250565b60008060008060008060c08789031215611c4f57600080fd5b600087013567ffffffffffffffff811115611c6957600080fd5b611c7589828a016119a5565b965050602087013567ffffffffffffffff811115611c9257600080fd5b611c9e89828a016119a5565b955050604087013567ffffffffffffffff811115611cbb57600080fd5b611cc789828a016119a5565b945050606087013567ffffffffffffffff811115611ce457600080fd5b611cf089828a016119a5565b935050608087013567ffffffffffffffff811115611d0d57600080fd5b611d1989828a016119a5565b92505060a087013567ffffffffffffffff811115611d3657600080fd5b611d4289828a016119a5565b9150509295509295509295565b60008060408385031215611d6257600080fd5b6000611d70858286016119cf565b9250506020611d8185828601611931565b9150509250929050565b60008060408385031215611d9e57600080fd5b6000611dac858286016119cf565b9250506020611dbd85828601611946565b9150509250929050565b611dd0816123aa565b82525050565b6000611de28385612304565b9350611def8385846123f2565b611df883612524565b840190509392505050565b6000611e0f8385612315565b9350611e1c8385846123f2565b82840190509392505050565b6000611e33826122e8565b611e3d81856122f3565b9350611e4d818560208601612401565b611e5681612524565b840191505092915050565b6000611e6c826122e8565b611e768185612304565b9350611e86818560208601612401565b611e8f81612524565b840191505092915050565b6000611ea5826122e8565b611eaf8185612315565b9350611ebf818560208601612401565b80840191505092915050565b60008154611ed881612434565b611ee28186612304565b94506001821660008114611efd5760018114611f0f57611f42565b60ff1983168652602086019350611f42565b611f18856122d3565b60005b83811015611f3a57815481890152600182019150602081019050611f1b565b808801955050505b50505092915050565b6000611f58601183612304565b9150611f6382612535565b602082019050919050565b60006040830160008301518482036000860152611f8b8282611e28565b91505060208301518482036020860152611fa58282611e28565b9150508091505092915050565b611fbb816123e8565b82525050565b6000611fce828486611e03565b91508190509392505050565b6000611fe68284611e9a565b915081905092915050565b60006020820190506120066000830184611dc7565b92915050565b60006040820190506120216000830185611dc7565b61202e6020830184611fb2565b9392505050565b60006020820190508181036000830152612050818486611dd6565b90509392505050565b600060208201905081810360008301526120738184611e61565b905092915050565b600060408201905081810360008301526120958185611e61565b90506120a46020830184611dc7565b9392505050565b600060408201905081810360008301526120c58185611e61565b905081810360208301526120d98184611e61565b90509392505050565b600060608201905081810360008301526120fc8186611e61565b905081810360208301526121108185611e61565b905081810360408301526121248184611e61565b9050949350505050565b600060808201905081810360008301526121488187611e61565b9050818103602083015261215c8186611e61565b905081810360408301526121708185611e61565b905081810360608301526121848184611e61565b905095945050505050565b600060208201905081810360008301526121a98184611ecb565b905092915050565b600060208201905081810360008301526121ca81611f4b565b9050919050565b600060208201905081810360008301526121eb8184611f6e565b905092915050565b60006020820190506122086000830184611fb2565b92915050565b600060a0820190506122236000830188611fb2565b81810360208301526122358187611e61565b905081810360408301526122498186611e61565b9050818103606083015261225d8185611e61565b905081810360808301526122718184611e61565b90509695505050505050565b6000612287612298565b90506122938282612466565b919050565b6000604051905090565b600067ffffffffffffffff8211156122bd576122bc6124f5565b5b6122c682612524565b9050602081019050919050565b60008190508160005260206000209050919050565b600081519050919050565b600082825260208201905092915050565b600082825260208201905092915050565b600081905092915050565b600061232b826123e8565b9150612336836123e8565b9250827fffffffffffffffffffffffffffffffffffffffffffffffffffffffffffffffff0382111561236b5761236a612497565b5b828201905092915050565b6000612381826123e8565b915061238c836123e8565b92508282101561239f5761239e612497565b5b828203905092915050565b60006123b5826123c8565b9050919050565b60008115159050919050565b600073ffffffffffffffffffffffffffffffffffffffff82169050919050565b6000819050919050565b82818337600083830152505050565b60005b8381101561241f578082015181840152602081019050612404565b8381111561242e576000848401525b50505050565b6000600282049050600182168061244c57607f821691505b602082108114156124605761245f6124c6565b5b50919050565b61246f82612524565b810181811067ffffffffffffffff8211171561248e5761248d6124f5565b5b80604052505050565b7f4e487b7100000000000000000000000000000000000000000000000000000000600052601160045260246000fd5b7f4e487b7100000000000000000000000000000000000000000000000000000000600052602260045260246000fd5b7f4e487b7100000000000000000000000000000000000000000000000000000000600052604160045260246000fd5b6000601f19601f8301169050919050565b7f4e6f7420656e6f75676820746f6b656e73000000000000000000000000000000600082015250565b612567816123aa565b811461257257600080fd5b50565b61257e816123bc565b811461258957600080fd5b50565b612595816123e8565b81146125a057600080fd5b5056fe4368616e67696e67206772656574696e672066726f6d202725732720746f2027257327a26469706673582212200a338590d7768cdca0cd70cb1cc4a2352bf591ecbc3a82ab21f1b777c10a3afb64736f6c63430008040033",
  "linkReferences": {},
  "deployedLinkReferences": {}
}