{
  "_format": "hh-sol-artifact-1",
  "contractName": "XContract",
  "sourceName": "contracts/XContract.sol",
  "abi": [
    {
      "inputs": [],
      "stateMutability": "nonpayable",
      "type": "constructor"
    },
    {
      "anonymous": false,
      "inputs": [
        {
          "indexed": false,
          "internalType": "uint256",
          "name": "id",
          "type": "uint256"
        },
        {
          "indexed": false,
          "internalType": "string",
          "name": "proof",
          "type": "string"
        }
      ],
      "name": "NewRequest",
      "type": "event"
    },
    {
      "anonymous": false,
      "inputs": [
        {
          "indexed": false,
          "internalType": "string",
          "name": "newMsg",
          "type": "string"
        }
      ],
      "name": "TestMsg",
      "type": "event"
    },
    {
      "anonymous": false,
      "inputs": [
        {
          "indexed": false,
          "internalType": "address",
          "name": "add",
          "type": "address"
        },
        {
          "indexed": false,
          "internalType": "uint256",
          "name": "balance",
          "type": "uint256"
        }
      ],
      "name": "UpdateState",
      "type": "event"
    },
    {
      "inputs": [],
      "name": "association",
      "outputs": [
        {
          "internalType": "address",
          "name": "",
          "type": "address"
        }
      ],
      "stateMutability": "view",
      "type": "function"
    },
    {
      "inputs": [
        {
          "internalType": "address",
          "name": "account",
          "type": "address"
        }
      ],
      "name": "balanceOf",
      "outputs": [
        {
          "internalType": "uint256",
          "name": "",
          "type": "uint256"
        }
      ],
      "stateMutability": "view",
      "type": "function"
    },
    {
      "inputs": [
        {
          "internalType": "uint256",
          "name": "amt",
          "type": "uint256"
        },
        {
          "internalType": "address",
          "name": "user",
          "type": "address"
        }
      ],
      "name": "fundToAccount",
      "outputs": [],
      "stateMutability": "nonpayable",
      "type": "function"
    },
    {
      "inputs": [],
      "name": "greet",
      "outputs": [
        {
          "internalType": "string",
          "name": "",
          "type": "string"
        }
      ],
      "stateMutability": "view",
      "type": "function"
    },
    {
      "inputs": [],
      "name": "initialSupply",
      "outputs": [
        {
          "internalType": "uint256",
          "name": "",
          "type": "uint256"
        }
      ],
      "stateMutability": "view",
      "type": "function"
    },
    {
      "inputs": [],
      "name": "name",
      "outputs": [
        {
          "internalType": "string",
          "name": "",
          "type": "string"
        }
      ],
      "stateMutability": "view",
      "type": "function"
    },
    {
      "inputs": [
        {
          "internalType": "string",
          "name": "y",
          "type": "string"
        }
      ],
      "name": "privateTransfer",
      "outputs": [
        {
          "internalType": "uint256",
          "name": "",
          "type": "uint256"
        }
      ],
      "stateMutability": "nonpayable",
      "type": "function"
    },
    {
      "inputs": [],
      "name": "register",
      "outputs": [],
      "stateMutability": "nonpayable",
      "type": "function"
    },
    {
      "inputs": [
        {
          "internalType": "string",
          "name": "_greeting",
          "type": "string"
        }
      ],
      "name": "setGreeting",
      "outputs": [],
      "stateMutability": "nonpayable",
      "type": "function"
    },
    {
      "inputs": [],
      "name": "totalSupply",
      "outputs": [
        {
          "internalType": "uint256",
          "name": "",
          "type": "uint256"
        }
      ],
      "stateMutability": "view",
      "type": "function"
    },
    {
      "inputs": [
        {
          "internalType": "address",
          "name": "to",
          "type": "address"
        },
        {
          "internalType": "uint256",
          "name": "amount",
          "type": "uint256"
        }
      ],
      "name": "transfer",
      "outputs": [],
      "stateMutability": "nonpayable",
      "type": "function"
    }
  ],
  "bytecode": "0x60806040526040518060400160405280600981526020017f58636f6e74726163740000000000000000000000000000000000000000000000815250600090805190602001906200005192919062000305565b50620f42406002556127106003553480156200006c57600080fd5b50600254600460003373ffffffffffffffffffffffffffffffffffffffff1673ffffffffffffffffffffffffffffffffffffffff1681526020019081526020016000208190555033600560006101000a81548173ffffffffffffffffffffffffffffffffffffffff021916908373ffffffffffffffffffffffffffffffffffffffff1602179055506040518060400160405280600381526020017f3030300000000000000000000000000000000000000000000000000000000000815250600190805190602001906200014192919062000305565b50620002206040518060400160405280601b81526020017f4368616e67696e67206772656574696e672066726f6d20272573270000000000815250600180546200018b9062000483565b80601f0160208091040260200160405190810160405280929190818152602001828054620001b99062000483565b80156200020a5780601f10620001de576101008083540402835291602001916200020a565b820191906000526020600020905b815481529060010190602001808311620001ec57829003601f168201915b50505050506200023660201b620009511760201c565b60006007819055506000600881905550620004f9565b620002d882826040516024016200024f929190620003f6565b6040516020818303038152906040527f4b5c4277000000000000000000000000000000000000000000000000000000007bffffffffffffffffffffffffffffffffffffffffffffffffffffffff19166020820180517bffffffffffffffffffffffffffffffffffffffffffffffffffffffff8381831617835250505050620002dc60201b60201c565b5050565b60008151905060006a636f6e736f6c652e6c6f679050602083016000808483855afa5050505050565b828054620003139062000483565b90600052602060002090601f01602090048101928262000337576000855562000383565b82601f106200035257805160ff191683800117855562000383565b8280016001018555821562000383579182015b828111156200038257825182559160200191906001019062000365565b5b50905062000392919062000396565b5090565b5b80821115620003b157600081600090555060010162000397565b5090565b6000620003c28262000431565b620003ce81856200043c565b9350620003e08185602086016200044d565b620003eb81620004e8565b840191505092915050565b60006040820190508181036000830152620004128185620003b5565b90508181036020830152620004288184620003b5565b90509392505050565b600081519050919050565b600082825260208201905092915050565b60005b838110156200046d57808201518184015260208101905062000450565b838111156200047d576000848401525b50505050565b600060028204905060018216806200049c57607f821691505b60208210811415620004b357620004b2620004b9565b5b50919050565b7f4e487b7100000000000000000000000000000000000000000000000000000000600052602260045260246000fd5b6000601f19601f8301169050919050565b61134880620005096000396000f3fe608060405234801561001057600080fd5b50600436106100a95760003560e01c8063378dc3dc11610071578063378dc3dc1461014257806370a0823114610160578063a413686214610190578063a9059cbb146101ac578063bad3d107146101c8578063cfae3217146101e4576100a9565b8063050d4f78146100ae57806306fdde03146100cc57806318160ddd146100ea5780631aa3a008146101085780631b25705414610112575b600080fd5b6100b6610202565b6040516100c39190610e62565b60405180910390f35b6100d4610228565b6040516100e19190610ea6565b60405180910390f35b6100f26102b6565b6040516100ff9190610fbd565b60405180910390f35b6101106102bc565b005b61012c60048036038101906101279190610ceb565b610304565b6040516101399190610fbd565b60405180910390f35b61014a6104d4565b6040516101579190610fbd565b60405180910390f35b61017a60048036038101906101759190610c86565b6104da565b6040516101879190610fbd565b60405180910390f35b6101aa60048036038101906101a59190610ceb565b610562565b005b6101c660048036038101906101c19190610caf565b610661565b005b6101e260048036038101906101dd9190610d2c565b61080b565b005b6101ec6108bf565b6040516101f99190610ea6565b60405180910390f35b600560009054906101000a900473ffffffffffffffffffffffffffffffffffffffff1681565b6000805461023590611197565b80601f016020809104026020016040519081016040528092919081815260200182805461026190611197565b80156102ae5780601f10610283576101008083540402835291602001916102ae565b820191906000526020600020905b81548152906001019060200180831161029157829003601f168201915b505050505081565b60025481565b600354600460003373ffffffffffffffffffffffffffffffffffffffff1673ffffffffffffffffffffffffffffffffffffffff16815260200190815260200160002081905550565b6000600660405180608001604052803373ffffffffffffffffffffffffffffffffffffffff168152602001600854815260200184815260200160006004811115610377577f4e487b7100000000000000000000000000000000000000000000000000000000600052602160045260246000fd5b815250908060018154018082558091505060019003906000526020600020906004020160009091909190915060008201518160000160006101000a81548173ffffffffffffffffffffffffffffffffffffffff021916908373ffffffffffffffffffffffffffffffffffffffff160217905550602082015181600101556040820151816002019080519060200190610410929190610b51565b5060608201518160030160006101000a81548160ff02191690836004811115610462577f4e487b7100000000000000000000000000000000000000000000000000000000600052602160045260246000fd5b021790555050507f85808ba6b61b3e11f7dba026341d5ff5603fab7df37b176ebfa0f296264cd12e6008548360405161049c929190610fd8565b60405180910390a16001600860008282546104b7919061108f565b9250508190555060016008546104cd91906110e5565b9050919050565b60035481565b600061051b6040518060400160405280601381526020017f4765742062616c616e6365206f66202725732700000000000000000000000000815250836109ed565b600460008373ffffffffffffffffffffffffffffffffffffffff1673ffffffffffffffffffffffffffffffffffffffff168152602001908152602001600020549050919050565b61060f6040518060600160405280602381526020016112f0602391396001805461058b90611197565b80601f01602080910402602001604051908101604052809291908181526020018280546105b790611197565b80156106045780601f106105d957610100808354040283529160200191610604565b820191906000526020600020905b8154815290600101906020018083116105e757829003601f168201915b505050505083610a89565b8060019080519060200190610625929190610b51565b507f57a57a410b51ac4751ea694c91cdcca4d61b6d997d46fb997eddc7d51334174260016040516106569190610f7b565b60405180910390a150565b80600460003373ffffffffffffffffffffffffffffffffffffffff1673ffffffffffffffffffffffffffffffffffffffff1681526020019081526020016000205410156106e3576040517f08c379a00000000000000000000000000000000000000000000000000000000081526004016106da90610f9d565b60405180910390fd5b80600460003373ffffffffffffffffffffffffffffffffffffffff1673ffffffffffffffffffffffffffffffffffffffff168152602001908152602001600020600082825461073291906110e5565b9250508190555080600460008473ffffffffffffffffffffffffffffffffffffffff1673ffffffffffffffffffffffffffffffffffffffff1681526020019081526020016000206000828254610788919061108f565b925050819055507f364bc05a26076a4b591d11ae973bbc492605b49c871783d787f183e58f3fe08e33600460003373ffffffffffffffffffffffffffffffffffffffff1673ffffffffffffffffffffffffffffffffffffffff168152602001908152602001600020546040516107ff929190610e7d565b60405180910390a15050565b600560009054906101000a900473ffffffffffffffffffffffffffffffffffffffff1673ffffffffffffffffffffffffffffffffffffffff163373ffffffffffffffffffffffffffffffffffffffff161461086557600080fd5b81600460008373ffffffffffffffffffffffffffffffffffffffff1673ffffffffffffffffffffffffffffffffffffffff16815260200190815260200160002060008282546108b4919061108f565b925050819055505050565b6060600180546108ce90611197565b80601f01602080910402602001604051908101604052809291908181526020018280546108fa90611197565b80156109475780601f1061091c57610100808354040283529160200191610947565b820191906000526020600020905b81548152906001019060200180831161092a57829003601f168201915b5050505050905090565b6109e98282604051602401610967929190610ef8565b6040516020818303038152906040527f4b5c4277000000000000000000000000000000000000000000000000000000007bffffffffffffffffffffffffffffffffffffffffffffffffffffffff19166020820180517bffffffffffffffffffffffffffffffffffffffffffffffffffffffff8381831617835250505050610b28565b5050565b610a858282604051602401610a03929190610ec8565b6040516020818303038152906040527f319af333000000000000000000000000000000000000000000000000000000007bffffffffffffffffffffffffffffffffffffffffffffffffffffffff19166020820180517bffffffffffffffffffffffffffffffffffffffffffffffffffffffff8381831617835250505050610b28565b5050565b610b23838383604051602401610aa193929190610f2f565b6040516020818303038152906040527f2ced7cef000000000000000000000000000000000000000000000000000000007bffffffffffffffffffffffffffffffffffffffffffffffffffffffff19166020820180517bffffffffffffffffffffffffffffffffffffffffffffffffffffffff8381831617835250505050610b28565b505050565b60008151905060006a636f6e736f6c652e6c6f679050602083016000808483855afa5050505050565b828054610b5d90611197565b90600052602060002090601f016020900481019282610b7f5760008555610bc6565b82601f10610b9857805160ff1916838001178555610bc6565b82800160010185558215610bc6579182015b82811115610bc5578251825591602001919060010190610baa565b5b509050610bd39190610bd7565b5090565b5b80821115610bf0576000816000905550600101610bd8565b5090565b6000610c07610c028461102d565b611008565b905082815260208101848484011115610c1f57600080fd5b610c2a848285611155565b509392505050565b600081359050610c41816112c1565b92915050565b600082601f830112610c5857600080fd5b8135610c68848260208601610bf4565b91505092915050565b600081359050610c80816112d8565b92915050565b600060208284031215610c9857600080fd5b6000610ca684828501610c32565b91505092915050565b60008060408385031215610cc257600080fd5b6000610cd085828601610c32565b9250506020610ce185828601610c71565b9150509250929050565b600060208284031215610cfd57600080fd5b600082013567ffffffffffffffff811115610d1757600080fd5b610d2384828501610c47565b91505092915050565b60008060408385031215610d3f57600080fd5b6000610d4d85828601610c71565b9250506020610d5e85828601610c32565b9150509250929050565b610d7181611119565b82525050565b6000610d8282611073565b610d8c818561107e565b9350610d9c818560208601611164565b610da581611287565b840191505092915050565b60008154610dbd81611197565b610dc7818661107e565b94506001821660008114610de25760018114610df457610e27565b60ff1983168652602086019350610e27565b610dfd8561105e565b60005b83811015610e1f57815481890152600182019150602081019050610e00565b808801955050505b50505092915050565b6000610e3d60118361107e565b9150610e4882611298565b602082019050919050565b610e5c8161114b565b82525050565b6000602082019050610e776000830184610d68565b92915050565b6000604082019050610e926000830185610d68565b610e9f6020830184610e53565b9392505050565b60006020820190508181036000830152610ec08184610d77565b905092915050565b60006040820190508181036000830152610ee28185610d77565b9050610ef16020830184610d68565b9392505050565b60006040820190508181036000830152610f128185610d77565b90508181036020830152610f268184610d77565b90509392505050565b60006060820190508181036000830152610f498186610d77565b90508181036020830152610f5d8185610d77565b90508181036040830152610f718184610d77565b9050949350505050565b60006020820190508181036000830152610f958184610db0565b905092915050565b60006020820190508181036000830152610fb681610e30565b9050919050565b6000602082019050610fd26000830184610e53565b92915050565b6000604082019050610fed6000830185610e53565b8181036020830152610fff8184610d77565b90509392505050565b6000611012611023565b905061101e82826111c9565b919050565b6000604051905090565b600067ffffffffffffffff82111561104857611047611258565b5b61105182611287565b9050602081019050919050565b60008190508160005260206000209050919050565b600081519050919050565b600082825260208201905092915050565b600061109a8261114b565b91506110a58361114b565b9250827fffffffffffffffffffffffffffffffffffffffffffffffffffffffffffffffff038211156110da576110d96111fa565b5b828201905092915050565b60006110f08261114b565b91506110fb8361114b565b92508282101561110e5761110d6111fa565b5b828203905092915050565b60006111248261112b565b9050919050565b600073ffffffffffffffffffffffffffffffffffffffff82169050919050565b6000819050919050565b82818337600083830152505050565b60005b83811015611182578082015181840152602081019050611167565b83811115611191576000848401525b50505050565b600060028204905060018216806111af57607f821691505b602082108114156111c3576111c2611229565b5b50919050565b6111d282611287565b810181811067ffffffffffffffff821117156111f1576111f0611258565b5b80604052505050565b7f4e487b7100000000000000000000000000000000000000000000000000000000600052601160045260246000fd5b7f4e487b7100000000000000000000000000000000000000000000000000000000600052602260045260246000fd5b7f4e487b7100000000000000000000000000000000000000000000000000000000600052604160045260246000fd5b6000601f19601f8301169050919050565b7f4e6f7420656e6f75676820746f6b656e73000000000000000000000000000000600082015250565b6112ca81611119565b81146112d557600080fd5b50565b6112e18161114b565b81146112ec57600080fd5b5056fe4368616e67696e67206772656574696e672066726f6d202725732720746f2027257327a2646970667358221220d8820ee3f0338d67495eb23b5abf13acf1c3ac04fa26bc338cac810c493f14e664736f6c63430008040033",
  "linkReferences": {},
  "deployedLinkReferences": {}
}